S01100002E2E2F50726F746575732E73313966
S32D0000C000000000205DC2000011C3000017C300001DC3000023C3000029C3000000000000000000000000000073
S32D0000C028000000002FC3000035C30000000000003BC3000041C300008DD2000099D20000A5D20000B1D200003A
S32D0000C050BDD20000C9D20000D5D20000E1D20000EDD20000F9D2000005D3000011D300001DD3000029D300000C
S32D0000C07835D3000041D300004DD3000059D3000065D3000071D300007DD3000089D3000095D30000A1D300002E
S32D0000C0A0ADD30000B9D30000C5D30000D1D30000DDD30000E9D30000F5D3000001D400000DD4000019D4000053
S32D0000C0C825D4000031D400003DD4000049D4000055D4000061D400006DD4000079D4000085D4000091D4000074
S32D0000C0F09DD400003D240100A9D40000B5D40000C1D40000CDD40000D9D40000E5D40000F1D40000FDD4000017
S32D0000C11809D5000015D5000021D500002DD5000039D5000045D5000051D500005DD5000069D5000075D5000031
S32D0000C14081D500008DD5000099D50000A5D50000C1FA0000B1D50000BDD50000C9D50000D5D50000E1D5000060
S32D0000C168EDD50000F9D5000005D6000011D600001DD6000029D6000035D6000041D600004DD6000059D60000F1
S32D0000C19065D6000071D600007DD6000001F70000C9F5000065F6000011D00000A1F7000089D6000095D6000058
S32D0000C1B8A1D600004823060000000020D0170000482306000000FF1F00000000D0170020081B00000000FF1F93
S32D0000C1E00000000080B489B000AFF860B9607A60BB68FB61FB68BB6100237B617A697B689A420BD2BA69131DFB
S32D0000C208BB61FB69191DF96112681A607B6904337B61EFE700BF2437BD4680BC704780B485B000AF786039609E
S32D0000C2307B68FB600023BB60BA683B689A4208D2FB681A1DFA6000221A60BB680433BB60F2E700BF1437BD46FE
S32D0000C25880BC704780B586B000AF72B6234B4CF220521A80214B4DF628121A80204B4FF4E9721A801F4B7B615F
S32D0000C2807B691F4A934214D27B691A1D7A611B683B617B691A1D7A611B68FB607B691A1D7A611B68BB60BA68E9
S32D0000C2A8F9683869FFF79AFFE6E77B69134A93420ED27B691A1D7A611B68FB607B691A1D7A611B68BB60B9688B
S32D0000C2D0F868FFF7A8FFECE70B4B7B600B4A7B681A603BF0BFFA62B600F05AFF00F0EEFDFEE700BF0E20054056
S32D0000C2F800200540BCC10000D4C10000E4C1000008ED00E000C0000080B400AFFEE780B400AFFEE780B400AFF4
S32D0000C320FEE780B400AFFEE780B400AFFEE780B400AFFEE780B400AFFEE780B400AFFEE780B400AFFEE780B426
S32D0000C34800AFFEE7FFFFFFFFFFFFFFFFFFFFFFFFFFFFFFFFFFFFFFFFFFFFFFFFFFFFFFFFFFFFFFFFFFFFFFFF57
S32D0000C370FFFFFFFFFFFFFFFFFFFFFFFFFFFFFFFFFFFFFFFFFFFFFFFFFFFFFFFFFFFFFFFFFFFFFFFFFFFFFFFFC7
S32D0000C398FFFFFFFFFFFFFFFFFFFFFFFFFFFFFFFFFFFFFFFFFFFFFFFFFFFFFFFFFFFFFFFFFFFFFFFFFFFFFFFF9F
S32D0000C3C0FFFFFFFFFFFFFFFFFFFFFFFFFFFFFFFFFFFFFFFFFFFFFFFFFFFFFFFFFFFFFFFFFFFFFFFFFFFFFFFF77
S32D0000C3E8FFFFFFFFFFFFFFFFFFFFFFFFFFFFFFFFFFFFFFFFFFFFFFFFFFFFFFFFFFFFFFFFFFFFFFFFFEFFFFFF50
S32D0000C44010B5054C237833B9044B13B10448AFF300800123237010BDD017002000000000B810060008B5034B4C
S32D0000C4681BB103490348AFF3008008BD00000000D4170020B810060080B483B000AF78607B6823F000431846FE
S32D0000C4900C37BD4680BC704780B582B000AF7860786836F087FC034618460837BD4680BD80B582B000AF7860BA
S32D0000C4B8786836F097FD034618460837BD4680BD80B500AF154804F01AF9002300221449124804F03CFB002304
S32D0000C4E0012212490F4804F036FB0023022210490C4804F030FB002303220E49094804F02AFB002304220C497A
S32D0000C508064804F024FB0B4805F03AFE01460D230322024804F037FB00BF80BD001B00204C8105005C8105002D
S32D0000C5306C8105007C8105008C8105004C1B002080B582B000AF786039600D237A680B490B4804F000FB0D23F1
S32D0000C5587A683968084804F016FB084805F010FE01460D230322044804F00DFB00BF0837BD4680BD988105004A
S32D0000C580001B00204C1B002080B582B000AF7860104B1B681A2B13DC0E4B1A6800230E490E4804F0D8FA0B4B04
S32D0000C5A81A68002379680B4804F0D1FA074B1B680133064A136005E0044B05221A607868FFF7DEFF00BF08377B
S32D0000C5D0BD4680BD04000020A8810500001B002080B582B000AF78604FF4FA71104803F031FC40F6FC010E48D3
S32D0000C5F803F049FC0D490C4803F062FC7B6801221A704FF4FA710A4803F020FC40F6FC01074803F038FC07494A
S32D0000C620054803F051FC7B6818460837BD4680BD081800200000B4421418002000001643B0B584B000AFF86024
S32D0000C648B9607A60786838F043FC0446786838F03FFC0546786838F03BFC03462A462146F86800F0E9F8B86802
S32D0000C67002F048FFF86800F0D1F800BF1037BD46B0BD80B584B000AFF860B9607A603B603A68B968F86800F0C3
S32D0000C6980BF8786802F032FFF86800F0BBF800BF1037BD4680BD0000B0B588B000AFF860B9607A60786837F087
S32D0000C6C09FFF04460D46B86837F0ACFF4AA3D3E9002337F0FFFF02460B46104619464FF000024D4B38F020F9C6
S32D0000C6E802460B4644A1D1E9000137F037FE02460B461046194636F009FB02460B462046294637F0E3FF024658
S32D0000C7100B461046194638F0D5FA0346FB61786837F06EFF04460D46B86837F07BFF32A3D3E9002337F0CEFFDF
S32D0000C73802460B46104619464FF00002344B38F0EFF802460B462EA1D1E9000137F006FE02460B46104619461A
S32D0000C76036F0D8FA02460B462046294637F0B2FF02460B461046194638F0A4FA0346BB61786837F03DFF044667
S32D0000C7880D46B86837F04AFF19A3D3E9002337F09DFF02460B46104619464FF000021C4B38F0BEF802460B46D5
S32D0000C7B017A1D1E9000137F0D5FD02460B461046194636F0A7FA02460B462046294637F081FF02460B461046D6
S32D0000C7D8194638F073FA03467B617B69BA69F969F86800F029F800BF2037BD46B0BD00BF7A008BFCFA21094096
S32D0000C8005C40683D7CD9124066801E7DA6F104405100B2FD51C1E03F0080664080B582B000AF78604FF000033F
S32D0000C8284FF000024FF00001786800F005F800BF0837BD4680BD000080B584B000AFF860B9607A603B604FF019
S32D0000C8500001B86838F032FD0346002B08D0B968514800F08DFFB9680220FFF769FE25E0B86837F0D7FE4AA312
S32D0000C878D3E9002337F02AFF02460B461046194638F01CFA03461946454800F075FFB86837F0C4FE40A3D3E996
S32D0000C8A0002337F017FF02460B461046194638F009FA034619460220FFF742FE4FF00001786838F0FBFC034609
S32D0000C8C8002B08D07968374800F056FF79680020FFF732FE25E0786837F0A0FE2EA3D3E9002337F0F3FE0246B9
S32D0000C8F00B461046194638F0E5F9034619462B4800F03EFF786837F08DFE25A3D3E9002337F0E0FE02460B46EF
S32D0000C9181046194638F0D2F9034619460020FFF70BFE4FF00001386838F0C4FC0346002B08D039681C4800F079
S32D0000C9401FFF39680120FFF7FBFD25E0386837F069FE13A3D3E9002337F0BCFE02460B461046194638F0AEF935
S32D0000C96803461946104800F007FF386837F056FE09A3D3E9002337F0A9FE02460B461046194638F09BF90346E4
S32D0000C99019460120FFF7D4FD00BF1037BD4680BDCDCCCCCCCCCCEC3FF0170020F81700200018002080B582B003
S32D0000C9B800AF3871381D2D234FF07E520349FFF75CFE00BF0837BD4680BD00BF00808E4380B586B000AF387198
S32D0000C9E00F48FFF7D1FD381D2D230E4A0E49FFF748FE3B1D6FF02C020C491846FFF720FE0B4B7B610B4B3B61AE
S32D0000CA080B4BFB60FB683A697969387900F014F800BF1837BD4680BDC4810500310CC33F000016430000203F2B
S32D0000CA30000048413333CB41000070410000000090B58FB000AF3873B9607A603B602D23FB629B4BBB6207F118
S32D0000CA58100207F114031146184600F061F97862786A37F0DBFD4FF00002944B37F076FC02460B464FF0000044
S32D0000CA80914937F06FFC02460B461046194638F019F903467B627B691946B86838F066F903463B623B6919469B
S32D0000CAA8786838F05FF90346FB61396A386A38F063FA03461C46F969F86938F05DFA03461946204638F050F925
S32D0000CAD003461846FFF7ECFCB861396AF86938F003FB03461846FFF7D7FC0346184637F099FD4FF00002754B9B
S32D0000CAF837F0ECFD02460B46104619466AA3D3E9002337F00DFF02460B461046194638F0D5F803467B63796B45
S32D0000CB206B4838F023F903467B634FF00001386A38F0C4FB0346002B05D06649786B38F017F903467B630023A3
S32D0000CB4800226349634804F002F804230022396A604804F018F8002301225F495D4803F0F6FF04230122F96999
S32D0000CB705A4804F00CF8002302225A49574803F0EAFF0B230222796B544804F000F8002303225549514803F068
S32D0000CB98DEFF09230322796A4E4803F0F4FF0023042250494B4803F0D2FF796B786A38F0DBF8034619460B2312
S32D0000CBC00422464803F0E3FF07F1100207F114031146184600F0A8F87862786A37F022FD4FF00002374B37F074
S32D0000CBE8BDFB02460B464FF00000354937F0B6FB02460B461046194638F060F803467B623968786A38F0AEF8F4
S32D0000CC1003461846FFF734FC38633549386B38F061FB0346002B05D03149386B38F09EF803463B630023052294
S32D0000CC382B49284803F08BFF09230522796A254803F0A1FF002306222849224803F07FFF0A230622396B1F4840
S32D0000CC6003F095FF14A1D1E9000102F06BFC07F1100207F114031146184600F055F87862786A37F0CFFC4FF05E
S32D0000CC8800020E4B37F06AFB02460B464FF000000B4937F063FB02460B461046194638F00DF803467B62D2E68D
S32D0000CCB07A008BFCFA2109409A9999999999B93FCDCCCC3D0080564000807640008066400000B44200003443E1
S32D0000CCD8EC810500001B0020F4810500FC81050008820500148205000000B4432082050080B582B000AF3A4627
S32D0000CD003B1D1946064803F017FE034683F00103DBB2002B00D0F2E700BF0837BD4680BD001B0020000000005E
S32D0000CD2880B58AB000AF786039604FF00000624902F004FC614806F0E7F938615F4806F0C7F902467B681A6058
S32D0000CD505C4806F0CFF902463B681A604FF000037B624FF000033B624FF00003FB610A23FB600023BB617B68A8
S32D0000CD781B685349184638F0BBFA0346002B6BD03B681B684E49184638F0B2FA0346002B62D04B49386938F092
S32D0000CDA0ABFA0346002B5BD000237B617B69092B56DC3FA1D1E9000102F0C4FB414806F0A7F938613F4806F057
S32D0000CDC887F902467B681A603C4806F08FF902463B681A607B681B68184637F01FFC34A3D3E9002337F002FFCD
S32D0000CDF00346002B30D03B681B68184637F012FC2DA3D3E9002337F0F5FE0346002B23D0386937F007FC28A322
S32D0000CE18D3E9002337F0EAFE0346002B18D07B681B681946786A37F09FFF03467B623B681B681946386A37F0C2
S32D0000CE4097FF03463B623969F86937F091FF0346FB61BB690133BB617B6901337B61A5E7B86938F039F8034632
S32D0000CE681946786A38F03CF903461A467B681A60B86938F02DF803461946386A38F030F903461A463B681A6029
S32D0000CE90B86938F021F803461946F86938F024F903463B613B6918462837BD4680BD00BF7B14AE47E17A843FDD
S32D0000CEB89A9999999999B9BF0000E03F681B00200000C0BF80B582B000AF3B1D1846FFF783FB0B4805F0B4FEC2
S32D0000CEE0FFF7F2FA0948FFF74FFBFFF705FF00F00FF83879FFF770FD3879FFF75BFD002318460837BD4680BDAD
S32D0000CF08681B0020A883050080B500AF144803F0F6FB144806F0DCF8014600230022104803F031FE0F4806F08B
S32D0000CF30E1F80146002301220B4803F028FE0B4806F0E6F8014600230222074803F01FFE03A1D1E9000102F09C
S32D0000CF58F5FADEE7AFF300809A9999999999B93F001B0020681B002080B582B000AF786039607B68012B27D1DA
S32D0000CF803B684FF6FF72934222D1134806F014FC124A1349104806F00FFA124A0021124800F086FB0F4A01212F
S32D0000CFA8104800F081FB0D4A02210F4800F07CFB00210E4802F02EFF01210D4802F02AFF00210C4802F034FCA0
S32D0000CFD000BF0837BD4680BDEC17002000000020D93701000000C040F0170020F81700200018002008180020D3
S32D0000CFF8141800202018002080B500AF4FF6FF710120FFF7B1FF80BD80B500AF0F4BD3F8A03003F48053002BFC
S32D0000D02014BF01230023DBB2002B10D0094BD3F8A030084A23F48053C2F8A030064806F049F9064B1B68054AD2
S32D0000D04823F40053136000BF80BD00BF00C00440881B0020C0F00F4080B400AF124B4FF480725A63114B5B690A
S32D0000D070104A43F4005353610E4B1B680D4A43F4005313600A4B0C4A1A630C4BD3F888310A4A43F08063C2F8A3
S32D0000D0988831084B9B68074A43F08063936000BFBD4680BC704700BF00C00440C0F00F4003010A0000E100E0BB
S32D0000D0C080B400AF334B00225A70324B98221A70304B9B79DBB203F01003002B14BF01230023DBB2002B00D045
S32D0000D0E8F2E72A4B9B79DBB29B08DBB203F00303022B14BF01230023DBB2002B00D0F0E7224B18221A71214BBE
S32D0000D11000225A71204B03F580531A461F4B53641C4B54225A711B4B9B79DBB203F02003002B0CBF012300234B
S32D0000D138DBB2002B00D0F2E7144B9B79DBB203F04003002B0CBF01230023DBB2002B00D0F2E70E4B1B78DBB21B
S32D0000D1600C4A03F03F03DBB213700A4B9B79DBB29B08DBB203F00303032B14BF01230023DBB2002B00D0F0E740
S32D0000D18800231846BD4680BC704700BF00400640007004400000130180B500AF314B03F580539B6B2F4A43F414
S32D0000D1B0785302F580529363FFF752FFFFF780FF2B4B58221A602A4B1B684FF47A7202FB03F3284A1360274B30
S32D0000D1D81B681A46234B03F580535B6C1B0E03F00F030133B2FBF3F31A46214B1A601D4B03F58053DB6B1B4A2D
S32D0000D20043F0225302F58052D363184B03F580531B6B164A43F0006302F580521363174B4FF480721A616420DA
S32D0000D22802F042F8134B5B69124A23F010035361104B00221A600F4B10225A610E4803F0EBF802F0EDFB02F01E
S32D0000D2504BFC0C4802F08EF80B4806F08FF84FF4FA6002F039F900BF80BD00BF007004404C1A0020481A002095
S32D0000D278501A002000D00340001B0020441A0020F81B002080B500AFFFF759F800BF80BD80B500AFFFF753F8B3
S32D0000D2A000BF80BD80B500AFFFF74DF800BF80BD80B500AFFFF747F800BF80BD80B500AFFFF741F800BF80BD25
S32D0000D2C880B500AFFFF73BF800BF80BD80B500AFFFF735F800BF80BD80B500AFFFF72FF800BF80BD80B500AF4B
S32D0000D2F0FFF729F800BF80BD80B500AFFFF723F800BF80BD80B500AFFFF71DF800BF80BD80B500AFFFF717F838
S32D0000D31800BF80BD80B500AFFFF711F800BF80BD80B500AFFFF70BF800BF80BD80B500AFFFF705F800BF80BD60
S32D0000D34080B500AFFEF7FFFF00BF80BD80B500AFFEF7F9FF00BF80BD80B500AFFEF7F3FF00BF80BD80B500AF74
S32D0000D368FEF7EDFF00BF80BD80B500AFFEF7E7FF00BF80BD80B500AFFEF7E1FF00BF80BD80B500AFFEF7DBFF97
S32D0000D39000BF80BD80B500AFFEF7D5FF00BF80BD80B500AFFEF7CFFF00BF80BD80B500AFFEF7C9FF00BF80BD8A
S32D0000D3B880B500AFFEF7C3FF00BF80BD80B500AFFEF7BDFF00BF80BD80B500AFFEF7B7FF00BF80BD80B500AFB0
S32D0000D3E0FEF7B1FF00BF80BD80B500AFFEF7ABFF00BF80BD80B500AFFEF7A5FF00BF80BD80B500AFFEF79FFF0F
S32D0000D40800BF80BD80B500AFFEF799FF00BF80BD80B500AFFEF793FF00BF80BD80B500AFFEF78DFF00BF80BDC5
S32D0000D43080B500AFFEF787FF00BF80BD80B500AFFEF781FF00BF80BD80B500AFFEF77BFF00BF80BD80B500AFEB
S32D0000D458FEF775FF00BF80BD80B500AFFEF76FFF00BF80BD80B500AFFEF769FF00BF80BD80B500AFFEF763FF86
S32D0000D48000BF80BD80B500AFFEF75DFF00BF80BD80B500AFFEF757FF00BF80BD80B500AFFEF751FF00BF80BD01
S32D0000D4A880B500AFFEF74BFF00BF80BD80B500AFFEF745FF00BF80BD80B500AFFEF73FFF00BF80BD80B500AF27
S32D0000D4D0FEF739FF00BF80BD80B500AFFEF733FF00BF80BD80B500AFFEF72DFF00BF80BD80B500AFFEF727FFFE
S32D0000D4F800BF80BD80B500AFFEF721FF00BF80BD80B500AFFEF71BFF00BF80BD80B500AFFEF715FF00BF80BD3D
S32D0000D52080B500AFFEF70FFF00BF80BD80B500AFFEF709FF00BF80BD80B500AFFEF703FF00BF80BD80B500AF62
S32D0000D548FEF7FDFE00BF80BD80B500AFFEF7F7FE00BF80BD80B500AFFEF7F1FE00BF80BD80B500AFFEF7EBFE79
S32D0000D57000BF80BD80B500AFFEF7E5FE00BF80BD80B500AFFEF7DFFE00BF80BD80B500AFFEF7D9FE00BF80BD7B
S32D0000D59880B500AFFEF7D3FE00BF80BD80B500AFFEF7CDFE00BF80BD80B500AFFEF7C7FE00BF80BD80B500AFA1
S32D0000D5C0FEF7C1FE00BF80BD80B500AFFEF7BBFE00BF80BD80B500AFFEF7B5FE00BF80BD80B500AFFEF7AFFEF1
S32D0000D5E800BF80BD80B500AFFEF7A9FE00BF80BD80B500AFFEF7A3FE00BF80BD80B500AFFEF79DFE00BF80BDB7
S32D0000D61080B500AFFEF797FE00BF80BD80B500AFFEF791FE00BF80BD80B500AFFEF78BFE00BF80BD80B500AFDC
S32D0000D638FEF785FE00BF80BD80B500AFFEF77FFE00BF80BD80B500AFFEF779FE00BF80BD80B500AFFEF773FE68
S32D0000D66000BF80BD80B500AFFEF76DFE00BF80BD80B500AFFEF767FE00BF80BD80B500AFFEF761FE00BF80BDF2
S32D0000D68880B500AFFEF75BFE00BF80BD80B500AFFEF755FE00BF80BD80B500AFFEF74FFE00BF80BD00000000FC
S32D0000D6B080B584B000AFF8600B467A60FB72FB68FA7A1A71FB6800225A711749786837F013FE0346002B02D0D4
S32D0000D6D8134B7B600AE04FF07E51786837F0F4FD0346002B02D04FF07E537B60786836F095FF09A3D3E90023A5
S32D0000D70036F0E8FF02460B461046194637F0DAFA0246FB681A60FB6818461037BD4680BDABAAAAAAAAAA2040DB
S32D0000D7280000404180B584B000AF786039603B687F2B02DD7F23FB7308E03B6813F1800F02DA8023FB7301E0A1
S32D0000D7503B68FB737B685B79FA7B9A4209D07B68FA7B5A717B681979FA7B1E23034801F03BFE00BF1037BD46ED
S32D0000D77880BD00BF441A0020B0B584B000AF786039603749386837F095FD0346002B02D0334B3B6008E03349B4
S32D0000D7A0386837F0A9FD0346002B01D02F4B3B60386836F037FF04460D467B681B68184636F030FF4FF00002A1
S32D0000D7C8294B37F0ADF802460B462046294636F07DFF02460B461046194637F06FFA03463B604FF00001386841
S32D0000D7F037F078FD0346002B10D0386836F012FF17A3D3E9002336F065FF02460B461046194637F00FFA03465A
S32D0000D818FB6018E0386836F001FF4FF00002134B36F054FF02460B46104619464FF000020D4B37F075F80246EE
S32D0000D8400B461046194637F0F5F90346FB60F9687868FFF76BFF00BF1037BD46B0BD00BF52B81E85EB51F43F09
S32D0000D8680000C8C20000C842000059400000604080B483B000AF03460A46FB711346BB71BB79002B03D1134B94
S32D0000D89000221A7002E0114B01221A703823FB710E4B1A78FB791343FB710D4B9B78DBB20B4A43F01003DBB2CB
S32D0000D8B89370094B9B78DBB2074A43F02003DBB29370054AFB79137100BF0C37BD4680BC704700BF21180020BD
S32D0000D8E00060064080B483B000AF01237B607B68312B04DC00BF7B6801337B60F7E700BF0C37BD4680BC7047B9
S32D0000D90880B582B000AF03460A46FB711346BB71134B1B7800211846FFF7AAFF00F024F8104AFB79137100F0F4
S32D0000D9301FF80E4ABB79137100F01AF80B4B9B78DBB20A4A23F02003DBB29370074B9B78DBB2064A23F0100328
S32D0000D958DBB29370FFF7C2FF00BF0837BD4680BD221800200060064080B483B000AF174B1B78002B24D10023CE
S32D0000D9807B60154BDB78DBB203F00203002B0CBF01230023DBB2002B0DD07B6842F21072934203DD0B4B0122CD
S32D0000D9A81A7004E07B6801337B6000BFE5E7084BDB78DBB2064A43F00203DBB2D37000E000BF0C37BD4680BCBA
S32D0000D9D0704700BF231800200060064080B582B000AF0346FB71FB79184600F05FF800BF0837BD4680BD80B55B
S32D0000D9F882B000AF03460A46FB711346BB7100F035F8FB795B00DBB21846FFF7E3FFBB791846FFF7DFFF00F091
S32D0000DA2037F800BF0837BD4680BD80B500AFFF2000F03CF80346184680BD80B584B000AF0346FB7100F016F895
S32D0000DA48FB795B005BB243F001035BB2DBB21846FFF7C0FFFFF7E5FF0346FB7300F014F8FB7B18461037BD4645
S32D0000DA7080BD000080B400AF044B9B68034A43F48013936000BFBD4680BC704740F00F4080B400AF044B5B68E3
S32D0000DA98034A43F48013536000BFBD4680BC704740F00F4080B485B000AF0346FB710023BB73164BDB6A03F0AB
S32D0000DAC00043012B0CBF01230023DBB2002B03D0FB7B0133FB73F0E70E4BDB6A0D4A43F00043D3620B4AFB79D4
S32D0000DAE853630A4BDB6A03F40033002B0CBF01230023DBB2002B00D0F3E7044B9B6BBB73BB7B18461437BD4692
S32D0000DB1080BC704700C00A4080B582B000AF204B03F580531B6B1E4A43F4805302F5805213631C4B4FF48072CB
S32D0000DB381A651B4B5B691A4A43F480135361FFF7A3FF164B4FF400725A65144B4FF400729A65124B4FF40072A2
S32D0000DB60DA65124B124A1A60104B124ADA6000237B607B68092B06DCFF20FFF72FFF7B6801337B60F5E704A187
S32D0000DB88D1E9000101F0DAFC00BF0837BD4680BD9A9999999999B93F0070044000A0044040F00F4000C00A40FF
S32D0000DBB0000C00800500003E90B486B000AFF860B9607A60FB68534A93420AD1524B03F580535B6B504A43F455
S32D0000DBD8806302F58052536345E0FB684D4A93420AD14B4B03F580535B6B494A43F4006302F58052536336E005
S32D0000DC00FB68474A93420AD1434B03F580535B6B414A43F4805302F58052536327E0FB68404A93420AD13C4BF4
S32D0000DC2803F580535B6B3A4A43F4005302F58052536318E0FB683A4A93420AD1344B03F580539B6A324A43F41F
S32D0000DC50806302F58052936209E02F4B03F580539B6A2D4A43F4006302F580529362FB68DB78DBB223F00C039E
S32D0000DC78DAB2FB68DA70FB6800229A70BB684FF47A7203FB02F27B681B0192FBF3F39CB2FB681B78DBB223F01C
S32D0000DCA01F03FB75230A9BB2DBB203F01F03DAB2FB7D1343DAB2FB681A70E2B2FB685A70BB684FF4FA4203FB74
S32D0000DCC802F27B681B0192FBF3F39AB263019BB2D31A9CB2FB689B7ADBB223F01F03FB75E3B203F01F03DAB2B0
S32D0000DCF0FB7D1343DAB2FB689A72FB68DB78DBB243F00C03DAB2FB68DA7000BF1837BD4690BC704700A0064085
S32D0000DD180070044000B0064000C0064000D0064000A00E4080B483B000AF78607B681B79DBB203F02003002BF6
S32D0000DD400CBF01230023DBB2002B00D0F2E77B68DB79DBB218460C37BD4680BC704780B483B000AF78600B46A8
S32D0000DD68FB707B681B79DBB25BB2DB43DBB2DB09DBB2002B00D0F4E77B68FA78DA7100BF0C37BD4680BC704787
S32D0000DD9080B487B000AFF860B9607A60FB687B617B685A1E7A60002B14BF01230023DBB2002B06D07B695A1C5F
S32D0000DDB87A61BA68D2B21A70EEE700BF1C37BD4680BC704780B584B000AF786039607B681B6BFB60FA683B6803
S32D0000DDE09A4252D07B681B79002B35D07B6858787B6803F134010123FA6801F0F7F80346002B14BF01230023BD
S32D0000DE08DBB2002B01D001233CE07B6800221A717B685A6A7B681B6A1344FA689A4217D27B68DB78FB72FB7AEE
S32D0000DE30012B11D97B681B6AFA681344FB607B6858787B6803F134010123FA6801F0CEF8FB7A013BFB72EAE747
S32D0000DE583B68002B15D07B6858787B6803F1340101233A6800F0DAFF0346002B14BF01230023DBB2002B01D084
S32D0000DE80012303E07B683A681A63002318461037BD4680BD80B584B000AF786000217868FFF794FF0346FB7332
S32D0000DEA8FB7B002B40F093807B681B78032B7DD17B685B79002B79D07B6800221A637B6834334FF400720021A9
S32D0000DED01846FFF75DFF7B68552283F832227B68AA2283F833227B68522283F834207B68522283F835207B689C
S32D0000DEF8612283F836207B68412283F837207B68722283F818227B68722283F819227B68412283F81A227B6857
S32D0000DF20612283F81B227B681B69DAB27B6883F81C227B681B699BB21B0A9BB2DAB27B6883F81D227B681B6953
S32D0000DF481B0CDAB27B6883F81E227B681B691B0EDAB27B6883F81F227B68DB68DAB27B6883F820227B68DB6827
S32D0000DF709BB21B0A9BB2DAB27B6883F821227B68DB681B0CDAB27B6883F822227B68DB681B0EDAB27B6883F8E3
S32D0000DF9823227B6858787B6803F134017B685A69012301F01FF87B6800225A717B685B7800220021184601F06D
S32D0000DFC0E1F80346002B14BF01230023DBB2002B01D00123FB73FB7B18461037BD4680BD80B582B000AF786068
S32D0000DFE80B467B807B68002B08D07B681B78002B04D07B68DB887A889A4201D0092311E07B685B78184601F04D
S32D0000E0103BF9034603F00103002B14BF01230023DBB2002B01D0032300E0002318460837BD4680BD80B586B02F
S32D0000E03800AF78607B681A687B689B8819461046FFF7CAFF0346FB75FB7D002B40F0AC807B689B7903F020038F
S32D0000E060002B00F0A5807B689B7903F04003002B1BD07B681B6858787B6803F128017B689A69012300F0B2FF2E
S32D0000E0880346002B14BF01230023DBB2002B01D001238AE07B689B7923F04003DAB27B689A717B681A687B68B6
S32D0000E0B0DB6919461046FFF789FE0346FB75FB7D002B75D17B681B6A3B613B690B331A783B690B3342F020027C
S32D0000E0D8D2B21A707B68DA683B691C33D2B21A707B68DB689BB21B0A9AB23B691D33D2B21A707B68DB681A0CB4
S32D0000E1003B691E33D2B21A707B68DB681A0E3B691F33D2B21A707B681A693B691A33D2B21A707B681B699BB283
S32D0000E1281B0A9AB23B691B33D2B21A707B681B691A0C3B691433D2B21A707B681B691B0C9BB21B0A9AB23B69E2
S32D0000E1501533D2B21A700023FB603B691633FA68D2B21A70FB689BB21B0A9AB23B691733D2B21A70FB681A0CCA
S32D0000E1783B691833D2B21A70FB681A0E3B691933D2B21A707B689B7923F02003DAB27B689A717B681B680122C3
S32D0000E1A01A717B681B681846FFF774FE0346FB75FB7D18461837BD4680BD80B584B000AF78607868FFF736FF81
S32D0000E1C80346FB73FB7B002B02D17B6800221A60FB7B18461037BD4680BD000080B588B000AF786039608023F4
S32D0000E1F03B610F23FB604FF0FF337B610223FB61FB69B3F5807F23D80123BB61BB69102B1AD8FB69BA6902FBEF
S32D0000E21803F33A6803FB02F27B68D31ABB60BB68002B09DBBB687A699A4205D9BB687B61FB693B61BB69FB60F3
S32D0000E240BB690133BB61E1E7FB695B00FB61D7E71D4BDB6A1C4A23F00803D3621A4BDB6A23F47F2323F47F63D9
S32D0000E268BB613B695B081B029AB2FB68013B1B01DBB21A43BB691343114A43F46023D3620F4B5B6A03F0080376
S32D0000E290002B0CBF01230023DBB2002B03D00A2001F01AF9F0E7084BDB6A074A43F00803D362054B1B6B044A13
S32D0000E2B843F48013136300BF2037BD4680BD00BF00100B4080B582B000AF786039607B6800221A60414B424A6A
S32D0000E2E0DA62404BDB6A03F08073002B14BF01230023DBB2002B00D0F3E73A4B0022C3F8C020384B4FF48132BC
S32D0000E3085A60364B28229A62344B4FF001125A643B689B6833491846FFF760FF2F4B5B6A03F00303002B14BFCC
S32D0000E33001230023DBB2002B00D0F3E72C4B40F243421A602A4B40F243425A60284B4FF488629A60264B40F24B
S32D0000E3584342DA60244B40F243421A61224B40F243425A61214B03F580531B6B1F4A43F4003302F58052136389
S32D0000E380184B4FF6FF721A63164B1B4A5A63154BDB6A144A43F00063D362124BDB6A03F00063002B14BF01236E
S32D0000E3A80023DBB2002B00D0F3E70C4B5B6A03F48033002B14BF01230023DBB2002B02D07B6801221A60054B5D
S32D0000E3D01B6B044A43F080031363002318460837BD4680BD00100B400080000160CC050000D00440007004404A
S32D0000E3F8B3007F0080B400AF064B5A6A40F207331340002B14BF01230023DBB21846BD4680BC704700100B408D
S32D0000E42080B485B000AF7860074B1B6B7A681340FB60FB68002B00D1F6E7FB6818461437BD4680BC704700BF79
S32D0000E44800100B4080B584B000AF78607B681B7803F03F03764A52F82330FB60FB68002B05D17B681B78002BF3
S32D0000E47001D00123DCE0714B1B6B704A43F0800313636E4B5B6A03F00103002B14BF01230023DBB2002B00D063
S32D0000E498F3E7684A7B685B689360FB6823F44003FB607B685B789B0503F44003FA681343FB607B685B78022B93
S32D0000E4C003D1FB6843F40013FB607B685B78042B16D1FB6803F44033B3F5003F08D1FB6823F44033FB60FB684E
S32D0000E4E843F44033FB6007E0FB6823F44033FB60FB6843F40033FB604E4B5B684D4A9BB253607B68DB68002B66
S32D0000E5102AD0FB6803F44033B3F5403F03D0FB6843F40013FB607B681B7A002B03D0FB6843F01003FB607B68B7
S32D0000E538DB68012B03D9FB6843F02003FB607B68DB68B3F1FF3F0BD03A4B5A687B68DB681B04384913434B6065
S32D0000E560FB6843F00203FB60344B00221A60334AFB68D3603248FFF753FF0346012B14BF01230023DBB2002B60
S32D0000E58809D02C4B1B6B2B4A43F4702343F001031363012348E0274B1B6B03F08003002B14BF01230023DBB217
S32D0000E5B0002B07D0214B1B6B204A43F001131363012335E01D4B1B6B03F48033002B14BF01230023DBB2002B54
S32D0000E5D808D0184B1B6B174A43F0011313634FF0FF3321E0FB6803F44033002B15D0114B1A697B681A61FB6847
S32D0000E60003F44033B3F5803F0BD10C4B5A697B685A610A4B9A697B689A61084BDA697B68DA61064B1B6B054A77
S32D0000E62843F001031363002318461037BD4680BD4884050000100B4001000E0080B592B000AF7860396000231A
S32D0000E6507B643B68BB63994B7B637B6B002B02D140F601235FE3964B3B633B6B002B02D140F60B2357E33B6B53
S32D0000E6781B68FB62FB6A002B02D140F60B234EE37B6841F20932934200F23F837B68B3F5985F08D87B68032B4F
S32D0000E6A000F01A837B68092B00F0098331E37B68A3F59853013B082B00F22B8301A252F823F000BFE9E6000015
S32D0000E6C8D5E9000031EC0000EBE9000029EA00004FEB000097EB0000D9EA0000F3EA00007649786BFFF7EEFD83
S32D0000E6F078647B6C002B40F01083002387F84330002387F82B30002387F82A30002387F82930002387F842302E
S32D0000E718002387F8283000233B7200237B720023FB6000233B7400237B6107F108031846FFF788FE0346002B59
S32D0000E74014BF01230023DBB2002B02D001237B64E8E240F24C4000F0BFFE08233B7200237B724FF4D573FB6001
S32D0000E76800233B7400237B6107F108031846FFF769FEF863FB6B002B09D1BA69FB689A4202D001237B64C9E24C
S32D0000E790012387F84230012387F8283097F82830002B00F0A58037233B7200237B720023FB6000233B7400239A
S32D0000E7B87B6107F108031846FFF744FEF863FB6B002B02D001237B64A8E269233B7200237B720023FB60002389
S32D0000E7E03B7400237B6107F108031846FFF72EFE0346002B14BF01230023DBB2002B02D001237B648EE2BB692B
S32D0000E80803F44013002B6FD00023FB630A2000F05FFEFB6B0133FB6337233B7200237B720023FB6000233B74D7
S32D0000E83000237B6107F108031846FFF707FE0346002B14BF01230023DBB2002B02D001237B6428E069233B7203
S32D0000E85800237B7297F84230002B02D0184BFB6002E04FF44013FB6000233B7400237B6107F108031846FFF7CB
S32D0000E880E5FD0346002B14BF01230023DBB2002B02D001237B6406E0BB69002B03DBFB6B632B00D8B6E77B6C0A
S32D0000E8A8002B40F03882FB6B632B0BD9002387F8423019E0381800203C1A00203C84050000003040012387F88A
S32D0000E8D0433097F84230002B0AD0002387F84230BB6903F08043002B02D0012387F8423097F82A30002B02D0BB
S32D0000E8F87B6B07221A6097F82930002B02D07B6B08221A6097F82B30002B02D07B6B04221A6097F84330002B60
S32D0000E92009D07B6B02221A6097F84230002B02D07B6B03221A6097F82B30002B0DD097F84330002B09D07B6B0B
S32D0000E94805221A6097F84230002B02D07B6B06221A60924B00221A60904B00225A608F4B00229A608D4B00225A
S32D0000E970DA608C4B00221A618A4B00225A61FB6A9A68FB6A5B6819461046FFF72BFC854B40F243421A60834BE9
S32D0000E99840F243425A60814B4FF488629A607F4B40F24342DA607D4B40F243421A617B4B40F243425A617A4B3B
S32D0000E9C003F580531B6B784A43F4003302F580521363A7E1B86BFFF739FDF863FB6B002B00F09F8102237B6496
S32D0000E9E89BE1BB6B002B02D10C237B6496E16D4BDB6A1B0A5B0003F4FF73FB63694BDB6A1B0903F00F035A1C00
S32D0000EA10FB6B02FB03F3FB63FB6A9A68FB6BB2FBF3F2BB6B1A607DE1BB6B002B02D10C237B6477E1BB6B1B6891
S32D0000EA38002B02D10C237B6470E1FFF7DBFC0346002B0CBF01230023DBB2002B3CD0534B00221A60514B002244
S32D0000EA605A60504B00229A604E4B0022DA604D4B00221A614B4B00225A61FB6A9A68BB6B1B6819461046FFF7BF
S32D0000EA88ADFB464B40F243421A60444B40F243425A60424B4FF488629A60404B40F24342DA603E4B40F2434286
S32D0000EAB01A613C4B40F243425A613B4B03F580531B6B394A43F4003302F58052136329E140F60A237B6425E16F
S32D0000EAD8BB6B002B02D10C237B641FE1314B5B68C3F30C02BB6B1A6018E1BB6B002B02D10C237B6412E1FFF727
S32D0000EB007DFC0346002B0CBF01230023DBB2002B19D0BB6B1B68B3F5805F02D30C237B6400E1224B5B68214AB8
S32D0000EB2823F4FF5323F01F0353601E4B5A68BB6B1B68C3F30C031B4913434B60EEE040F60A237B64EAE0BB6B70
S32D0000EB50002B02D10C237B64E4E0144B9B6A5B0803F00303FB63FB6B002B03D1BB6B00221A60D7E0FB6B012B39
S32D0000EB7803D1BB6B01221A60D0E0FB6B102B03D1BB6B02221A60C9E005237B64C6E0BB6B002B09D10C237B6460
S32D0000EBA0C0E000BF00D004400070044000100B40FFF724FC0346002B0CBF01230023DBB2002B31D0BB6B1B68C7
S32D0000EBC8002B0AD1584B9B6A574A23F006039362554B554A9B6A9362A0E0BB6B1B68012B0CD1514B9B6A504A19
S32D0000EBF023F0060393624E4B9B6A4D4A43F0020393628FE0BB6B1B68022B0AD1484B9B6A474A23F0060393622A
S32D0000EC18454B454A9B6A936280E005237B647DE040F60A237B6479E0BB6B002B02D10C237B6473E03C4BDB6A05
S32D0000EC403B4A43F00063D362394BDB6A03F00063002B14BF01230023DBB2002B00D0F3E7334B1B6B03F0800316
S32D0000EC68002B14BF01230023DBB2002B08D02E4B1B6B2D4A43F0800313637B6B00221A60294B5B6A03F48033A2
S32D0000EC90002B14BF01230023DBB2002B07D07B6B1B68002B06D17B6B01221A6002E07B6B00221A607B6B1A68C8
S32D0000ECB8BB6B1A6032E0BB6B1C221A60BB6B043304221A60BB6B08334FF41E721A6025E00220FFF7A1FB144BDB
S32D0000ECE01B6B03F4E003002B14BF01230023DBB2002B07D00E4B1B6B0D4A43F4E003136304237B640A4B1B6B2B
S32D0000ED08094A43F03203136308E040F609237B6404E000BF02E000BF00E000BF7B6C18464837BD4680BD00BFDD
S32D0000ED3000100B4080B489B000AF786039607B687B61364B3B613B69002B01D100235FE03B691B68022B0BD0BF
S32D0000ED583B691B68032B07D03B691B68072B03D03B691B68082B0BD12B4B5B6A03F00403002B14BF0123002385
S32D0000ED80DBB2002B00D0F3E73B68FB61FB69002B3DD0FB69B3F5007F28BF4FF40073FB60FB6803339B08BB618D
S32D0000EDA8BB69002B2AD01C4B1B6B03F4E003002B14BF01230023DBB2002B09D0164B1B6B154A43F4E00343F0C4
S32D0000EDD02003136300231BE0114B5B6A03F40063002B0CBF01230023DBB2002B00D0F3E70B497B691A1D7A61FA
S32D0000EDF80A6A1A60BB69013BBB61D1E7FA69FB68D31AFB61BEE7012318462437BD4680BC704700BF3818002015
S32D0000EE2000100B4080B58EB000AFB9607A601A460346FB731346BB73414B7B63FB7B002B02D1BB7B002B01D1A5
S32D0000EE48042375E03D4B1B78DBB203F00103002B14BF01230023DBB2002B01D0032367E0BB68002B01D1002303
S32D0000EE7062E07B6B1B7B002B02D17B685B027B60BB7B012B28D111233B7500237B757B68BB6101233B77BB7B40
S32D0000EE983B6207F11403194641F20230FFF7CEFB0346002B0CBF01230023DBB2002B38D04FF40071B868FFF70D
S32D0000EEC039FF0346002B14BF01230023DBB2002B2BD00023BB7328E012233B7500237B757B68BB6101233B7785
S32D0000EEE8BB7B3B6207F11403194641F20230FFF7A5FB0346002B0CBF01230023DBB2002B0FD0BB7B5B021946B1
S32D0000EF10B868FFF70FFF0346002B14BF01230023DBB2002B01D00023BB73BB7B002B01D0012300E0002300BF2F
S32D0000EF3818463837BD4680BD241800200800002080B487B000AF786039607B68FB603B687B617B69002B3DD0B6
S32D0000EF607B69B3F5007F28BF4FF400733B617A693B69D31A7B613B6903339B083B613B69002BEAD0184B1B6B64
S32D0000EF8803F4E003002B14BF01230023DBB2002B0AD0134B1B6B124A43F4E00343F0100313634FF0FF3316E02D
S32D0000EFB00D4B5B6A03F48063002B0CBF01230023DBB2002B00D0F3E7FB681A1DFA60064A1B6813623B69013B81
S32D0000EFD83B61D0E7012318461C37BD4680BC704700100B4080B58EB000AFB9607A601A460346FB731346BB73DF
S32D0000F0005D4B7B63FB7B002B02D1BB7B002B01D10423ADE0594B1B78DBB203F00103002B14BF01230023DBB274
S32D0000F028002B01D003239FE0524B1B78DBB203F00403002B14BF01230023DBB2002B01D0022391E0BB68002BB0
S32D0000F05001D100238CE07B6B1B7B002B02D17B685B027B60BB7B012B28D118233B7500237B757B68BB61002321
S32D0000F0783B77BB7B3B6207F11403194641F20230FFF7DCFA0346002B0CBF01230023DBB2002B38D04FF400714C
S32D0000F0A0B868FFF751FF0346002B14BF01230023DBB2002B2BD00023BB7328E019233B7500237B757B68BB6144
S32D0000F0C800233B77BB7B3B6207F11403194641F20230FFF7B3FA0346002B0CBF01230023DBB2002B0FD0BB7BA9
S32D0000F0F05B021946B868FFF727FF0346002B14BF01230023DBB2002B01D00023BB730D233B7500237B757B6BB9
S32D0000F1181B69BB6100233B7700233B6207F11403194641F20230FFF789FA0346002B14BF01230023DBB2002B02
S32D0000F14001D0012314E07A6A0D4B1340002B01D001230DE07B6A03F4F853B3F5106F00D0D5E7BB7B002B01D010
S32D0000F168012300E0002300BF18463837BD4680BD24180020080000200880D9FF80B58CB000AF03463A60FB7133
S32D0000F1900B46BB713A4BBB62FB79002B01D0042369E0012387F82F30364B1B78DBB203F00103002B14BF012396
S32D0000F1B80023DBB2002B01D0032358E0BB79032B50D801A252F823F0E1F10000E9F10000F9F1000009F2000004
S32D0000F1E0002387F82F3044E0BB6A9A683B681A60002387F82F303CE03B684FF400721A80002387F82F3034E074
S32D0000F20809233B7200237B72BB6A1B69FB6000233B7400237B6107F10803194641F20230FFF70CFA0346002BE3
S32D0000F23014BF01230023DBB2002B01D001231AE07B6A03F44003002B0CD13B6A9B0C03F07F035A1C7B6A1B0A87
S32D0000F25803F00303013B9A403B681A60002387F82F3002E0042387F82F3097F82F3018463037BD4680BD00BFC2
S32D0000F280241800200800002080B483B000AF0346FB71FB79002B01D0012302E0034B1B78DBB218460C37BD4689
S32D0000F2A880BC70470800002080B483B000AF7860164B03F580539B6B144A43F0010302F580529363124A7B686A
S32D0000F2D09360114B05225A600F4B1B680E4A43F0010313600C4B1B6803F08003002B0CBF01230023DBB2002BBC
S32D0000F2F800D0F3E7064B1B68054A23F00103136000BF0C37BD4680BC704700BF007004400000044080B582B07B
S32D0000F32000AF786039607B68012B07D13B684FF6FF72934202D1034800F00EF800BF0837BD4680BD441A0020BA
S32D0000F34880B500AF4FF6FF710120FFF7E3FF80BD80B483B000AF78607B6800221A707B6818460C37BD4680BC88
S32D0000F3707047000080B582B000AF78607B681B7883F00103DBB2002B21D0134B03F580531A464FF40063936210
S32D0000F398104B4FF440721A620E4B4FF440725A620D4B1B68DA0F13445B104FF4614219460A48FEF7FDFB6420E3
S32D0000F3C000F08AF87B6801221A70012300E0002318460837BD4680BD0070044000D00440481A002000B00E40D1
S32D0000F3E880B582B000AF7860084611461A460346FB700B46BB7013467B707F210E48FEF7AAFC08210C48FEF78D
S32D0000F410A6FCFB7819460A48FEF7A1FCBB7819460748FEF79CFC7B7819460548FEF797FCFF210348FEF793FCF2
S32D0000F43800BF0837BD4680BD00B00E4080B487B000AFF860B9607A60FB681F4AA2FB03239B09BA6813447B617D
S32D0000F460FB681B4AA2FB031292094FF47A7101FB02F29B1AFB60FB68DB03154AA2FB03239B097A6813443B615F
S32D0000F4883B69DB0B7A6913447B613B69C3F30E033B610E4B1B687A699A4209D80B4B1B687A699A4206D1094B70
S32D0000F4B05B683A699A4201D9012300E00023002B00D0EAE700BF1C37BD4680BC704700BFD34D621000D00340B3
S32D0000F4D880B584B000AF7860074B1B68FB60064B5B68BB607B68BA68F9681846FFF7A6FF00BF1037BD4680BD12
S32D0000F50000D0034080B584B000AF78600B4B1B68FB600A4B5B68BB600949786835F030FD0346184635F02EFFF6
S32D0000F5280346BA68F9681846FFF788FF00BF1037BD4680BD00D0034000007A4480B584B000AFC7E900010E4BD5
S32D0000F5501B68FB600C4B5B68BB604FF000020B4BD7E9000135F0B6F802460B461046194635F088FB0346BA68EE
S32D0000F578F9681846FFF762FF00BF1037BD4680BD00D0034000408F4080B483B000AF0B4B1B684FF47A7202FBCC
S32D0000F5A003F37B60074B5B684FF47A7202FB03F3DB0B7A6813447B607B6818460C37BD4680BC704700D00340AE
S32D0000F5C8B0B48BB000AF224B3C1D1D460FCD0FC495E80F0084E80F0000237B627B6A072B30DC1C4BD3F8A020D3
S32D0000F5F07B6A9B0028333B4453F8243C012101FA03F31340002B14BF01230023DBB2002B18D0134A7B6A52F811
S32D0000F61823305A1C10497B6A41F823200D4BD3F8A0207B6A9B0028333B4453F8243C012101FA03F307491340A3
S32D0000F640C1F8A0307B6A01337B62CBE700BF2C37BD46B0BC704700BFF085050000A00440741A0020B0B489B0BB
S32D0000F66800AF224B3C1D1D460FCD0FC495E8030084E803000023FB61FB69052B30DC1C4BD3F8A020FB699B00EE
S32D0000F69020333B4453F81C3C012101FA03F31340002B14BF01230023DBB2002B18D0FB690833124A52F8232004
S32D0000F6B80132104941F823200D4BD3F8A020FB699B0020333B4453F81C3C012101FA03F307491340C1F8A03086
S32D0000F6E0FB690133FB61CBE700BF2437BD46B0BC704700BF1086050000B00440741A0020B0B48DB000AF234B5C
S32D0000F7083C461D460FCD0FC40FCD0FC495E8070084E807000023FB62FB6A0A2B30DC1C4BD3F8A020FB6A9B0081
S32D0000F73030333B4453F8303C012101FA03F31340002B14BF01230023DBB2002B18D0FB6A0E33124A52F8232038
S32D0000F7580132104941F823200D4BD3F8A020FB6A9B0030333B4453F8303C012101FA03F307491340C1F8A030C0
S32D0000F780FB6A0133FB62CBE700BF3437BD46B0BC704700BF2886050000900440741A0020B0B487B000AF214BB9
S32D0000F7A83C461D460FCD0FC42B68236000237B617B69042B30DC1C4BD3F8A0207B699B0018333B4453F8183C91
S32D0000F7D0012101FA03F31340002B14BF01230023DBB2002B18D07B691933124A52F823200132104941F823209F
S32D0000F7F80D4BD3F8A0207B699B0018333B4453F8183C012101FA03F307491340C1F8A0307B6901337B61CBE733
S32D0000F82000BF1C37BD46B0BC704700BF5486050000D00440741A002080B483B000AF78600B46FB707B68FA7823
S32D0000F8481A707B6818460C37BD4680BC7047000080B586B000AF78607B681B781A463E4B53F822303B617B6821
S32D0000F8701B781A463B4B9B5CFB733B69DBB203F01F03DAB2384B1A723B69DBB203F01F03DAB2354B5A72354B0D
S32D0000F8981022C3F88820FB7B002B13D13049324800F05AFA304B1B6803F08003802B14BF01230023DBB2002B00
S32D0000F8C000D0F3E72A4B1B697B6112E02649294800F046FA274B1B6803F08003802B14BF01230023DBB2002BB1
S32D0000F8E800D0F3E7214B1B697B611E4BD3F888311C4A43F01003C2F888311A4B9B68194A43F0100393607B6988
S32D0000F9109BB2184634F064FE0DA3D3E9002334F0D9FE02460B46104619460BA3D3E9002334F0FAFF02460B467D
S32D0000F9381046194635F0C2F90346BB60BB6818461837BD4680BD00BFA4703D0AD7A30A4000000000E0FFEF40AC
S32D0000F9606C85050048850500541A002000E100E000B0034000B00B4080B586B000AF78607B681B781A46234B3E
S32D0000F98853F822303B617B681B781A46204B9B5CFB733B69DBB203F01F03DAB21D4B1A723B69DBB203F01F0366
S32D0000F9B0DAB21A4B5A72FB7B002B13D11749184800F0CEF9164B1B6803F08003802B14BF01230023DBB2002B99
S32D0000F9D800D0F3E7104B1B697B6112E00D490F4800F0BAF90D4B1B6803F08003802B14BF01230023DBB2002B8C
S32D0000FA0000D0F3E7074B1B697B617B6918461837BD4680BD6C85050048850500641A002000B0034000B00B4057
S32D0000FA2898B500AF204B5C221A701F4B10225A701D4B41F234225A801B4B45F278629A80194B10229A71184B7B
S32D0000FA500722DA71164B4FF4C022DA60144B1F221A72134B1F225A721149124800F078F90F49114800F074F99A
S32D0000FA780F4800F0D2F80D4800F0CFF80A490C4800F06AF90849094800F066F9094A064B14460FCB84E80F0005
S32D0000FAA0064B5C221A70054B0422DA7100BF98BD541A002000B0034000B00B40641A002080B500AF064B1B6838
S32D0000FAC80133054A136000F03DF8044B0122C3F80C2100BF80BD00BFF81A00200070034080B500AF0C4B01229D
S32D0000FAF01A600C4800F01AF8094B0322C3F80821094BD3F88831084A43F01003C2F88831054B9B68044A43F004
S32D0000FB181003936000BF80BD00700340A086010000E100E080B483B000AF7860044A7B68C2F8003100BF0C3716
S32D0000FB40BD4680BC704700BF0070034080B584B000AF174B1B68FB60FB68002B24D0FB685B78FB71FB689B684D
S32D0000FB68184600F023F80346BB71BB79002B13D0FB685B68012B0FDDFB689B681B69BB60BB68002B08D0BB68C3
S32D0000FB905B685A1CBB685A60BB681B69BB60F3E7FB68DB68FB60D7E700BF1037BD4680BDF41A002080B584B0F9
S32D0000FBB800AF78607868FFF7DBFEF8607B689B695B78FB72FB7A002B0FD17B68DB68FA689A420ADD7B689B69B8
S32D0000FBE001225A707B685B685A1C7B685A60012313E0FB7A012B0FD17B689B68FA689A420ADA7B689B690022A8
S32D0000FC085A707B685B685A1C7B685A60012300E0002318461037BD4680BD80B485B000AF78607B681B6A23F0D4
S32D0000FC3040027B681A627B685B6A23F00B027B685A627B685B6A43F007027B685A627B685B6A43F080027B68DB
S32D0000FC585A627B681B6803F08003002B0CBF01230023DBB2002B00D0F3E77B685B6A03F04003402B0CBF01230F
S32D0000FC800023DBB2002B01D0012364E00023FB817B68DB6CFB817B689B6C9AB2FB891344FB817B685B6C9AB27A
S32D0000FCA8FB891344FB817B681B6C9AB2FB891344FB817B68DB6B9AB2FB891344FB817B689B6B9AB2FB891344EE
S32D0000FCD0FB81FB895B08FB81FB896FEA43436FEA5343FB81FA897B68DA620023FB817B68DB6EFB817B689B6E84
S32D0000FCF89AB2FB891344FB817B685B6E9AB2FB891344FB817B681B6E9AB2FB891344FB817B68DB6D9AB2FB89E2
S32D0000FD201344FB817B689B6D9AB2FB891344FB81FB895B08FB81FB896FEA43436FEA5343FB81FA897B681A6340
S32D0000FD487B685B6A23F080027B685A62002318461437BD4680BC704780B483B000AF786039603B681B781A46D2
S32D0000FD707B689A603B685B781A467B68DA603B685B881A467B689A613B689B881A467B68DA613B689B791A4676
S32D0000FD987B681A623B68DB791A467B685A623B68DA687B681A653B681B7A1A467B681A603B685B7A1A467B68F1
S32D0000FDC05A6000BF0C37BD4680BC704780B483B000AF78607B6818460C37BD4680BC704780B582B000AF78600D
S32D0000FDE839607B68012B07D13B684FF6FF72934202D10348FFF7E6FF00BF0837BD4680BDFC1A002080B500AFEE
S32D0000FE104FF6FF710120FFF7E3FF80BD80B483B000AF78600B46FB707B68FA781A707B684FF4FA725A807B6801
S32D0000FE3840F6C4129A807B68034A9A607B6818460C37BD4680BC7047000080BF80B483B000AF786039603B6869
S32D0000FE60B3F5FA7F04DB3B6840F6C412934204DD7B684FF4FA725A8004E03B689AB27B685A8000BF00BF0C3752
S32D0000FE88BD4680BC704780B483B000AF786039603B68B3F5FA7F04DB3B6840F6C412934204DD7B6840F6C412D8
S32D0000FEB09A8004E03B689AB27B689A8000BF00BF0C37BD4680BC70472DE9904385B000AF786039604FF0000105
S32D0000FED8386835F0EFF90346002B02D04FF000033B603249386835F003FA0346002B01D02E4B3B607B689B68B0
S32D0000FF001946386835F0D0F90346002B00D04BE07B683A689A607B685C887B689B881A467B685B88D31A1846BA
S32D0000FF2834F06AFB4FF00002214B34F0F9FC02460B4690469946386834F070FB02460B464046494634F0C2FB50
S32D0000FF5002460B461046194634F094FE03469BB22344FB81FB897B73FB891B0A9BB23B737F211248FDF7F3FE11
S32D0000FF7805211048FDF7EFFE7B681B7819460D48FDF7E9FE3B7B19460A48FDF7E4FE7B7B19460848FDF7DFFE44
S32D0000FFA0FF210648FDF7DBFE00BF1437BD46BDE8908300BF000034430080664000B00E4080B582B000AF7860EB
S32D0000FFC8B84B4FF48072DA60B74B4FF480729A64B54B4FF480721A64B34B4FF480725A64B14B4FF48072DA6055
S32D0000FFF0B04B5B69AF4A43F008035361AE4B5B69AD4A43F480235361AB4B5B69AA4A43F480335361A84B5B69F4
S32D00010018A74A43F400335361A54B1B68A44A43F008031360A24B5B69A14A43F0080353619E4B1B689D4A43F084
S32D00010040080313609A4B4FF480725A62984B4FF480721A62954B4FF480721A61934B4FF480725A61914B4FF42C
S32D0001006880729A618F4B4FF48072DA618D4B4FF480721A638B4B4FF480725A63894B4FF480729A63874B4FF4C5
S32D000100908072DA63854B4FF480721A64834B4FF480725A64814B4FF480729A647F4B4FF48072DA64814B4FF483
S32D000100B880721A607F4B4FF480729A607D4B4FF48072DA607B4B4FF480721A61784B5B69774A43F44073536121
S32D000100E0744B5B69734A43F47F2343F0F0035361734B5B69724A43F01D035361E221786800F0C8FD1D21786803
S32D0001010800F06AFE0221786800F066FE0421786800F062FEE021786800F0B8FD0121786800F05AFE6420FFF77A
S32D00010130D3F9E021786800F0ADFD0321786800F04FFE0121786800F0A5FD0120FFF7C4F9E621786800F09EFD3E
S32D000101580121786800F040FEA021786800F03CFEFF21786800F038FEB021786800F08EFD1C21786800F030FEF0
S32D000101800F21786800F02CFE0121786800F028FE3F21786800F024FE0021786800F020FEEF21786800F01CFEB3
S32D000101A80021786800F018FEB421786800F06EFD0121786800F010FE9921786800F00CFE0021786800F008FE86
S32D000101D04521786800F004FE0221786800F000FE0021786800F0FCFD0021786800F0F8FD0021786800F0F4FD25
S32D000101F8B621786800F04AFD0121786800F0ECFD0921786800F0E8FD0021786800F0E4FD0E21786800F0E0FD82
S32D000102200221786800F0DCFD0021786800F0D8FD0021786800F0D4FDBA21786800F02AFD0F21786800F0CCFDC0
S32D000102486420FFF745F93A21786800F01FFD6021786800F0C1FD2A21786800F017FD0021786800F0B9FD002182
S32D00010270786800F0B5FD0121786800F0B1FD3F21786800F0ADFD2B21786800F003FD0021786800F0A5FD002193
S32D00010298786800F0A1FD0021786800F09DFDEF2178680BE000B0044000A0044080F00F4040F00F4000C0044049
S32D000102C0C0F00F4000F08CFD3621786800F0E2FC0021786800F084FDF021786800F0DAFC0421786800F07CFDFB
S32D000102E8B821786800F0D2FC0F21786800F074FD0121786800F070FD314B1B68304A43F0080313606420FFF7FC
S32D00010310E3F83621786800F0BDFC0021786800F05FFDF021786800F0B5FC0421786800F057FD0121786800F0E9
S32D00010338BCF91E226F21786800F082F8AF225621786800F0DBF80021786800F00AFA012301221C49786800F06B
S32D000103602BFA2921786800F095FC6420FFF7B4F8BE21786800F08EFC0E21786800F030FDF021786800F02CFD09
S32D000103880121786800F028FD0021786800F024FD0021786800F020FD0F21786800F01CFD786800F085FA012185
S32D000103B0786800F0DAF90021786800F0AFF900BF0837BD4680BD00BF40F00F406886050080B582B000AF786085
S32D000103D87B680022DA617B6801221A627B680E225A607B681A229A607B6800225A617B6800229A617B684FF468
S32D00010400A072DA607B68F0221A617B6800221A70786801F019FA7B6818460837BD4680BD80B582B000AF7860F0
S32D00010428064B1B78002B05D1044B01221A707868FFF7C2FD00BF0837BD4680BD441B002080B58AB002AFF860FA
S32D00010450B9607A607E23009362237A68B968F86800F0ADFE40F24E733B610023FB61FA693B699A4240DA0023A5
S32D00010478BB61214AFB6913441B781A46BB69934232DAFB6901331C4AD35C002B06D1FF23FB75FF23BB75FF23E6
S32D000104A07B7512E0FB690133154AD35C012B06D1D423FB750023BB7526237B7505E0B523FB75BA23BB75B02322
S32D000104C87B757B7DBA7DF97DF86800F0C9F80246FB68DA61F86801F0B3F9F86801F0ECF8BB690133BB61C4E728
S32D000104F0FB690233FB61BAE700BF2037BD4680BD0C00002080B58AB002AFF860B9607A602723009395237A68E3
S32D00010518B968F86800F04FFE40F2E6333B610023FB61FA693B699A4240DA0023BB61214AFB6913441B781A463B
S32D00010540BB69934232DAFB6901331C4AD35C002B06D1FF23FB75FF23BB75FF237B7512E0FB690133154AD35C4A
S32D00010568012B06D10023FB750023BB7500237B7505E0D423FB750023BB7526237B757B7DBA7DF97DF86800F09B
S32D000105906BF80246FB68DA61F86801F055F9F86801F08EF8BB690133BB61C4E7FB690233FB61BAE700BF2037B2
S32D000105B8BD4680BD5C07002080B485B000AF78600B46FB70FB78062B29D801A252F823F0FD050100F505010002
S32D000105E0030601000B0601001306010019060100210601006FF07F43FB6014E00023FB6011E04FF47F03FB606F
S32D000106080DE04FF47F43FB6009E0FF23FB6006E04FF41903FB6002E0044BFB6000BFFB6818461437BD4680BCDA
S32D00010630704700BF9999990080B584B000AF786039603B681B0CFB733B681B0ABB733B687B737B7BBA7BF97B73
S32D00010658786800F005F8034618461037BD4680BD80B487B000AF7860084611461A460346FB700B46BB701346F8
S32D000106807B70FB789B08DBB27B61BB789B08DBB23B617B789B08DBB2FB607B691A033B699B011A43FB6813430D
S32D000106A818461C37BD4680BC704780B582B000AF78600B46FB70FB7819467868FFF77CFF03461946786800F037
S32D000106D004F800BF0837BD4680BD80B582B000AF7860396039687868FFF7A6FF02467B681A62786801F0A8F806
S32D000106F8786800F009FC00BF0837BD4680BD80B582B000AF7860786800F0FEFB00BF0837BD4680BD80B582B064
S32D0001072000AF78600B46FB70FB7819467868FFF747FF03461946786800F004F800BF0837BD4680BD80B582B060
S32D0001074800AF7860396039687868FFF771FF02467B681A62786801F073F800BF0837BD4680BD80B582B000AF44
S32D0001077078600B46FB70FB7819467868FFF720FF03461946786800F004F800BF0837BD4680BD80B582B000AF37
S32D000107987860396039687868FFF74AFF02467B68DA61786801F04CF800BF0837BD4680BD80B586B000AFF860D6
S32D000107C0B9607A603B6000237B617B69BA6813441B78002B0FD07B69BA6813441B783A687968F86800F02AFE98
S32D000107E87B680C337B607B6901337B61E9E700BF1837BD4680BD000080B594B000AFF860B9607A603B60B868A5
S32D0001081034F092FD0346BB64B86C34F05DFB03461946B86834F0A2FA03461F49184634F0A7FB0346184634F0D6
S32D000108387FFD0346FB644FF00001B86834F03AFD0346002B02D0FB6C5B42FB644FF00001B86834F02FFD034610
S32D00010860002B0ED01149B86834F046FD0346002B07D007F11400FB6CBA6C0D4938F0F0F906E007F11400FB6CDB
S32D00010888BA6C0A4938F0E8F907F114013B687A68F868FFF78DFF00BF5037BD4680BD00BF00007A44000080BF09
S32D000108B0788605008486050080B582B000AF7860FDF72AF967210120FDF795F800210220FDF791F8A021032034
S32D000108D8FDF78DF850210420FDF789F820210520FDF785F820210620FDF781F877210720FDF77DF80021082052
S32D00010900FDF779F800210920FDF775F800210A20FDF771F804210B20FDF76DF87B684FF0FF32DA637B684FF0B5
S32D00010928FF321A6400BF0837BD4680BD0000000080B586B000AFF860B9607A600020FDF778F80346FB75FB7D99
S32D0001095003F00203002B00F0CE80FDF78BF8E020FDF73CF80220FEF7B7FDFDF791F80120FEF7B2FDFDF77EF801
S32D00010978A520FDF72FF80120FEF7AAFDFDF751F803469BB21B02BB82FDF74BF803469AB2BB8A1343BB82FDF7EE
S32D000109A044F803469BB21B027B82FDF73EF803469AB27B8A13437B82BB8A1B09BB827B8A1B097B82FDF764F809
S32D000109C8FB68DB6BB3F1FF3F34D1FB681B6CB3F1FF3F2FD1BA8AFB68DA637A8AFB681A647B8AC3F57F630F33FA
S32D000109F07B82BB8A184633F003FE49A3D3E9002333F068FE02460B461046194634F05AF90246BB681A607B8A11
S32D00010A18184633F0F1FD42A3D3E9002333F056FE02460B461046194634F048F902467B681A605AE0FB68DA6BCB
S32D00010A40BB8AD31A1946F86800F074F80346632B0CDCFB681A6C7B8AD31A1946F86800F069F80346632B01DCDC
S32D00010A68012300E00023002B2FD0BA8AFB68DA637A8AFB681A647B8AC3F57F630F337B82BB8A184633F0B8FDEC
S32D00010A9023A3D3E9002333F01DFE02460B461046194634F00FF90246BB681A607B8A184633F0A6FD1CA3D3E951
S32D00010AB8002333F00BFE02460B461046194634F0FDF802467B681A600FE0BB68164A1A607B68154A1A60FB68A9
S32D00010AE04FF0FF32DA63FB684FF0FF321A64002310E001230EE0BB680D4A1A607B680C4A1A60FB684FF0FF324A
S32D00010B08DA63FB684FF0FF321A64002318461837BD4680BDAFF30080144001144001B43F1EE0011EE001AE3F76
S32D00010B30000080BF80B483B000AF786039603B68002B02DA3B685B423B603B6818460C37BD4680BC704780B5DC
S32D00010B5886B000AFF860B9607A603B607A6813461B0113447B613A6813465B0013449B003B617B693A69B9688D
S32D00010B80F868FFF719FE00BF1837BD4680BD80B586B000AFF860B9607A603B607A6813461B0113447B613A685F
S32D00010BA813465B0013449B003B617B693A69B968F868FFF721FE00BF1837BD4680BD80B584B000AF78603960E8
S32D00010BD00023FB60786800F05EFAFB683A6813441B78002B12D07B6859697B689869FB683A6813441B78024694
S32D00010BF8786800F005FC786800F05DFAFB680133FB60E6E700BF1037BD4680BD80B582B000AF78600B46FB7027
S32D00010C20786800F038FA7B6859697B689A69FB78786800F0E9FB786800F041FA00BF0837BD4680BD80B582B041
S32D00010C4800AF78603960786800F021FA39687868FFF7B5FF786800F005FA00BF0837BD4680BD80B582B000AF24
S32D00010C7078600B46FB70786800F00DFAFB7819467868FFF7C7FF786800F0F0F900BF0837BD4680BD80B483B01E
S32D00010C9800AF78600B46FB704D4B1B684C4A23F0080313604B4B1B684A4A23F480231360484B1B68474A43F4F0
S32D00010CC080331360454B1B68444A23F440731360414B1B68404A23F4435323F0300313603E4B1A68FB785B0227
S32D00010CE803F400733B4913430B603A4B1A68FB785B101B0203F48073364913430B60344B1A68FB789B101B01C7
S32D00010D1003F01003304913430B602F4B1A68FB78DB105B0103F020032B4913430B602A4B1A68FB781B119B0141
S32D00010D3803F04003264913430B60254B1A68FB785B11DB01DBB2224913430B60204B1A68FB789B111B0303F49F
S32D00010D6080531D4913430B601B4B1A6897F90330DB115BB25B0303F40053174913430B60164B1B68154A23F4A3
S32D00010D8800331360134B1B68124A43F4003313600F4B1B680E4A43F0080313600D4B1B680C4A43F44073136008
S32D00010DB0094B1B68084A43F4435343F030031360064B1B68054A43F48023136000BF0C37BD4680BC704700BF1E
S32D00010DD880F00F4040F00F4080B483B000AF78600B46FB70464B1B68454A23F008031360444B1B68434A43F4FA
S32D00010E0080331360414B1B68404A43F4802313603E4B1B683D4A23F4407313603A4B1B68394A23F4435323F09C
S32D00010E2830031360374B1A68FB785B0203F40073344913430B60334B1A68FB785B101B0203F480732F491343C6
S32D00010E500B602D4B1A68FB789B101B0103F01003294913430B60284B1A68FB78DB105B0103F020032449134313
S32D00010E780B60234B1A68FB781B119B0103F040031F4913430B601E4B1A68FB785B11DB01DBB21B4913430B60FE
S32D00010EA0194B1A68FB789B111B0303F48053164913430B60144B1A6897F90330DB115BB25B0303F40053104978
S32D00010EC813430B600F4B1B680E4A23F4003313600C4B1B680B4A43F400331360084B1B68074A43F00803136064
S32D00010EF0064B1B68054A23F48023136000BF0C37BD4680BC704700BF80F00F4040F00F4080B586B000AF78609C
S32D00010F187B6800225A617B6800229A617B681B6AFB60FB68FB72FB681B0ABB72FB681B0CDBB203F003037B72A5
S32D00010F402A217868FFF7A6FE00217868FFF748FF00217868FFF744FF01217868FFF740FF3F217868FFF73CFF9D
S32D00010F682B217868FFF792FE00217868FFF734FF00217868FFF730FF00217868FFF72CFFEF217868FFF728FF29
S32D00010F902C217868FFF77EFE314B1B68304A23F4407313602F4B1B682E4A23F47F2323F0F00313602C4B1B683C
S32D00010FB82B4A23F01D031360274B1A687B681B6B254913430B60254B1A687B685B6B234913430B60224B1A68AC
S32D00010FE07B689B6B204913430B601E4B1B681D4A23F0080313601A4B1B68194A43F48023136000237B617B6970
S32D00011008EF2B19D800233B613B69B3F5A07F0FD2114B1B68104A23F4003313600E4B1B680D4A43F4003313609D
S32D000110303B6901333B61EBE77B6901337B61E2E7084B1B68074A43F008031360044B1B68034A23F4802313606A
S32D0001105800BF1837BD4680BD40F00F4080F00F40C0F00F4080B483B000AF78607B689B69002B07DD7B685B6953
S32D000110805A1C7B685A617B6800229A6100BF0C37BD4680BC704780B582B000AF78607B685A697B685B689A421F
S32D000110A805DB7B6800225A617868FFF72DFF00BF0837BD4680BD80B582B000AF78607B689B695A1C7B689A6110
S32D000110D07B689A697B689B689A4205D17868FFF7C5FF7868FFF7D7FF00BF0837BD4680BD80B586B002AFF8607B
S32D000110F8B9607A600123009301237A68B968F86800F059F8F86800F0D7FA00BF1037BD4680BD80B485B000AFD8
S32D00011120786039607B681B68FB603B681A687B681A603B68FA681A6000BF1437BD4680BC704780B586B002AF51
S32D00011148F860B9607A603B60BA683B681A447B68009313467A68B968F86800F0ABF8BA683B68D118BA683B6837
S32D00011170D0187A68BB691344009303467A68F86800F09CF8BA683B68D1187A68BB69D0187A68BB6913440093DD
S32D00011198BB680246F86800F08DF87A68BB691A447B680093BB68B968F86800F083F800BF1037BD4680BD80B584
S32D000111C088B000AFF860B9607A603B60FB681B78022B03D0FB681B78032B11D17B68FB61BA6AFB691344013BDD
S32D000111E8BB61FB68DA68BB68D31A3B613B683A69D31A01337B610DE0BB68FB613A68FB691344013BBB617B6824
S32D000112107B61BA6A7B691344013B3B612A21F868FFF738FDFB691B0ADBB203F00F03DBB21946F868FFF7D4FD98
S32D00011238FB69DBB21946F868FFF7CEFDBB691B0ADBB203F00F03DBB21946F868FFF7C4FDBB69DBB21946F868C8
S32D00011260FFF7BEFD2B21F868FFF714FD7B691B0ADBB203F00F03DBB21946F868FFF7B0FD7B69DBB21946F86841
S32D00011288FFF7AAFD3B691B0ADBB203F00F03DBB21946F868FFF7A0FD3B69DBB21946F868FFF79AFD2C21F86836
S32D000112B0FFF7F0FC00BF2037BD4680BD90B58BB000AFF860B9607A603B603A68BB68D31A1946F868FFF72EFC31
S32D000112D8F861BA6B7B68D31A1946F868FFF726FCB861BA69FB699A42CCBF01230023FB75FB7D002B0CD03A1D2E
S32D0001130007F1080311461846FFF707FF3B4607F138011846FFF701FFBA683B689A420CDD3A4607F108031146A0
S32D000113281846FFF7F6FE3B1D07F138011846FFF7F0FE3A68BB689A4206D1BB687A681946F868FFF7D1FE55E04D
S32D00011350BA6B7B68D31A184633F0BEFD04463A68BB68D31A184633F0B7FD03461946204633F0BAFE03463B613E
S32D000113787B68184633F0ACFD03467B62BB683B623B683A6A9A4235DCFB7D002B14D0786A33F044F94FF0000215
S32D000113A0184B32F0E1FF02460B461046194633F041FC03463A6A1946F868FFF799FE13E0786A33F02FF94FF073
S32D000113C800020E4B32F0CCFF02460B461046194633F02CFC03461A46396AF868FFF784FE3969786A33F0C0FC8E
S32D000113F003467B623B6A01333B62C5E72C37BD4690BD00BF0000E03F80B584B000AFF860B9607A60FB707A6845
S32D0001141813465B0013449B00991CBA6813461B011344DA1CFB78F86800F004F800BF1037BD4680BD80B58EB0EE
S32D0001144002AFF860B9607A60FB70FB780A2B06D1F868FFF720FEF868FFF708FEF2E0FB787D2B02D8FB781F2B43
S32D0001146801D82023FB70FB78203BFB70112300930C237A68B968F868FFF79DFEFA7813469B0013446F4AD35C06
S32D000114903B75FA7813469B00134401336B4AD35C7B75FA7813469B0013440233674AD35CBB75FA7813469B0050
S32D000114B813440333634AD35CFB75FA7813469B00134404335F4AD35C3B760023BB62BB6A062B00F3A180F868A5
S32D000114E000F050F9F86800F0B3F8002387F82F3000237B627B6A042B35DC07F114027B6A13441B7803F00103AF
S32D00011508002B14BF01230023FB76FB7E002B11D097F82F3083F00103DBB2002B03D0F86800F0CAF802E0F86835
S32D0001153000F08EF8F86800F08BF80DE097F82F30002B03D0F86800F01DF902E0F86800F07FF8F86800F07CF897
S32D00011558FB7E87F82F307B6A01337B62C6E797F82F30002B03D0F86800F008F902E0F86800F06AF8F86800F049
S32D0001158067F8002387F82F3000233B623B6A042B42DC07F114023B6A13441B7803F00103002B14BF0123002351
S32D000115A8BB76BB7E002B11D097F82F3083F00103DBB2002B03D0F86800F07EF802E0F86800F042F8F86800F02C
S32D000115D03FF80DE097F82F30002B03D0F86800F0D1F802E0F86800F033F8F86800F030F8BB7E87F82F3007F1DF
S32D000115F814023B6A13441B785B08D9B207F114023B6A13440A461A703B6A01333B62B9E7BB6A0133BB625AE780
S32D00011620F86800F0AFF8002387F82F300123FB61FB69232B06DCF86800F00AF8FB690133FB61F5E73037BD4603
S32D0001164880BD00BF440B002080B483B000AF7860174B1B68164A43F480331360154B1B68144A23F008031360A6
S32D00011670114B1B68104A43F4802313600E4B1B680D4A23F4003313600B4B1B680A4A43F400331360094B1B68F4
S32D00011698084A43F008031360054B1B68044A23F48023136000BF0C37BD4680BC704700BF40F00F4080F00F40DD
S32D000116C080B483B000AF78602B4B1B682A4A43F480331360294B1B68284A23F008031360254B1B68244A43F4B1
S32D000116E880231360224B1B68214A23F440731360204B1B681F4A23F47F2323F0F00313601D4B1B681C4A23F038
S32D000117101D031360184B1A687B685B6A164913430B60164B1A687B689B6A144913430B60134B1A687B68DB6A79
S32D00011738114913430B600E4B1B680D4A23F4003313600B4B1B680A4A43F400331360094B1B68084A43F0080306
S32D000117601360054B1B68044A23F48023136000BF0C37BD4680BC704740F00F4080F00F40C0F00F4080B483B0FD
S32D0001178800AF78602B4B1B682A4A43F480331360294B1B68284A23F008031360254B1B68244A43F48023136039
S32D000117B0224B1B68214A23F440731360204B1B681F4A23F47F2323F0F00313601D4B1B681C4A23F01D031360F2
S32D000117D8184B1A687B681B6B164913430B60164B1A687B685B6B144913430B60134B1A687B689B6B1149134351
S32D000118000B600E4B1B680D4A23F4003313600B4B1B680A4A43F400331360094B1B68084A43F008031360054B2A
S32D000118281B68044A23F48023136000BF0C37BD4680BC704740F00F4080F00F40C0F00F4080B485B000AF78606E
S32D000118507B681B6AFB60FB68FB72FB681B0ABB72FB681B0CDBB203F003037B727B6800225A627B6800229A6262
S32D000118787B680022DA627B6800221A637B6800225A637B6800229A637B681A6BFB7A5B0203F400731A437B68D6
S32D000118A01A637B681A6BFB7A5B101B0203F480731A437B681A637B685A6BFB7A9B101B0103F010031A437B6866
S32D000118C85A637B685A6BFB7ADB105B0103F020031A437B685A637B685A6BFB7A1B119B0103F040031A437B6862
S32D000118F05A637B685A6BFB7A5B11DB01DBB21A437B685A637B685A6BFB7A9B111B0303F480531A437B685A636F
S32D000119187B685A6B97F90B30DB115BB25B0303F400531A437B685A637B685A6BBB7A9B0303F480431A437B681A
S32D000119405A637B685A6BBB7A5B10DB039BB21A437B685A637B685A6BBB7A9B101B0403F480331A437B685A63FD
S32D000119687B685A6BBB7ADB105B0403F400331A437B685A637B685A6BBB7A1B119B0403F480231A437B685A63C3
S32D000119907B685A6BBB7A5B11DB0403F400231A437B685A637B689A6BBB7A9B1103F001031A437B689A637B6809
S32D000119B89A6B97F90A30DB115BB29B0003F004031A437B689A637B689A6B7B7ADB0003F008031A437B689A6373
S32D000119E07B689A6B7B7A5B101B0103F010031A437B689A637B68DB69FB60FB68FB72FB681B0ABB72FB681B0CA0
S32D00011A08DBB203F003037B727B685A6AFB7A5B0203F400731A437B685A627B685A6AFB7A5B101B0203F48073CF
S32D00011A301A437B685A627B689A6AFB7A9B101B0103F010031A437B689A627B689A6AFB7ADB105B0103F020036D
S32D00011A581A437B689A627B689A6AFB7A1B119B0103F040031A437B689A627B689A6AFB7A5B11DB01DBB21A43FF
S32D00011A807B689A627B689A6AFB7A9B111B0303F480531A437B689A627B689A6A97F90B30DB115BB25B0303F42C
S32D00011AA800531A437B689A627B689A6ABB7A9B0303F480431A437B689A627B689A6ABB7A5B10DB039BB21A43C1
S32D00011AD07B689A627B689A6ABB7A9B101B0403F480331A437B689A627B689A6ABB7ADB105B0403F400331A434F
S32D00011AF87B689A627B689A6ABB7A1B119B0403F480231A437B689A627B689A6ABB7A5B11DB0403F400231A4345
S32D00011B207B689A627B68DA6ABB7A9B1103F001031A437B68DA627B68DA6A97F90A30DB115BB29B0003F00403BD
S32D00011B481A437B68DA627B68DA6A7B7ADB0003F008031A437B68DA627B68DA6A7B7A5B101B0103F010031A437B
S32D00011B707B68DA6200BF1437BD4680BC704780B483B000AF78607B6818460C37BD4680BC704780B584B000AFA7
S32D00011B98F860B9607A603B60FB682033B968184637F06AFAFB687A681A60FB683A689A60FB68BA691A61FB6856
S32D00011BC0FA695A61FB681A68FB681B691A44FB685A60FB689A68FB685B691A44FB68DA60FB683A6A9A61FB68A5
S32D00011BE87A6ADA61FB680022C3F8E82000BF1037BD4680BDF0B585B002AF78607B689B6919461F48FEF7C1FD5E
S32D00011C107B6819687B689A687B6818697B685B69009303461848FFF78CFA7B68DB6919461548FEF7AEFD7B6833
S32D00011C3803F120047B681B681D467B681B691E467B682033184638F037FB024613465B0013449B00F31A5B0885
S32D00011C602B4418467B689A687B685B69113BD90F0B445B101344024621460348FEF79CFD00BF0C37BD46F0BD7D
S32D00011C88001B002080B584B002AF78607B689B6919461F48FEF779FD7B681B68591C7B689B685A1C7B681B694A
S32D00011CB0981E7B685B69023B009303461648FFF740FA7B681B68991C7B689B689A1C7B681B69181F7B685B6905
S32D00011CD8043B009303460E48FFF72FFA7B681B68D91C7B689B68DA1C7B681B69981F7B685B69063B0093034634
S32D00011D000548FFF71EFA7B680122C3F8E82000BF0837BD4680BD00BF001B002080B584B002AF786000211F48DE
S32D00011D28FEF733FD7B681B68D91C7B689B68DA1C7B681B69981F7B685B69063B009303461648FFF7FAF97B6824
S32D00011D501B68991C7B689B689A1C7B681B69181F7B685B69043B009303460E48FFF7E9F97B681B68591C7B6844
S32D00011D789B685A1C7B681B69981E7B685B69023B009303460548FFF7D8F97B680022C3F8E82000BF0837BD4609
S32D00011DA080BD00BF001B002080B584B000AFF860B9607A603B60FB681B68184633F08CF80246BB6819461046D4
S32D00011DC833F082FA0346002B00F08180FB685B68184633F07DF80246BB681946104633F07DFA0346002B72D05C
S32D00011DF0FB689B68184633F06FF802467B681946104633F065FA0346002B64D0FB68DB68184633F061F80246A4
S32D00011E187B681946104633F061FA0346002B56D03A1D07F1080319462B48FEF781FDFB681B68184633F04CF8A1
S32D00011E400246BB681946104633F042FA0346002B3FD0FB685B68184633F03EF80246BB681946104633F03EFA19
S32D00011E680346002B31D0FB689B68184633F030F802467B681946104633F026FA0346002B23D0FB68DB68184639
S32D00011E9033F022F802467B681946104633F022FA0346002B15D03B68002B10D1FB68D3F8E830002B03D1F8681A
S32D00011EB8FFF7E8FE07E0FB68D3F8E830002B02D0F868FFF727FF012302E0002300E0002318461037BD4680BD68
S32D00011EE0001B002080B586B000AFF860B9607A60BB687B617B683B6179693A690123F868FFF752FF0346002BF1
S32D00011F0814BF01230023DBB2002B08D007F1100207F1140319460448FEF70AFDE8E700BF1837BD4680BD00BF64
S32D00011F30001B0020B0B592B004AFF860B9607A603B60FB6C7B633B683B63F86C32F058FB02460B464FF00000D0
S32D00011F584E4932F003FA02460B4614461D46386D32F04AFB02460B462046294632F0F6F902460B461046194675
S32D00011F8032F0A0FE03463B62386832F039FB02460B464FF00000404932F0E4F902460B4614461D46B86C32F09A
S32D00011FA82BFB02460B462046294632F0D7F902460B461046194632F081FE0346FB61786832F086FF03461946C1
S32D00011FD0386A33F089F80346184633F0ADF90346BB61B86832F078FF03461946F86933F07BF80346184633F0A5
S32D00011FF89FF903467B6100237B620123BB62BA6ABB689A423DDC0123FB62FA6A7B689A422DDC7B6AEC2202FBE3
S32D0001202003F3FA68D0187A6A13469B0013449B001A467B6D9918FB6D0393BB6D02937B690193BB6900933B6BFE
S32D000120487A6BFFF7A2FD7B6AEC2202FB03F3FA6813441846FFF7CEFD7B6A01337B627A6BBB6913447B63FB6A98
S32D000120700133FB62CDE73A6B7B6913443B63FB6C7B63BB6A0133BB62BDE700BF3837BD46B0BD00BF000074400E
S32D0001209800006E4080B582B000AF786039607B68012B07D13B684FF6FF72934202D10348FEF78AF900BF08373B
S32D000120C0BD4680BD001B002080B500AF4FF6FF710120FFF7E3FF80BD80B582B000AF7860164B03F580535B6BC7
S32D000120E8144A43F0400302F580525363124B4FF400725A62104B4FF400721A620F4B14225A700E4B1B7ADBB247
S32D000121100C4A43F00103DBB213720A4B80229A7002212B20FBF7F0FB3D212A20FBF7ECFB7B6818460837BD46B1
S32D0001213880BD00BF0070044000C004400060064080B582B000AF786039607B68012B07D13B684FF6FF72934282
S32D0001216002D10348FFF7B8FF00BF0837BD4680BD481B002080B500AF4FF6FF710120FFF7E3FF80BD00000000F5
S32D0001218880B582B000AF78607B681846FDF760FB03460F49184632F0EFFE0346184632F03DFA09A3D3E9002311
S32D000121B032F0BAFB02460B461046194632F082FD034618460837BD4680BD00BFAFF300800000000000A06940EA
S32D000121D800404A4480B582B000AF78600B46FB707B68FA7811461846FDF722FB7B6818460837BD4680BD000085
S32D0001220080B582B000AF786039607B68012B08D13B684FF6FF72934203D120210348FFF7DDFF00BF0837BD46DF
S32D0001222880BD00BF4C1B002080B500AF4FF6FF710120FFF7E1FF80BD80B483B000AF78607B6800221A707B68D7
S32D0001225018460C37BD4680BC7047000080B582B000AF78607B681B7883F00103DBB2002B52D07B6801221A7083
S32D000122782A4B03F580535B6B284A43F4806302F580525363264B4FF400725A60244B4FF400729A60234B1B6837
S32D000122A04FF4165219462248FBF786FC204BDB78DBB21F4A23F00C03DBB2D3701C4BDB78DBB21B4A43F020037F
S32D000122C8DBB2D370184BDB7ADBB2174A23F02003DBB2D372154BD3F88431144A43F40053C2F88431114B5B6813
S32D000122F0104A43F4005353600D4BDB78DBB20C4A43F00C03DBB2D3706420FDF7E5F87B6801221A70012300E09F
S32D00012318002318460837BD4680BD00BF0070044000900440481A002000A0064000E100E080B483B000AF786038
S32D000123407B681B7818460C37BD4680BC7047000080B487B000AFF860B9607A60FB700023FB7400237B617A691D
S32D000123687B689A422BD2194B1B78002B00D1FAE7BA687B691344164A12781A70134B00221A70BA687B6913447E
S32D000123901B780D2B16D0FB7C83F00103DBB2002B0CD0BA687B6913441B78FA789A4202D10123FB7402E07B6981
S32D000123B8013B7B617B6901337B61D0E700BF7B6918461C37BD4680BC704700BF661B0020671B002080B586B07C
S32D000123E000AFF860B9607A6000237B617A697B689A420BD2BA687B6913441B7819460648FBF7ADFC7B69013306
S32D000124087B61EFE77B6918461837BD4680BD00BF00A0064080B483B000AF78603960044A3B68136000BF0C3790
S32D00012430BD4680BC704700BF501B002080B582B000AF3248FBF772FC0346FB71304AFB791370304B01221A70FF
S32D000124582F4B1B78022B33D0022B4FDC002B02D0012B14D04AE0FB79FF2B44D1284B01221A70284B00221A7097
S32D00012480264B1B785A1CD1B2244A11701946244AFB79535433E0214B1B785A1CD1B21F4A117019461E4AFB7929
S32D000124A853541C4B1B780D2B27D11C4B1B68194A1278114618489847154B02221A701CE0FB79FF2B10D1124BE1
S32D000124D001221A70114B00221A70104B1B785A1CD1B20E4A117019460D4AFB79535409E00A4B00221A70084B5A
S32D000124F800221A7002E000BF00E000BF00BF0837BD4680BD00A00640671B0020661B0020651B0020641B002023
S32D00012520541B0020501B002080B582B000AF78607B681846FFF784FE7B6811491846FFF76DFF7B684FF0FF327B
S32D000125485A600E4B4FF000021A600D4B4FF000021A600C4B4FF000021A600B4B00221A600A4B00221A700A4B29
S32D0001257000221A707B6818460837BD4680BD00BF2D310100741B0020781B00207C1B0020801B0020841B00201F
S32D00012598851B002080B594B000AF786039607B681846FFF7C5FE034683F00103DBB2002B03D07B681846FFF73F
S32D000125C04DFEAC4B1B7883F00103DBB2002B00F00A837B681846FFF741FEA64B1B7883F00103DBB2002B00F052
S32D000125E8FE823B68002B02DA00233B6004E03B680B2B01DD0B233B607B683A685A609C48FEF77DF800233B622B
S32D000126100023FB64002387F84B3097F84B30002B66D196499448FEF7CEFA2B233B752B237B752B23BB757B687B
S32D0001263807F1140103221846FFF7CCFE3862786807F108014F230A22FFF77EFEF864FB6C012B02D93B7A4F2B9F
S32D0001266042D087498448FEF7EDFA86498248FEF7E9FA40F6C410FCF72FFF786807F1080130230A22FFF764FE6D
S32D00012688F864FB6C012B02D93B7A4F2B24D07C497748FEF7D3FA7B497548FEF790FA00237B647B6CFA6C9A42C5
S32D000126B00CD907F108027B6C13441B7819466E48FEF7A8FA7B6C01337B64EEE76C496A48FEF7B8FA6E49684853
S32D000126D8FEF7B4FA00BF06E0012387F84B3002E0012387F84B3094E768496148FEF767FA00233B643B6CFA6C73
S32D000127009A420CD907F108023B6C13441B7819465948FEF77FFA3B6C01333B64EEE758495548FEF78FFA5C4938
S32D000127285348FEF74CFA41233B7554237B754D23BB755923FB757B685B68002B00DA03339B10DBB23133DBB29B
S32D000127503B7631237B763023BB767B685B685A4203F0030302F0030258BF5342DBB23033DBB2FB760D233B7732
S32D000127787B6807F1140109221846FFF72BFE3862786807F108014F230A22FFF7DDFDF864FB6C012B02D93B7A32
S32D000127A04F2B04D03D493448FEF74CFA1BE20023FB63FB6BFA6C9A420CD907F10802FB6B13441B7819462C484F
S32D000127C8FEF724FAFB6B0133FB63EEE72A492848FEF734FA30492648FEF7F1F941233B7554237B754923BB751F
S32D000127F04423FB757B685B68002B00DA03339B10DBB23133DBB23B7630237B763023BB763023FB760D233B77BA
S32D000128187B6807F1140109221846FFF7DBFD3862786807F108014F230A22FFF78DFDF864FB6C012B02D93B7A32
S32D000128404F2B04D015490C48FEF7FCF9CBE10023BB63BB6BFA6C9A4224D907F10802BB6B13441B781946044870
S32D00012868FEF7D4F9BB6B0133BB63EEE7701B0020001B00209C860500B0860500B4860500CC860500E4860500E5
S32D00012890F086050000870500088705001C8705003C870500AB49AC48FEF7CCF9AB49AA48FEF789F941233B75FB
S32D000128B854237B754423BB754C23FB757B685B68002B00DA03339B10DBB23133DBB23B7630237B763023BB7691
S32D000128E07B685B685A4203F0030302F0030258BF5342DBB23033DBB2FB760D233B777B6807F1140109221846A2
S32D00012908FFF768FD3862786807F108014F230A22FFF71AFDF864FB6C012B02D93B7A4F2B04D08D498A48FEF7B5
S32D0001293089F958E100237B637B6BFA6C9A420CD907F108027B6B13441B7819468248FEF761F97B6B01337B636D
