S01100002E2E2F50726F746575732E73313966
S32D0000C000000000205DC2000011C3000017C300001DC3000023C3000029C3000000000000000000000000000073
S32D0000C028000000002FC3000035C30000000000003BC3000041C3000029E3000035E3000041E300004DE3000086
S32D0000C05059E3000065E3000071E300007DE3000089E3000095E30000A1E30000ADE30000B9E30000C5E300004E
S32D0000C078D1E30000DDE30000E9E30000F5E3000001E400000DE4000019E4000025E4000031E400003DE4000070
S32D0000C0A049E4000055E4000061E400006DE4000079E4000085E4000091E400009DE40000A9E40000B5E4000094
S32D0000C0C8C1E40000CDE40000D9E40000E5E40000F1E40000FDE4000009E5000015E5000021E500002DE50000B8
S32D0000C0F039E50000C55E010045E5000051E500005DE5000069E5000075E5000081E500008DE5000099E5000040
S32D0000C118A5E50000B1E50000BDE50000C9E50000D5E50000E1E50000EDE50000F9E5000005E6000011E6000077
S32D0000C1401DE6000029E6000035E6000041E60000D93401004DE6000059E6000065E6000071E600007DE60000F8
S32D0000C16889E6000095E60000A1E60000ADE60000B9E60000C5E60000D1E60000DDE60000E9E60000F5E6000037
S32D0000C19001E700000DE7000019E7000019310100E12F01007D300100ADE00000B931010025E7000031E70000FF
S32D0000C1B83DE7000030AE020000000020D816000030AE02000000FF1F00000000D8160020080700000000FF1F0E
S32D0000C1E00000000080B489B000AFF860B9607A60BB68FB61FB68BB6100237B617A697B689A420BD2BA69131DFB
S32D0000C208BB61FB69191DF96112681A607B6904337B61EFE700BF2437BD4680BC704780B485B000AF786039609E
S32D0000C2307B68FB600023BB60BA683B689A4208D2FB681A1DFA6000221A60BB680433BB60F2E700BF1437BD46FE
S32D0000C25880BC704780B586B000AF72B6234B4CF220521A80214B4DF628121A80204B4FF4E9721A801F4B7B615F
S32D0000C2807B691F4A934214D27B691A1D7A611B683B617B691A1D7A611B68FB607B691A1D7A611B68BB60BA68E9
S32D0000C2A8F9683869FFF79AFFE6E77B69134A93420ED27B691A1D7A611B68FB607B691A1D7A611B68BB60B9688B
S32D0000C2D0F868FFF7A8FFECE70B4B7B600B4A7B681A6015F0CDFE62B601F0A8FF01F02EFEFEE700BF0E200540D9
S32D0000C2F800200540BCC10000D4C10000E4C1000008ED00E000C0000080B400AFFEE780B400AFFEE780B400AFF4
S32D0000C320FEE780B400AFFEE780B400AFFEE780B400AFFEE780B400AFFEE780B400AFFEE780B400AFFEE780B426
S32D0000C34800AFFEE7FFFFFFFFFFFFFFFFFFFFFFFFFFFFFFFFFFFFFFFFFFFFFFFFFFFFFFFFFFFFFFFFFFFFFFFF57
S32D0000C370FFFFFFFFFFFFFFFFFFFFFFFFFFFFFFFFFFFFFFFFFFFFFFFFFFFFFFFFFFFFFFFFFFFFFFFFFFFFFFFFC7
S32D0000C398FFFFFFFFFFFFFFFFFFFFFFFFFFFFFFFFFFFFFFFFFFFFFFFFFFFFFFFFFFFFFFFFFFFFFFFFFFFFFFFF9F
S32D0000C3C0FFFFFFFFFFFFFFFFFFFFFFFFFFFFFFFFFFFFFFFFFFFFFFFFFFFFFFFFFFFFFFFFFFFFFFFFFFFFFFFF77
S32D0000C3E8FFFFFFFFFFFFFFFFFFFFFFFFFFFFFFFFFFFFFFFFFFFFFFFFFFFFFFFFFFFFFFFFFFFFFFFFFEFFFFFF50
S32D0000C44010B5054C237833B9044B13B10448AFF300800123237010BDD816002000000000A0AC020008B5034BC5
S32D0000C4681BB103490348AFF3008008BD00000000DC160020A0AC020080B582B000AF7860786811F0ABFF03463A
S32D0000C49018460837BD4680BD80B582B000AF7860786812F0E7F8034618460837BD4680BD80B500AF044A05494C
S32D0000C4B805480AF073FC0346044A136000BF80BD9488020098880200C01A0020F416002080B500AF034B1B6881
S32D0000C4E0194603480AF040FD00BF80BDF4160020C01A002080B500AF154807F010FE002300221449124808F0F3
S32D0000C50832F80023012212490F4808F02CF80023022210490C4808F026F8002303220E49094808F020F800239A
S32D0000C53004220C49064808F01AF80B4809F068FB01460D230322024808F02DF800BF80BD381A0020A4880200BC
S32D0000C558B4880200C4880200D4880200E4880200841A002080B582B000AF786039600D237A680B490B4807F068
S32D0000C580F6FF0D237A683968084808F00CF8084809F03EFB01460D230322044808F003F800BF0837BD4680BDFE
S32D0000C5A8F0880200381A0020841A002080B582B000AF7860194B1B680D2B25DC174B1A6800231749174807F0F0
S32D0000C5D0CEFF144B1A6800237968144807F0C7FF134B1B68002B0DD0114B1B687A68194610480AF049FD0E4B78
S32D0000C5F81B680F4A19460D480AF042FD074B1B680133064A136005E0044B05221A607868FFF7CCFF00BF08370C
S32D0000C620BD4680BD0000002000890200381A0020F4160020C01A00201C89020080B582B000AF78604FF4FA7128
S32D0000C648104807F00FF940F6FC010E4807F027F90D490C4807F040F97B6801221A704FF4FA710A4807F0FEF876
S32D0000C67040F6FC01074807F016F90749054807F02FF97B6818460837BD4680BD101700200000B4421C17002008
S32D0000C6980000C84280B582B000AF786039603968034807F019F900BF0837BD4680BD00BF1C17002080B582B037
S32D0000C6C000AF78607B681B78002B08D04FF00001084807F005F97B6800221A7006E00649044807F0FDF87B68E8
S32D0000C6E801221A7000BF0837BD4680BD101700200000B442B0B584B000AFF860B9607A60786814F071F80446D2
S32D0000C710786814F06DF80546786814F069F803462A462146F86800F0EBF8B86806F0F6FBF86800F0D3F800BFEE
S32D0000C7381037BD46B0BD80B584B000AFF860B9607A603B603A68B968F86800F00DF8786806F0E0FBF86800F005
S32D0000C760BDF800BF1037BD4680BD000000000000B0B588B000AFF860B9607A60786813F0CBFB04460D46B868B3
S32D0000C78813F0D8FB4AA3D3E9002313F02BFC02460B46104619464FF000024D4B13F04CFD02460B4644A1D1E90C
S32D0000C7B0000113F063FA02460B461046194611F0C1FD02460B462046294613F00FFC02460B461046194613F020
S32D0000C7D801FF0346FB61786813F09AFB04460D46B86813F0A7FB32A3D3E9002313F0FAFB02460B4610461946BA
S32D0000C8004FF00002344B13F01BFD02460B462EA1D1E9000113F032FA02460B461046194611F090FD02460B4668
S32D0000C8282046294613F0DEFB02460B461046194613F0D0FE0346BB61786813F069FB04460D46B86813F076FB35
S32D0000C85019A3D3E9002313F0C9FB02460B46104619464FF000021C4B13F0EAFC02460B4617A1D1E9000113F06A
S32D0000C87801FA02460B461046194611F05FFD02460B462046294613F0ADFB02460B461046194613F09FFE03469C
S32D0000C8A07B617B69BA69F969F86800F029F800BF2037BD46B0BD00BF7A008BFCFA2109405C40683D7CD9124022
S32D0000C8C866801E7DA6F104405100B2FD51C1E03F0080664080B582B000AF78604FF000034FF000024FF00001DE
S32D0000C8F0786800F005F800BF0837BD4680BD000080B584B000AFF860B9607A603B604FF00001B86814F05EF956
S32D0000C9180346002B08D0B968554801F079FFB9680220FFF71FFE25E0B86813F003FB4AA3D3E9002313F056FBE2
S32D0000C94002460B461046194613F048FE03461946494801F061FFB86813F0F0FA40A3D3E9002313F043FB024650
S32D0000C9680B461046194613F035FE034619460220FFF7F8FD4FF00001786814F027F90346002B08D079683B48BC
S32D0000C99001F042FF79680020FFF7E8FD25E0786813F0CCFA30A3D3E9002313F01FFB02460B461046194613F09D
S32D0000C9B811FE034619462F4801F02AFF786813F0B9FA27A3D3E9002313F00CFB02460B461046194613F0FEFD74
S32D0000C9E0034619460020FFF7C1FD4FF00001386814F0F0F80346002B08D03968204801F00BFF39680120FFF7D9
S32D0000CA08B1FD25E0386813F095FA17A3D3E9002313F0E8FA02460B461046194613F0DAFD03461946144801F080
S32D0000CA30F3FE386813F082FA0DA3D3E9002313F0D5FA02460B461046194613F0C7FD034619460120FFF78AFD0C
S32D0000CA5800BF1037BD4680BDC3F5285C8FC2ED3F666666666666EE3FCDCCCCCCCCCCEC3FF816002000170020C7
S32D0000CA80081700200000000080B582B000AF124806F0EEFB7860786813F050FA0CA3D3E9002313F015FD034609
S32D0000CAA8002B01D001230AE04FF07E51786814F08DF80346002B01D0022300E0002318460837BD4680BD00BFD6
S32D0000CAD09A9999999999D93F28170020B0B584B000AFF860B9607A603B607968F86813F0C9FD03461C46796866
S32D0000CAF8F86813F0C3FD03461946204613F0C8FE03461C463968B86813F0B8FD03461D463968B86813F0B2FDD3
S32D0000CB2003461946284613F0B7FE03461946204613F0AAFD03461846FFF7AEFC034618461037BD46B0BD0000BC
S32D0000CB4880B588B002AF38710E48FFF72FFD381D5F230D4A0D49FFF7EEFD0D4B7B610D4B3B614FF00003FB6056
S32D0000CB704FF07C530093FB683A697969387900F03BFC00BF1837BD4680BD00BF2089020015A8753F0000874343
S32D0000CB98666616410000604180B58CB002AFA648FFF704FD01F0DCF807F1200207F124031146184601F0F8F810
S32D0000CBC07B6A19469F4813F05DFD03461A469E4B1A603B6A19469D4813F054FD03461A469B4B1A609B4B1B6804
S32D0000CBE8184613F0A7F902460B46381DCDE90023974A1B2116F0B2F93B1D1846FFF7D6FC944B1B68184613F048
S32D0000CC1095F902460B46381DCDE90023904A1B2116F0A0F93B1D1846FFF7C4FC8D48FFF7C1FC01F099F807F17E
S32D0000CC38200207F124031146184601F0B5F87B6A184613F077F902460B4673A1D1E9000113F010F802460B4678
S32D0000CC601046194613F0BAFC03467A4A13603B6A184613F063F902460B466BA1D1E9000112F0FCFF02460B4660
S32D0000CC881046194613F0A6FC0346724A13606F4B1B68184613F04EF902460B46381DCDE900236B4A1B2116F009
S32D0000CCB059F93B1D1846FFF77DFC684B1B68184613F03CF902460B46381DCDE90023644A1B2116F047F93B1DC4
S32D0000CCD81846FFF76BFC6248FFF768FC01F040F807F1200207F124031146184601F05CF87B6A19465B4813F029
S32D0000CD00C1FC03461A465A4B1A603B6A184613F015F902460B4646A1D1E9000112F0AEFF02460B461046194634
S32D0000CD2813F058FC0346514A13604F4B1B68184613F000F902460B46381DCDE90023444A1B2116F00BF93B1DC5
S32D0000CD501846FFF72FFC474B1B68184613F0EEF802460B46381DCDE900233D4A1B2116F0F9F83B1D1846FFF7AD
S32D0000CD781DFC3F48FFF71AFC00F0F2FF07F1200207F124031146184601F00EF87B6A184613F0D0F802460B4674
S32D0000CDA025A1D1E9000112F069FF02460B461046194613F013FC0346304A13603B6A19462F4813F05FFC0346C2
S32D0000CDC81A462E4B1A602B4B1B68184613F0B2F802460B46381DCDE900231D4A1B2116F0BDF83B1D1846FFF715
S32D0000CDF0E1FB244B1B68184613F0A0F802460B46381DCDE90023164A1B2116F0ABF83B1D1846FFF7CFFB00BF0D
S32D0000CE182837BD4680BD00BF9A999999999911406666666666E646406666666666265040CDCCCCCCCC8C40407F
S32D0000CE4038890200000040404417002000000841481700202C17002050890200301700206089020070890200B3
S32D0000CE6888890200000006423C17002040170020A0890200341700200000EC413817002080B588B002AF38715E
S32D0000CE901048FFF78FFB3B1D50220F491846FFF72DFC0E4B7B610E4B3B614FF00003FB600C4B0093FB683A6946
S32D0000CEB87969387900F09CFA3B1D5F2208491846FFF752FC00BF1837BD4680BDB88902004266263F0000E841A0
S32D0000CEE06666D2410000A0400000344380B582B000AF38710648FFF75DFB381D5F23054A0549FFF71CFC00BF52
S32D0000CF080837BD4680BD00BFD089020089793B400000344380B588B002AF38711148FFF745FB3B1D50221049F5
S32D0000CF301846FFF7E3FB381D5F230E4A0E49FFF7FEFB0E4B7B610E4B3B614FF00003FB604FF07F530093FB685E
S32D0000CF583A697969387900F04BFA00BF1837BD4680BD00BFE4890200ADDDDD3E9602B53F0000524333339341C4
S32D0000CF800000364280B588B002AF38711048FFF711FB381D5F230F4A0F49FFF7D0FB3B1D6FF04F020D491846E5
S32D0000CFA8FFF7A8FB0C4B7B610C4B3B610C4BFB600C4B0093FB683A697969387900F018FA00BF1837BD4680BD17
S32D0000CFD0F88902002FBA683F00007042F821423F9A9991419A9955420000D2429A99993E80B588B002AF387120
S32D0000CFF81048FFF7DBFA381D5F230F4A0F49FFF79AFB3B1D6FF04F020D491846FFF772FB0C4B7B610C4B3B6190
S32D0000D0200C4BFB600C4B0093FB683A697969387900F0E2F900BF1837BD4680BD0C8A0200FD4A013F00008242B1
S32D0000D048F821423F9A99394133333F420000D2429A99993E0000000080B582B000AF3871381D5F231C4A1D490C
S32D0000D070FFF765FB3B1D1B491846FFF70FFB4FF00000194905F06AFF381D5F23144A1749FFF755FB3B1D164991
S32D0000D0981846FFF7FFFA0EA1D1E9000105F05AFF3B1D0E491846FFF7F5FA09A1D1E9000105F050FF3B1D0C491D
S32D0000D0C01846FFF7EBFA4FF000000A4905F046FF00BF0837BD4680BD9A9999999999C93F62DE4E3E0000F04163
S32D0000D0E800001640000052430000F0420000E03F80B582B000AF38713B1D12491846FFF7C9FA381D5F23104A24
S32D0000D1101049FFF714FB381D5F230F4A0F49FFF70EFB3B1D0E491846FFF7B8FA4FF000000C4905F013FF381D67
S32D0000D1385F23074A0849FFF7FEFA00BF0837BD4680BD00BF00003443FD4A813E0000F041A0D6AF3E00009643D0
S32D0000D1600000F0420000E03F80B582B000AF3871381D5F23104A1149FFF7E1FA3B1D50220F491846FFF7BAFA0B
S32D0000D1883B1D0E491846FFF785FA4FF000000C4905F0E0FE3B1D0B491846FFF77BFA4FF00000094905F0D6FEC1
S32D0000D1B000BF0837BD4680BD2FBA683F000052431EE9133D00008C420000F03F000016430000E03F80B588B0B5
S32D0000D1D802AF38711048FFF7E9F9381D5F230F4A0F49FFF7A8FA3B1D6FF04F020D491846FFF780FA0C4B7B6120
S32D0000D2000C4B3B610C4BFB600C4B0093FB683A697969387900F0F0F800BF1837BD4680BD208A02009602353FFA
S32D0000D22800007042F821423F00007041CDCC4C420000D2429A99993E80B582B000AF38711648FFF7B3F9381D82
S32D0000D2505F23154A1549FFF772FA4FF00000144905F07CFE3B1D13491846FFF717FA4FF00000114905F072FEED
S32D0000D278381D5F230F4A1049FFF75DFA4FF000000B4905F067FE381D5F23054A0B49FFF752FA00BF0837BD4608
S32D0000D2A080BD00BF308A020062DE4E3E000096430000E03F000020430000F03F62DECE3D000052430000F04240
S32D0000D2C880B584B000AFF860C7E90023F86812F031FED7E9002311F09DF902460B46104619461037BD4680BD15
S32D0000D2F080B584B000AF786039607968386813F0C1F9034619464FF000021D4B0846FFF7DBFFC7E902014FF0E8
S32D0000D31800021A4BD7E9020113F0D6F80346002B0BD04FF00002144BD7E9020112F0A4FC02460B46C7E902232A
S32D0000D34014E04FF00002104BD7E9020113F0D4F80346002B0AD04FF00002094BD7E9020112F08CFC02460B46D4
S32D0000D368C7E90223D7E9020113F034F9034618461037BD4680BD00BF00807640008066C00080664080B586B075
S32D0000D39000AFF860B9607A60B968F868FFF7A8FF0346184612F0CAFD02460B46C7E90423786812F0C3FD02468D
S32D0000D3B80B46D7E9040113F087F80346002B10D07B6883F00043184612F0B4FD02460B46D7E9040113F096F8C2
S32D0000D3E00346002B01D0012300E0002318461837BD4680BD00000000B0B59EB004AF3873B9607A603B603C4BA0
S32D0000D4083C4A7968B868FFF765FBB8653A4B3B4A7968B868FFF75EFB7865394B394A7968B868FFF757FB3865D8
S32D0000D430374B384A7968B868FFF750FBF864796DB86D13F0C7FB0346002B1ED0396DB86D13F0C0FB0346002BFD
S32D0000D45817D0F96CB86D13F0B9FB0346002B10D02B4B1B681946B86813F008F90346BB60284B1B681946786815
S32D0000D48013F000F903467B6062E0396D786D13F0A1FB0346002B17D0F96C786D13F09AFB0346002B10D01E4BF8
S32D0000D4A81B681946B86813F0E9F80346BB601B4B1B681946786813F0E1F803467B6043E0F96C386D13F082FB37
S32D0000D4D00346002B2CD0144B1B681946B86813F0D1F80346BB60114B1B681946786813F0C9F803467B602BE01C
S32D0000D4F833333742CDCC8C400000EC4166660442333381420000064200000841000040402C170020301700207F
S32D0000D52034170020381700203C17002040170020BB4B1B681946B86813F0A4F80346BB60B84B1B681946786849
S32D0000D54813F09CF803467B6050237B6650233B66ABA1D1E9000105F0FDFC07F12C0207F130031146184600F0A7
S32D0000D5701FFCB8643B6B4FF00001184613F02AFB0346002B40F03082FB6A4FF00001184613F020FB0346002BFF
S32D0000D59840F026824FF00001B86C13F017FB0346002B40F01D82B86C12F0C4FC4FF000029B4B12F05FFB024620
S32D0000D5C00B464FF00000994912F058FB02460B461046194613F002F80346BB643B6B1946B86813F04FF803460B
S32D0000D5E87B64FB6A1946786813F048F803463B64796C786C13F04CF903461C46396C386C13F046F90346194678
S32D0000D610204613F039F803461846FEF73DFFF863796C386C13F0ECF903461846FEF728FF0346184612F082FCC4
S32D0000D6384FF000027C4B12F0D5FC02460B461046194671A3D3E9002312F0F6FD02460B461046194612F0BEFFA6
S32D0000D6600346FB65F96D734813F00CF80346FB654FF00001786C13F0ADFA0346002B05D06D49F86D13F000F8F5
S32D0000D6880346FB65F86B12F055FC02460B4607F11000CDE90023674A1B2115F05FFC07F110031846FEF782FF6F
S32D0000D6B0F86D12F043FC02460B4607F11000CDE900235F4A1B2115F04DFC07F110031846FEF770FF3B6B184628
S32D0000D6D812F030FC04460D46FB6A184612F02AFC02460B4607F11000CDE90223CDE90045524A1B2115F032FCEC
S32D0000D70007F110031846FEF755FFB86812F016FC04460D46786812F011FC02460B4607F11000CDE90223CDE957
S32D0000D7280045474A1B2115F019FC07F110031846FEF73CFFF96DB86CFFF7D6FD0446F86B12F0F8FB32A3D3E988
S32D0000D750002312F075FD02460B461046194612F03DFF024607F10C007B6E2146FEF7E7FF07F12C0207F13003C0
S32D0000D7781146184600F018FBB8643B6B4FF00001184613F023FA0346002B40F02981FB6A4FF00001184613F0F7
S32D0000D7A019FA0346002B40F01F814FF00001B86C13F010FA0346002B40F01681B86C12F0BDFB4FF00002184BD6
S32D0000D7C812F058FA02460B464FF00000154912F051FA02460B461046194612F0FBFE0346BB643968B86CFFF7F0
S32D0000D7F07FFDB8634FF00001B86B13F009FA0346002B3AD022E000BF9A9999999999C93F7A008BFCFA210940C8
S32D0000D818CDCCCCCCCCCC234044170020481700200080564000807640008066400000B44200003443448A02000D
S32D0000D840588A02006C8A0200848A0200B86B12F075FB67A3D3E9002312F0F2FC02460B461046194612F0BAFE58
S32D0000D86801463B6E5A4207F10C031846FEF742FF17E0BB6B83F00043184612F05BFB5AA3D3E9002312F0D8FC30
S32D0000D89002460B461046194612F0A0FE014607F10C033A6E1846FEF729FF07F12C0207F130031146184600F015
S32D0000D8B87BFAB864B86C12F03DFB4FF000024C4B12F0D8F902460B464FF00000494912F0D1F902460B46104683
S32D0000D8E0194612F07BFE0346BB64BA6F3968B86CFFF74CFD034687F837307B6E282B02DD28237B6605E07B6E67
S32D0000D908142B02DD7B6E053B7B667B6E3B66B96FB86812F0B3FE03461A463B6B01210C461946104613F070F960
S32D0000D9300346002B01D100231C46E3B283F00103DBB2002B3FF40DAEB96FB86812F09CFE03461A463B6B0121F7
S32D0000D9580C461946104613F039F90346002B01D100231C46E3B283F00103DBB2002B3FF4F4ADB96F786812F0F8
S32D0000D98081FE03461A46FB6A01210C461946104613F03EF90346002B01D100231C46E3B283F00103DBB2002BFA
S32D0000D9A83FF4DBADB96F786812F06AFE03461A46FB6A01210C461946104613F007F90346002B01D100231C461F
S32D0000D9D0E3B283F00103DBB2002B3FF4C2AD97F83730002B00D1BCE500BF6837BD46B0BD105839B4C84E614056
S32D0000D9F8008056400080764080B582B000AF38713B1D6FF04F020C491846FEF773FE3B1D0A491846FEF73EFE9B
S32D0000DA2005A1D1E9000105F099FA00BF0837BD4680BD00BFAFF30080333333333333D33FADDDDD3E0000C841DE
S32D0000DA4880B588B002AF38711348FEF7AFFD381D5F23124A1249FEF76EFE3B1D502211491846FEF747FE104BE7
S32D0000DA707B61104B3B614FF00003FB60381D5F23084A0C49FEF75BFE0B4B0093FB683A6979693879FFF7B0FC28
S32D0000DA9800BF1837BD4680BD988A0200FD4A813F0000F041F821423FCDCCCC4100007042CDCCCC3E0000000021
S32D0000DAC080B582B000AF38713B1D1B491846FEF7E5FD17A1D1E9000105F040FA381D5F23164A1749FEF72BFE31
S32D0000DAE83B1D6FF04F0215491846FEF703FE381D5F23134A1049FEF71EFE3B1D502211491846FEF7F7FD3B1DF5
S32D0000DB106FF04F020E491846FEF7F0FD381D5F23094A0C49FEF70BFE00BF0837BD4680BD9A9999999999C93F46
S32D0000DB3800008242CA269B3E0000524362DECE3D62DE4E3E8CAA8A3FADDD5D3E0000F04180B588B002AF38716A
S32D0000DB601148FEF727FD381D5F23104A1049FEF7E6FD3B1D6FF04F020E491846FEF7BEFD0D4B7B610D4B3B612E
S32D0000DB880D4BFB604FF07C530093FB683A6979693879FFF72DFC00BF1837BD4680BD00BFAC8A0200FD4A014096
S32D0000DBB0000082428CAA8A3F0000E4416666D2410000164380B582B000AF38710A48FEF7F1FC381D5F23094A0A
S32D0000DBD80949FEF7B0FD3B1D1846FEF76BFD4FF00000064905F0B6F900BF0837BD4680BDBC8A020062DE4E3E94
S32D0000DC00000034430000E03F80B588B002AF38710E48FEF7CFFC381D5F230D4A0D49FEF78EFD0D4B7B610D4BF3
S32D0000DC283B614FF00003FB604FF07E530093FB683A6979693879FFF7DBFB00BF1837BD4680BD00BFE08A020014
S32D0000DC50E4388E3F000087430000E0400000384280B582B000AF38710948FEF7A3FC381D5F23084A0849FEF746
S32D0000DC7862FD381D5F23074A4FF00001FEF75BFD00BF0837BD4680BDF48A0200E4388E3F00008743ABAA8A40DA
S32D0000DCA080B584B000AF38714FF00000164905F055F9FEF7E9FEF860FB68012B09D11348FEF778FC381D5F237C
S32D0000DCC8114A1249FEF737FD08E01148FEF76EFC381D5F230C4A0F49FEF72DFD381D5F230D4A0E49FEF727FD6D
S32D0000DCF0381D5F230C4A4FF00001FEF720FD00BF1037BD4680BD00BF0000F03F088B020062DE4E3E0000874328
S32D0000DD18148B02000000B442FD4A813F0000344362DECE3D80B582B000AF00237B600A48FEF73CFC7B68002BDC
S32D0000DD4008D1FEF7A1FE78604FF00000054905F005F9F3E77B6818460837BD4680BD00BF208B02000000E03FCB
S32D0000DD6880B582B000AF0F4806F0F2FD3A463B1D19460C4806F0E8FA034683F00103DBB2002B00D0F2E73A4637
S32D0000DD903B1D1946054806F0DBFA0346002B00D0F5E700BF0837BD4680BD00BF381A002080B58AB000AF786011
S32D0000DDB83960614808F0FAFE78625F4808F0DAFE02467B681A605C4808F0E2FE02463B681A604FF000033B6255
S32D0000DDE04FF00003FB614FF00003BB610523FB609623BB6000237B6100233B617B69042B63DC4DA1D1E9000109
S32D0000DE0805F0A8F84C4808F0D1FE78624A4808F0B1FE02467B681A60474808F0B9FE02463B681A607B681B683B
S32D0000DE304FF00001184612F0EBFE0346002B3CD03B681B684FF00001184612F0E1FE0346002B32D04FF0000160
S32D0000DE58786A12F0D9FE0346002B2AD07B681B683649184612F0B2FE0346002B21D03B681B683349184612F017
S32D0000DE80A9FE0346002B18D07B681B681946386A12F0FAFB03463B623B681B681946F86912F0F2FB0346FB61B3
S32D0000DEA8796AB86912F0ECFB0346BB617B6901337B613B6901333B613B69962B00DC99E700BF7B69002B22D011
S32D0000DED0786912F08DFC03461946386A12F090FD03461A467B681A60786912F081FC03461946F86912F084FDED
S32D0000DEF803461A463B681A60786912F075FC03461946B86912F078FD03467B620AE07B684FF040421A603B68D1
S32D0000DF204FF040421A604FF040437B627B6A18462837BD4680BD00BF7B14AE47E17A843FA01A0020000010428A
S32D0000DF480000904280B582B000AF3B461846FEF771FB304808F0B8FBFEF7A6FAFEF7C6FAFEF71AFE2C48FEF7A0
S32D0000DF7021FBFFF7F9FEFFF7D9FE3B4629491846FEF78CFB3878FFF76BFE3878FFF73CFE3878FFF717FE2148CD
S32D0000DF9808F0B6FD78607B68002B03D13878FFF723F809E07B68012B03D13878FFF70EF902E03878FEF7E2FF54
S32D0000DFC03878FFF7D1F83878FFF74AF83878FFF73BFD3878FFF714FD3878FFF731F93878FFF78AF83878FEF7AA
S32D0000DFE899FF3878FEF77EFF3878FEF7A9FD3878FFF752FE3878FFF7ABFD3878FFF75CFD3878FEF73DFFFEF7ED
S32D0000E01063FA002318460837BD4680BDA01A0020348B02000000164380B582B000AF786039607B68012B1FD10B
S32D0000E0383B684FF6FF7293421AD10F4A00210F4800F07EFB0C4A01210D4800F079FB0A4A02210C4800F074FB0C
S32D0000E06000210B4805F0E6FB01210A4805F0E2FB0021094805F0ECF800BF0837BD4680BD0000C040F81600204B
S32D0000E0880017002008170020101700201C1700202817002080B500AF4FF6FF710120FFF7BFFF80BD80B500AF6C
S32D0000E0B00F4BD3F8A03003F48053002B14BF01230023DBB2002B10D0094BD3F8A030084A23F48053C2F8A030F1
S32D0000E0D8064808F09FFF064B1B68054A23F40053136000BF80BD00BF00C00440C01A0020C0F00F4080B400AF9B
S32D0000E100124B4FF480725A63114B5B69104A43F4005353610E4B1B680D4A43F4005313600A4B0C4A1A630C4B3B
S32D0000E128D3F888310A4A43F08063C2F88831084B9B68074A43F08063936000BFBD4680BC704700BF00C0044040
S32D0000E150C0F00F4003010A0000E100E080B400AF334B00225A70324B98221A70304B9B79DBB203F01003002B78
S32D0000E17814BF01230023DBB2002B00D0F2E72A4B9B79DBB29B08DBB203F00303022B14BF01230023DBB2002BC0
S32D0000E1A000D0F0E7224B18221A71214B00225A71204B03F580531A461F4B53641C4B54225A711B4B9B79DBB2B9
S32D0000E1C803F02003002B0CBF01230023DBB2002B00D0F2E7144B9B79DBB203F04003002B0CBF01230023DBB275
S32D0000E1F0002B00D0F2E70E4B1B78DBB20C4A03F03F03DBB213700A4B9B79DBB29B08DBB203F00303032B14BFF9
S32D0000E21801230023DBB2002B00D0F0E700231846BD4680BC704700BF00400640007004400000130180B500AFCA
S32D0000E240314B03F580539B6B2F4A43F4785302F580529363FFF752FFFFF780FF2B4B58221A602A4B1B684FF4C8
S32D0000E2687A7202FB03F3284A1360274B1B681A46234B03F580535B6C1B0E03F00F030133B2FBF3F31A46214BAE
S32D0000E2901A601D4B03F58053DB6B1B4A43F0225302F58052D363184B03F580531B6B164A43F0006302F58052EE
S32D0000E2B81363174B4FF480721A61642004F000FD134B5B69124A23F010035361104B00221A600F4B10225A61A5
S32D0000E2E00E4805F0A9FD05F0ABF805F009F90C4804F04CFD0B4808F083FF4FF4FA6004F0F7FD00BF80BD00BFF2
S32D0000E3080070044084190020801900208819002000D00340381A00207C1900206C1D002080B500AFFEF70BF83D
S32D0000E33000BF80BD80B500AFFEF705F800BF80BD80B500AFFDF7FFFF00BF80BD80B500AFFDF7F9FF00BF80BD53
S32D0000E35880B500AFFDF7F3FF00BF80BD80B500AFFDF7EDFF00BF80BD80B500AFFDF7E7FF00BF80BD80B500AF73
S32D0000E380FDF7E1FF00BF80BD80B500AFFDF7DBFF00BF80BD80B500AFFDF7D5FF00BF80BD80B500AFFDF7CFFFA3
S32D0000E3A800BF80BD80B500AFFDF7C9FF00BF80BD80B500AFFDF7C3FF00BF80BD80B500AFFDF7BDFF00BF80BD89
S32D0000E3D080B500AFFDF7B7FF00BF80BD80B500AFFDF7B1FF00BF80BD80B500AFFDF7ABFF00BF80BD80B500AFAF
S32D0000E3F8FDF7A5FF00BF80BD80B500AFFDF79FFF00BF80BD80B500AFFDF799FF00BF80BD80B500AFFDF793FF1B
S32D0000E42000BF80BD80B500AFFDF78DFF00BF80BD80B500AFFDF787FF00BF80BD80B500AFFDF781FF00BF80BDC4
S32D0000E44880B500AFFDF77BFF00BF80BD80B500AFFDF775FF00BF80BD80B500AFFDF76FFF00BF80BD80B500AFEA
S32D0000E470FDF769FF00BF80BD80B500AFFDF763FF00BF80BD80B500AFFDF75DFF00BF80BD80B500AFFDF757FF92
S32D0000E49800BF80BD80B500AFFDF751FF00BF80BD80B500AFFDF74BFF00BF80BD80B500AFFDF745FF00BF80BD00
S32D0000E4C080B500AFFDF73FFF00BF80BD80B500AFFDF739FF00BF80BD80B500AFFDF733FF00BF80BD80B500AF26
S32D0000E4E8FDF72DFF00BF80BD80B500AFFDF727FF00BF80BD80B500AFFDF721FF00BF80BD80B500AFFDF71BFF0A
S32D0000E51000BF80BD80B500AFFDF715FF00BF80BD80B500AFFDF70FFF00BF80BD80B500AFFDF709FF00BF80BD3B
S32D0000E53880B500AFFDF703FF00BF80BD80B500AFFDF7FDFE00BF80BD80B500AFFDF7F7FE00BF80BD80B500AF63
S32D0000E560FDF7F1FE00BF80BD80B500AFFDF7EBFE00BF80BD80B500AFFDF7E5FE00BF80BD80B500AFFDF7DFFE85
S32D0000E58800BF80BD80B500AFFDF7D9FE00BF80BD80B500AFFDF7D3FE00BF80BD80B500AFFDF7CDFE00BF80BD7A
S32D0000E5B080B500AFFDF7C7FE00BF80BD80B500AFFDF7C1FE00BF80BD80B500AFFDF7BBFE00BF80BD80B500AFA0
S32D0000E5D8FDF7B5FE00BF80BD80B500AFFDF7AFFE00BF80BD80B500AFFDF7A9FE00BF80BD80B500AFFDF7A3FEFD
S32D0000E60000BF80BD80B500AFFDF79DFE00BF80BD80B500AFFDF797FE00BF80BD80B500AFFDF791FE00BF80BDB5
S32D0000E62880B500AFFDF78BFE00BF80BD80B500AFFDF785FE00BF80BD80B500AFFDF77FFE00BF80BD80B500AFDB
S32D0000E650FDF779FE00BF80BD80B500AFFDF773FE00BF80BD80B500AFFDF76DFE00BF80BD80B500AFFDF767FE74
S32D0000E67800BF80BD80B500AFFDF761FE00BF80BD80B500AFFDF75BFE00BF80BD80B500AFFDF755FE00BF80BDF1
S32D0000E6A080B500AFFDF74FFE00BF80BD80B500AFFDF749FE00BF80BD80B500AFFDF743FE00BF80BD80B500AF17
S32D0000E6C8FDF73DFE00BF80BD80B500AFFDF737FE00BF80BD80B500AFFDF731FE00BF80BD80B500AFFDF72BFEEC
S32D0000E6F000BF80BD80B500AFFDF725FE00BF80BD80B500AFFDF71FFE00BF80BD80B500AFFDF719FE00BF80BD2D
S32D0000E71880B500AFFDF713FE00BF80BD80B500AFFDF70DFE00BF80BD80B500AFFDF707FE00BF80BD80B500AF52
S32D0000E740FDF701FE00BF80BD80B584B000AFF8600B467A60FB72FB68FA7A1A71FB6800225A711749786812F0C0
S32D0000E76853FA0346002B02D0134B7B600AE04FF07E51786812F034FA0346002B02D04FF07E537B60786811F09D
S32D0000E790D5FB09A3D3E9002311F028FC02460B461046194611F01AFF0246FB681A60FB6818461037BD4680BD06
S32D0000E7B8ABAAAAAAAAAA20400000404180B584B000AF786039603B687F2B02DD7F23FB7308E03B6813F1800F72
S32D0000E7E002DA8023FB7301E03B68FB737B685B79FA7B9A4209D07B68FA7B5A717B681979FA7B1E23034804F0BE
S32D0000E808FBFA00BF1037BD4680BD00BF7C190020B0B584B000AF786039603749386812F0D5F90346002B02D044
S32D0000E830334B3B6008E03349386812F0E9F90346002B01D02F4B3B60386811F077FB04460D467B681B681846EB
S32D0000E85811F070FB4FF00002294B11F0EDFC02460B462046294611F0BDFB02460B461046194611F0AFFE03461B
S32D0000E8803B604FF00001386812F0B8F90346002B10D0386811F052FB17A3D3E9002311F0A5FB02460B461046D1
S32D0000E8A8194611F04FFE0346FB6018E0386811F041FB4FF00002134B11F094FB02460B46104619464FF000025E
S32D0000E8D00D4B11F0B5FC02460B461046194611F035FE0346FB60F9687868FFF76BFF00BF1037BD46B0BD00BF14
S32D0000E8F852B81E85EB51F43F0000C8C20000C842000059400000604080B483B000AF03460A46FB711346BB7169
S32D0000E920BB79002B03D1134B00221A7002E0114B01221A703823FB710E4B1A78FB791343FB710D4B9B78DBB2C1
S32D0000E9480B4A43F01003DBB29370094B9B78DBB2074A43F02003DBB29370054AFB79137100BF0C37BD4680BCC3
S32D0000E970704700BF4C1700200060064080B483B000AF01237B607B68312B04DC00BF7B6801337B60F7E700BF58
S32D0000E9980C37BD4680BC704780B582B000AF03460A46FB711346BB71134B1B7800211846FFF7AAFF00F024F85D
S32D0000E9C0104AFB79137100F01FF80E4ABB79137100F01AF80B4B9B78DBB20A4A23F02003DBB29370074B9B7849
S32D0000E9E8DBB2064A23F01003DBB29370FFF7C2FF00BF0837BD4680BD4D1700200060064080B483B000AF174BD7
S32D0000EA101B78002B24D100237B60154BDB78DBB203F00203002B0CBF01230023DBB2002B0DD07B6842F2107284
S32D0000EA38934203DD0B4B01221A7004E07B6801337B6000BFE5E7084BDB78DBB2064A43F00203DBB2D37000E02C
S32D0000EA6000BF0C37BD4680BC704700BF4E1700200060064080B582B000AF0346FB71FB79184600F05FF800BF03
S32D0000EA880837BD4680BD80B582B000AF03460A46FB711346BB7100F035F8FB795B00DBB21846FFF7E3FFBB795E
S32D0000EAB01846FFF7DFFF00F037F800BF0837BD4680BD80B500AFFF2000F03CF80346184680BD80B584B000AF86
S32D0000EAD80346FB7100F016F8FB795B005BB243F001035BB2DBB21846FFF7C0FFFFF7E5FF0346FB7300F014F810
S32D0000EB00FB7B18461037BD4680BD000080B400AF044B9B68034A43F48013936000BFBD4680BC704740F00F4019
S32D0000EB2880B400AF044B5B68034A43F48013536000BFBD4680BC704740F00F4080B485B000AF0346FB710023DC
S32D0000EB50BB73164BDB6A03F00043012B0CBF01230023DBB2002B03D0FB7B0133FB73F0E70E4BDB6A0D4A43F0AD
S32D0000EB780043D3620B4AFB7953630A4BDB6A03F40033002B0CBF01230023DBB2002B00D0F3E7044B9B6BBB7392
S32D0000EBA0BB7B18461437BD4680BC704700C00A4080B582B000AF204B03F580531B6B1E4A43F4805302F580525B
S32D0000EBC813631C4B4FF480721A651B4B5B691A4A43F480135361FFF7A3FF164B4FF400725A65144B4FF4007201
S32D0000EBF09A65124B4FF40072DA65124B124A1A60104B124ADA6000237B607B68092B06DCFF20FFF72FFF7B6866
S32D0000EC1801337B60F5E704A1D1E9000104F09AF900BF0837BD4680BD9A9999999999B93F0070044000A0044097
S32D0000EC4040F00F4000C00A40000C00800500003E90B486B000AFF860B9607A60FB68534A93420AD1524B03F595
S32D0000EC6880535B6B504A43F4806302F58052536345E0FB684D4A93420AD14B4B03F580535B6B494A43F400638F
S32D0000EC9002F58052536336E0FB68474A93420AD1434B03F580535B6B414A43F4805302F58052536327E0FB6880
S32D0000ECB8404A93420AD13C4B03F580535B6B3A4A43F4005302F58052536318E0FB683A4A93420AD1344B03F549
S32D0000ECE080539B6A324A43F4806302F58052936209E02F4B03F580539B6A2D4A43F4006302F580529362FB6875
S32D0000ED08DB78DBB223F00C03DAB2FB68DA70FB6800229A70BB684FF47A7203FB02F27B681B0192FBF3F39CB20F
S32D0000ED30FB681B78DBB223F01F03FB75230A9BB2DBB203F01F03DAB2FB7D1343DAB2FB681A70E2B2FB685A70DD
S32D0000ED58BB684FF4FA4203FB02F27B681B0192FBF3F39AB263019BB2D31A9CB2FB689B7ADBB223F01F03FB75A5
S32D0000ED80E3B203F01F03DAB2FB7D1343DAB2FB689A72FB68DB78DBB243F00C03DAB2FB68DA7000BF1837BD4697
S32D0000EDA890BC704700A006400070044000B0064000C0064000D0064000A00E4080B483B000AF78607B681B793B
S32D0000EDD0DBB203F02003002B0CBF01230023DBB2002B00D0F2E77B68DB79DBB218460C37BD4680BC704780B445
S32D0000EDF883B000AF78600B46FB707B681B79DBB25BB2DB43DBB2DB09DBB2002B00D0F4E77B68FA78DA7100BF15
S32D0000EE200C37BD4680BC704780B487B000AFF860B9607A60FB687B61BB683B617B685A1E7A60002B14BF0123D1
S32D0000EE480023DBB2002B08D03A69531C3B617B69591C796112781A70ECE700BF1C37BD4680BC704780B487B0AE
S32D0000EE7000AFF860B9607A60FB687B617B685A1E7A60002B14BF01230023DBB2002B06D07B695A1C7A61BA68DC
S32D0000EE98D2B21A70EEE700BF1C37BD4680BC704780B489B000AFF860B9607A60FB68FB61BB68BB6100237B61FD
S32D0000EEC07B685A1E7A60002B0FD0FB695A1CFA611B781946BB695A1CBA611B78CB1A7B617B69002B01D10123B0
S32D0000EEE800E00023002B00D0E6E77B6918462437BD4680BC704780B483B000AF786039607B681B78002B09D09D
S32D0000EF107B681B781A463B68934203D07B6801337B60F1E77B681B7818460C37BD4680BC704780B584B000AFC3
S32D0000EF38786039607B681B6BFB60FA683B689A4252D07B681B79002B35D07B6858787B6803F134010123FA6887
S32D0000EF6003F050FD0346002B14BF01230023DBB2002B01D001233CE07B6800221A717B685A6A7B681B6A1344F6
S32D0000EF88FA689A4217D27B68DB78FB72FB7A012B11D97B681B6AFA681344FB607B6858787B6803F134010123A7
S32D0000EFB0FA6803F027FDFB7A013BFB72EAE73B68002B15D07B6858787B6803F1340101233A6803F033FC034628
S32D0000EFD8002B14BF01230023DBB2002B01D0012303E07B683A681A63002318461037BD4680BD80B584B000AF14
S32D0000F000786000217868FFF794FF0346FB73FB7B002B40F093807B681B78032B7DD17B685B79002B79D07B68E5
S32D0000F02800221A637B6834334FF4007200211846FFF718FF7B68552283F832227B68AA2283F833227B68522291
S32D0000F05083F834207B68522283F835207B68612283F836207B68412283F837207B68722283F818227B687222AA
S32D0000F07883F819227B68412283F81A227B68612283F81B227B681B69DAB27B6883F81C227B681B699BB21B0A31
S32D0000F0A09BB2DAB27B6883F81D227B681B691B0CDAB27B6883F81E227B681B691B0EDAB27B6883F81F227B6876
S32D0000F0C8DB68DAB27B6883F820227B68DB689BB21B0A9BB2DAB27B6883F821227B68DB681B0CDAB27B6883F862
S32D0000F0F022227B68DB681B0EDAB27B6883F823227B6858787B6803F134017B685A69012303F078FC7B6800223B
S32D0000F1185A717B685B7800220021184603F03AFD0346002B14BF01230023DBB2002B01D00123FB73FB7B184600
S32D0000F1401037BD4680BD80B483B000AF786039603B68023B3B607B68DB69023B3A689A4201D3002308E07B6874
S32D0000F1689B781A463B6803FB02F27B68DB6A134418460C37BD4680BC704780B586B000AF786039603B68012B01
S32D0000F19004D97B68DB693A689A4201D30123B5E07B681B78032B7AD0032B00F3AD80012B02D0022B4DD0A7E037
S32D0000F1B83B683B613B695B083A6913443B617B685A6A3B695B0A134419467868FFF7ADFE0346002B14BF0123FB
S32D0000F1E00023DBB2002B40F088803B69C3F308037A68134493F83430FB603B6901333B617B685A6A3B695B0AE2
S32D0000F208134419467868FFF790FE0346002B14BF01230023DBB2002B6DD13B69C3F308037A68134493F83430AD
S32D0000F2301B021A46FB681343FB603B6803F00103002B02D0FB681B0960E0FB68C3F30B035CE07B685A6A3B6814
S32D0000F2581B0A134419467868FFF767FE0346002B14BF01230023DBB2002B46D13B685B0003F4FF7330337A6869
S32D0000F280134404337B617B6901331B781B021AB27B691B781BB213431BB29BB236E07B685A6A3B68DB09134413
S32D0000F2A819467868FFF741FE0346002B14BF01230023DBB2002B22D13B689B0003F4FE7330337A681344043312
S32D0000F2D07B617B6903331B781A067B6902331B781B0413437A6901321278120213437A691278134323F07043B3
S32D0000F2F808E000BF04E000BF02E000BF00E000BF4FF0FF3318461837BD4680BD80B588B000AFF860B9607A6099
S32D0000F320BB68012B04D9FB68DB69BA689A4202D30223FB77EEE0FB681B78032B00F09780032B00F3DA80012BE2
S32D0000F34802D0022B6BD0D4E0BB687B617B695B087A6913447B61FB685A6A7B695B0A13441946F868FFF7E1FDF3
S32D0000F3700346FB77FB7F002B40F0C2807B69C3F308033033FA6813440433BB61BB6803F00103002B0DD0BB6943
S32D0000F3981B785BB203F00F035AB27B68DBB21B015BB213435BB2DBB201E07B68DBB2BA6913707B6901337B6122
S32D0000F3C0FB6801221A71FB685A6A7B695B0A13441946F868FFF7ADFD0346FB77FB7F002B40F090807B69C3F3AE
S32D0000F3E808033033FA6813440433BB61BB6803F00103002B03D07B681B09DBB20CE0BB691B7823F00F03DAB27D
S32D0000F4107B681B0ADBB203F00F03DBB21343DBB2BA69137073E0FB685A6ABB681B0A13441946F868FFF77DFDD6
S32D0000F4380346FB77FB7F002B62D1BB685B0003F4FF733033FA6813440433BB617B68DAB2BB691A707B689BB270
S32D0000F4601B0A9AB2BB690133D2B21A704FE0FB685A6ABB68DB0913441946F868FFF759FD0346FB77FB7F002B88
S32D0000F48840D1BB689B0003F4FE733033FA6813440433BB61BB6903331B781A06BB6902331B781B041343BA691F
S32D0000F4B00132127812021343BA691278134303F070437A6813437B607B68DAB2BB691A707B689BB21B0A9AB28D
S32D0000F4D8BB690133D2B21A707B681A0CBB690233D2B21A707B681A0EBB690333D2B21A7009E00223FB7706E057
S32D0000F50000BF04E000BF02E000BF00E000BFFB6801221A71FB7F18462037BD4680BD80B584B000AF7860396032
S32D0000F5283B68012B04D97B68DB693A689A4202D30223FB7338E00023FB737B68DB693A689A4231D2396878682A
S32D0000F550FFF717FEB860BB68002B26D0BB68012B02D10223FB7323E0BB68B3F1FF3F02D10123FB731CE00022E6
S32D0000F57839687868FFF7CAFE0346FB73FB7B002B11D17B681B69B3F1FF3F07D07B681B695A1C7B681A617B68AE
S32D0000F5A001225A71BB683B60CBE700BF00E000BFFB7B18461037BD4680BD80B586B000AF786039603B68002BCD
S32D0000F5C80DD17B68DB683B613B69002B04D07B68DB693A699A4215D301233B6112E039687868FFF7CAFDB8603C
S32D0000F5F0BB68012B01D8012364E07B68DB69BA689A4201D2BB685DE03B683B613B697B617B6901337B617B686F
S32D0000F618DB697A699A4207D302237B617A693B699A4201D9002349E079697868FFF7A5FDB860BB68002B0ED0BF
S32D0000F640BB68B3F1FF3F02D0BB68012B01D1BB6838E07A693B699A42DAD1002332E000BF6FF070427969786894
S32D0000F668FFF754FE0346FB73FB7B002B09D13B68002B06D07A6939687868FFF747FE0346FB73FB7B002B10D17E
S32D0000F6907B687A69DA607B681B69B3F1FF3F10D07B681B695A1E7B681A617B6801225A7107E0FB7B012B02D1B9
S32D0000F6B84FF0FF3300E001237B617B6918461837BD4680BD80B487B000AF786039607B685B6A04333B613B6859
S32D0000F6E05B0A7A6812689278B3FBF2F37B613B691A1D3A611B68FB60FB68002B01D1002310E07A69FB689A42D9
S32D0000F70807D37A69FB68D31A7B613B6904333B61E9E700BF3B691A687B69134418461C37BD4680BC704780B5A7
S32D0000F73084B000AF78600B467B807B687A88DA807B689B68FB60FB68012B05D07B681B68DB69FA689A4201D304
S32D0000F758022364E0FB68002B08D17B681B681B78032B03D17B681B689B6AFB60FB68002B13D17B68FA68DA6001
S32D0000F7807B681B681B897A889A4201D302234AE07B681B689A6A7B881B091A447B681A6135E07B681B689B7875
S32D0000F7A89BB21B017B817A887B899A421CD37B681B68F9681846FFF7E0FCF860FB68B3F1FF3F01D101232AE069
S32D0000F7D0FB68012B05D97B681B68DB69FA689A4201D302231FE07A887B89D31A7B80DEE77B68FA68DA607B68A9
S32D0000F7F81B68F9681846FFF7A2FC02467B881B091A447B681A617B681B6803F134027B8803F00F035B011A4490
S32D0000F8207B685A61002318461037BD4680BD90B585B000AF786039607B68DB8801333B813B89002B03D07B689F
S32D0000F8481B69002B01D10423C4E03B8903F00F03002B40F0B0807B681B695A1C7B681A617B68DB68002B08D18D
S32D0000F8707B681B681B893A899A42C0F0A0800423ACE03B891B097A6812689278013A1340002B40F094807B6810
S32D0000F8981A687B68DB6819461046FFF76EFCF860FB68012B01D8022394E0FB68B3F1FF3F01D101238EE07B68A0
S32D0000F8C01B68DB69FA689A426DD33B68002B01D1042383E07B681A687B68DB6819461046FFF76BFEF860FB6851
S32D0000F8E8002B01D1072375E0FB68012B01D1022370E0FB68B3F1FF3F01D101236AE07B681B6800211846FFF740
S32D0000F91010FB0346002B14BF01230023DBB2002B01D001235AE07B681B6834334FF4007200211846FFF79AFABE
S32D0000F9387B681A687B681C68F9681046FFF7FFFB034623630023FB727B681B689B78FA7A9A421CD27B681B68B2
S32D0000F96001221A717B681B6800211846FFF7E1FA0346002B14BF01230023DBB2002B01D001232BE07B681B6869
S32D0000F9881A6B01321A63FB7A0133FB72DCE77B681B68196BFA7A7B681B688A1A1A637B68FA68DA607B681B6879
S32D0000F9B0F9681846FFF7C7FB02467B681A617B683A89DA807B681B6803F134023B8903F00F035B011A447B6816
S32D0000F9D85A61002318461437BD4690BD80B586B000AF786000217868FFF79DFE0346FB75FB7D002B01D0FB7D01
S32D0000FA003CE07B681A687B681B6919461046FFF790FA0346FB75FB7D002B2BD17B685B693B613B691B78FB737B
S32D0000FA28FB7B002B02D10423FB7522E03B690B331B7803F00803002B0BD17B689B690B2219463869FFF72CFAF9
S32D0000FA500346002B01D1012300E00023002B0BD100217868FFF7E3FE0346FB75FB7D002B03D1C6E700BF00E0C0
S32D0000FA7800BFFB7D18461837BD4680BD80B584B000AF786000217868FFF74DFE0346FB73FB7B002B21D17B68DD
S32D0000FAA01A687B681B6919461046FFF742FA0346FB73FB7B002B13D17B685B691B78BB73BB7BE52B0DD0BB7B6B
S32D0000FAC8002B0AD001217868FFF7ADFE0346FB73FB7B002B01D1DEE700BFFB7B002B1FD17B681A687B681B695D
S32D0000FAF019461046FFF71DFA0346FB73FB7B002B12D17B685B69BB6020220021B868FFF7ADF97B689B690B22F6
S32D0000FB181946B868FFF784F97B681B6801221A71FB7B18461037BD4680BD000080B588B000AF786039603B682E
S32D0000FB401B68FB60FB681B782F2B03D0FB681B785C2B03D1FB680133FB60F3E77B689B69BB600B222021B868E9
S32D0000FB68FFF780F90023FB7700233B613B697B610823BB61FA687B6913441B782E2B2FD17B695A1C7A61FA68C5
S32D0000FB9013441B78BB77BB7F2E2B0AD17B69022B07D83B695A1C3A61BA681344BA7F1A70EAE7BB7F2F2B07D0A0
S32D0000FBB8BB7F5C2B04D0BB7F202B01D90623A7E0FA687B691A443B681A60BB7F202B01D8242200E02022BB68D1
S32D0000FBE00B331A70002397E07B695A1C7A61FA6813441B78BB77BB7F202B58D9BB7F2F2B55D0BB7F5C2B52D090
S32D0000FC08BB7F2E2B03D03A69BB699A420FD3BB69082B02D1BB7F2E2B01D0062378E008233B610B23BB61FB7F49
S32D0000FC309B00FB773AE097F91E30002B08DAFB7F43F00303FB77BB7F803B354AD35CBB77BB7F19463348FFF790
S32D0000FC5852F90346002B14BF01230023DBB2002B01D0062354E0BB7F402B07D9BB7F5A2B04D8FB7F43F00203ED
S32D0000FC80FB770CE0BB7F602B09D9BB7F7A2B06D8FB7F43F00103FB77BB7F203BBB773B695A1C3A61BA6813447C
S32D0000FCA8BA7F1A709CE7FA687B691A443B681A60BB7F202B01D8042300E00023BB773B69002B01D1062323E0A0
S32D0000FCD0BB681B78E52B02D1BB6805221A70BB69082B02D1FB7F9B00FB77FB7F03F00303012B03D1BB7F43F008
S32D0000FCF81003BB77FB7F03F00C03042B03D1BB7F43F00803BB77BB680B33BA7F1A70002318462037BD4680BD34
S32D0000FD20C88B0200488C020080B584B000AF786039603B681B782F2B03D03B681B785C2B06D13B6801333B6098
S32D0000FD487B6800229A6004E07B681B689A697B689A603B681B781F2B09D800217868FFF7E2FC0346FB737B6894
S32D0000FD7000225A6169E03B4619467868FFF7DAFE0346FB73FB7B002B58D17868FFF72AFE0346FB737B689B6994
S32D0000FD98DB7ABB73FB7B002B1DD0FB7B042B4BD1BB7B03F02003002B0DD07B6800229A607B6800225A61002335
S32D0000FDC0FB73BB7B03F00403002B3BD135E0BB7B03F00403002B35D10523FB7332E0BB7B03F00403002B2FD1C7
S32D0000FDE87B685B69BB60BB680B331B7803F01003002B02D10523FB7323E0BB6815331B781B021AB2BB68143349
S32D0000FE101B781BB213431BB29BB21B04BA681B321278120211B2BA681A32127812B20A4312B292B21A437B68B4
S32D0000FE389A609CE700BF04E000BF02E000BF00E000BFFB7B18461037BD4680BD80B582B000AF786039607B68B8
S32D0000FE6058787B6803F1340101233A6802F0E6FC0346002B14BF01230023DBB2002B01D003234AE07B6803F2BF
S32D0000FE88322301331B781B021AB27B6893F832321BB213431BB2214A934201D0022338E07B686A3303331B78EE
S32D0000FEB01A067B686A3302331B781B0413437A686A3201321278120213437A6892F86A20134323F07F43144A23
S32D0000FED8934201D100231CE07B68863303331B781A067B68863302331B781B0413437A6886320132127812026D
S32D0000FF0013437A6892F88620134323F07F43064A934201D1002300E0012318460837BD4680BD00BF55AAFFFF89
S32D0000FF284641540080B592B000AFF860B9601346FB71FB681B68FB62FB6A1B78303B3B643B6C092B0BD8FB6A0C
S32D0000FF5001331B783A2B06D1FB6A0233FB62FB68FA6A1A6002E0A34B1B783B643B6C002B01D00B2367E2A04A42
S32D0000FF783B6C52F82330BB62BB68BA6A1A60BB6A002B01D10C235AE2BB6A1B78002B1AD0BB6A5B78184602F097
S32D0000FFA07FFE034687F8273097F8273003F00103002B0CD1FB79002B07D097F8273003F00403002B01D00A2333
S32D0000FFC83DE200233BE2BB6A00221A703B6CDAB2BB6A5A70BB6A5B78184602F0F1F9034687F8273097F8273082
S32D0000FFF003F00103002B01D0032324E2FB79002B07D097F8273003F00403002B01D00A2319E20023FB63F96B65
S32D00010018B86AFFF71BFF034687F8473097F84730012B22D1BB6A03F5F9733B623B6A04331B78002B19D03B6AD5
S32D000100400B331B781A063B6A0A331B781B0413433A6A09321278120213433A6A083212781343FB63F96BB86A41
S32D00010068FFF7F4FE034687F8473097F84730032B01D10123E3E197F84730002B01D00D23DDE1BB6A93F8403044
S32D000100901B021AB2BB6A93F83F301BB213431BB2B3F5007F01D00D23CDE1BB6A93F84B301B021AB2BB6A93F8AF
S32D000100B84A301BB213431BB29BB2BB63BB6B002B12D1BB6A93F85B301A06BB6A93F85A301B041343BA6A92F858
S32D000100E0592012021343BA6A92F858201343BB63BB6ABA6B1A62BB6A93F84430FB77BB6AFA7FDA70FB7F012B8A
S32D0001010804D0FB7F022B01D00D2398E1FA7FBB6B02FB03F3BB63BB6A93F84130FB77BB6AFA7F9A70FB7F002B43
S32D0001013005D0FA7FFB7F013B1340002B01D00D2381E1BB6A93F846301B021AB2BB6A93F845301BB213431BB297
S32D000101589AB2BB6A1A81BB6A1B8903F00F03002B01D00D236BE1BB6A93F848301B021AB2BB6A93F847301BB221
S32D0001018013431BB29BB27B637B6B002B12D1BB6A93F857301A06BB6A93F856301B041343BA6A92F855201202D5
S32D000101A81343BA6A92F8542013437B63BB6A93F843301B021AB2BB6A93F842301BB213431BB2BB83BB8B002BAF
S32D000101D001D10D2337E1BA8BBB6B1A44BB6A1B891B091344BB617A6BBB699A4206D20D2329E100BF561700207A
S32D000101F8501700207A6BBB69D31ABA6A9278B3FBF2F37B617B69002B01D10D2317E1012387F847307B6940F681
S32D00010220F572934202D9022387F847307B694FF6F572934202D9032387F847307B699A1CBB6ADA61FA6BBB699E
S32D000102481A44BB6ADA62BA8BFB6B1A44BB6A5A6297F84730032B1ED1BB6A1B89002B01D00D23ECE0BB6A93F84A
S32D0001027063301A06BB6A93F862301B041343BA6A92F8612012021343BA6A92F860201A43BB6A9A62BB6ADB6947
S32D000102989B003B631FE0BB6A1B89002B01D10D23CDE0BB6A5A6ABB6B1A44BB6A9A6297F84730022B03D1BB6AA2
S32D000102C0DB695B000AE0BB6ADA6913465B0013445A08BB6ADB6903F0010313443B63BB6A1A6A3B6B03F2FF1306
S32D000102E85B0A9A4201D20D23A9E0BB6A4FF0FF321A61BB6A0022DA6097F84730032B40F08680BB6A00225A710D
S32D00010310BB6A93F865301B021AB2BB6A93F864301BB213431BB29BB21A46FB6B1A44BB6A5A61BB6A5878BB6AF1
S32D0001033803F13401BB6A5A69012302F07BFA0346002B39D1BB6A93F833321B021AB2BB6A93F832321BB2134347
S32D000103601BB23B4A93422BD1BB6A93F837301A06BB6A93F836301B041343BA6A92F8352012021343BA6A92F86E
S32D0001038834201343314A934216D1BB6A93F81B321A06BB6A93F81A321B041343BA6A92F8192212021343BA6A60
S32D000103B092F818221343284A934201D1012300E00023002B27D0BB6A93F823321A06BB6A93F822321B04134304
S32D000103D8BA6A92F8212212021343BA6A92F820221A43BB6ADA60BB6A93F81F321A06BB6A93F81E321B04134359
S32D00010400BA6A92F81D2212021343BA6A92F81C221A43BB6A1A61BB6A97F847201A700F4B1B8801339AB20D4B13
S32D000104281A800C4B1A88BB6ADA80BB6A00221A63BB6A00221A71BB6A00229A61002318464837BD4680BD00BFBC
S32D0001045055AAFFFF52526141727241615417002080B582B000AF78600B467B807B68002B08D07B681B78002B68
S32D0001047804D07B68DB887A889A4201D0092311E07B685B78184602F007FC034603F00103002B14BF01230023E1
S32D000104A0DBB2002B01D0032300E0002318460837BD4680BD80B485B000AF03463960FB71FB79002B01D00B239A
S32D000104C816E0FB790D4A52F82330FB60FB68002B02D0FB6800221A703B68002B02D03B6800221A70FB7905492C
S32D000104F03A6841F82320002318461437BD4680BC704700BF5017002080B592B000AFF860B9601346FB71FB68F8
S32D0001051800221A60FB7903F01F03FB71FB7923F00103DAB207F11C0107F108031846FFF7F9FC034687F847306C
S32D0001054007F110037B6397F84730002B09D1BA6807F11C0311461846FFF7E6FB034687F847303B6B3B6497F8C0
S32D000105684730002B05D13B6C002B02D1062387F84730FB7903F01C03002B00F0B18097F84730002B12D097F8B4
S32D000105904730042B07D107F11C031846FFF772FA034687F84730FB7943F00803FB713B6B3B6412E03B6C0B336E
S32D000105B81B7803F01103002B03D0072387F8473007E0FB7903F00403002B02D0082387F8473097F84730002BB8
S32D000105E040F0A080FB7903F00803002B00F09A800023FB633B6C0E33FA6BD2B21A70FB6B9BB21B0A9AB23B6C4E
S32D000106080F33D2B21A70FB6B1A0C3B6C1033D2B21A70FB6B1A0E3B6C1133D2B21A703B6C0B3300221A703B6C30
S32D000106301C3300221A703B6C1D3300221A703B6C1E3300221A703B6C1F3300221A703B6C15331B781B021AB249
S32D000106583B6C14331B781BB213431BB29BB21B043A6C1B321278120211B23A6C1A32127812B20A4312B292B2AD
S32D000106801343BB633B6C1A3300221A703B6C1B3300221A703B6C143300221A703B6C153300221A70FB690122DA
S32D000106A81A71BB6B002B39D0FB691B6BFB63FB69B96B1846FEF72FFF034687F8473097F84730002B2AD1FB691E
S32D000106D0BA6B013ADA60FB69F96B1846FEF729FC034687F847301DE097F84730002B19D13B6C0B331B7803F05F
S32D000106F81003002B03D0042387F847300EE0FB7903F00203002B09D03B6C0B331B7803F00103002B02D00723B1
S32D0001072087F8473097F84730002B0FD1FB7903F00803002B03D0FB7943F02003FB71FB691A6BFB68DA61FB6813
S32D000107483A6C1A6297F84730002B42D1FB68FA799A713B6C15331B781B021AB23B6C14331B781BB213431BB25F
S32D000107709BB21B043A6C1B321278120211B23A6C1A32127812B20A4312B292B21A43FB681A613B6C1F331B783E
S32D000107981A063B6C1E331B781B0413433A6C1D321278120213433A6C1C3212781A43FB68DA60FB6800229A6032
S32D000107C0FB6800229A61FB6800225A62FA69FB681A60FB69DA88FB689A8097F8473018464837BD4680BD80B56E
S32D000107E88AB000AFF860B9607A603B60BB68BB613B6800221A60FB681A68FB689B8819461046FFF729FE03460F
S32D00010810FB75FB7D002B01D0FB7D7EE1FB689B795BB2002B01DA022377E1FB689B7903F00203002B01D1072361
S32D000108386FE1FB68DA687B681A44FB68DB689A4201D200237B607B68002B00F05081FB689B68C3F30803002BE7
S32D0001086040F01381FB689B685B0ADAB2FB681B689B78013BDBB21340BB75BB7D002B49D1FB689B68002B10D11A
S32D00010888FB681B697B627B6A002B1FD1FB681B6800211846FEF78DFE7862FB687A6A1A6114E0FB685B6A002BB5
S32D000108B007D0FB689B681946F868FEF707FF786208E0FB681A68FB685B6919461046FEF774FE78627B6A002B4E
S32D000108D800F00C817B6A012B08D1FB689B7963F07F03DAB2FB689A71022312E17B6AB3F1FF3F08D1FB689B7915
S32D0001090063F07F03DAB2FB689A71012305E1FB687A6A5A61FB689B7903F04003002B22D0FB681B685878FB680A
S32D0001092803F12801FB689A69012302F067F80346002B14BF01230023DBB2002B08D0FB689B7963F07F03DAB2B2
S32D00010950FB689A710123E0E0FB689B7923F04003DAB2FB689A71FB681A68FB685B6919461046FEF7E8FB38612D
S32D000109783B69002B08D1FB689B7963F07F03DAB2FB689A710223C4E0BB7D3A6913443B617B685B0AFB61FB69C3
S32D000109A0002B49D0BA7DFB691344FA6812689278934206D9FB681B689B781A46BB7DD31AFB61FB681B685878C8
S32D000109C8FB69DBB23A69B96902F018F80346002B14BF01230023DBB2002B08D0FB689B7963F07F03DAB2FB68EF
S32D000109F09A71012391E0FB689A693B69D31AFA699A4215D9FB6803F12800FB689A693B69D31A5B02BA691344C7
S32D00010A184FF400721946FEF703FAFB689B7923F04003DAB2FB689A71FB695B023B6248E0FB689B693A699A4276
S32D00010A4020D0FB689A68FB68DB689A420ED2FB681B685878FB6803F1280101233A6901F0EDFE0346002B01D0B2
S32D00010A68012300E00023002B08D0FB689B7963F07F03DAB2FB689A7101234AE0FB683A699A61FB689B68C3F384
S32D00010A900803C3F500733B623A6A7B689A4201D97B683B62FB689B68C3F308032833FA6813443A6AB969184648
S32D00010AB8FEF7B6F9FB689B7943F04003DAB2FB689A71BA693B6A1344BB61FB689A683B6A1A44FB689A603B68E1
S32D00010AE01A683B6A1A443B681A607A683B6AD31A7B60ACE600BFFB689A68FB68DB689A4203D9FB689A68FB681A
S32D00010B08DA60FB689B7943F02003DAB2FB689A71002318462837BD4680BD80B586B000AF78607B681A687B6863
S32D00010B309B8819461046FFF793FC0346FB75FB7D002B40F0AC807B689B7903F02003002B00F0A5807B689B793D
S32D00010B5803F04003002B1BD07B681B6858787B6803F128017B689A69012301F047FF0346002B14BF012300231D
S32D00010B80DBB2002B01D001238AE07B689B7923F04003DAB27B689A717B681A687B68DB6919461046FEF7C5F974
S32D00010BA80346FB75FB7D002B75D17B681B6A3B613B690B331A783B690B3342F02002D2B21A707B68DA683B69F7
S32D00010BD01C33D2B21A707B68DB689BB21B0A9AB23B691D33D2B21A707B68DB681A0C3B691E33D2B21A707B6881
S32D00010BF8DB681A0E3B691F33D2B21A707B681A693B691A33D2B21A707B681B699BB21B0A9AB23B691B33D2B25F
S32D00010C201A707B681B691A0C3B691433D2B21A707B681B691B0C9BB21B0A9AB23B691533D2B21A700023FB60D1
S32D00010C483B691633FA68D2B21A70FB689BB21B0A9AB23B691733D2B21A70FB681A0C3B691833D2B21A70FB681A
S32D00010C701A0E3B691933D2B21A707B689B7923F02003DAB27B689A717B681B6801221A717B681B681846FEF7BB
S32D00010C98B0F90346FB75FB7D18461837BD4680BD80B584B000AF78607868FFF736FF0346FB73FB7B002B02D140
S32D00010CC07B6800221A60FB7B18461037BD4680BD80B590B000AF786039607B681A687B689B8819461046FFF780
S32D00010CE8BBFB034687F83F3097F83F30002B02D097F83F3043E27B689B795BB2002B01DA02233CE27B685B6ADD
S32D00010D10002B00F0F8803B68B3F1FF3F66D17B685B6AFB62FB6A1A1DFA621B687B6102233B637B681B69BB63C1
S32D00010D38BB6B002B46D0BB6B3B6100237B633B6B02333B63BB6BFB607B6B01337B637B681B68B96B1846FEF793
S32D00010D6010FAB863BB6B012B08D87B689B7963F07F03DAB27B689A71022304E2BB6BB3F1FF3F08D17B689B79E4
S32D00010D8863F07F03DAB27B689A710123F7E1FB680133BA6B9A4200D1D4E73A6B7B699A4209D8FB6A1A1DFA628F
S32D00010DB07A6B1A60FB6A1A1DFA623A691A607B681B68DB69BA6B9A4200D2B8E77B685B6A3A6B1A603A6B7B6934
S32D00010DD89A4203D8FB6A00221A60CEE1112387F83F30CAE17B68DB683A689A4202D97B68DB683B607B683A68F3
S32D00010E009A603B68002B00F0BC813B68013B19467868FEF75BFC02467B685A617B681A687B685B6919461046BD
S32D00010E28FEF78DF9B861BB69002B08D17B689B7963F07F03DAB27B689A7102239FE13B68013B5B0A7A68126854
S32D00010E509278013A1340BA691344BB617B689B68C3F30803002B00F08C817B689B69BA699A4200F086817B68B6
S32D00010E789B7903F04003002B22D07B681B6858787B6803F128017B689A69012301F0B6FD0346002B14BF012395
S32D00010EA00023DBB2002B08D07B689B7963F07F03DAB27B689A71012365E17B689B7923F04003DAB27B689A71F9
S32D00010EC87B681B6858787B6803F128010123BA6901F0B0FC0346002B14BF01230023DBB2002B08D07B689B79CC
S32D00010EF063F07F03DAB27B689A71012343E17B68BA699A613DE17B68DB683A689A4208D97B689B7903F00203A9
S32D00010F18002B02D17B68DB683B607B689B683B6200237B627B687A6A9A603B68002B00F0C1807B681B689B782F
S32D00010F405B02FB613B6A002B1BD03B685A1EFB69B2FBF3F23B6A591EFB69B1FBF3F39A420FD33B6A5A1EFB69AC
S32D00010F685B421A407B689A607B689B683A68D31A3B607B685B69BB622BE07B681B69BB62BB6A002B22D17B68FD
S32D00010F901B6800211846FEF710FBB862BB6A012B08D17B689B7963F07F03DAB27B689A710223E8E0BB6AB3F1F0
S32D00010FB8FF3F08D17B689B7963F07F03DAB27B689A710123DBE07B68BA6A1A617B68BA6A5A61BB6A002B6DD0FD
S32D00010FE03A68FB699A4246D97B689B7903F00203002B0CD07B681B68B96A1846FEF7DDFAB862BB6A002B09D1F4
S32D00011008FB693B6033E07B681B68B96A1846FEF7B4F8B862BB6AB3F1FF3F08D17B689B7963F07F03DAB27B68EA
S32D000110309A710123A7E0BB6A012B05D97B681B68DB69BA6A9A4208D37B689B7963F07F03DAB27B689A710223BC
S32D0001105895E07B68BA6A5A617B689A68FB691A447B689A603A68FB69D31A3B60B4E77B689A683B681A447B68BC
S32D000110809A603B68C3F30803002B17D07B681B68B96A1846FEF757F878627B6A002B08D17B689B7963F07F0317
S32D000110A8DAB27B689A71022369E03B685B0A7A6A13447B627B689B68C3F30803002B4BD07B689B697A6A9A427D
S32D000110D046D07B689B7903F04003002B22D07B681B6858787B6803F128017B689A69012301F088FC0346002B68
S32D000110F814BF01230023DBB2002B08D07B689B7963F07F03DAB27B689A71012337E07B689B7923F04003DAB2C5
S32D000111207B689A717B681B6858787B6803F1280101237A6A01F082FB0346002B14BF01230023DBB2002B08D0E8
S32D000111487B689B7963F07F03DAB27B689A71012315E07B687A6A9A617B689A687B68DB689A420AD97B689A68A8
S32D000111707B68DA607B689B7943F02003DAB27B689A7197F83F3018464037BD4680BD80B586B000AF034639605D
S32D00011198FB71FB793B7301237B6107F1100307F10C017A693868FFF71AFB3B697A699A4201D1012301E04FF083
S32D000111C0FF3318461837BD4680BD80B584B000AF786039600023FB607B681B78002B18D07B681B7839681846DC
S32D000111E8FFF7D1FF0346B3F1FF3F0CBF01230023DBB2002B02D04FF0FF3307E07B6801337B60FB680133FB600F
S32D00011210E2E7FB6818461037BD4680BD80B485B000AF786039600123FB600023BB600023BB60BA683B689A4279
S32D0001123808DAFB687A6802FB03F3FB60BB680133BB60F2E7FB6818461437BD4680BC7047B0B59AB000AF78618E
S32D000112603961FA600023BB64BB6C7B647B6CB3F1FF3F00F0F5823B695A1C3A611B7887F84F3097F84F30002B74
S32D0001128800F0E78297F84F30252B0ED097F84F3079691846FFF777FF78647B6CB3F1FF3F00F0CD8201237B6401
S32D000112B0C9E2002387F867300023BB653B695A1C3A611B7887F84F3097F84F30302B09D1012387F867303B6981
S32D000112D85A1C3A611B7887F84F300CE097F84F302D2B08D1022387F867303B695A1C3A611B7887F84F3097F80A
S32D000113004F302E2B05D13B695A1C3A611B7887F84F3097F84F302F2B15D997F84F30392B11D8BA6D13469B00FE
S32D0001132813445B001A4697F84F301344303BBB653B695A1C3A611B7887F84F30E5E797F84F306C2B03D097F87B
S32D000113504F304C2B0BD197F8673043F0040387F867303B695A1C3A611B7887F84F3097F84F30002B00F07382C2
S32D0001137897F84F3087F84E3097F84E30602B08D997F84E307A2B04D897F84E30203B87F84E3097F84E30423B45
S32D000113A0162B00F2788101A252F823F077160100611601008716010097160100B114010097160100971601007E
S32D000113C89716010097160100971601009716010097160100971601007F16010097160100971601009716010042
S32D000113F009140100971601008716010097160100971601008F160100FB681A1DFA601B68FB620023FB65FA6AA7
S32D00011418FB6D13441B78002B03D0FB6D0133FB65F5E70023BB6497F8673003F00203002B07D1FB6D5A1CFA65DD
S32D00011440BA6D9A4201D9012300E00023002B09D079692020FFF79BFE78647B6CBA6C1344BB64E4E77969F86A56
S32D00011468FFF7AFFE78647B6CBA6C1344BB64FB6D5A1CFA65BA6D9A428CBF01230023DBB2002B09D079692020CE
S32D00011490FFF77DFE78647B6CBA6C1344BB64EAE77B6CB3F1FF3F00F0D081BB6C7B64CCE1FB68073323F0070315
S32D000114B803F10802FA60D3E90023C7E90E23D7E90E23C7E90C2300237B654FF000024FF00003D7E90E010EF0CA
S32D000114E0F7FF0346002B18D079692D20FFF74FFE78647B6CBA6C1344BB64BC6BFB6B83F00045C7E90E453B6BCC
S32D000115083B607B6B83F000437B60D7E90023C7E90C23D7E90C010FF015F80346002B0ED04FF00002AB4BD7E9BE
S32D000115300C010EF085FE02460B46C7E90C237B6D01337B65E9E77B6D013BFB65FB6DB3F1FF3F35D0FB6D194620
S32D000115580A20FFF75FFE034618460EF0D9FC02460B46D7E90E010EF067FE02460B46104619460EF0E7FF034627
S32D00011580BB62BA6A964B83FB02139910D317C91A0B469B000B445B00D31ABB62BB6A3033BB62BB6ADBB2796938
S32D000115A81846FFF7F0FD78647B6CBA6C1344BB64FB6D013BFB65C5E779692E20FFF7E3FD78647B6CBA6C13447E
S32D000115D0BB64BB6D002B01D10323BB6501233B663A6EBB6D9A4233D83B6E19460A20FFF715FE034618460EF006
S32D000115F88FFCD7E90E230EF0F5FC02460B46104619460EF09FFF0346BB62BA6A724B83FB02139910D317C91A1F
S32D000116200B469B000B445B00D31ABB62BB6A3033BB62BB6ADBB279691846FFF7A8FD78647B6CBA6C1344BB646A
S32D000116483B6E01333B66C7E77B6CB3F1FF3F00F0FA80BB6C7B64F6E0FB681A1DFA601B68DBB279691846FFF7FE
S32D000116708EFD7864ECE0022387F8663013E0082387F866300FE00A2387F866300BE0102387F8663007E097F8D1
S32D000116984F3079691846FFF776FD7864D4E097F8673003F00403002B04D0FB681A1DFA601B680CE097F84E30DC
S32D000116C0442B04D1FB681A1DFA601B6803E0FB681A1DFA601B683B6597F84E30442B0BD13B6D002B08DA3B6D91
S32D000116E85B423B6597F8673043F0080387F8673000233B6697F866203B6DB3FBF2F101FB02F29B1A87F84E3068
S32D0001171097F866303A6DB2FBF3F33B6597F84E30092B0BD997F84F30782B01D1272200E0072297F84E3013444D
S32D0001173887F84E303B6E5A1C3A6697F84E203032D2B2603307F108010B4403F8502C3B6D002B03D03B6E0F2B00
S32D0001176000D8CBE797F8673003F00803002B09D03B6E5A1C3A66603307F1080213442D2203F8502C3B6EFB652E
S32D0001178897F8673003F00103002B01D0302300E0202387F84E300023BB6497F8673003F00203002B07D1FB6DDB
S32D000117B05A1CFA65BA6D9A4201D9012300E00023002B0FD097F84E3079691846FFF7DFFC78647B6CBA6C1344C9
S32D000117D8BB64E2E700002440676666663B6E013B3B6607F118023B6E13441B7879691846FFF7C9FC78647B6C14
S32D00011800BA6C1344BB643B6E002B00D0EAE7FB6D5A1CFA65BA6D9A428CBF01230023DBB2002B09D07969202023
S32D00011828FFF7B1FC78647B6CBA6C1344BB64EAE77B6CB3F1FF3F07D0BB6C7B6404E000BF02E000BF00E000BF35
S32D00011850BA6C7B6C1344BB6408E500BF00E000BF7B6CB3F1FF3F01D17B6C00E0BB6C18466837BD46B0BD00BFE6
S32D0001187880B588B000AF7860396080233B610F23FB604FF0FF337B610223FB61FB69B3F5807F23D80123BB61D4
S32D000118A0BB69102B1AD8FB69BA6902FB03F33A6803FB02F27B68D31ABB60BB68002B09DBBB687A699A4205D9DD
S32D000118C8BB687B61FB693B61BB69FB60BB690133BB61E1E7FB695B00FB61D7E71D4BDB6A1C4A23F00803D362F8
S32D000118F01A4BDB6A23F47F2323F47F63BB613B695B081B029AB2FB68013B1B01DBB21A43BB691343114A43F430
S32D000119186023D3620F4B5B6A03F00803002B0CBF01230023DBB2002B03D00A2001F0DCFAF0E7084BDB6A074A52
S32D0001194043F00803D362054B1B6B044A43F48013136300BF2037BD4680BD00BF00100B4080B582B000AF786043
S32D0001196839607B6800221A60414B424ADA62404BDB6A03F08073002B14BF01230023DBB2002B00D0F3E73A4B02
S32D000119900022C3F8C020384B4FF481325A60364B28229A62344B4FF001125A643B689B6833491846FFF760FF0D
S32D000119B82F4B5B6A03F00303002B14BF01230023DBB2002B00D0F3E72C4B40F243421A602A4B40F243425A6093
S32D000119E0284B4FF488629A60264B40F24342DA60244B40F243421A61224B40F243425A61214B03F580531B6B9F
S32D00011A081F4A43F4003302F580521363184B4FF6FF721A63164B1B4A5A63154BDB6A144A43F00063D362124B59
S32D00011A30DB6A03F00063002B14BF01230023DBB2002B00D0F3E70C4B5B6A03F48033002B14BF01230023DBB2AD
S32D00011A58002B02D07B6801221A60054B1B6B044A43F080031363002318460837BD4680BD00100B4000800001B6
S32D00011A8060CC050000D0044000700440B3007F0080B400AF064B5A6A40F207331340002B14BF01230023DBB283
S32D00011AA81846BD4680BC704700100B4080B485B000AF7860074B1B6B7A681340FB60FB68002B00D1F6E7FB6869
S32D00011AD018461437BD4680BC704700BF00100B4080B584B000AF78607B681B7803F03F03764A52F82330FB60DB
S32D00011AF8FB68002B05D17B681B78002B01D00123DCE0714B1B6B704A43F0800313636E4B5B6A03F00103002B41
S32D00011B2014BF01230023DBB2002B00D0F3E7684A7B685B689360FB6823F44003FB607B685B789B0503F4400327
S32D00011B48FA681343FB607B685B78022B03D1FB6843F40013FB607B685B78042B16D1FB6803F44033B3F5003F1C
S32D00011B7008D1FB6823F44033FB60FB6843F44033FB6007E0FB6823F44033FB60FB6843F40033FB604E4B5B680A
S32D00011B984D4A9BB253607B68DB68002B2AD0FB6803F44033B3F5403F03D0FB6843F40013FB607B681B7A002BCA
S32D00011BC003D0FB6843F01003FB607B68DB68012B03D9FB6843F02003FB607B68DB68B3F1FF3F0BD03A4B5A68B3
S32D00011BE87B68DB681B04384913434B60FB6843F00203FB60344B00221A60334AFB68D3603248FFF753FF0346D8
S32D00011C10012B14BF01230023DBB2002B09D02C4B1B6B2B4A43F4702343F001031363012348E0274B1B6B03F0AE
S32D00011C388003002B14BF01230023DBB2002B07D0214B1B6B204A43F001131363012335E01D4B1B6B03F480333C
S32D00011C60002B14BF01230023DBB2002B08D0184B1B6B174A43F0011313634FF0FF3321E0FB6803F44033002B0F
S32D00011C8815D0114B1A697B681A61FB6803F44033B3F5803F0BD10C4B5A697B685A610A4B9A697B689A61084BBA
S32D00011CB0DA697B68DA61064B1B6B054A43F001031363002318461037BD4680BD648C020000100B4001000E006D
S32D00011CD880B592B000AF7860396000237B643B68BB63994B7B637B6B002B02D140F601235FE3964B3B633B6B1C
S32D00011D00002B02D140F60B2357E33B6B1B68FB62FB6A002B02D140F60B234EE37B6841F20932934200F23F83C0
S32D00011D287B68B3F5985F08D87B68032B00F01A837B68092B00F0098331E37B68A3F59853013B082B00F22B8370
S32D00011D5001A252F823F000BF7D1D010069200100C52201007F200100BD200100E32101002B2201006D21010038
S32D00011D78872101007649786BFFF7EEFD78647B6C002B40F01083002387F84330002387F82B30002387F82A3051
S32D00011DA0002387F82930002387F84230002387F8283000233B7200237B720023FB6000233B7400237B6107F1E4
S32D00011DC808031846FFF788FE0346002B14BF01230023DBB2002B02D001237B64E8E240F24C4001F081F80823CF
S32D00011DF03B7200237B724FF4D573FB6000233B7400237B6107F108031846FFF769FEF863FB6B002B09D1BA69A9
S32D00011E18FB689A4202D001237B64C9E2012387F84230012387F8283097F82830002B00F0A58037233B7200237B
S32D00011E407B720023FB6000233B7400237B6107F108031846FFF744FEF863FB6B002B02D001237B64A8E26923C7
S32D00011E683B7200237B720023FB6000233B7400237B6107F108031846FFF72EFE0346002B14BF01230023DBB2A1
S32D00011E90002B02D001237B648EE2BB6903F44013002B6FD00023FB630A2001F021F8FB6B0133FB6337233B7227
S32D00011EB800237B720023FB6000233B7400237B6107F108031846FFF707FE0346002B14BF01230023DBB2002BFA
S32D00011EE002D001237B6428E069233B7200237B7297F84230002B02D0184BFB6002E04FF44013FB6000233B744C
S32D00011F0800237B6107F108031846FFF7E5FD0346002B14BF01230023DBB2002B02D001237B6406E0BB69002B22
S32D00011F3003DBFB6B632B00D8B6E77B6C002B40F03882FB6B632B0BD9002387F8423019E0701700207419002006
S32D00011F58588C020000003040012387F8433097F84230002B0AD0002387F84230BB6903F08043002B02D00123D9
S32D00011F8087F8423097F82A30002B02D07B6B07221A6097F82930002B02D07B6B08221A6097F82B30002B02D07C
S32D00011FA87B6B04221A6097F84330002B09D07B6B02221A6097F84230002B02D07B6B03221A6097F82B30002B62
S32D00011FD00DD097F84330002B09D07B6B05221A6097F84230002B02D07B6B06221A60924B00221A60904B00227C
S32D00011FF85A608F4B00229A608D4B0022DA608C4B00221A618A4B00225A61FB6A9A68FB6A5B6819461046FFF776
S32D000120202BFC854B40F243421A60834B40F243425A60814B4FF488629A607F4B40F24342DA607D4B40F24342FD
S32D000120481A617B4B40F243425A617A4B03F580531B6B784A43F4003302F580521363A7E1B86BFFF739FDF86303
S32D00012070FB6B002B00F09F8102237B649BE1BB6B002B02D10C237B6496E16D4BDB6A1B0A5B0003F4FF73FB6333
S32D00012098694BDB6A1B0903F00F035A1CFB6B02FB03F3FB63FB6A9A68FB6BB2FBF3F2BB6B1A607DE1BB6B002B1C
S32D000120C002D10C237B6477E1BB6B1B68002B02D10C237B6470E1FFF7DBFC0346002B0CBF01230023DBB2002BA7
S32D000120E83CD0534B00221A60514B00225A60504B00229A604E4B0022DA604D4B00221A614B4B00225A61FB6A52
S32D000121109A68BB6B1B6819461046FFF7ADFB464B40F243421A60444B40F243425A60424B4FF488629A60404BA1
S32D0001213840F24342DA603E4B40F243421A613C4B40F243425A613B4B03F580531B6B394A43F4003302F5805246
S32D00012160136329E140F60A237B6425E1BB6B002B02D10C237B641FE1314B5B68C3F30C02BB6B1A6018E1BB6B94
S32D00012188002B02D10C237B6412E1FFF77DFC0346002B0CBF01230023DBB2002B19D0BB6B1B68B3F5805F02D38E
S32D000121B00C237B6400E1224B5B68214A23F4FF5323F01F0353601E4B5A68BB6B1B68C3F30C031B4913434B6027
S32D000121D8EEE040F60A237B64EAE0BB6B002B02D10C237B64E4E0144B9B6A5B0803F00303FB63FB6B002B03D185
S32D00012200BB6B00221A60D7E0FB6B012B03D1BB6B01221A60D0E0FB6B102B03D1BB6B02221A60C9E005237B6474
S32D00012228C6E0BB6B002B09D10C237B64C0E000BF00D004400070044000100B40FFF724FC0346002B0CBF0123AD
S32D000122500023DBB2002B31D0BB6B1B68002B0AD1584B9B6A574A23F006039362554B554A9B6A9362A0E0BB6B9B
S32D000122781B68012B0CD1514B9B6A504A23F0060393624E4B9B6A4D4A43F0020393628FE0BB6B1B68022B0AD1DD
S32D000122A0484B9B6A474A23F006039362454B454A9B6A936280E005237B647DE040F60A237B6479E0BB6B002B0C
S32D000122C802D10C237B6473E03C4BDB6A3B4A43F00063D362394BDB6A03F00063002B14BF01230023DBB2002B7B
S32D000122F000D0F3E7334B1B6B03F08003002B14BF01230023DBB2002B08D02E4B1B6B2D4A43F0800313637B6B3E
S32D0001231800221A60294B5B6A03F48033002B14BF01230023DBB2002B07D07B6B1B68002B06D17B6B01221A6055
S32D0001234002E07B6B00221A607B6B1A68BB6B1A6032E0BB6B1C221A60BB6B043304221A60BB6B08334FF41E72E1
S32D000123681A6025E00220FFF7A1FB144B1B6B03F4E003002B14BF01230023DBB2002B07D00E4B1B6B0D4A43F413
S32D00012390E003136304237B640A4B1B6B094A43F03203136308E040F609237B6404E000BF02E000BF00E000BFA7
S32D000123B87B6C18464837BD4680BD00BF00100B4080B590B000AF0346FB71A64BFB63A64BBB63BB6BA54A1A6012
S32D000123E0FB79002B01D00123A9E1A34B1B78DBB203F00203002B14BF01230023DBB2002B03D09D4B1B78DBB2D2
S32D0001240899E19B4B1B78DBB203F00303002B0CBF01230023DBB2002B01D000238BE1BB6B002B03D0BB6B1B680A
S32D00012430002B01D1002382E1FB6B904A1A60FB6B01225A60BB6B00225A60BB6B00229A60BB6B00221A61BB6BD0
S32D0001245800221A73BB6B00225A73874B03F580531B6B854A43F4003302F580521363002141F20130FFF72CFC53
S32D000124800346002B14BF01230023DBB2002B01D0002354E10023BB6207F12803194641F20330FFF719FC034642
S32D000124A8002B14BF01230023DBB2002B01D0002341E1BB6A022B08D0BB6A032B05D0BB6A052B02D0BB6A062B23
S32D000124D009D1BB6A032B02D0BB6A062B05D1BB6B01221A7301E0002329E100BF02233B7200237B720023FB60AF
S32D000124F800233B7400237B6107F10803194641F20230FFF7E5FB0346002B14BF01230023DBB2002B01D000230D
S32D000125200DE103233B7200237B720023FB6000233B7400237B6107F10803194641F20230FFF7CAFB0346002B76
S32D0001254814BF01230023DBB2002B01D00023F2E0BB691B0C1B04BA6B136109233B7200237B72BB6B1B69FB60DB
S32D0001257000233B7400237B6107F10803194641F20230FFF7A9FB0346002B14BF01230023DBB2002B01D00023D0
S32D00012598D1E07B6A03F44003002B1ED13B6A1B0A03F00F033B633B6A03F003037B637B6B9A02FB699B0D13435D
S32D000125C07B63FB69DB0903F00703FB627B6B5A1CFB6A02339A403B6B093B9A40BB6B9A600CE0BB6B01225A73B6
S32D000125E8FB691B0AC3F315037B637B6B01339A02BB6B9A6007233B7200237B72BB6B1B69FB6000233B740023D8
S32D000126107B6107F10803194641F20230FFF75CFB0346002B14BF01230023DBB2002B01D0002384E010233B722D
S32D0001263800237B724FF40073FB6000233B7400237B6107F10803194641F20230FFF740FB0346002B14BF01231E
S32D000126600023DBB2002B0DD0002368E074190020581700206C17002004000020588C020000700440BB6B1B68E2
S32D000126881B68012B49D137233B7200237B72BB6B1B69FB6000233B7400237B6107F10803194641F20230FFF7B0
S32D000126B013FB0346002B14BF01230023DBB2002B01D000233BE046233B7200237B720223FB6000233B740023FD
S32D000126D87B6107F10803194641F20230FFF7F8FA0346002B14BF01230023DBB2002B01D0002320E00123BB62CD
S32D0001270007F12803194641F20730FFF7E5FA0346002B14BF01230023DBB2002B01D000230DE0094B1B78DBB24E
S32D0001272823F00103DAB2064B1A70054B1B78DBB203F00303DBB218464037BD4680BD00BF0400002080B489B0A9
S32D0001275000AF786039607B687B61364B3B613B69002B01D100235FE03B691B68022B0BD03B691B68032B07D000
S32D000127783B691B68072B03D03B691B68082B0BD12B4B5B6A03F00403002B14BF01230023DBB2002B00D0F3E7F4
S32D000127A03B68FB61FB69002B3DD0FB69B3F5007F28BF4FF40073FB60FB6803339B08BB61BB69002B2AD01C4BE4
S32D000127C81B6B03F4E003002B14BF01230023DBB2002B09D0164B1B6B154A43F4E00343F02003136300231BE062
S32D000127F0114B5B6A03F40063002B0CBF01230023DBB2002B00D0F3E70B497B691A1D7A610A6A1A60BB69013B08
S32D00012818BB61D1E7FA69FB68D31AFB61BEE7012318462437BD4680BC704700BF7017002000100B4080B58EB002
S32D0001284000AFB9607A601A460346FB731346BB73414B7B63FB7B002B02D1BB7B002B01D1042375E03D4B1B7881
S32D00012868DBB203F00103002B14BF01230023DBB2002B01D0032367E0BB68002B01D1002362E07B6B1B7B002B56
S32D0001289002D17B685B027B60BB7B012B28D111233B7500237B757B68BB6101233B77BB7B3B6207F114031946C3
S32D000128B841F20230FFF70CFA0346002B0CBF01230023DBB2002B38D04FF40071B868FFF739FF0346002B14BF01
S32D000128E001230023DBB2002B2BD00023BB7328E012233B7500237B757B68BB6101233B77BB7B3B6207F11403C7
S32D00012908194641F20230FFF7E3F90346002B0CBF01230023DBB2002B0FD0BB7B5B021946B868FFF70FFF03468E
S32D00012930002B14BF01230023DBB2002B01D00023BB73BB7B002B01D0012300E0002300BF18463837BD4680BD34
