S01100002E2E2F50726F746575732E73313966
S32D0000C000000000205DC2000011C3000017C300001DC3000023C3000029C3000000000000000000000000000073
S32D0000C028000000002FC3000035C30000000000003BC3000041C300002DCB000039CB000045CB000051CB0000D6
S32D0000C0505DCB000069CB000075CB000081CB00008DCB000099CB0000A5CB0000B1CB0000BDCB0000C9CB000016
S32D0000C078D5CB0000E1CB0000EDCB0000F9CB000005CC000011CC00001DCC000029CC000035CC000041CC000038
S32D0000C0A04DCC000059CC000065CC000071CC00007DCC000089CC000095CC0000A1CC0000ADCC0000B9CC00005C
S32D0000C0C8C5CC0000D1CC0000DDCC0000E9CC0000F5CC000001CD00000DCD000019CD000025CD000031CD00007F
S32D0000C0F03DCD0000110F010049CD000055CD000061CD00006DCD000079CD000085CD000091CD00009DCD0000F7
S32D0000C118A9CD0000B5CD0000C1CD0000CDCD0000D9CD0000E5CD0000F1CD0000FDCD000009CE000015CE00003F
S32D0000C14021CE00002DCE000039CE000045CE000009F2000051CE00005DCE000069CE000075CE000081CE0000BF
S32D0000C1688DCE000099CE0000A5CE0000B1CE0000BDCE0000C9CE0000D5CE0000E1CE0000EDCE0000F9CE0000FF
S32D0000C19005CF000011CF00001DCF000069EF000031EE0000CDEE0000B1C8000009F0000029CF000035CF000041
S32D0000C1B841CF0000D0440100000000205C150000D04401000000FF1F000000005C150020700400000000FF1F4D
S32D0000C1E00000000080B489B000AFF860B9607A60BB68FB61FB68BB6100237B617A697B689A420BD2BA69131DFB
S32D0000C208BB61FB69191DF96112681A607B6904337B61EFE700BF2437BD4680BC704780B485B000AF786039609E
S32D0000C2307B68FB600023BB60BA683B689A4208D2FB681A1DFA6000221A60BB680433BB60F2E700BF1437BD46FE
S32D0000C25880BC704780B586B000AF72B6234B4CF220521A80214B4DF628121A80204B4FF4E9721A801F4B7B615F
S32D0000C2807B691F4A934214D27B691A1D7A611B683B617B691A1D7A611B68FB607B691A1D7A611B68BB60BA68E9
S32D0000C2A8F9683869FFF79AFFE6E77B69134A93420ED27B691A1D7A611B68FB607B691A1D7A611B68BB60B9688B
S32D0000C2D0F868FFF7A8FFECE70B4B7B600B4A7B681A6007F095F962B600F0AAFB00F0E6F9FEE700BF0E20054075
S32D0000C2F800200540BCC10000D4C10000E4C1000008ED00E000C0000080B400AFFEE780B400AFFEE780B400AFF4
S32D0000C320FEE780B400AFFEE780B400AFFEE780B400AFFEE780B400AFFEE780B400AFFEE780B400AFFEE780B426
S32D0000C34800AFFEE7FFFFFFFFFFFFFFFFFFFFFFFFFFFFFFFFFFFFFFFFFFFFFFFFFFFFFFFFFFFFFFFFFFFFFFFF57
S32D0000C370FFFFFFFFFFFFFFFFFFFFFFFFFFFFFFFFFFFFFFFFFFFFFFFFFFFFFFFFFFFFFFFFFFFFFFFFFFFFFFFFC7
S32D0000C398FFFFFFFFFFFFFFFFFFFFFFFFFFFFFFFFFFFFFFFFFFFFFFFFFFFFFFFFFFFFFFFFFFFFFFFFFFFFFFFF9F
S32D0000C3C0FFFFFFFFFFFFFFFFFFFFFFFFFFFFFFFFFFFFFFFFFFFFFFFFFFFFFFFFFFFFFFFFFFFFFFFFFFFFFFFF77
S32D0000C3E8FFFFFFFFFFFFFFFFFFFFFFFFFFFFFFFFFFFFFFFFFFFFFFFFFFFFFFFFFFFFFFFFFFFFFFFFFEFFFFFF50
S32D0000C41010B5054C237833B9044B13B10448AFF300800123237010BD5C1500200000000010C4000008B5034BEC
S32D0000C4381BB103490348AFF3008008BD000000006015002010C4000080B483B000AF786039607B683A681A609D
S32D0000C4607B6818460C37BD4680BC704780B584B000AFF860B9607A60786806F08FFE034619460E4800F0CCFDB7
S32D0000C488786806F087FE034619460B4800F0C4FD786806F07FFE03461946084800F0BCFDB86802F07BFCF868A2
S32D0000C4B000F0E6F800BF1037BD4680BD78150020801500208815002080B584B000AFF860B9607A603B603A688B
S32D0000C4D8B968F86800F00CF8786802F05FFCF86800F0CAF800BF1037BD4680BD00000000B0B588B000AFF86098
S32D0000C500B9607A60786806F0F3F904460D46B86806F000FA4EA3D3E9002306F053FA02460B46104619464FF00B
S32D0000C5280002514B06F074FB02460B4648A1D1E9000106F08BF802460B461046194604F0EDFE02460B46204600
S32D0000C550294606F037FA02460B461046194606F013FD0346FB61786806F0C2F904460D46B86806F0CFF936A349
S32D0000C578D3E9002306F022FA02460B46104619464FF00002384B06F043FB02460B4632A1D1E9000106F05AF8EF
S32D0000C5A002460B461046194604F0BCFE02460B462046294606F006FA02460B461046194606F0E2FC0346BB6186
S32D0000C5C8786806F091F904460D46B86806F09EF91DA3D3E9002306F0F1F902460B46104619464FF00002204B22
S32D0000C5F006F012FB02460B461BA1D1E9000106F029F802460B461046194604F08BFE02460B462046294606F0C4
S32D0000C618D5F902460B461046194606F0B1FC03467B61F969114800F0F7FCB969104800F0F3FC79690F4800F0F0
S32D0000C640EFFC00BF2037BD46B0BD00BFAFF300807A008BFCFA2109405C40683D7CD9124066801E7DA6F10440D1
S32D0000C6685100B2FD51C1E03F0080664078150020801500208815002080B582B000AF78604FF00001084800F0C0
S32D0000C690C7FC4FF00001074800F0C2FC4FF00001054800F0BDFC00BF0837BD4680BD00BF7815002080150020E7
S32D0000C6B88815002080B582B000AF3B1D00211846FFF7C2FE786800F007F8002318460837BD4680BD0000000025
S32D0000C6E080B586B000AF7860414803F0DEFA3B1D2D2240491846FFF7B9FE00237B617B69B3F5B47F1BDA786917
S32D0000C70806F048FD01463B1D2D221846FFF7F0FE354803F0C6FA7B69354A13441946324803F0B0FC2EA1D1E9AD
S32D0000C730000102F057FB7B6901337B61DFE74FF000002E4902F04EFB294803F0AEFA2C49274803F09BFC381D1C
S32D0000C7582D234FF07E524FF00001FFF7B1FE2749214803F08FFC381D2D234FF07E522449FFF7A6FE23491C488D
S32D0000C78003F084FC381D2D234FF07E522049FFF79BFE2049164803F079FC381D2D234FF07E521D49FFF790FE9F
S32D0000C7A81C49114803F06EFC07F10C0207F1100319460D4803F030FB034683F00103DBB2002B00D0F0E7381DF1
S32D0000C7D02D234FF07E524FF00001FFF775FE00BF1837BD4680BD00BF7B14AE47E17A843F7C1800200000A040F0
S32D0000C7F8AC3F01000000F03FC03F0100D03F01000000B442E03F010000008743F03F010000003443044001001C
S32D0000C82080B582B000AF786039607B68012B23D13B684FF6FF7293421ED1114A0021114800F086FB0E4A012183
S32D0000C8480F4800F081FB0C4A02210E4800F07CFB00210D4802F020FC01210C4802F01CFC02210B4802F018FC49
S32D0000C87003210A4802F014FC00BF0837BD4680BD0000C040781500208015002088150020901500209415002037
S32D0000C898981500209C15002080B500AF4FF6FF710120FFF7B9FF80BD80B500AF0F4BD3F8A03003F48053002B61
S32D0000C8C014BF01230023DBB2002B10D0094BD3F8A030084A23F48053C2F8A030064804F09BFC064B1B68054AE7
S32D0000C8E823F40053136000BF80BD00BF00C0044004190020C0F00F4080B400AF124B4FF480725A63114B5B69F8
S32D0000C910104A43F4005353610E4B1B680D4A43F4005313600A4B0C4A1A630C4BD3F888310A4A43F08063C2F80A
S32D0000C9388831084B9B68074A43F08063936000BFBD4680BC704700BF00C00440C0F00F4003010A0000E100E022
S32D0000C96080B400AF334B00225A70324B98221A70304B9B79DBB203F01003002B14BF01230023DBB2002B00D0AC
S32D0000C988F2E72A4B9B79DBB29B08DBB203F00303022B14BF01230023DBB2002B00D0F0E7224B18221A71214B25
S32D0000C9B000225A71204B03F580531A461F4B53641C4B54225A711B4B9B79DBB203F02003002B0CBF01230023B3
S32D0000C9D8DBB2002B00D0F2E7144B9B79DBB203F04003002B0CBF01230023DBB2002B00D0F2E70E4B1B78DBB283
S32D0000CA000C4A03F03F03DBB213700A4B9B79DBB29B08DBB203F00303032B14BF01230023DBB2002B00D0F0E7A7
S32D0000CA2800231846BD4680BC704700BF00400640007004400000130180B500AF314B03F580539B6B2F4A43F47B
S32D0000CA50785302F580529363FFF752FFFFF780FF2B4B58221A602A4B1B684FF47A7202FB03F3284A1360274B97
S32D0000CA781B681A46234B03F580535B6C1B0E03F00F030133B2FBF3F31A46214B1A601D4B03F58053DB6B1B4A94
S32D0000CAA043F0225302F58052D363184B03F580531B6B164A43F0006302F580521363174B4FF480721A61642042
S32D0000CAC802F042F8134B5B69124A23F010035361104B00221A600F4B10225A610E4802F06DFF02F041FB02F0AA
S32D0000CAF09FFB0C4802F08EF80B4804F0E1FB4FF4FA6002F039F900BF80BD00BF00700440C8170020C417002065
S32D0000CB18CC17002000D003407C180020C01700207419002080B500AFFFF709FC00BF80BD80B500AFFFF703FCCD
S32D0000CB4000BF80BD80B500AFFFF7FDFB00BF80BD80B500AFFFF7F7FB00BF80BD80B500AFFFF7F1FB00BF80BD73
S32D0000CB6880B500AFFFF7EBFB00BF80BD80B500AFFFF7E5FB00BF80BD80B500AFFFF7DFFB00BF80BD80B500AF99
S32D0000CB90FFF7D9FB00BF80BD80B500AFFFF7D3FB00BF80BD80B500AFFFF7CDFB00BF80BD80B500AFFFF7C7FBD3
S32D0000CBB800BF80BD80B500AFFFF7C1FB00BF80BD80B500AFFFF7BBFB00BF80BD80B500AFFFF7B5FB00BF80BDAF
S32D0000CBE080B500AFFFF7AFFB00BF80BD80B500AFFFF7A9FB00BF80BD80B500AFFFF7A3FB00BF80BD80B500AFD5
S32D0000CC08FFF79DFB00BF80BD80B500AFFFF797FB00BF80BD80B500AFFFF791FB00BF80BD80B500AFFFF78BFB4A
S32D0000CC3000BF80BD80B500AFFFF785FB00BF80BD80B500AFFFF77FFB00BF80BD80B500AFFFF779FB00BF80BDEA
S32D0000CC5880B500AFFFF773FB00BF80BD80B500AFFFF76DFB00BF80BD80B500AFFFF767FB00BF80BD80B500AF10
S32D0000CC80FFF761FB00BF80BD80B500AFFFF75BFB00BF80BD80B500AFFFF755FB00BF80BD80B500AFFFF74FFBC2
S32D0000CCA800BF80BD80B500AFFFF749FB00BF80BD80B500AFFFF743FB00BF80BD80B500AFFFF73DFB00BF80BD26
S32D0000CCD080B500AFFFF737FB00BF80BD80B500AFFFF731FB00BF80BD80B500AFFFF72BFB00BF80BD80B500AF4C
S32D0000CCF8FFF725FB00BF80BD80B500AFFFF71FFB00BF80BD80B500AFFFF719FB00BF80BD80B500AFFFF713FB3A
S32D0000CD2000BF80BD80B500AFFFF70DFB00BF80BD80B500AFFFF707FB00BF80BD80B500AFFFF701FB00BF80BD61
S32D0000CD4880B500AFFFF7FBFA00BF80BD80B500AFFFF7F5FA00BF80BD80B500AFFFF7EFFA00BF80BD80B500AF8A
S32D0000CD70FFF7E9FA00BF80BD80B500AFFFF7E3FA00BF80BD80B500AFFFF7DDFA00BF80BD80B500AFFFF7D7FAB5
S32D0000CD9800BF80BD80B500AFFFF7D1FA00BF80BD80B500AFFFF7CBFA00BF80BD80B500AFFFF7C5FA00BF80BDA0
S32D0000CDC080B500AFFFF7BFFA00BF80BD80B500AFFFF7B9FA00BF80BD80B500AFFFF7B3FA00BF80BD80B500AFC6
S32D0000CDE8FFF7ADFA00BF80BD80B500AFFFF7A7FA00BF80BD80B500AFFFF7A1FA00BF80BD80B500AFFFF79BFA2D
S32D0000CE1000BF80BD80B500AFFFF795FA00BF80BD80B500AFFFF78FFA00BF80BD80B500AFFFF789FA00BF80BDDB
S32D0000CE3880B500AFFFF783FA00BF80BD80B500AFFFF77DFA00BF80BD80B500AFFFF777FA00BF80BD80B500AF01
S32D0000CE60FFF771FA00BF80BD80B500AFFFF76BFA00BF80BD80B500AFFFF765FA00BF80BD80B500AFFFF75FFAA4
S32D0000CE8800BF80BD80B500AFFFF759FA00BF80BD80B500AFFFF753FA00BF80BD80B500AFFFF74DFA00BF80BD17
S32D0000CEB080B500AFFFF747FA00BF80BD80B500AFFFF741FA00BF80BD80B500AFFFF73BFA00BF80BD80B500AF3D
S32D0000CED8FFF735FA00BF80BD80B500AFFFF72FFA00BF80BD80B500AFFFF729FA00BF80BD80B500AFFFF723FA1C
S32D0000CF0000BF80BD80B500AFFFF71DFA00BF80BD80B500AFFFF717FA00BF80BD80B500AFFFF711FA00BF80BD52
S32D0000CF2880B500AFFFF70BFA00BF80BD80B500AFFFF705FA00BF80BD80B500AFFFF7FFF900BF80BD000000005D
S32D0000CF5080B584B000AFF8600B467A60FB72FB68FA7A1A71FB6800225A711749786806F025FB0346002B02D05D
S32D0000CF78134B7B600AE04FF07E51786806F006FB0346002B02D04FF07E537B60786805F0BDFC09A3D3E9002339
S32D0000CFA005F010FD02460B461046194605F0ECFF0246FB681A60FB6818461037BD4680BDABAAAAAAAAAA204069
S32D0000CFC80000404180B584B000AF786039603B687F2B02DD7F23FB7308E03B6813F1800F02DA8023FB7301E009
S32D0000CFF03B68FB737B685B79FA7B9A4209D07B68FA7B5A717B681979FA7B1E23034801F03BFE00BF1037BD4655
S32D0000D01880BD00BFC0170020B0B584B000AF786039603749386806F0A7FA0346002B02D0334B3B6008E03349C4
S32D0000D040386806F0BBFA0346002B01D02F4B3B60386805F05FFC04460D467B681B68184605F058FC4FF0000242
S32D0000D068294B05F0D5FD02460B462046294605F0A5FC02460B461046194605F081FF03463B604FF000013868D4
S32D0000D09006F08AFA0346002B10D0386805F03AFC17A3D3E9002305F08DFC02460B461046194605F021FF034616
S32D0000D0B8FB6018E0386805F029FC4FF00002134B05F07CFC02460B46104619464FF000020D4B05F09DFD024673
S32D0000D0E00B461046194605F007FF0346FB60F9687868FFF76BFF00BF1037BD46B0BD00BF52B81E85EB51F43F8B
S32D0000D1080000C8C20000C842000059400000604080B483B000AF03460A46FB711346BB71BB79002B03D1134BFB
S32D0000D13000221A7002E0114B01221A703823FB710E4B1A78FB791343FB710D4B9B78DBB20B4A43F01003DBB232
S32D0000D1589370094B9B78DBB2074A43F02003DBB29370054AFB79137100BF0C37BD4680BC704700BF9D150020AB
S32D0000D1800060064080B483B000AF01237B607B68312B04DC00BF7B6801337B60F7E700BF0C37BD4680BC704720
S32D0000D1A880B582B000AF03460A46FB711346BB71134B1B7800211846FFF7AAFF00F024F8104AFB79137100F05C
S32D0000D1D01FF80E4ABB79137100F01AF80B4B9B78DBB20A4A23F02003DBB29370074B9B78DBB2064A23F0100390
S32D0000D1F8DBB29370FFF7C2FF00BF0837BD4680BD9E1500200060064080B483B000AF174B1B78002B24D10023BD
S32D0000D2207B60154BDB78DBB203F00203002B0CBF01230023DBB2002B0DD07B6842F21072934203DD0B4B012234
S32D0000D2481A7004E07B6801337B6000BFE5E7084BDB78DBB2064A43F00203DBB2D37000E000BF0C37BD4680BC21
S32D0000D270704700BF9F1500200060064080B582B000AF0346FB71FB79184600F05FF800BF0837BD4680BD80B549
S32D0000D29882B000AF03460A46FB711346BB7100F035F8FB795B00DBB21846FFF7E3FFBB791846FFF7DFFF00F0F8
S32D0000D2C037F800BF0837BD4680BD80B500AFFF2000F03CF80346184680BD80B584B000AF0346FB7100F016F8FD
S32D0000D2E8FB795B005BB243F001035BB2DBB21846FFF7C0FFFFF7E5FF0346FB7300F014F8FB7B18461037BD46AD
S32D0000D31080BD000080B400AF044B9B68034A43F48013936000BFBD4680BC704740F00F4080B400AF044B5B684A
S32D0000D338034A43F48013536000BFBD4680BC704740F00F4080B485B000AF0346FB710023BB73164BDB6A03F012
S32D0000D3600043012B0CBF01230023DBB2002B03D0FB7B0133FB73F0E70E4BDB6A0D4A43F00043D3620B4AFB793B
S32D0000D38853630A4BDB6A03F40033002B0CBF01230023DBB2002B00D0F3E7044B9B6BBB73BB7B18461437BD46F9
S32D0000D3B080BC704700C00A4080B582B000AF204B03F580531B6B1E4A43F4805302F5805213631C4B4FF4807233
S32D0000D3D81A651B4B5B691A4A43F480135361FFF7A3FF164B4FF400725A65144B4FF400729A65124B4FF400720A
S32D0000D400DA65124B124A1A60104B124ADA6000237B607B68092B06DCFF20FFF72FFF7B6801337B60F5E704A1EE
S32D0000D428D1E9000101F0DAFC00BF0837BD4680BD9A9999999999B93F0070044000A0044040F00F4000C00A4066
S32D0000D450000C00800500003E90B486B000AFF860B9607A60FB68534A93420AD1524B03F580535B6B504A43F4BC
S32D0000D478806302F58052536345E0FB684D4A93420AD14B4B03F580535B6B494A43F4006302F58052536336E06C
S32D0000D4A0FB68474A93420AD1434B03F580535B6B414A43F4805302F58052536327E0FB68404A93420AD13C4B5C
S32D0000D4C803F580535B6B3A4A43F4005302F58052536318E0FB683A4A93420AD1344B03F580539B6A324A43F487
S32D0000D4F0806302F58052936209E02F4B03F580539B6A2D4A43F4006302F580529362FB68DB78DBB223F00C0306
S32D0000D518DAB2FB68DA70FB6800229A70BB684FF47A7203FB02F27B681B0192FBF3F39CB2FB681B78DBB223F083
S32D0000D5401F03FB75230A9BB2DBB203F01F03DAB2FB7D1343DAB2FB681A70E2B2FB685A70BB684FF4FA4203FBDB
S32D0000D56802F27B681B0192FBF3F39AB263019BB2D31A9CB2FB689B7ADBB223F01F03FB75E3B203F01F03DAB217
S32D0000D590FB7D1343DAB2FB689A72FB68DB78DBB243F00C03DAB2FB68DA7000BF1837BD4690BC704700A00640EC
S32D0000D5B80070044000B0064000C0064000D0064000A00E4080B483B000AF78607B681B79DBB203F02003002B5E
S32D0000D5E00CBF01230023DBB2002B00D0F2E77B68DB79DBB218460C37BD4680BC704780B483B000AF78600B4610
S32D0000D608FB707B681B79DBB25BB2DB43DBB2DB09DBB2002B00D0F4E77B68FA78DA7100BF0C37BD4680BC7047EE
S32D0000D63080B487B000AFF860B9607A60FB687B617B685A1E7A60002B14BF01230023DBB2002B06D07B695A1CC6
S32D0000D6587A61BA68D2B21A70EEE700BF1C37BD4680BC704780B584B000AF786039607B681B6BFB60FA683B686A
S32D0000D6809A4252D07B681B79002B35D07B6858787B6803F134010123FA6801F0F7F80346002B14BF0123002324
S32D0000D6A8DBB2002B01D001233CE07B6800221A717B685A6A7B681B6A1344FA689A4217D27B68DB78FB72FB7A56
S32D0000D6D0012B11D97B681B6AFA681344FB607B6858787B6803F134010123FA6801F0CEF8FB7A013BFB72EAE7AF
S32D0000D6F83B68002B15D07B6858787B6803F1340101233A6800F0DAFF0346002B14BF01230023DBB2002B01D0EC
S32D0000D720012303E07B683A681A63002318461037BD4680BD80B584B000AF786000217868FFF794FF0346FB7399
S32D0000D748FB7B002B40F093807B681B78032B7DD17B685B79002B79D07B6800221A637B6834334FF40072002110
S32D0000D7701846FFF75DFF7B68552283F832227B68AA2283F833227B68522283F834207B68522283F835207B6803
S32D0000D798612283F836207B68412283F837207B68722283F818227B68722283F819227B68412283F81A227B68BE
S32D0000D7C0612283F81B227B681B69DAB27B6883F81C227B681B699BB21B0A9BB2DAB27B6883F81D227B681B69BB
S32D0000D7E81B0CDAB27B6883F81E227B681B691B0EDAB27B6883F81F227B68DB68DAB27B6883F820227B68DB688F
S32D0000D8109BB21B0A9BB2DAB27B6883F821227B68DB681B0CDAB27B6883F822227B68DB681B0EDAB27B6883F84A
S32D0000D83823227B6858787B6803F134017B685A69012301F01FF87B6800225A717B685B7800220021184601F0D4
S32D0000D860E1F80346002B14BF01230023DBB2002B01D00123FB73FB7B18461037BD4680BD80B582B000AF7860CF
S32D0000D8880B467B807B68002B08D07B681B78002B04D07B68DB887A889A4201D0092311E07B685B78184601F0B4
S32D0000D8B03BF9034603F00103002B14BF01230023DBB2002B01D0032300E0002318460837BD4680BD80B586B097
S32D0000D8D800AF78607B681A687B689B8819461046FFF7CAFF0346FB75FB7D002B40F0AC807B689B7903F02003F7
S32D0000D900002B00F0A5807B689B7903F04003002B1BD07B681B6858787B6803F128017B689A69012300F0B2FF95
S32D0000D9280346002B14BF01230023DBB2002B01D001238AE07B689B7923F04003DAB27B689A717B681A687B681D
S32D0000D950DB6919461046FFF789FE0346FB75FB7D002B75D17B681B6A3B613B690B331A783B690B3342F02002E3
S32D0000D978D2B21A707B68DA683B691C33D2B21A707B68DB689BB21B0A9AB23B691D33D2B21A707B68DB681A0C1B
S32D0000D9A03B691E33D2B21A707B68DB681A0E3B691F33D2B21A707B681A693B691A33D2B21A707B681B699BB2EB
S32D0000D9C81B0A9AB23B691B33D2B21A707B681B691A0C3B691433D2B21A707B681B691B0C9BB21B0A9AB23B694A
S32D0000D9F01533D2B21A700023FB603B691633FA68D2B21A70FB689BB21B0A9AB23B691733D2B21A70FB681A0C32
S32D0000DA183B691833D2B21A70FB681A0E3B691933D2B21A707B689B7923F02003DAB27B689A717B681B6801222A
S32D0000DA401A717B681B681846FFF774FE0346FB75FB7D18461837BD4680BD80B584B000AF78607868FFF736FFE8
S32D0000DA680346FB73FB7B002B02D17B6800221A60FB7B18461037BD4680BD000080B588B000AF7860396080235B
S32D0000DA903B610F23FB604FF0FF337B610223FB61FB69B3F5807F23D80123BB61BB69102B1AD8FB69BA6902FB56
S32D0000DAB803F33A6803FB02F27B68D31ABB60BB68002B09DBBB687A699A4205D9BB687B61FB693B61BB69FB605B
S32D0000DAE0BB690133BB61E1E7FB695B00FB61D7E71D4BDB6A1C4A23F00803D3621A4BDB6A23F47F2323F47F6341
S32D0000DB08BB613B695B081B029AB2FB68013B1B01DBB21A43BB691343114A43F46023D3620F4B5B6A03F00803DD
S32D0000DB30002B0CBF01230023DBB2002B03D00A2001F01AF9F0E7084BDB6A074A43F00803D362054B1B6B044A7A
S32D0000DB5843F48013136300BF2037BD4680BD00BF00100B4080B582B000AF786039607B6800221A60414B424AD1
S32D0000DB80DA62404BDB6A03F08073002B14BF01230023DBB2002B00D0F3E73A4B0022C3F8C020384B4FF4813223
S32D0000DBA85A60364B28229A62344B4FF001125A643B689B6833491846FFF760FF2F4B5B6A03F00303002B14BF34
S32D0000DBD001230023DBB2002B00D0F3E72C4B40F243421A602A4B40F243425A60284B4FF488629A60264B40F2B3
S32D0000DBF84342DA60244B40F243421A61224B40F243425A61214B03F580531B6B1F4A43F4003302F580521363F1
S32D0000DC20184B4FF6FF721A63164B1B4A5A63154BDB6A144A43F00063D362124BDB6A03F00063002B14BF0123D5
S32D0000DC480023DBB2002B00D0F3E70C4B5B6A03F48033002B14BF01230023DBB2002B02D07B6801221A60054BC4
S32D0000DC701B6B044A43F080031363002318460837BD4680BD00100B400080000160CC050000D0044000700440B1
S32D0000DC98B3007F0080B400AF064B5A6A40F207331340002B14BF01230023DBB21846BD4680BC704700100B40F4
S32D0000DCC080B485B000AF7860074B1B6B7A681340FB60FB68002B00D1F6E7FB6818461437BD4680BC704700BFE1
S32D0000DCE800100B4080B584B000AF78607B681B7803F03F03764A52F82330FB60FB68002B05D17B681B78002B5B
S32D0000DD1001D00123DCE0714B1B6B704A43F0800313636E4B5B6A03F00103002B14BF01230023DBB2002B00D0CA
S32D0000DD38F3E7684A7B685B689360FB6823F44003FB607B685B789B0503F44003FA681343FB607B685B78022BFA
S32D0000DD6003D1FB6843F40013FB607B685B78042B16D1FB6803F44033B3F5003F08D1FB6823F44033FB60FB68B5
S32D0000DD8843F44033FB6007E0FB6823F44033FB60FB6843F40033FB604E4B5B684D4A9BB253607B68DB68002BCD
S32D0000DDB02AD0FB6803F44033B3F5403F03D0FB6843F40013FB607B681B7A002B03D0FB6843F01003FB607B681F
S32D0000DDD8DB68012B03D9FB6843F02003FB607B68DB68B3F1FF3F0BD03A4B5A687B68DB681B04384913434B60CD
S32D0000DE00FB6843F00203FB60344B00221A60334AFB68D3603248FFF753FF0346012B14BF01230023DBB2002BC7
S32D0000DE2809D02C4B1B6B2B4A43F4702343F001031363012348E0274B1B6B03F08003002B14BF01230023DBB27E
S32D0000DE50002B07D0214B1B6B204A43F001131363012335E01D4B1B6B03F48033002B14BF01230023DBB2002BBB
S32D0000DE7808D0184B1B6B174A43F0011313634FF0FF3321E0FB6803F44033002B15D0114B1A697B681A61FB68AE
S32D0000DEA003F44033B3F5803F0BD10C4B5A697B685A610A4B9A697B689A61084BDA697B68DA61064B1B6B054ADF
S32D0000DEC843F001031363002318461037BD4680BD5440010000100B4001000E0080B592B000AF786039600023BE
S32D0000DEF07B643B68BB63994B7B637B6B002B02D140F601235FE3964B3B633B6B002B02D140F60B2357E33B6BBB
S32D0000DF181B68FB62FB6A002B02D140F60B234EE37B6841F20932934200F23F837B68B3F5985F08D87B68032BB6
S32D0000DF4000F01A837B68092B00F0098331E37B68A3F59853013B082B00F22B8301A252F823F000BF89DF0000E3
S32D0000DF6875E20000D1E400008BE20000C9E20000EFE3000037E4000079E3000093E300007649786BFFF7EEFD25
S32D0000DF9078647B6C002B40F01083002387F84330002387F82B30002387F82A30002387F82930002387F8423095
S32D0000DFB8002387F8283000233B7200237B720023FB6000233B7400237B6107F108031846FFF788FE0346002BC1
S32D0000DFE014BF01230023DBB2002B02D001237B64E8E240F24C4000F0BFFE08233B7200237B724FF4D573FB6069
S32D0000E00800233B7400237B6107F108031846FFF769FEF863FB6B002B09D1BA69FB689A4202D001237B64C9E2B3
S32D0000E030012387F84230012387F8283097F82830002B00F0A58037233B7200237B720023FB6000233B74002301
S32D0000E0587B6107F108031846FFF744FEF863FB6B002B02D001237B64A8E269233B7200237B720023FB600023F0
S32D0000E0803B7400237B6107F108031846FFF72EFE0346002B14BF01230023DBB2002B02D001237B648EE2BB6992
S32D0000E0A803F44013002B6FD00023FB630A2000F05FFEFB6B0133FB6337233B7200237B720023FB6000233B743F
S32D0000E0D000237B6107F108031846FFF707FE0346002B14BF01230023DBB2002B02D001237B6428E069233B726B
S32D0000E0F800237B7297F84230002B02D0184BFB6002E04FF44013FB6000233B7400237B6107F108031846FFF733
S32D0000E120E5FD0346002B14BF01230023DBB2002B02D001237B6406E0BB69002B03DBFB6B632B00D8B6E77B6C71
S32D0000E148002B40F03882FB6B632B0BD9002387F8423019E0B4150020B81700204840010000003040012387F83B
S32D0000E170433097F84230002B0AD0002387F84230BB6903F08043002B02D0012387F8423097F82A30002B02D022
S32D0000E1987B6B07221A6097F82930002B02D07B6B08221A6097F82B30002B02D07B6B04221A6097F84330002BC7
S32D0000E1C009D07B6B02221A6097F84230002B02D07B6B03221A6097F82B30002B0DD097F84330002B09D07B6B73
S32D0000E1E805221A6097F84230002B02D07B6B06221A60924B00221A60904B00225A608F4B00229A608D4B0022C2
S32D0000E210DA608C4B00221A618A4B00225A61FB6A9A68FB6A5B6819461046FFF72BFC854B40F243421A60834B50
S32D0000E23840F243425A60814B4FF488629A607F4B40F24342DA607D4B40F243421A617B4B40F243425A617A4BA2
S32D0000E26003F580531B6B784A43F4003302F580521363A7E1B86BFFF739FDF863FB6B002B00F09F8102237B64FD
S32D0000E2889BE1BB6B002B02D10C237B6496E16D4BDB6A1B0A5B0003F4FF73FB63694BDB6A1B0903F00F035A1C67
S32D0000E2B0FB6B02FB03F3FB63FB6A9A68FB6BB2FBF3F2BB6B1A607DE1BB6B002B02D10C237B6477E1BB6B1B68F9
S32D0000E2D8002B02D10C237B6470E1FFF7DBFC0346002B0CBF01230023DBB2002B3CD0534B00221A60514B0022AC
S32D0000E3005A60504B00229A604E4B0022DA604D4B00221A614B4B00225A61FB6A9A68BB6B1B6819461046FFF726
S32D0000E328ADFB464B40F243421A60444B40F243425A60424B4FF488629A60404B40F24342DA603E4B40F24342ED
S32D0000E3501A613C4B40F243425A613B4B03F580531B6B394A43F4003302F58052136329E140F60A237B6425E1D6
S32D0000E378BB6B002B02D10C237B641FE1314B5B68C3F30C02BB6B1A6018E1BB6B002B02D10C237B6412E1FFF78E
S32D0000E3A07DFC0346002B0CBF01230023DBB2002B19D0BB6B1B68B3F5805F02D30C237B6400E1224B5B68214A20
S32D0000E3C823F4FF5323F01F0353601E4B5A68BB6B1B68C3F30C031B4913434B60EEE040F60A237B64EAE0BB6BD8
S32D0000E3F0002B02D10C237B64E4E0144B9B6A5B0803F00303FB63FB6B002B03D1BB6B00221A60D7E0FB6B012BA1
S32D0000E41803D1BB6B01221A60D0E0FB6B102B03D1BB6B02221A60C9E005237B64C6E0BB6B002B09D10C237B64C7
S32D0000E440C0E000BF00D004400070044000100B40FFF724FC0346002B0CBF01230023DBB2002B31D0BB6B1B682E
S32D0000E468002B0AD1584B9B6A574A23F006039362554B554A9B6A9362A0E0BB6B1B68012B0CD1514B9B6A504A80
S32D0000E49023F0060393624E4B9B6A4D4A43F0020393628FE0BB6B1B68022B0AD1484B9B6A474A23F00603936291
S32D0000E4B8454B454A9B6A936280E005237B647DE040F60A237B6479E0BB6B002B02D10C237B6473E03C4BDB6A6D
S32D0000E4E03B4A43F00063D362394BDB6A03F00063002B14BF01230023DBB2002B00D0F3E7334B1B6B03F080037E
S32D0000E508002B14BF01230023DBB2002B08D02E4B1B6B2D4A43F0800313637B6B00221A60294B5B6A03F4803309
S32D0000E530002B14BF01230023DBB2002B07D07B6B1B68002B06D17B6B01221A6002E07B6B00221A607B6B1A682F
S32D0000E558BB6B1A6032E0BB6B1C221A60BB6B043304221A60BB6B08334FF41E721A6025E00220FFF7A1FB144B42
S32D0000E5801B6B03F4E003002B14BF01230023DBB2002B07D00E4B1B6B0D4A43F4E003136304237B640A4B1B6B92
S32D0000E5A8094A43F03203136308E040F609237B6404E000BF02E000BF00E000BF7B6C18464837BD4680BD00BF45
S32D0000E5D000100B4080B489B000AF786039607B687B61364B3B613B69002B01D100235FE03B691B68022B0BD027
S32D0000E5F83B691B68032B07D03B691B68072B03D03B691B68082B0BD12B4B5B6A03F00403002B14BF01230023ED
S32D0000E620DBB2002B00D0F3E73B68FB61FB69002B3DD0FB69B3F5007F28BF4FF40073FB60FB6803339B08BB61F4
S32D0000E648BB69002B2AD01C4B1B6B03F4E003002B14BF01230023DBB2002B09D0164B1B6B154A43F4E00343F02B
S32D0000E6702003136300231BE0114B5B6A03F40063002B0CBF01230023DBB2002B00D0F3E70B497B691A1D7A6161
S32D0000E6980A6A1A60BB69013BBB61D1E7FA69FB68D31AFB61BEE7012318462437BD4680BC704700BFB415002003
S32D0000E6C000100B4080B58EB000AFB9607A601A460346FB731346BB73414B7B63FB7B002B02D1BB7B002B01D10D
S32D0000E6E8042375E03D4B1B78DBB203F00103002B14BF01230023DBB2002B01D0032367E0BB68002B01D100236B
S32D0000E71062E07B6B1B7B002B02D17B685B027B60BB7B012B28D111233B7500237B757B68BB6101233B77BB7BA7
S32D0000E7383B6207F11403194641F20230FFF7CEFB0346002B0CBF01230023DBB2002B38D04FF40071B868FFF774
S32D0000E76039FF0346002B14BF01230023DBB2002B2BD00023BB7328E012233B7500237B757B68BB6101233B77EC
S32D0000E788BB7B3B6207F11403194641F20230FFF7A5FB0346002B0CBF01230023DBB2002B0FD0BB7B5B02194618
S32D0000E7B0B868FFF70FFF0346002B14BF01230023DBB2002B01D00023BB73BB7B002B01D0012300E0002300BF97
S32D0000E7D818463837BD4680BDA01500200000002080B487B000AF786039607B68FB603B687B617B69002B3DD0AD
S32D0000E8007B69B3F5007F28BF4FF400733B617A693B69D31A7B613B6903339B083B613B69002BEAD0184B1B6BCB
S32D0000E82803F4E003002B14BF01230023DBB2002B0AD0134B1B6B124A43F4E00343F0100313634FF0FF3316E094
S32D0000E8500D4B5B6A03F48063002B0CBF01230023DBB2002B00D0F3E7FB681A1DFA60064A1B6813623B69013BE8
S32D0000E8783B61D0E7012318461C37BD4680BC704700100B4080B58EB000AFB9607A601A460346FB731346BB7346
S32D0000E8A05D4B7B63FB7B002B02D1BB7B002B01D10423ADE0594B1B78DBB203F00103002B14BF01230023DBB2DC
S32D0000E8C8002B01D003239FE0524B1B78DBB203F00403002B14BF01230023DBB2002B01D0022391E0BB68002B18
S32D0000E8F001D100238CE07B6B1B7B002B02D17B685B027B60BB7B012B28D118233B7500237B757B68BB61002389
S32D0000E9183B77BB7B3B6207F11403194641F20230FFF7DCFA0346002B0CBF01230023DBB2002B38D04FF40071B3
S32D0000E940B868FFF751FF0346002B14BF01230023DBB2002B2BD00023BB7328E019233B7500237B757B68BB61AB
S32D0000E96800233B77BB7B3B6207F11403194641F20230FFF7B3FA0346002B0CBF01230023DBB2002B0FD0BB7B10
S32D0000E9905B021946B868FFF727FF0346002B14BF01230023DBB2002B01D00023BB730D233B7500237B757B6B20
S32D0000E9B81B69BB6100233B7700233B6207F11403194641F20230FFF789FA0346002B14BF01230023DBB2002B6A
S32D0000E9E001D0012314E07A6A0D4B1340002B01D001230DE07B6A03F4F853B3F5106F00D0D5E7BB7B002B01D078
S32D0000EA08012300E0002300BF18463837BD4680BDA0150020000000200880D9FF80B58CB000AF03463A60FB7129
S32D0000EA300B46BB713A4BBB62FB79002B01D0042369E0012387F82F30364B1B78DBB203F00103002B14BF0123FD
S32D0000EA580023DBB2002B01D0032358E0BB79032B50D801A252F823F081EA000089EA000099EA0000A9EA000008
S32D0000EA80002387F82F3044E0BB6A9A683B681A60002387F82F303CE03B684FF400721A80002387F82F3034E0DB
S32D0000EAA809233B7200237B72BB6A1B69FB6000233B7400237B6107F10803194641F20230FFF70CFA0346002B4B
S32D0000EAD014BF01230023DBB2002B01D001231AE07B6A03F44003002B0CD13B6A9B0C03F07F035A1C7B6A1B0AEF
S32D0000EAF803F00303013B9A403B681A60002387F82F3002E0042387F82F3097F82F3018463037BD4680BD00BF2A
S32D0000EB20A01500200000002080B483B000AF0346FB71FB79002B01D0012302E0034B1B78DBB218460C37BD467F
S32D0000EB4880BC70470000002080B483B000AF7860164B03F580539B6B144A43F0010302F580529363124A7B68D9
S32D0000EB709360114B05225A600F4B1B680E4A43F0010313600C4B1B6803F08003002B0CBF01230023DBB2002B23
S32D0000EB9800D0F3E7064B1B68054A23F00103136000BF0C37BD4680BC704700BF007004400000044080B582B0E2
S32D0000EBC000AF786039607B68012B07D13B684FF6FF72934202D1034800F00EF800BF0837BD4680BDC0170020A9
S32D0000EBE880B500AF4FF6FF710120FFF7E3FF80BD80B483B000AF78607B6800221A707B6818460C37BD4680BCF0
S32D0000EC107047000080B582B000AF78607B681B7883F00103DBB2002B21D0134B03F580531A464FF40063936277
S32D0000EC38104B4FF440721A620E4B4FF440725A620D4B1B68DA0F13445B104FF4614219460A48FEF7FDFB64204A
S32D0000EC6000F08AF87B6801221A70012300E0002318460837BD4680BD0070044000D00440C417002000B00E40BF
S32D0000EC8880B582B000AF7860084611461A460346FB700B46BB7013467B707F210E48FEF7AAFC08210C48FEF7F4
S32D0000ECB0A6FCFB7819460A48FEF7A1FCBB7819460748FEF79CFC7B7819460548FEF797FCFF210348FEF793FC5A
S32D0000ECD800BF0837BD4680BD00B00E4080B487B000AFF860B9607A60FB681F4AA2FB03239B09BA6813447B61E5
S32D0000ED00FB681B4AA2FB031292094FF47A7101FB02F29B1AFB60FB68DB03154AA2FB03239B097A6813443B61C6
S32D0000ED283B69DB0B7A6913447B613B69C3F30E033B610E4B1B687A699A4209D80B4B1B687A699A4206D1094BD7
S32D0000ED505B683A699A4201D9012300E00023002B00D0EAE700BF1C37BD4680BC704700BFD34D621000D003401A
S32D0000ED7880B584B000AF7860074B1B68FB60064B5B68BB607B68BA68F9681846FFF7A6FF00BF1037BD4680BD79
S32D0000EDA000D0034080B584B000AF78600B4B1B68FB600A4B5B68BB600949786804F042FA0346184604F004FCDE
S32D0000EDC80346BA68F9681846FFF788FF00BF1037BD4680BD00D0034000007A4480B584B000AFC7E900010E4B3D
S32D0000EDF01B68FB600C4B5B68BB604FF000020B4BD7E9000103F0DEFD02460B461046194604F09AF80346BA687D
S32D0000EE18F9681846FFF762FF00BF1037BD4680BD00D0034000408F40B0B48BB000AF224B3C1D1D460FCD0FC428
S32D0000EE4095E80F0084E80F0000237B627B6A072B30DC1C4BD3F8A0207B6A9B0028333B4453F8243C012101FA66
S32D0000EE6803F31340002B14BF01230023DBB2002B18D0134A7B6A52F823305A1C10497B6A41F823200D4BD3F81C
S32D0000EE90A0207B6A9B0028333B4453F8243C012101FA03F307491340C1F8A0307B6A01337B62CBE700BF2C3786
S32D0000EEB8BD46B0BC704700BFFC41010000A00440F0170020B0B489B000AF224B3C1D1D460FCD0FC495E803005A
S32D0000EEE084E803000023FB61FB69052B30DC1C4BD3F8A020FB699B0020333B4453F81C3C012101FA03F31340AA
S32D0000EF08002B14BF01230023DBB2002B18D0FB690833124A52F823200132104941F823200D4BD3F8A020FB691F
S32D0000EF309B0020333B4453F81C3C012101FA03F307491340C1F8A030FB690133FB61CBE700BF2437BD46B0BC35
S32D0000EF58704700BF1C42010000B00440F0170020B0B48DB000AF234B3C461D460FCD0FC40FCD0FC495E8070016
S32D0000EF8084E807000023FB62FB6A0A2B30DC1C4BD3F8A020FB6A9B0030333B4453F8303C012101FA03F31340D9
S32D0000EFA8002B14BF01230023DBB2002B18D0FB6A0E33124A52F823200132104941F823200D4BD3F8A020FB6A77
S32D0000EFD09B0030333B4453F8303C012101FA03F307491340C1F8A030FB6A0133FB62CBE700BF3437BD46B0BC5F
S32D0000EFF8704700BF3442010000900440F0170020B0B487B000AF214B3C461D460FCD0FC42B68236000237B61A4
S32D0000F0207B69042B30DC1C4BD3F8A0207B699B0018333B4453F8183C012101FA03F31340002B14BF012300231E
S32D0000F048DBB2002B18D07B691933124A52F823200132104941F823200D4BD3F8A0207B699B0018333B4453F862
S32D0000F070183C012101FA03F307491340C1F8A0307B6901337B61CBE700BF1C37BD46B0BC704700BF604201009F
S32D0000F09800D00440F017002080B483B000AF78600B46FB707B68FA781A707B6818460C37BD4680BC704700000C
S32D0000F0C080B586B000AF78607B681B781A46234B53F822303B617B681B781A46204B9B5CFB733B69DBB203F0E9
S32D0000F0E81F03DAB21D4B1A723B69DBB203F01F03DAB21A4B5A72FB7B002B13D11749184800F0CEF9164B1B6875
S32D0000F11003F08003802B14BF01230023DBB2002B00D0F3E7104B1B697B6112E00D490F4800F0BAF90D4B1B685C
S32D0000F13803F08003802B14BF01230023DBB2002B00D0F3E7074B1B697B617B6918461837BD4680BD78410100CF
S32D0000F16054410100E017002000B0034000B00B4098B500AF204B5C221A701F4B10225A701D4B41F234225A8046
S32D0000F1881B4B45F278629A80194B10229A71184B0722DA71164B4FF4C022DA60144B1F221A72134B1F225A72F9
S32D0000F1B01149124800F078F90F49114800F074F90F4800F0D2F80D4800F0CFF80A490C4800F06AF90849094855
S32D0000F1D800F066F9094A064B14460FCB84E80F00064B5C221A70054B0422DA7100BF98BDD017002000B003403F
S32D0000F20000B00B40E017002080B500AF064B1B680133054A136000F03DF8044B0122C3F80C2100BF80BD00BFE6
S32D0000F228741800200070034080B500AF0C4B01221A600C4800F01AF8094B0322C3F80821094BD3F88831084AA4
S32D0000F25043F01003C2F88831054B9B68044A43F01003936000BF80BD00700340A086010000E100E080B483B0FF
S32D0000F27800AF7860044A7B68C2F8003100BF0C37BD4680BC704700BF0070034080B584B000AF174B1B68FB6003
S32D0000F2A0FB68002B24D0FB685B78FB71FB689B68184600F023F80346BB71BB79002B13D0FB685B68012B0FDD58
S32D0000F2C8FB689B681B69BB60BB68002B08D0BB685B685A1CBB685A60BB681B69BB60F3E7FB68DB68FB60D7E759
S32D0000F2F000BF1037BD4680BD7018002080B584B000AF78607868FFF7DBFEF8607B689B695B78FB72FB7A002B44
S32D0000F3180FD17B68DB68FA689A420ADD7B689B6901225A707B685B685A1C7B685A60012313E0FB7A012B0FD177
S32D0000F3407B689B68FA689A420ADA7B689B6900225A707B685B685A1C7B685A60012300E0002318461037BD463C
S32D0000F36880BD80B485B000AF78607B681B6A23F040027B681A627B685B6A23F00B027B685A627B685B6A43F0EC
S32D0000F39007027B685A627B685B6A43F080027B685A627B681B6803F08003002B0CBF01230023DBB2002B00D00A
S32D0000F3B8F3E77B685B6A03F04003402B0CBF01230023DBB2002B01D0012364E00023FB817B68DB6CFB817B68D9
S32D0000F3E09B6C9AB2FB891344FB817B685B6C9AB2FB891344FB817B681B6C9AB2FB891344FB817B68DB6B9AB286
S32D0000F408FB891344FB817B689B6B9AB2FB891344FB81FB895B08FB81FB896FEA43436FEA5343FB81FA897B685C
S32D0000F430DA620023FB817B68DB6EFB817B689B6E9AB2FB891344FB817B685B6E9AB2FB891344FB817B681B6EE1
S32D0000F4589AB2FB891344FB817B68DB6D9AB2FB891344FB817B689B6D9AB2FB891344FB81FB895B08FB81FB89A0
S32D0000F4806FEA43436FEA5343FB81FA897B681A637B685B6A23F080027B685A62002318461437BD4680BC704793
S32D0000F4A880B483B000AF786039603B681B781A467B689A603B685B781A467B68DA603B685B881A467B689A6185
S32D0000F4D03B689B881A467B68DA613B689B791A467B681A623B68DB791A467B685A623B68DA687B681A653B6874
S32D0000F4F81B7A1A467B681A603B685B7A1A467B685A6000BF0C37BD4680BC704780B483B000AF78607B681846F8
S32D0000F5200C37BD4680BC704780B582B000AF786039607B68012B07D13B684FF6FF72934202D10348FFF7E6FFEF
S32D0000F54800BF0837BD4680BD7818002080B500AF4FF6FF710120FFF7E3FF80BD80B582B000AF7860B84B4FF4A4
S32D0000F5708072DA60B74B4FF480729A64B54B4FF480721A64B34B4FF480725A64B14B4FF48072DA60B04B5B693E
S32D0000F598AF4A43F008035361AE4B5B69AD4A43F480235361AB4B5B69AA4A43F480335361A84B5B69A74A43F4ED
S32D0000F5C000335361A54B1B68A44A43F008031360A24B5B69A14A43F0080353619E4B1B689D4A43F00803136092
S32D0000F5E89A4B4FF480725A62984B4FF480721A62954B4FF480721A61934B4FF480725A61914B4FF480729A6121
S32D0000F6108F4B4FF48072DA618D4B4FF480721A638B4B4FF480725A63894B4FF480729A63874B4FF48072DA63E6
S32D0000F638854B4FF480721A64834B4FF480725A64814B4FF480729A647F4B4FF48072DA64814B4FF480721A60A9
S32D0000F6607F4B4FF480729A607D4B4FF48072DA607B4B4FF480721A61784B5B69774A43F440735361744B5B696D
S32D0000F688734A43F47F2343F0F0035361734B5B69724A43F01D035361E221786800F006FD1D21786800F0A8FD16
S32D0000F6B00221786800F0A4FD0421786800F0A0FDE021786800F0F6FC0121786800F098FD6420FFF751FBE021F5
S32D0000F6D8786800F0EBFC0321786800F08DFD0121786800F0E3FC0120FFF742FBE621786800F0DCFC01217868F9
S32D0000F70000F07EFDA021786800F07AFDFF21786800F076FDB021786800F0CCFC1C21786800F06EFD0F21786814
S32D0000F72800F06AFD0121786800F066FD3F21786800F062FD0021786800F05EFDEF21786800F05AFD00217868F4
S32D0000F75000F056FDB421786800F0ACFC0121786800F04EFD9921786800F04AFD0021786800F046FD4521786873
S32D0000F77800F042FD0221786800F03EFD0021786800F03AFD0021786800F036FD0021786800F032FDB6217868E3
S32D0000F7A000F088FC0121786800F02AFD0921786800F026FD0021786800F022FD0E21786800F01EFD0221786864
S32D0000F7C800F01AFD0021786800F016FD0021786800F012FDBA21786800F068FC0F21786800F00AFD6420FFF778
S32D0000F7F0C3FA3A21786800F05DFC6021786800F0FFFC2A21786800F055FC0021786800F0F7FC0021786800F01D
S32D0000F818F3FC0121786800F0EFFC3F21786800F0EBFC2B21786800F041FC0021786800F0E3FC0021786800F0C5
S32D0000F840DFFC0021786800F0DBFCEF2178680BE000B0044000A0044080F00F4040F00F4000C00440C0F00F4003
S32D0000F86800F0CAFC3621786800F020FC0021786800F0C2FCF021786800F018FC0421786800F0BAFCB821786871
S32D0000F89000F010FC0F21786800F0B2FC0121786800F0AEFC314B1B68304A43F0080313606420FFF761FA3621AE
S32D0000F8B8786800F0FBFB0021786800F09DFCF021786800F0F3FB0421786800F095FC0121786800F0BCF91E2296
S32D0000F8E06F21786800F082F8AF225621786800F0DBF80021786800F00AFA012301221C49786800F02BFA292155
S32D0000F908786800F0D3FB6420FFF732FABE21786800F0CCFB0E21786800F06EFCF021786800F06AFC0121786865
S32D0000F93000F066FC0021786800F062FC0021786800F05EFC0F21786800F05AFC786800F028FA0121786800F083
S32D0000F958DAF90021786800F0AFF900BF0837BD4680BD00BF40F00F407442010080B582B000AF78607B680022EF
S32D0000F980DA617B6801221A627B680E225A607B681A229A607B6800225A617B6800229A617B684FF4A072DA6084
S32D0000F9A87B68F0221A617B6800221A70786801F04BF87B6818460837BD4680BD80B582B000AF7860064B1B788C
S32D0000F9D0002B05D1044B01221A707868FFF7C2FD00BF0837BD4680BDC018002080B58AB002AFF860B9607A60D6
S32D0000F9F87E23009362237A68B968F86800F084FD40F24E733B610023FB61FA693B699A4240DA0023BB61214A9F
S32D0000FA20FB6913441B781A46BB69934232DAFB6901331C4AD35C002B06D1FF23FB75FF23BB75FF237B7512E0EE
S32D0000FA48FB690133154AD35C012B06D1D423FB750023BB7526237B7505E0B523FB75BA23BB75B0237B757B7D7F
S32D0000FA70BA7DF97DF86800F0C9F80246FB68DA61F86800F0E5FFF86800F01EFFBB690133BB61C4E7FB6902336B
S32D0000FA98FB61BAE700BF2037BD4680BD0400002080B58AB002AFF860B9607A602723009395237A68B968F86866
S32D0000FAC000F026FD40F2E6333B610023FB61FA693B699A4240DA0023BB61214AFB6913441B781A46BB69934251
S32D0000FAE832DAFB6901331C4AD35C002B06D1FF23FB75FF23BB75FF237B7512E0FB690133154AD35C012B06D1A4
S32D0000FB100023FB750023BB7500237B7505E0D423FB750023BB7526237B757B7DBA7DF97DF86800F06BF8024656
S32D0000FB38FB68DA61F86800F087FFF86800F0C0FEBB690133BB61C4E7FB690233FB61BAE700BF2037BD4680BD12
S32D0000FB605407002080B485B000AF78600B46FB70FB78062B29D801A252F823F0A1FB000099FB0000A7FB0000D9
S32D0000FB88AFFB0000B7FB0000BDFB0000C5FB00006FF07F43FB6014E00023FB6011E04FF47F03FB600DE04FF44C
S32D0000FBB07F43FB6009E0FF23FB6006E04FF41903FB6002E0044BFB6000BFFB6818461437BD4680BC704700BFF8
S32D0000FBD89999990080B584B000AF786039603B681B0CFB733B681B0ABB733B687B737B7BBA7BF97B786800F07D
S32D0000FC0005F8034618461037BD4680BD80B487B000AF7860084611461A460346FB700B46BB7013467B70FB78CD
S32D0000FC289B08DBB27B61BB789B08DBB23B617B789B08DBB2FB607B691A033B699B011A43FB68134318461C371D
S32D0000FC50BD4680BC704780B582B000AF78600B46FB70FB7819467868FFF77CFF03461946786800F004F800BF90
S32D0000FC780837BD4680BD80B582B000AF7860396039687868FFF7A6FF02467B681A62786800F0DAFE786800F01D
S32D0000FCA047FB00BF0837BD4680BD80B582B000AF7860786800F03CFB00BF0837BD4680BD80B582B000AF786095
S32D0000FCC80B46FB70FB7819467868FFF747FF03461946786800F004F800BF0837BD4680BD80B582B000AF7860C4
S32D0000FCF0396039687868FFF771FF02467B681A62786800F0A5FE00BF0837BD4680BD80B582B000AF78600B46CF
S32D0000FD18FB70FB7819467868FFF720FF03461946786800F004F800BF0837BD4680BD80B582B000AF7860396052
S32D0000FD4039687868FFF74AFF02467B68DA61786800F07EFE00BF0837BD4680BD80B586B000AFF860B9607A6080
S32D0000FD683B6000237B617B69BA6813441B78002B0FD07B69BA6813441B783A687968F86800F05CFC7B680C339C
S32D0000FD907B607B6901337B61E9E700BF1837BD4680BD80B582B000AF7860FDF705FB67210120FDF770FA00214E
S32D0000FDB80220FDF76CFAA0210320FDF768FA50210420FDF764FA20210520FDF760FA20210620FDF75CFA772183
S32D0000FDE00720FDF758FA00210820FDF754FA00210920FDF750FA00210A20FDF74CFA04210B20FDF748FA7B6887
S32D0000FE084FF0FF32DA637B684FF0FF321A6400BF0837BD4680BD000080B586B000AFF860B9607A600020FDF797
S32D0000FE3054FA0346FB75FB7D03F00203002B00F0CE80FDF767FAE020FDF718FA0220FEF793FFFDF76DFA012044
S32D0000FE58FEF78EFFFDF75AFAA520FDF70BFA0120FEF786FFFDF72DFA03469BB21B02BB82FDF727FA03469AB2A4
S32D0000FE80BB8A1343BB82FDF720FA03469BB21B027B82FDF71AFA03469AB27B8A13437B82BB8A1B09BB827B8A1E
S32D0000FEA81B097B82FDF740FAFB68DB6BB3F1FF3F34D1FB681B6CB3F1FF3F2FD1BA8AFB68DA637A8AFB681A64B8
S32D0000FED07B8AC3F57F630F337B82BB8A184602F007FD49A3D3E9002302F06CFD02460B461046194603F048F8E6
S32D0000FEF80246BB681A607B8A184602F0F5FC42A3D3E9002302F05AFD02460B461046194603F036F802467B680A
S32D0000FF201A605AE0FB68DA6BBB8AD31A1946F86800F074F80346632B0CDCFB681A6C7B8AD31A1946F86800F0C1
S32D0000FF4869F80346632B01DC012300E00023002B2FD0BA8AFB68DA637A8AFB681A647B8AC3F57F630F337B827E
S32D0000FF70BB8A184602F0BCFC23A3D3E9002302F021FD02460B461046194602F0FDFF0246BB681A607B8A1846DD
S32D0000FF9802F0AAFC1CA3D3E9002302F00FFD02460B461046194602F0EBFF02467B681A600FE0BB68164A1A604C
S32D0000FFC07B68154A1A60FB684FF0FF32DA63FB684FF0FF321A64002310E001230EE0BB680D4A1A607B680C4AA4
S32D0000FFE81A60FB684FF0FF32DA63FB684FF0FF321A64002318461837BD4680BDAFF30080144001144001B43F41
S32D000100101EE0011EE001AE3F000080BF80B483B000AF786039603B68002B02DA3B685B423B603B6818460C3747
S32D00010038BD4680BC704780B584B000AF786039600023FB60786800F032FAFB683A6813441B78002B12D07B68C1
S32D0001006059697B689869FB683A6813441B780246786800F0CCFA786800F031FAFB680133FB60E6E700BF10373E
S32D00010088BD4680BD80B582B000AF78603960786800F00DFA39687868FFF7CDFF786800F0F1F900BF0837BD46AD
S32D000100B080BD000080B483B000AF78600B46FB704D4B1B684C4A23F0080313604B4B1B684A4A23F4802313601E
S32D000100D8484B1B68474A43F480331360454B1B68444A23F440731360414B1B68404A23F4435323F03003136018
S32D000101003E4B1A68FB785B0203F400733B4913430B603A4B1A68FB785B101B0203F48073364913430B60344B9B
S32D000101281A68FB789B101B0103F01003304913430B602F4B1A68FB78DB105B0103F020032B4913430B602A4B36
S32D000101501A68FB781B119B0103F04003264913430B60254B1A68FB785B11DB01DBB2224913430B60204B1A680A
S32D00010178FB789B111B0303F480531D4913430B601B4B1A6897F90330DB115BB25B0303F40053174913430B60BD
S32D000101A0164B1B68154A23F400331360134B1B68124A43F4003313600F4B1B680E4A43F0080313600D4B1B6855
S32D000101C80C4A43F440731360094B1B68084A43F4435343F030031360064B1B68054A43F48023136000BF0C3714
S32D000101F0BD4680BC704700BF80F00F4040F00F4080B483B000AF78600B46FB70464B1B68454A23F0080313600F
S32D00010218444B1B68434A43F480331360414B1B68404A43F4802313603E4B1B683D4A23F4407313603A4B1B68FD
S32D00010240394A23F4435323F030031360374B1A68FB785B0203F40073344913430B60334B1A68FB785B101B022F
S32D0001026803F480732F4913430B602D4B1A68FB789B101B0103F01003294913430B60284B1A68FB78DB105B0128
S32D0001029003F02003244913430B60234B1A68FB781B119B0103F040031F4913430B601E4B1A68FB785B11DB01CB
S32D000102B8DBB21B4913430B60194B1A68FB789B111B0303F48053164913430B60144B1A6897F90330DB115BB2BB
S32D000102E05B0303F40053104913430B600F4B1B680E4A23F4003313600C4B1B680B4A43F400331360084B1B6859
S32D00010308074A43F008031360064B1B68054A23F48023136000BF0C37BD4680BC704700BF80F00F4040F00F407F
S32D0001033080B586B000AF78607B6800225A617B6800229A617B681B6AFB60FB68FB72FB681B0ABB72FB681B0C1A
S32D00010358DBB203F003037B722A217868FFF7A6FE00217868FFF748FF00217868FFF744FF01217868FFF740FF8F
S32D000103803F217868FFF73CFF2B217868FFF792FE00217868FFF734FF00217868FFF730FF00217868FFF72CFFB9
S32D000103A8EF217868FFF728FF2C217868FFF77EFE314B1B68304A23F4407313602F4B1B682E4A23F47F2323F083
S32D000103D0F00313602C4B1B682B4A23F01D031360274B1A687B681B6B254913430B60254B1A687B685B6B2349F0
S32D000103F813430B60224B1A687B689B6B204913430B601E4B1B681D4A23F0080313601A4B1B68194A43F480230A
S32D00010420136000237B617B69EF2B19D800233B613B69B3F5A07F0FD2114B1B68104A23F4003313600E4B1B686F
S32D000104480D4A43F4003313603B6901333B61EBE77B6901337B61E2E7084B1B68074A43F008031360044B1B68A4
S32D00010470034A23F48023136000BF1837BD4680BD40F00F4080F00F40C0F00F4080B483B000AF78607B689B6983
S32D00010498002B07DD7B685B695A1C7B685A617B6800229A6100BF0C37BD4680BC704780B582B000AF78607B68A2
S32D000104C05A697B685B689A4205DB7B6800225A617868FFF72DFF00BF0837BD4680BD80B582B000AF78607B6817
S32D000104E89B695A1C7B689A617B689A697B689B689A4205D17868FFF7C5FF7868FFF7D7FF00BF0837BD4680BD8B
S32D0001051080B588B000AFF860B9607A603B60FB681B78022B03D0FB681B78032B11D17B68FB61BA6AFB691344A0
S32D00010538013BBB61FB68DA68BB68D31A3B613B683A69D31A01337B610DE0BB68FB613A68FB691344013BBB6187
S32D000105607B687B61BA6A7B691344013B3B612A21F868FFF79FFDFB691B0ADBB203F00F03DBB21946F868FFF7DC
S32D000105883BFEFB69DBB21946F868FFF735FEBB691B0ADBB203F00F03DBB21946F868FFF72BFEBB69DBB21946DC
S32D000105B0F868FFF725FE2B21F868FFF77BFD7B691B0ADBB203F00F03DBB21946F868FFF717FE7B69DBB21946C7
S32D000105D8F868FFF711FE3B691B0ADBB203F00F03DBB21946F868FFF707FE3B69DBB21946F868FFF701FE2C21BB
S32D00010600F868FFF757FD00BF2037BD4680BD80B584B000AFF860B9607A60FB707A6813465B0013449B00991CC0
S32D00010628BA6813461B011344DA1CFB78F86800F005F800BF1037BD4680BD000080B58EB002AFF860B9607A604A
S32D00010650FB70FB780A2B06D1F868FFF72CFFF868FFF714FFF2E0FB787D2B02D8FB781F2B01D82023FB70FB7829
S32D00010678203BFB70112300930C237A68B968F868FFF742FFFA7813469B0013446F4AD35C3B75FA7813469B0042
S32D000106A0134401336B4AD35C7B75FA7813469B0013440233674AD35CBB75FA7813469B0013440333634AD35CFB
S32D000106C8FB75FA7813469B00134404335F4AD35C3B760023BB62BB6A062B00F3A180F86800F050F9F86800F083
S32D000106F0B3F8002387F82F3000237B627B6A042B35DC07F114027B6A13441B7803F00103002B14BF01230023F1
S32D00010718FB76FB7E002B11D097F82F3083F00103DBB2002B03D0F86800F0CAF802E0F86800F08EF8F86800F0B2
S32D000107408BF80DE097F82F30002B03D0F86800F01DF902E0F86800F07FF8F86800F07CF8FB7E87F82F307B6A1F
S32D0001076801337B62C6E797F82F30002B03D0F86800F008F902E0F86800F06AF8F86800F067F8002387F82F3023
S32D0001079000233B623B6A042B42DC07F114023B6A13441B7803F00103002B14BF01230023BB76BB7E002B11D039
S32D000107B897F82F3083F00103DBB2002B03D0F86800F07EF802E0F86800F042F8F86800F03FF80DE097F82F308E
S32D000107E0002B03D0F86800F0D1F802E0F86800F033F8F86800F030F8BB7E87F82F3007F114023B6A13441B784A
S32D000108085B08D9B207F114023B6A13440A461A703B6A01333B62B9E7BB6A0133BB625AE7F86800F0AFF8002308
S32D0001083087F82F300123FB61FB69232B06DCF86800F00AF8FB690133FB61F5E73037BD4680BD00BF3C0B0020B8
S32D0001085880B483B000AF7860174B1B68164A43F480331360154B1B68144A23F008031360114B1B68104A43F49F
S32D00010880802313600E4B1B680D4A23F4003313600B4B1B680A4A43F400331360094B1B68084A43F0080313605F
S32D000108A8054B1B68044A23F48023136000BF0C37BD4680BC704700BF40F00F4080F00F4080B483B000AF7860F0
S32D000108D02B4B1B682A4A43F480331360294B1B68284A23F008031360254B1B68244A43F480231360224B1B6897
S32D000108F8214A23F440731360204B1B681F4A23F47F2323F0F00313601D4B1B681C4A23F01D031360184B1A68C4
S32D000109207B685B6A164913430B60164B1A687B689B6A144913430B60134B1A687B68DB6A114913430B600E4B7B
S32D000109481B680D4A23F4003313600B4B1B680A4A43F400331360094B1B68084A43F008031360054B1B68044AE4
S32D0001097023F48023136000BF0C37BD4680BC704740F00F4080F00F40C0F00F4080B483B000AF78602B4B1B680F
S32D000109982A4A43F480331360294B1B68284A23F008031360254B1B68244A43F480231360224B1B68214A23F445
S32D000109C040731360204B1B681F4A23F47F2323F0F00313601D4B1B681C4A23F01D031360184B1A687B681B6B14
S32D000109E8164913430B60164B1A687B685B6B144913430B60134B1A687B689B6B114913430B600E4B1B680D4AFF
S32D00010A1023F4003313600B4B1B680A4A43F400331360094B1B68084A43F008031360054B1B68044A23F480233B
S32D00010A38136000BF0C37BD4680BC704740F00F4080F00F40C0F00F4080B485B000AF78607B681B6AFB60FB68D1
S32D00010A60FB72FB681B0ABB72FB681B0CDBB203F003037B727B6800225A627B6800229A627B680022DA627B6862
S32D00010A8800221A637B6800225A637B6800229A637B681A6BFB7A5B0203F400731A437B681A637B681A6BFB7A9E
S32D00010AB05B101B0203F480731A437B681A637B685A6BFB7A9B101B0103F010031A437B685A637B685A6BFB7AE4
S32D00010AD8DB105B0103F020031A437B685A637B685A6BFB7A1B119B0103F040031A437B685A637B685A6BFB7A60
S32D00010B005B11DB01DBB21A437B685A637B685A6BFB7A9B111B0303F480531A437B685A637B685A6B97F90B30D3
S32D00010B28DB115BB25B0303F400531A437B685A637B685A6BBB7A9B0303F480431A437B685A637B685A6BBB7AF1
S32D00010B505B10DB039BB21A437B685A637B685A6BBB7A9B101B0403F480331A437B685A637B685A6BBB7ADB10CD
S32D00010B785B0403F400331A437B685A637B685A6BBB7A1B119B0403F480231A437B685A637B685A6BBB7A5B1140
S32D00010BA0DB0403F400231A437B685A637B689A6BBB7A9B1103F001031A437B689A637B689A6B97F90A30DB1195
S32D00010BC85BB29B0003F004031A437B689A637B689A6B7B7ADB0003F008031A437B689A637B689A6B7B7A5B10E4
S32D00010BF01B0103F010031A437B689A637B68DB69FB60FB68FB72FB681B0ABB72FB681B0CDBB203F003037B7273
S32D00010C187B685A6AFB7A5B0203F400731A437B685A627B685A6AFB7A5B101B0203F480731A437B685A627B6861
S32D00010C409A6AFB7A9B101B0103F010031A437B689A627B689A6AFB7ADB105B0103F020031A437B689A627B682B
S32D00010C689A6AFB7A1B119B0103F040031A437B689A627B689A6AFB7A5B11DB01DBB21A437B689A627B689A6A56
S32D00010C90FB7A9B111B0303F480531A437B689A627B689A6A97F90B30DB115BB25B0303F400531A437B689A6261
S32D00010CB87B689A6ABB7A9B0303F480431A437B689A627B689A6ABB7A5B10DB039BB21A437B689A627B689A6A88
S32D00010CE0BB7A9B101B0403F480331A437B689A627B689A6ABB7ADB105B0403F400331A437B689A627B689A6A4D
S32D00010D08BB7A1B119B0403F480231A437B689A627B689A6ABB7A5B11DB0403F400231A437B689A627B68DA6A02
S32D00010D30BB7A9B1103F001031A437B68DA627B68DA6A97F90A30DB115BB29B0003F004031A437B68DA627B6862
S32D00010D58DA6A7B7ADB0003F008031A437B68DA627B68DA6A7B7A5B101B0103F010031A437B68DA6200BF1437AF
S32D00010D80BD4680BC7047000080B582B000AF786039607B68012B07D13B684FF6FF72934202D10348FEF7E6FDBC
S32D00010DA800BF0837BD4680BD7C18002080B500AF4FF6FF710120FFF7E3FF80BD80B582B000AF7860164B03F514
S32D00010DD080535B6B144A43F0400302F580525363124B4FF400725A62104B4FF400721A620F4B14225A700E4BFB
S32D00010DF81B7ADBB20C4A43F00103DBB213720A4B80229A7002212B20FCF7CAF93D212A20FCF7C6F97B6818464B
S32D00010E200837BD4680BD00BF0070044000C004400060064080B582B000AF786039607B68012B07D13B684FF6B1
S32D00010E48FF72934202D10348FFF7B8FF00BF0837BD4680BDC418002080B500AF4FF6FF710120FFF7E3FF80BD61
S32D00010E7080B582B000AF78600B46FB707B68FA7811461846FEF70CF97B6818460837BD4680BD000080B582B07E
S32D00010E9800AF786039607B68012B08D13B684FF6FF72934203D120210348FFF7DDFF00BF0837BD4680BD00BFC6
S32D00010EC0C818002080B500AF4FF6FF710120FFF7E1FF80BD80B483B000AF78607B6800221A707B6818460C3735
S32D00010EE8BD4680BC7047000080B483B000AF78603960044A3B68136000BF0C37BD4680BC704700BFCC1800203F
S32D00010F1080B582B000AF3248FCF758FB0346FB71304AFB791370304B01221A702F4B1B78022B33D0022B4FDCF9
S32D00010F38002B02D0012B14D04AE0FB79FF2B44D1284B01221A70284B00221A70264B1B785A1CD1B2244A117075
S32D00010F601946244AFB79535433E0214B1B785A1CD1B21F4A117019461E4AFB7953541C4B1B780D2B27D11C4B12
S32D00010F881B68194A1278114618489847154B02221A701CE0FB79FF2B10D1124B01221A70114B00221A70104B3E
S32D00010FB01B785A1CD1B20E4A117019460D4AFB79535409E00A4B00221A70084B00221A7002E000BF00E000BFB3
S32D00010FD800BF0837BD4680BD00A00640E3180020E2180020E1180020E0180020D0180020CC18002080B582B0ED
S32D0001100000AF78607B681846FFF764FF7B6811491846FFF76DFF7B684FF0FF325A600E4B4FF000021A600D4B2A
S32D000110284FF000021A600C4B4FF000021A600B4B00221A600A4B00221A700A4B00221A707B6818460837BD4655
S32D0001105080BD00BF71100100F0180020F4180020F8180020FC180020001900200119002080B582B000AF7860DA
S32D000110780B46FB70424B1B78002B7DD07B6801331B781B027A68023212781344184602F081F803463B49184643
S32D000110A002F084F903463A49184601F0C1FF03461A46384B1A607B6803331B781B027A68043212781344184611
S32D000110C802F068F803462F49184602F06BF903462D49184601F0A8FF03461A462C4B1A607B6805331B781B0218
S32D000110F07A68063212781344184602F04FF803462249184602F052F903462149184601F08FFF03461A46214B4B
S32D000111181A607B6807331B781A067B6808331B781B041A437B6809331B781B0213437A680A32127813431A46AE
S32D00011140174B1A607B68DA7A164B1A707B680C331B78AA2B0CBF01230023DAB2124B1A70124B01221A70104B0E
S32D000111681B78002B08D0104800F052F80F4B1B680E4A23F40053136000BF0837BD4680BDEC180020000020415B
S32D000111900000C844F0180020F4180020F8180020FC18002000190020011900200219002004190020C0F00F4082
S32D000111B880B582B000AF786039607B68012B07D13B684FF6FF72934202D10348FFF712FF00BF0837BD4680BD09
S32D000111E0E418002080B500AF4FF6FF710120FFF7E3FF80BD80B483B000AF7860054B00221A60044B00225A60F0
S32D000112087B6818460C37BD4680BC70470419002080B584B000AF7860154B1B68002B21D00023FB60124B5B6873
S32D00011230FA689A4214DA114AFB6852F82330002B0AD00E4AFB6852F823301846FCF705FC03461A460A4B1A70D1
S32D00011258FB680133FB60E5E7054B00225A60044B00221A60044B1B7818461037BD4680BD041900201019002045
S32D000112800C19002080B582B000AF786039607B68012B07D13B684FF6FF72934202D10348FFF7A8FF00BF0837A5
S32D000112A8BD4680BD0419002080B500AF4FF6FF710120FFF7E3FF80BD80B483B000AF78600A4B03F580531B6B37
S32D000112D0084A43F0010302F580521363064B5B68054A43F03203536000BF0C37BD4680BC704700BF007004403E
S32D000112F800000A4038B5084C4FF41E652846E56002F0AAF9A06020B10023C0E90053606038BDE060606038BD94
S32D0001132078190020254A21F00043934223DD10B5234A934286B009DD02460B4601F08AF902460B4610461946D7
S32D0001134806B010BD02AA00F03BF800F00304012C11D0022C23D0CCB10124DDE90423DDE90201009400F0B0FF73
S32D0001137002460B46E6E70022002300F051BADDE90423DDE90201009400F0A2FF024601F10043D7E7DDE90423A5
S32D00011398DDE9020100F040FA02460B46CEE7DDE90423DDE9020100F037FA024601F10043C4E700BFFB21E93FE3
S32D000113C0FFFFEF7F000000002DE9F04F1446B64A21F00045954291B040F38580B34A95420F4626DC0029A6A3A0
S32D000113E8D3E9002340F3C48101F030F9AE4B9D428046894600F08880A1A3D3E9002301F025F902460B46C4E988
S32D0001141000234046494601F01DF99BA3D3E9002301F018F9C4E902010126304611B0BDE8F08FA04A954240F329
S32D000114388B809F4A95425DDC2E15A6F21646A5EB06518946804601F053FD01F04DFA02460B4640464946CDE9F1
S32D000114600A2301F0F7F8954B002201F0ABFA8946804601F041FD054601F03AFA02460B4640464946CDE90C23F1
S32D0001148801F0E4F88B4B002201F098FA02460B46CDE90E230022002301F0F8FC002800F06581002D0CBF012329
S32D000114B00223834A019202220092214632460AA800F0DEFA002F0646AFDAD4E9000505F10041C4E90001E16885
S32D000114D8A26801F10043C4E902237642A1E70026C4E90001002200233046C4E9022311B0BDE8F08F02460B46B5
S32D0001150001F0A8F80026C4E90201C4E900018CE75FA3D3E9002301F09DF85FA3D3E900238046894601F096F8D8
S32D0001152802460B46C4E900234046494601F08EF857A3D3E9002301F089F80126C4E90201304611B0BDE8F08F22
S32D0001155000F080FF52A3D3E900238046894601F031FA584B002201F077F801F0C5FC064601F0BEF942A3D3E90C
S32D00011578002382468B46CDE904AB01F01FFA02460B464046494601F061F83DA3D3E90023CDE902015046594674
S32D000115A001F010FA1F2E8046894612DC464B721E53F82230AB420CD002460B46DDE9020101F048F802460B469E
S32D000115C8C4E9002382468B46B4E02B150793DDE902014B46424601F039F8C1F30A53C3EB1555102D8B4682461A
S32D000115F040F3A08026A3D3E90023DDE9040101F0E1F98046894602460B46DDE9020101F021F882468B46524609
S32D000116185B46DDE9020101F019F842464B4601F015F81BA3D3E9002380468946DDE9040101F0C4F942464B465C
S32D0001164001F008F802460B468046894650465946CDE908AB00F0FEFF079AC1F30A53D31A312B8B46824631DC30
S32D0001166802460B46C4E90023DDE90823CDE9022360E000BFAFF3008000004054FB21F93F3163621A61B4D03DE3
S32D000116900000601A61B4D03D7370032E8A19A33B83C8C96D305FE43FFB21E93F7BD90240FB21F93FFB21394103
S32D000116B8FFFFEF7F00007041284301000000E03FA842010048A3D3E90023DDE9040101F075F98046894602469F
S32D000116E00B46DDE9080100F0B5FF82468B4652465B46DDE90801CDE902AB00F0ABFF42464B4600F0A7FF3CA3EB
S32D00011708D3E9002380468946DDE9040101F056F942464B4600F09AFF02460B46804689465046594600F092FFAD
S32D000117308B46824652465B46C4E9002352465B46DDE9020100F086FF42464B4600F082FF002F02460B46C4E972
S32D000117580223BFF666AE0BF1004301F10041A060C4F800A06360E16076425AE603239CE600F06EFF264B9D4255
S32D000117808046894616D01EA3D3E9002300F064FF02460B46C4E900234046494600F05AFF17A3D3E9002300F07C
S32D000117A857FF4FF0FF36C4E902013AE614A3D3E9002300F04DFF14A3D3E900238046894600F046FF02460B46AD
S32D000117D0C4E900234046494600F03CFF0CA3D3E9002300F039FF4FF0FF36C4E902011CE60000002E8A19A33B4F
S32D000117F8C14920259A837B393163621A61B4D03D0000601A61B4D03D7370032E8A19A33BFB21F93F00000000EB
S32D000118202DE9F04F21F0004887B0B8F1795F92469B460646019170DA01F05EFB002800F0F480019B3246194609
S32D00011848304601F0BBF87AA3D3E9002304460D4601F0B4F878A3D3E9002300F0F9FE22462B4601F0ABF876A3BA
S32D00011870D3E9002300F0EEFE22462B4601F0A2F873A3D3E9002300F0E7FE22462B4601F099F871A3D3E9002312
S32D0001189800F0DCFE22462B4601F090F86EA3D3E9002300F0D5FE22462B4601F087F8CDE902016B4B0022204612
S32D000118C0294601F07FF8DDE90223804689462046294601F077F84D46DDF804904446B0460F46064652465B4617
S32D000118E84046494601F06AF802460B463046394600F0ACFE02460B462046294600F0A6FE02460B4600205749E6
S32D0001191000F0A0FE07B0BDE8F08F019B024601F051F845A3D3E9002304460D4601F04AF843A3D3E9002300F0D5
S32D000119388FFE22462B4601F041F841A3D3E9002300F084FE22462B4601F038F83EA3D3E9002300F07DFE22462E
S32D000119602B4601F02FF83CA3D3E9002300F072FE22462B4601F026F839A3D3E9002300F06BFE2B46224601F0EB
S32D000119881DF8394B9845CDE9020192DD374B98454FF000023DDCA8F50013324900209046994600F053FECDE9E2
S32D000119B004012D4B00222046294601F003F842464B4600F047FEDDE90223804689462046294600F0F7FF4D468C
S32D000119D8DDF804904446B0460F46064652465B464046494600F0EAFF02460B463046394600F02CFE02460B46EE
S32D00011A002046294600F026FE02460B46DDE9040100F020FE07B0BDE8F08F174BDFF85C90CDE904234FF0000838
S32D00011A28C3E71049002007B0BDE8F08FAFF30080D43888BEE9FAA8BDC4B1B4BD9EEE213EAD529C804F7E923E4C
S32D00011A509015CB19A001FA3E7751C1166CC1563F4C5555555555A53F0000E03F0000F03F3233D33F0000E93FDE
S32D00011A780000E73F0000D23F2DE9F04FADF5197D1C4608930B91B84BA29953F82130059312F1140F04F1FF3323
S32D00011AA006460393C0F24083B249D31E81FB0301DB17C3EBA10307930133A3EB8303DB00D3180693079A039B90
S32D00011AC8D41A059AD7181BD40137DDF88CA2274420AD4FF000084FF0000908E05AF8240000F002FF0134BC4200
S32D00011AF0E5E8020108D0002CF4DA013440464946BC42E5E80201F6D1059B002BC0F2BC83089BDDF80C9020AAAC
S32D00011B1802EBC30ADA000292059AA6F108011A4404910DF5E07B019201EBC308039B002BC0F2AF81049E5746B3
S32D00011B400024002577E90223F6E9020100F03AFF02460B462046294600F07EFD464504460D46EFD1019B09F146
S32D00011B6801099945EBE802450AF1080ADED1049BDDF808B0059A01929B440BAB03EB82030A930CAB03EB820363
S32D00011B90083B0993019A98AB03EBC203002A53E9284529DD0DF5E07A0AEBC2080DF13009714B002220462946D8
S32D00011BB800F004FF01F09CF900F096FE6D4B002206460F4600F0FAFE02460B462046294600F03CFD01F08CF991
S32D00011BE078E9022349F8040B3946304600F034FDD04504460D46DBD1DDF81890204629464A4600F0A9FC0022F3
S32D00011C084FF07F5304460D4600F0D8FE00F024FC594B002200F0D2FE02460B462046294600F014FD0D46044697
S32D00011C3001F062F9804600F05BFE0B4602462946204600F007FD4B46002B06460F4640F39980019A511E0CAA5F
S32D00011C58C9F1180352F8212042FA03F000FA03F3D31AC9F117050CAA43FA05F5002D42F82130804400F38C80B3
S32D00011C80002200233046394601F004F9002800F05282019B059A03F1FF3A524510DC03F180430CAA013B0A98EB
S32D00011CA802EB8303002253F80419834242EA0102F9D1002A40F0F080059B0CAA013B52F82330002B40F0E0809E
S32D00011CD0099A012352F8041901330029FAD0019AD3180293531C9946DDF80480089A9044079A02EB030A0AF1C2
S32D00011CF8804AA39A0AF1FF3A02EB8A0A20AA02EBC80870AA02EBC30301935AF8040F00F0EBFD039B002BC8E962
S32D00011D200001474608F108081FDB049E083F0024002501E077E80201F6E9022300F042FE02460B4620462946EC
S32D00011D4800F086FC5E4504460D46EFD1019BE3E802450193029B09F101099945D5DD019314E700240025F1E7D7
S32D00011D7070440100ABAAAA2A0000703E00007041000020406BD1019B0CAA013B52F82350ED15002D7FF774AF58
S32D00011D98019B002B08F1010840F3C7810C9C002C51D1019B012B20D00CAB012253F8044F002C4BD0531C0CA947
S32D00011DC0C4F1807441F822400199994210DD0CAA0CA852F8232000EB830300EB81006FF07F4100E01A688A1A55
S32D00011DE843F8042B8342F9D10124069B002B0EDD012B00F08A81022B09D1019B5A1E0CAB0CA953F82230C3F3F6
S32D00011E10150341F82230022D7FF432AF32463B467949002000F016FC06460F46002C3FF427AF069A744900204D
S32D00011E3800F08EFB02460B463046394600F006FC06460F4618E701230022B4E7019901328A42ABD1C9E76B4B86
S32D00011E60002201F035F8054600283FF409AF019B002B08F10108C8BF022593DC32463B466149002000F0E6FB3B
S32D00011E88022506460F46F7E6019B01339946029326E70024002561E6069B0395A3F118020CABCDF81C8053F85B
S32D00011EB02A30069273B9019B03F18043023B0CA901EB830353F804190AF1FF3A183A0029F8D00692069A4C4982
S32D00011ED8002000F03DFBBAF1000F04460D46C0F2D68170AB03EBCA0B0CAA0AF10103069302EB8306DFF8109119
S32D00011F004FEACA0304930BF108074FF0000856F8040D00F0EDFC22462B4600F053FD4B4667E9020142462046A0
S32D00011F28294600F04BFD0CAB9E4204460D46EAD148ABCDE9013ADDF814A0BAF1000F4FF000092CDB2CA3D3E9F3
S32D00011F500023DFF8C0805F4600260024002503E0B14510DBF8E80223F7E8020100F02AFD02460B4620462946E4
S32D00011F7800F06EFB0136B24504460D46ECDA019B029A03EBC9039145C3E90045ABF1080B09F1010306D0BAF169
S32D00011FA0000F9946D2DA00240025ECE7A29BDDF808A0022B30DC002B00F3F08018D1049CA29A019D08342C44CC
S32D00011FC813461046194674E9022300F041FBA54202460B46F5D1039909B103F1004319460B9B1046C3E9000153
S32D00011FF0079B03F007000DF5197DBDE8F08F00BF00000040FB21F93F0000F03F0000E03F0000703E384401009E
S32D00012018A29B032BE8D1BAF1000F00F04E81019B049A1344D3E900459B465BE902672046294632463B4600F01E
S32D000120400BFBA046A94604460D4622462B463046394600F0FFFA4B46424600F0FDFACBE900016BE90245019B56
S32D000120685B45E2D1BAF1010F40F32781049B019A1344D3E9004502939A460DF5947B5AE902672046294632464F
S32D000120903B4600F0E1FAA046A94604460D4622462B463046394600F0D5FA42464B4600F0D3FACAE900016AE9F9
S32D000120B80245D345E3D1019A029C002302F1100508341A461846114674E9022300F0C0FAA54203460A46F5D1BF
S32D000120E00399002940F0A4801846019B0B9C1146D3E90223C4E90223DDE94823C4E90023079BC4E9040103F0C5
S32D0001210807000DF5197DBDE8F08F019B5A1E0CAB0CA953F82230C3F3160341F8223076E600216FF017030791E0
S32D00012130C6E400245DE6069C0395304639466242CDF81C8000F008FA5F4B002206460F4600F0BEFE002861D0D7
S32D000121585C4B019D0022183430463946069400F02DFC00F0C5FE044600F0BEFB544B002200F024FC0B460246ED
S32D000121803946304600F066FA00F0B6FE05F1010A0CAB43F8250043F82A409BE6069B019D002605EBC304334674
S32D000121A83046194674E9022300F052FAA54206460B46F5D1039A3046002A4FD119460B9B3246C3E900010B4653
S32D000121D0DDE9480100F03EFABAF1000F02460B4610DD48AD012410461946F5E9022300F033FA0134A245024616
S32D000121F80B46F4DA039909B103F1004319460B9B1046C3E90201079B03F007000DF5197DBDE8F08F30463946B5
S32D0001222000F06AFE019B0CAA9A4642F8230051E60B9E3361019B02F1004298681C6872611A465B6803F10045B0
S32D00012248D36803F10041079BC6E9020103F00700C6E900450DF5197DBDE8F08F0B9A194603F100435360166095
S32D000122700B463246DDE9480100F0ECF9BAF1000F02460B46ADDCBBE7A6F108030493089BDB0002936FE4A29B38
S32D00012298022B06DC002B0DDC7FF4A6AEA29A134699E6A29B032B7FF49FAE002348A91A46019111E70026334651
S32D000122C07CE700231A460BE7000070410000703E2DE9F04F994687B021F00043B3F1795F90460446019104DAED
S32D000122E800F006FE002800F08F80019B22461946204600F063FB019B06460F463246194620463B4600F05AFB55
S32D0001231043A3D3E9002382468B463046394600F051FB41A3D3E9002300F094F932463B4600F048FB3EA3D3E906
S32D00012338002300F08DF932463B4600F03FFB3CA3D3E9002300F082F932463B4600F036FB39A3D3E9002300F0CC
S32D000123607BF9109BCDE90201002B37D0384B00224046494600F026FBDDE90223CDE904015046594600F01EFB95
S32D0001238802460B46DDE9040100F060F932463B4600F014FB42464B4600F058F928A3D3E9002306460F46504646
S32D000123B0594600F007FB02460B463046394600F04BF902460B462046019900F043F904460D462046294607B0BD
S32D000123D8BDE8F08F02460B463046394600F0EEFA17A3D3E9002300F031F952465B4600F0E5FA2246019B00F09D
S32D000124002BF904460D462046294607B0BDE8F08F019D2046294607B0BDE8F08FAFF300807CD5CF5A3AD9E53D1D
S32D00012428EB9C2B8AE6E55A3E7DFEB157E31DC73ED561C119A0012A3FA6F810111111813F495555555555C53FAD
S32D000124500000E03F21F00041704700BF00000000C1F30A52F8B5A2F2FF35132D0B4684460C46064630DC002DBF
S32D000124781EDB354F2F4101EA0702024315D030A3D3E9002300F0E4F80022002300F026FD48B1002C04DA4FF40E
S32D000124A0801343FA05F52C4424EA070400262346B44660461946F8BD23A3D3E9002300F0CBF80022002300F0EA
S32D000124C80DFD0028EFD0002C24DB00263446EAE7332D08DDB5F5806FE7D1024600F0B8F884460B46E1E7A2F263
S32D000124F013424FF0FF37D7400742DAD012A3D3E9002300F0A9F80022002300F0EBFC0028CDD0002C0BDB26EAC1
S32D000125180706C8E724F000430C4A1E43002E18BF14460026BFE7142D08D00123C5F1340503FA05F5AE1928BFCE
S32D00012540E418E8E70134E6E79C7500883CE4377EFFFF0F000000F0BFC1F30A5370B58C4604460D4616467BBB3E
S32D0001256821F0004C03465CEA030328D0304B002200F024FA2F4B9E4204460D461ADBC1F30A538C46363B3344F8
S32D0001259040F2FE72934220DC002B3CDC13F1350F2CDA4CF250339E4217DC05F0004343F0D27141F4B73122484F
S32D000125B841F01F011AA3D3E9002300F0FFF970BD40F2FF729342DED102460B4600F040F870BD05F0004343F072
S32D000125E0FC4141F45F1141F4105111A3D3E90023144841F03C0100F0E5F970BD2CF0FF4C36332CF4E00C4CEAEA
S32D00012608035120460E4B002200F0D8F970BD2CF0FF4C2CF4E00C20464CEA035170BD00BF59F3F8C21F6EA501F8
S32D000126309C7500883CE4377E00005043B03CFFFF59F3F8C29C7500880000903C81F0004102E000BF83F000431C
S32D0001265830B54FEA41044FEA430594EA050F08BF90EA020F1FBF54EA000C55EA020C7FEA645C7FEA655C00F0D3
S32D00012680E2804FEA5454D4EB5555B8BF6D420CDD2C4480EA020281EA030382EA000083EA010180EA020281EA6D
S32D000126A80303362D88BF30BD11F0004F4FEA01314FF4801C4CEA113102D0404261EB410113F0004F4FEA0333B1
S32D000126D04CEA133302D0524263EB430394EA050F00F0A780A4F10104D5F1200E0DDB02FA0EFC22FA05F2801895
S32D000126F841F1000103FA0EF2801843FA05F359410EE0A5F120050EF1200E012A03FA0EFC28BF4CF0020C43FAA6
S32D0001272005F3C01851EBE37101F0004507D54FF0000EDCF1000C7EEB00006EEB0101B1F5801F1BD3B1F5001F36
S32D000127480CD349085FEA30004FEA3C0C04F101044FEA445212F5800F80F09A80BCF1004F08BF5FEA500C50F1A6
S32D00012770000041EB045141EA050130BD5FEA4C0C404141EB0101013C28BFB1F5801FE9D291F0000F04BF01468D
S32D000127980020B1FA81F308BF2033A3F10B03B3F120020CDA0C3208DD02F1140CC2F10C0201FA0CF021FA02F16F
S32D000127C00CE002F11402D8BFC2F1200C01FA02F120FA0CFCDCBF41EA0C019040E41AA2BF01EB0451294330BDD3
S32D000127E86FEA04041F3C1CDA0C340EDC04F11404C4F1200220FA04F001FA02F340EA030021FA04F345EA030192
S32D0001281030BDC4F10C04C4F1200220FA02F001FA04F340EA0300294630BD21FA04F0294630BD94F0000F83F414
S32D00012838801306BF81F480110134013D4EE77FEA645C18BF7FEA655C29D094EA050F08BF90EA020F05D054EA51
S32D00012860000C04BF1946104630BD91EA030F1EBF0021002030BD5FEA545C05D14000494128BF41F0004130BD61
S32D0001288814F580043CBF01F5801130BD01F0004545F0FE4141F470014FF0000030BD7FEA645C1ABF19461046F2
S32D000128B07FEA655C1CBF0B46024650EA013406BF52EA033591EA030F41F4002130BD00BF90F0000F04BF0021B1
S32D000128D8704730B54FF4806404F132044FF000054FF0000150E700BF90F0000F04BF0021704730B54FF4806433
S32D0001290004F1320410F0004548BF40424FF000013EE700BF42004FEAE2014FEA31014FEA02701FBF12F07F4375
