S01100002E2E2F50726F746575732E73313966
S32D0000C000000000205DC2000011C3000017C300001DC3000023C3000029C3000000000000000000000000000073
S32D0000C028000000002FC3000035C30000000000003BC3000041C3000025D5000031D500003DD5000049D50000CE
S32D0000C05055D5000061D500006DD5000079D5000085D5000091D500009DD50000A9D50000B5D50000C1D5000002
S32D0000C078CDD50000D9D50000E5D50000F1D50000FDD5000009D6000015D6000021D600002DD6000039D6000025
S32D0000C0A045D6000051D600005DD6000069D6000075D6000081D600008DD6000099D60000A5D60000B1D6000048
S32D0000C0C8BDD60000C9D60000D5D60000E1D60000EDD60000F9D6000005D7000011D700001DD7000029D700006C
S32D0000C0F035D700001527010041D700004DD7000059D7000065D7000071D700007DD7000089D7000095D70000C9
S32D0000C118A1D70000ADD70000B9D70000C5D70000D1D70000DDD70000E9D70000F5D7000001D800000DD800002B
S32D0000C14019D8000025D8000031D800003DD8000059FD000049D8000055D8000061D800006DD8000079D8000052
S32D0000C16885D8000091D800009DD80000A9D80000B5D80000C1D80000CDD80000D9D80000E5D80000F1D80000EB
S32D0000C190FDD8000009D9000015D9000099F9000061F80000FDF80000A9D2000039FA000021D900002DD900004E
S32D0000C1B839D90000A4D4010000000020D0160000A4D401000000FF1F00000000D0160020840400000000FF1F85
S32D0000C1E00000000080B489B000AFF860B9607A60BB68FB61FB68BB6100237B617A697B689A420BD2BA69131DFB
S32D0000C208BB61FB69191DF96112681A607B6904337B61EFE700BF2437BD4680BC704780B485B000AF786039609E
S32D0000C2307B68FB600023BB60BA683B689A4208D2FB681A1DFA6000221A60BB680433BB60F2E700BF1437BD46FE
S32D0000C25880BC704780B586B000AF72B6234B4CF220521A80214B4DF628121A80204B4FF4E9721A801F4B7B615F
S32D0000C2807B691F4A934214D27B691A1D7A611B683B617B691A1D7A611B68FB607B691A1D7A611B68BB60BA68E9
S32D0000C2A8F9683869FFF79AFFE6E77B69134A93420ED27B691A1D7A611B68FB607B691A1D7A611B68BB60B9688B
S32D0000C2D0F868FFF7A8FFECE70B4B7B600B4A7B681A600AF039F862B601F0A6F800F074FFFEE700BF0E20054041
S32D0000C2F800200540BCC10000D4C10000E4C1000008ED00E000C0000080B400AFFEE780B400AFFEE780B400AFF4
S32D0000C320FEE780B400AFFEE780B400AFFEE780B400AFFEE780B400AFFEE780B400AFFEE780B400AFFEE780B426
S32D0000C34800AFFEE7FFFFFFFFFFFFFFFFFFFFFFFFFFFFFFFFFFFFFFFFFFFFFFFFFFFFFFFFFFFFFFFFFFFFFFFF57
S32D0000C370FFFFFFFFFFFFFFFFFFFFFFFFFFFFFFFFFFFFFFFFFFFFFFFFFFFFFFFFFFFFFFFFFFFFFFFFFFFFFFFFC7
S32D0000C398FFFFFFFFFFFFFFFFFFFFFFFFFFFFFFFFFFFFFFFFFFFFFFFFFFFFFFFFFFFFFFFFFFFFFFFFFFFFFFFF9F
S32D0000C3C0FFFFFFFFFFFFFFFFFFFFFFFFFFFFFFFFFFFFFFFFFFFFFFFFFFFFFFFFFFFFFFFFFFFFFFFFFFFFFFFF77
S32D0000C3E8FFFFFFFFFFFFFFFFFFFFFFFFFFFFFFFFFFFFFFFFFFFFFFFFFFFFFFFFFFFFFFFFFFFFFFFFFEFFFFFF50
S32D0000C44010B5054C237833B9044B13B10448AFF300800123237010BDD01600200000000010C4000008B5034B47
S32D0000C4681BB103490348AFF3008008BD00000000D416002010C4000080B582B000AF7860786807F065F9034612
S32D0000C49018460837BD4680BD80B582B000AF7860786807F0A1FA034618460837BD4680BD80B500AF154804F0E6
S32D0000C4B872FA002300221449124804F094FC0023012212490F4804F08EFC0023022210490C4804F088FC002365
S32D0000C4E003220E49094804F082FC002304220C49064804F07CFC0B4805F0B2FF01460D230322024804F08FFC39
S32D0000C50800BF80BDFC19002054C6010064C6010074C6010084C6010094C60100481A002080B582B000AF78603D
S32D0000C53039600D237A680B490B4804F058FC0D237A683968084804F06EFC084805F088FF01460D23032204482E
S32D0000C55804F065FC00BF0837BD4680BDA0C60100FC190020481A002080B582B000AF7860104B1B681A2B13DC04
S32D0000C5800E4B1A6800230E490E4804F030FC0B4B1A68002379680B4804F029FC074B1B680133064A136005E0C9
S32D0000C5A8044B05221A607868FFF7DEFF00BF0837BD4680BD00000020B0C60100FC19002080B582B000AF7860CA
S32D0000C5D04FF4FA71104803F089FD40F6FC010E4803F0A1FD0D490C4803F0BAFD7B6801221A704FF4FA710A48C0
S32D0000C5F803F078FD40F6FC01074803F090FD0749054803F0A9FD7B6818460837BD4680BD041700200000B44284
S32D0000C620101700200000164380B582B000AF786039603968034803F093FD00BF0837BD4680BD00BF1017002012
S32D0000C648B0B584B000AFF860B9607A60786809F087FA0446786809F083FA0546786809F07FFA03462A4621467A
S32D0000C670F86800F0E9F8B86803F090F8F86800F0D1F800BF1037BD46B0BD80B584B000AFF860B9607A603B6043
S32D0000C6983A68B968F86800F00BF8786803F07AF8F86800F0BBF800BF1037BD4680BD0000B0B588B000AFF8602C
S32D0000C6C0B9607A60786808F0E3FD04460D46B86808F0F0FD4AA3D3E9002308F043FE02460B46104619464FF06D
S32D0000C6E800024D4B08F064FF02460B4644A1D1E9000108F07BFC02460B461046194606F0D7FF02460B4620466E
S32D0000C710294608F027FE02460B461046194609F019F90346FB61786808F0B2FD04460D46B86808F0BFFD32A3A4
S32D0000C738D3E9002308F012FE02460B46104619464FF00002344B08F033FF02460B462EA1D1E9000108F04AFC53
S32D0000C76002460B461046194606F0A6FF02460B462046294608F0F6FD02460B461046194609F0E8F80346BB61DD
S32D0000C788786808F081FD04460D46B86808F08EFD19A3D3E9002308F0E1FD02460B46104619464FF000021C4B86
S32D0000C7B008F002FF02460B4617A1D1E9000108F019FC02460B461046194606F075FF02460B462046294608F02B
S32D0000C7D8C5FD02460B461046194609F0B7F803467B617B69BA69F969F86800F029F800BF2037BD46B0BD00BF37
S32D0000C8007A008BFCFA2109405C40683D7CD9124066801E7DA6F104405100B2FD51C1E03F0080664080B582B0A3
S32D0000C82800AF78604FF000034FF000024FF00001786800F005F800BF0837BD4680BD000080B584B000AFF8601D
S32D0000C850B9607A603B604FF00001B86809F076FB0346002B08D0B968454801F0D5F8B9680220FFF759FE25E015
S32D0000C878B86808F01BFD3CA3D3E9002308F06EFD02460B461046194609F060F803461946394801F0BDF8B868B3
S32D0000C8A008F008FD32A3D3E9002308F05BFD02460B461046194609F04DF8034619460220FFF732FE4FF00001AD
S32D0000C8C8786809F03FFB0346002B08D079682B4801F09EF879680020FFF722FE07E07968264801F095F879685C
S32D0000C8F00020FFF719FE4FF00001386809F026FB0346002B08D039681F4801F085F839680120FFF709FE25E06D
S32D0000C918386808F0CBFC16A3D3E9002308F01EFD02460B461046194609F010F803461946134801F06DF838689F
S32D0000C94008F0B8FC0CA3D3E9002308F00BFD02460B461046194608F0FDFF034619460120FFF7E2FD00BF1037A9
S32D0000C968BD4680BDAFF30080CDCCCCCCCCCCEC3F666666666666EE3FEC160020F4160020FC16002080B582B0D5
S32D0000C99000AF0E4803F0ACF878604FF07C51786809F0D4FA0346002B01D001230AE04FF07E51786809F0CAFA54
S32D0000C9B80346002B01D0022300E0002318460837BD4680BD1C17002080B582B000AF3871381D3C230F4A10498F
S32D0000C9E0FFF753FE3B1D3C220E491846FFF72CFE3B1D0D491846FFF717FE4FF000000B4902F0ECFE3B1D0A4926
S32D0000CA081846FFF70DFE4FF00000084902F0E2FEE4E700BFA737BD3F00005243306DC13D00008C420000F03FAE
S32D0000CA30000016430000E03F80B588B002AF38710D48FFF795FD381D3C230C4A0C49FFF71CFE0C4B7B610C4BC3
S32D0000CA583B610C4BFB600C4B0093FB683A697969387900F0A9F800BF1837BD4680BD00BFCCC60100D39B5E3FA3
S32D0000CA800000F0C10000504100004C420000D242CDCCCC3D80B584B000AFF860C7E90023F86808F007FCD7E9A4
S32D0000CAA8002306F071FF02460B46104619461037BD4680BD80B584B000AF786039607968386808F097FF034621
S32D0000CAD019464FF000021D4B0846FFF7DBFFC7E902014FF000021A4BD7E9020108F0ACFE0346002B0BD04FF0C6
S32D0000CAF80002144BD7E9020108F07AFA02460B46C7E9022314E04FF00002104BD7E9020108F0AAFE0346002BAB
S32D0000CB200AD04FF00002094BD7E9020108F062FA02460B46C7E90223D7E9020108F00AFF034618461037BD463E
S32D0000CB4880BD00BF00807640008066C00080664080B586B000AFF860B9607A60B968F868FFF7A8FF0346184697
S32D0000CB7008F0A0FB02460B46C7E90423786808F099FB02460B46D7E9040108F05DFE0346002B10D07B6883F0CD
S32D0000CB980043184608F08AFB02460B46D7E9040108F06CFE0346002B01D0012300E0002318461837BD4680BD38
S32D0000CBC090B58FB000AF3873B9607A603B603C237B6307F1100207F114031146184600F027FAF8627B694FF042
S32D0000CBE80001184609F0AEF90346002B40F0BE813B694FF00001184609F0A4F90346002B40F0B4814FF000014C
S32D0000CC10F86A09F09BF90346002B40F0AB81F86A08F048FB4FF00002954B08F0E3F902460B464FF000009349F1
S32D0000CC3808F0DCF902460B461046194608F086FE0346FB627B691946B86808F0D3FE0346BB623B69194678681C
S32D0000CC6008F0CCFE03467B62B96AB86A08F0D0FF03461C46796A786A08F0CAFF03461946204608F0BDFE034677
S32D0000CC881846FFF705FC3862B96A786A09F070F803461846FFF7F0FB0346184608F006FB4FF00002764B08F007
S32D0000CCB059FB02460B46104619466DA3D3E9002308F07AFC02460B461046194608F042FE03463B63396B6D4891
S32D0000CCD808F090FE03463B634FF00001B86A09F031F90346002B05D06749386B08F084FE03463B63396BF86A39
S32D0000CD00FFF7DCFE04466349386A09F035F803461A4607F10C007B6B2146FFF7B6FC07F1100207F11403114665
S32D0000CD28184600F081F9F8627B694FF00001184609F008F90346002B40F018813B694FF00001184609F0FEF8D1
S32D0000CD500346002B40F00E814FF00001F86A09F0F5F80346002B40F00581F86A08F0A2FA4FF00002424B08F014
S32D0000CD783DF902460B464FF00000404908F036F902460B461046194608F0E0FD0346FB623968F86AFFF78EFE81
S32D0000CDA0F8614FF00001F86909F0EEF80346002B16D0F86908F07EFA2FA3D3E9002308F0FBFB02460B461046D3
S32D0000CDC8194608F0C3FD01467B6B5A4207F10C031846FFF735FC17E0FB6983F00043184608F064FA22A3D3E98B
S32D0000CDF0002308F0E1FB02460B461046194608F0A9FD014607F10C037A6B1846FFF71CFC07F1100207F114037A
S32D0000CE181146184600F008F9F862F86A08F046FA4FF00002144B08F0E1F802460B464FF00000124908F0DAF8E4
S32D0000CE4002460B461046194608F084FD0346FB624FF07E523968F86AFFF77EFE0346FB767B6B282B18DD7B6B05
S32D0000CE68023B7B631AE000BF7A008BFCFA210940B81E85EB51785A400080564000807640008066400000B44252
S32D0000CE90000034430000B8407B6B142B02DD7B6B013B7B63B96CB86808F0A8FD03461A467B6901210C461946BF
S32D0000CEB8104609F065F80346002B01D100231C46E3B283F00103DBB2002B3FF47EAEB96CB86808F091FD03469E
S32D0000CEE01A467B6901210C461946104609F02EF80346002B01D100231C46E3B283F00103DBB2002B3FF465AEC3
S32D0000CF08B96C786808F076FD03461A463B6901210C461946104609F033F80346002B01D100231C46E3B283F01E
S32D0000CF300103DBB2002B3FF44CAEB96C786808F05FFD03461A463B6901210C461946104608F0FCFF0346002BB4
S32D0000CF5801D100231C46E3B283F00103DBB2002B3FF433AEFB7E002B00D12EE600BF3C37BD4690BD80B582B00A
S32D0000CF8000AF38710948FFF7F3FA381D3C23084A0849FFF77AFB381D3C23074A4FF00001FFF773FB00BF08378E
S32D0000CFA8BD4680BD18C80100A737BD3F00008743D39BDE4080B582B000AF00237B600A48FFF7D2FA7B68002BD4
S32D0000CFD008D1FFF7DBFC78604FF00000054902F0FDFBF3E77B6818460837BD4680BD00BF5CC801000000E03FA1
S32D0000CFF880B582B000AF0A4804F0D2F83A463B1D1946074803F0E0FD034683F00103DBB2002B00D0F2E700BFAF
S32D0000D0200837BD4680BD00BFFC1900200000000080B58AB000AF786039605FA1D1E9000102F0CCFB624806F0CC
S32D0000D048CFF93861604806F0AFF902467B681A605D4806F0B7F902463B681A604FF000037B624FF000033B62C0
S32D0000D0704FF00003FB610A23FB600023BB617B681B685449184608F07FFF0346002B6BD03B681B684F4918468B
S32D0000D09808F076FF0346002B62D04C49386908F06FFF0346002B5BD000237B617B69092B56DC41A1D1E9000136
S32D0000D0C002F08CFB424806F08FF93861404806F06FF902467B681A603D4806F077F902463B681A607B681B68E7
S32D0000D0E8184608F0E3F836A3D3E9002308F0C6FB0346002B30D03B681B68184608F0D6F82FA3D3E9002308F011
S32D0000D110B9FB0346002B23D0386908F0CBF82AA3D3E9002308F0AEFB0346002B18D07B681B681946786A08F032
S32D0000D13863FC03467B623B681B681946386A08F05BFC03463B623969F86908F055FC0346FB61BB690133BB6183
S32D0000D1607B6901337B61A5E7B86908F0FDFC03461946786A08F000FE03461A467B681A60B86908F0F1FC03463A
S32D0000D1881946386A08F0F4FD03461A463B681A60B86908F0E5FC03461946F86908F0E8FD03463B613B69184602
S32D0000D1B02837BD4680BD00BF333333333333D33F7B14AE47E17A843F9A9999999999B9BF641A00200000C0BFE1
S32D0000D1D880B582B000AF3B1D1846FFF7F1F90D4805F09AFEFFF760F90B48FFF7BDF9FFF7FFFEFFF7DFFE3879D6
S32D0000D200FFF7BCFE3879FFF717FC3879FFF7E0FB002318460837BD4680BD00BF641A002070C8010080B582B017
S32D0000D22800AF786039607B68012B1FD13B684FF6FF7293421AD10F4A00210F4800F080FB0C4A01210D4800F0A7
S32D0000D2507BFB0A4A02210C4800F076FB00210B4802F028FF01210A4802F024FF0021094802F02EFC00BF08376C
S32D0000D278BD4680BD0000C040EC160020F4160020FC16002004170020101700201C17002080B500AF4FF6FF715C
S32D0000D2A00120FFF7BFFF80BD80B500AF0F4BD3F8A03003F48053002B14BF01230023DBB2002B10D0094BD3F8AF
S32D0000D2C8A030084A23F48053C2F8A030064806F069F9064B1B68054A23F40053136000BF80BD00BF00C004403D
S32D0000D2F0841A0020C0F00F4080B400AF124B4FF480725A63114B5B69104A43F4005353610E4B1B680D4A43F4FF
S32D0000D318005313600A4B0C4A1A630C4BD3F888310A4A43F08063C2F88831084B9B68074A43F08063936000BFD2
S32D0000D340BD4680BC704700BF00C00440C0F00F4003010A0000E100E080B400AF334B00225A70324B98221A702A
S32D0000D368304B9B79DBB203F01003002B14BF01230023DBB2002B00D0F2E72A4B9B79DBB29B08DBB203F0030390
S32D0000D390022B14BF01230023DBB2002B00D0F0E7224B18221A71214B00225A71204B03F580531A461F4B536487
S32D0000D3B81C4B54225A711B4B9B79DBB203F02003002B0CBF01230023DBB2002B00D0F2E7144B9B79DBB203F0F1
S32D0000D3E04003002B0CBF01230023DBB2002B00D0F2E70E4B1B78DBB20C4A03F03F03DBB213700A4B9B79DBB234
S32D0000D4089B08DBB203F00303032B14BF01230023DBB2002B00D0F0E700231846BD4680BC704700BF004006406A
S32D0000D430007004400000130180B500AF314B03F580539B6B2F4A43F4785302F580529363FFF752FFFFF780FFDF
S32D0000D4582B4B58221A602A4B1B684FF47A7202FB03F3284A1360274B1B681A46234B03F580535B6C1B0E03F0CC
S32D0000D4800F030133B2FBF3F31A46214B1A601D4B03F58053DB6B1B4A43F0225302F58052D363184B03F58053AC
S32D0000D4A81B6B164A43F0006302F580521363174B4FF480721A61642002F042F8134B5B69124A23F01003536181
S32D0000D4D0104B00221A600F4B10225A610E4803F0EBF802F0EDFB02F04BFC0C4802F08EF80B4806F0AFF84FF4B2
S32D0000D4F8FA6002F039F900BF80BD00BF0070044048190020441900204C19002000D00340FC19002040190020D5
S32D0000D520F41A002080B500AFFEF70DFF00BF80BD80B500AFFEF707FF00BF80BD80B500AFFEF701FF00BF80BD1E
S32D0000D54880B500AFFEF7FBFE00BF80BD80B500AFFEF7F5FE00BF80BD80B500AFFEF7EFFE00BF80BD80B500AF79
S32D0000D570FEF7E9FE00BF80BD80B500AFFEF7E3FE00BF80BD80B500AFFEF7DDFE00BF80BD80B500AFFEF7D7FEA1
S32D0000D59800BF80BD80B500AFFEF7D1FE00BF80BD80B500AFFEF7CBFE00BF80BD80B500AFFEF7C5FE00BF80BD8F
S32D0000D5C080B500AFFEF7BFFE00BF80BD80B500AFFEF7B9FE00BF80BD80B500AFFEF7B3FE00BF80BD80B500AFB5
S32D0000D5E8FEF7ADFE00BF80BD80B500AFFEF7A7FE00BF80BD80B500AFFEF7A1FE00BF80BD80B500AFFEF79BFE19
S32D0000D61000BF80BD80B500AFFEF795FE00BF80BD80B500AFFEF78FFE00BF80BD80B500AFFEF789FE00BF80BDCA
S32D0000D63880B500AFFEF783FE00BF80BD80B500AFFEF77DFE00BF80BD80B500AFFEF777FE00BF80BD80B500AFF0
S32D0000D660FEF771FE00BF80BD80B500AFFEF76BFE00BF80BD80B500AFFEF765FE00BF80BD80B500AFFEF75FFE90
S32D0000D68800BF80BD80B500AFFEF759FE00BF80BD80B500AFFEF753FE00BF80BD80B500AFFEF74DFE00BF80BD06
S32D0000D6B080B500AFFEF747FE00BF80BD80B500AFFEF741FE00BF80BD80B500AFFEF73BFE00BF80BD80B500AF2C
S32D0000D6D8FEF735FE00BF80BD80B500AFFEF72FFE00BF80BD80B500AFFEF729FE00BF80BD80B500AFFEF723FE08
S32D0000D70000BF80BD80B500AFFEF71DFE00BF80BD80B500AFFEF717FE00BF80BD80B500AFFEF711FE00BF80BD41
S32D0000D72880B500AFFEF70BFE00BF80BD80B500AFFEF705FE00BF80BD80B500AFFEF7FFFD00BF80BD80B500AF68
S32D0000D750FEF7F9FD00BF80BD80B500AFFEF7F3FD00BF80BD80B500AFFEF7EDFD00BF80BD80B500AFFEF7E7FD83
S32D0000D77800BF80BD80B500AFFEF7E1FD00BF80BD80B500AFFEF7DBFD00BF80BD80B500AFFEF7D5FD00BF80BD80
S32D0000D7A080B500AFFEF7CFFD00BF80BD80B500AFFEF7C9FD00BF80BD80B500AFFEF7C3FD00BF80BD80B500AFA6
S32D0000D7C8FEF7BDFD00BF80BD80B500AFFEF7B7FD00BF80BD80B500AFFEF7B1FD00BF80BD80B500AFFEF7ABFDFB
S32D0000D7F000BF80BD80B500AFFEF7A5FD00BF80BD80B500AFFEF79FFD00BF80BD80B500AFFEF799FD00BF80BDBC
S32D0000D81880B500AFFEF793FD00BF80BD80B500AFFEF78DFD00BF80BD80B500AFFEF787FD00BF80BD80B500AFE1
S32D0000D840FEF781FD00BF80BD80B500AFFEF77BFD00BF80BD80B500AFFEF775FD00BF80BD80B500AFFEF76FFD72
S32D0000D86800BF80BD80B500AFFEF769FD00BF80BD80B500AFFEF763FD00BF80BD80B500AFFEF75DFD00BF80BDF7
S32D0000D89080B500AFFEF757FD00BF80BD80B500AFFEF751FD00BF80BD80B500AFFEF74BFD00BF80BD80B500AF1D
S32D0000D8B8FEF745FD00BF80BD80B500AFFEF73FFD00BF80BD80B500AFFEF739FD00BF80BD80B500AFFEF733FDEA
S32D0000D8E000BF80BD80B500AFFEF72DFD00BF80BD80B500AFFEF727FD00BF80BD80B500AFFEF721FD00BF80BD33
S32D0000D90880B500AFFEF71BFD00BF80BD80B500AFFEF715FD00BF80BD80B500AFFEF70FFD00BF80BD80B500AF58
S32D0000D930FEF709FD00BF80BD80B500AFFEF703FD00BF80BD0000000080B584B000AFF8600B467A60FB72FB6892
S32D0000D958FA7A1A71FB6800225A711749786808F00FFB0346002B02D0134B7B600AE04FF07E51786808F0F0FAD7
S32D0000D9800346002B02D04FF07E537B60786807F091FC09A3D3E9002307F0E4FC02460B461046194607F0D6FF68
S32D0000D9A80246FB681A60FB6818461037BD4680BDABAAAAAAAAAA20400000404180B584B000AF786039603B68DA
S32D0000D9D07F2B02DD7F23FB7308E03B6813F1800F02DA8023FB7301E03B68FB737B685B79FA7B9A4209D07B68CF
S32D0000D9F8FA7B5A717B681979FA7B1E23034801F03BFE00BF1037BD4680BD00BF40190020B0B584B000AF786083
S32D0000DA2039603749386808F091FA0346002B02D0334B3B6008E03349386808F0A5FA0346002B01D02F4B3B6048
S32D0000DA48386807F033FC04460D467B681B68184607F02CFC4FF00002294B07F0A9FD02460B462046294607F0B3
S32D0000DA7079FC02460B461046194607F06BFF03463B604FF00001386808F074FA0346002B10D0386807F00EFC45
S32D0000DA9817A3D3E9002307F061FC02460B461046194607F00BFF0346FB6018E0386807F0FDFB4FF00002134B5A
S32D0000DAC007F050FC02460B46104619464FF000020D4B07F071FD02460B461046194607F0F1FE0346FB60F96870
S32D0000DAE87868FFF76BFF00BF1037BD46B0BD00BF52B81E85EB51F43F0000C8C20000C8420000594000006040B2
S32D0000DB1080B483B000AF03460A46FB711346BB71BB79002B03D1134B00221A7002E0114B01221A703823FB7158
S32D0000DB380E4B1A78FB791343FB710D4B9B78DBB20B4A43F01003DBB29370094B9B78DBB2074A43F02003DBB253
S32D0000DB609370054AFB79137100BF0C37BD4680BC704700BF1D1700200060064080B483B000AF01237B607B68A4
S32D0000DB88312B04DC00BF7B6801337B60F7E700BF0C37BD4680BC704780B582B000AF03460A46FB711346BB710C
S32D0000DBB0134B1B7800211846FFF7AAFF00F024F8104AFB79137100F01FF80E4ABB79137100F01AF80B4B9B7858
S32D0000DBD8DBB20A4A23F02003DBB29370074B9B78DBB2064A23F01003DBB29370FFF7C2FF00BF0837BD4680BD8B
S32D0000DC001E1700200060064080B483B000AF174B1B78002B24D100237B60154BDB78DBB203F00203002B0CBFA4
S32D0000DC2801230023DBB2002B0DD07B6842F21072934203DD0B4B01221A7004E07B6801337B6000BFE5E7084BED
S32D0000DC50DB78DBB2064A43F00203DBB2D37000E000BF0C37BD4680BC704700BF1F1700200060064080B582B074
S32D0000DC7800AF0346FB71FB79184600F05FF800BF0837BD4680BD80B582B000AF03460A46FB711346BB7100F033
S32D0000DCA035F8FB795B00DBB21846FFF7E3FFBB791846FFF7DFFF00F037F800BF0837BD4680BD80B500AFFF20D1
S32D0000DCC800F03CF80346184680BD80B584B000AF0346FB7100F016F8FB795B005BB243F001035BB2DBB2184650
S32D0000DCF0FFF7C0FFFFF7E5FF0346FB7300F014F8FB7B18461037BD4680BD000080B400AF044B9B68034A43F4B0
S32D0000DD188013936000BFBD4680BC704740F00F4080B400AF044B5B68034A43F48013536000BFBD4680BC7047AF
S32D0000DD4040F00F4080B485B000AF0346FB710023BB73164BDB6A03F00043012B0CBF01230023DBB2002B03D073
S32D0000DD68FB7B0133FB73F0E70E4BDB6A0D4A43F00043D3620B4AFB7953630A4BDB6A03F40033002B0CBF0123A1
S32D0000DD900023DBB2002B00D0F3E7044B9B6BBB73BB7B18461437BD4680BC704700C00A4080B582B000AF204BFD
S32D0000DDB803F580531B6B1E4A43F4805302F5805213631C4B4FF480721A651B4B5B691A4A43F480135361FFF71E
S32D0000DDE0A3FF164B4FF400725A65144B4FF400729A65124B4FF40072DA65124B124A1A60104B124ADA600023F3
S32D0000DE087B607B68092B06DCFF20FFF72FFF7B6801337B60F5E704A1D1E9000101F0DAFC00BF0837BD4680BDA2
S32D0000DE309A9999999999B93F0070044000A0044040F00F4000C00A40000C00800500003E90B486B000AFF860C4
S32D0000DE58B9607A60FB68534A93420AD1524B03F580535B6B504A43F4806302F58052536345E0FB684D4A9342A4
S32D0000DE800AD14B4B03F580535B6B494A43F4006302F58052536336E0FB68474A93420AD1434B03F580535B6BED
S32D0000DEA8414A43F4805302F58052536327E0FB68404A93420AD13C4B03F580535B6B3A4A43F4005302F58052A5
S32D0000DED0536318E0FB683A4A93420AD1344B03F580539B6A324A43F4806302F58052936209E02F4B03F580530E
S32D0000DEF89B6A2D4A43F4006302F580529362FB68DB78DBB223F00C03DAB2FB68DA70FB6800229A70BB684FF495
S32D0000DF207A7203FB02F27B681B0192FBF3F39CB2FB681B78DBB223F01F03FB75230A9BB2DBB203F01F03DAB265
S32D0000DF48FB7D1343DAB2FB681A70E2B2FB685A70BB684FF4FA4203FB02F27B681B0192FBF3F39AB263019BB2A0
S32D0000DF70D31A9CB2FB689B7ADBB223F01F03FB75E3B203F01F03DAB2FB7D1343DAB2FB689A72FB68DB78DBB25C
S32D0000DF9843F00C03DAB2FB68DA7000BF1837BD4690BC704700A006400070044000B0064000C0064000D0064020
S32D0000DFC000A00E4080B483B000AF78607B681B79DBB203F02003002B0CBF01230023DBB2002B00D0F2E77B68BC
S32D0000DFE8DB79DBB218460C37BD4680BC704780B483B000AF78600B46FB707B681B79DBB25BB2DB43DBB2DB0949
S32D0000E010DBB2002B00D0F4E77B68FA78DA7100BF0C37BD4680BC704780B487B000AFF860B9607A60FB687B6143
S32D0000E0387B685A1E7A60002B14BF01230023DBB2002B06D07B695A1C7A61BA68D2B21A70EEE700BF1C37BD4663
S32D0000E06080BC704780B584B000AF786039607B681B6BFB60FA683B689A4252D07B681B79002B35D07B685878F5
S32D0000E0887B6803F134010123FA6801F0F7F80346002B14BF01230023DBB2002B01D001233CE07B6800221A7111
S32D0000E0B07B685A6A7B681B6A1344FA689A4217D27B68DB78FB72FB7A012B11D97B681B6AFA681344FB607B6828
S32D0000E0D858787B6803F134010123FA6801F0CEF8FB7A013BFB72EAE73B68002B15D07B6858787B6803F13401A0
S32D0000E10001233A6800F0DAFF0346002B14BF01230023DBB2002B01D0012303E07B683A681A630023184610377A
S32D0000E128BD4680BD80B584B000AF786000217868FFF794FF0346FB73FB7B002B40F093807B681B78032B7DD182
S32D0000E1507B685B79002B79D07B6800221A637B6834334FF4007200211846FFF75DFF7B68552283F832227B6818
S32D0000E178AA2283F833227B68522283F834207B68522283F835207B68612283F836207B68412283F837207B685E
S32D0000E1A0722283F818227B68722283F819227B68412283F81A227B68612283F81B227B681B69DAB27B6883F86F
S32D0000E1C81C227B681B699BB21B0A9BB2DAB27B6883F81D227B681B691B0CDAB27B6883F81E227B681B691B0E54
S32D0000E1F0DAB27B6883F81F227B68DB68DAB27B6883F820227B68DB689BB21B0A9BB2DAB27B6883F821227B688F
S32D0000E218DB681B0CDAB27B6883F822227B68DB681B0EDAB27B6883F823227B6858787B6803F134017B685A695D
S32D0000E240012301F01FF87B6800225A717B685B7800220021184601F0E1F80346002B14BF01230023DBB2002B4D
S32D0000E26801D00123FB73FB7B18461037BD4680BD80B582B000AF78600B467B807B68002B08D07B681B78002B09
S32D0000E29004D07B68DB887A889A4201D0092311E07B685B78184601F03BF9034603F00103002B14BF01230023BC
S32D0000E2B8DBB2002B01D0032300E0002318460837BD4680BD80B586B000AF78607B681A687B689B881946104697
S32D0000E2E0FFF7CAFF0346FB75FB7D002B40F0AC807B689B7903F02003002B00F0A5807B689B7903F04003002BF4
S32D0000E3081BD07B681B6858787B6803F128017B689A69012300F0B2FF0346002B14BF01230023DBB2002B01D004
S32D0000E33001238AE07B689B7923F04003DAB27B689A717B681A687B68DB6919461046FFF789FE0346FB75FB7D7B
S32D0000E358002B75D17B681B6A3B613B690B331A783B690B3342F02002D2B21A707B68DA683B691C33D2B21A7044
S32D0000E3807B68DB689BB21B0A9AB23B691D33D2B21A707B68DB681A0C3B691E33D2B21A707B68DB681A0E3B6948
S32D0000E3A81F33D2B21A707B681A693B691A33D2B21A707B681B699BB21B0A9AB23B691B33D2B21A707B681B69F6
S32D0000E3D01A0C3B691433D2B21A707B681B691B0C9BB21B0A9AB23B691533D2B21A700023FB603B691633FA68ED
S32D0000E3F8D2B21A70FB689BB21B0A9AB23B691733D2B21A70FB681A0C3B691833D2B21A70FB681A0E3B691933CB
S32D0000E420D2B21A707B689B7923F02003DAB27B689A717B681B6801221A717B681B681846FFF774FE0346FB7520
S32D0000E448FB7D18461837BD4680BD80B584B000AF78607868FFF736FF0346FB73FB7B002B02D17B6800221A609C
S32D0000E470FB7B18461037BD4680BD000080B588B000AF7860396080233B610F23FB604FF0FF337B610223FB61FC
S32D0000E498FB69B3F5807F23D80123BB61BB69102B1AD8FB69BA6902FB03F33A6803FB02F27B68D31ABB60BB68A3
S32D0000E4C0002B09DBBB687A699A4205D9BB687B61FB693B61BB69FB60BB690133BB61E1E7FB695B00FB61D7E7CC
S32D0000E4E81D4BDB6A1C4A23F00803D3621A4BDB6A23F47F2323F47F63BB613B695B081B029AB2FB68013B1B01FD
S32D0000E510DBB21A43BB691343114A43F46023D3620F4B5B6A03F00803002B0CBF01230023DBB2002B03D00A2020
S32D0000E53801F01AF9F0E7084BDB6A074A43F00803D362054B1B6B044A43F48013136300BF2037BD4680BD00BF05
S32D0000E56000100B4080B582B000AF786039607B6800221A60414B424ADA62404BDB6A03F08073002B14BF012300
S32D0000E5880023DBB2002B00D0F3E73A4B0022C3F8C020384B4FF481325A60364B28229A62344B4FF001125A6415
S32D0000E5B03B689B6833491846FFF760FF2F4B5B6A03F00303002B14BF01230023DBB2002B00D0F3E72C4B40F2E0
S32D0000E5D843421A602A4B40F243425A60284B4FF488629A60264B40F24342DA60244B40F243421A61224B40F2F4
S32D0000E60043425A61214B03F580531B6B1F4A43F4003302F580521363184B4FF6FF721A63164B1B4A5A63154B64
S32D0000E628DB6A144A43F00063D362124BDB6A03F00063002B14BF01230023DBB2002B00D0F3E70C4B5B6A03F4A4
S32D0000E6508033002B14BF01230023DBB2002B02D07B6801221A60054B1B6B044A43F0800313630023184608378A
S32D0000E678BD4680BD00100B400080000160CC050000D0044000700440B3007F0080B400AF064B5A6A40F20733C9
S32D0000E6A01340002B14BF01230023DBB21846BD4680BC704700100B4080B485B000AF7860074B1B6B7A6813407B
S32D0000E6C8FB60FB68002B00D1F6E7FB6818461437BD4680BC704700BF00100B4080B584B000AF78607B681B780B
S32D0000E6F003F03F03764A52F82330FB60FB68002B05D17B681B78002B01D00123DCE0714B1B6B704A43F08003A7
S32D0000E71813636E4B5B6A03F00103002B14BF01230023DBB2002B00D0F3E7684A7B685B689360FB6823F4400339
S32D0000E740FB607B685B789B0503F44003FA681343FB607B685B78022B03D1FB6843F40013FB607B685B78042B09
S32D0000E76816D1FB6803F44033B3F5003F08D1FB6823F44033FB60FB6843F44033FB6007E0FB6823F44033FB6030
S32D0000E790FB6843F40033FB604E4B5B684D4A9BB253607B68DB68002B2AD0FB6803F44033B3F5403F03D0FB68CB
S32D0000E7B843F40013FB607B681B7A002B03D0FB6843F01003FB607B68DB68012B03D9FB6843F02003FB607B68EF
S32D0000E7E0DB68B3F1FF3F0BD03A4B5A687B68DB681B04384913434B60FB6843F00203FB60344B00221A60334A6F
S32D0000E808FB68D3603248FFF753FF0346012B14BF01230023DBB2002B09D02C4B1B6B2B4A43F4702343F00103F7
S32D0000E8301363012348E0274B1B6B03F08003002B14BF01230023DBB2002B07D0214B1B6B204A43F0011313639D
S32D0000E858012335E01D4B1B6B03F48033002B14BF01230023DBB2002B08D0184B1B6B174A43F0011313634FF0A6
S32D0000E880FF3321E0FB6803F44033002B15D0114B1A697B681A61FB6803F44033B3F5803F0BD10C4B5A697B6810
S32D0000E8A85A610A4B9A697B689A61084BDA697B68DA61064B1B6B054A43F001031363002318461037BD4680BDC2
S32D0000E8D010C9010000100B4001000E0080B592B000AF7860396000237B643B68BB63994B7B637B6B002B02D1D6
S32D0000E8F840F601235FE3964B3B633B6B002B02D140F60B2357E33B6B1B68FB62FB6A002B02D140F60B234EE317
S32D0000E9207B6841F20932934200F23F837B68B3F5985F08D87B68032B00F01A837B68092B00F0098331E37B6865
S32D0000E948A3F59853013B082B00F22B8301A252F823F000BF81E900006DEC0000C9EE000083EC0000C1EC0000BA
S32D0000E970E7ED00002FEE000071ED00008BED00007649786BFFF7EEFD78647B6C002B40F01083002387F8433069
S32D0000E998002387F82B30002387F82A30002387F82930002387F84230002387F8283000233B7200237B7200234C
S32D0000E9C0FB6000233B7400237B6107F108031846FFF788FE0346002B14BF01230023DBB2002B02D001237B6405
S32D0000E9E8E8E240F24C4000F0BFFE08233B7200237B724FF4D573FB6000233B7400237B6107F108031846FFF7D6
S32D0000EA1069FEF863FB6B002B09D1BA69FB689A4202D001237B64C9E2012387F84230012387F8283097F82830D2
S32D0000EA38002B00F0A58037233B7200237B720023FB6000233B7400237B6107F108031846FFF744FEF863FB6BB0
S32D0000EA60002B02D001237B64A8E269233B7200237B720023FB6000233B7400237B6107F108031846FFF72EFEE3
S32D0000EA880346002B14BF01230023DBB2002B02D001237B648EE2BB6903F44013002B6FD00023FB630A2000F062
S32D0000EAB05FFEFB6B0133FB6337233B7200237B720023FB6000233B7400237B6107F108031846FFF707FE0346D8
S32D0000EAD8002B14BF01230023DBB2002B02D001237B6428E069233B7200237B7297F84230002B02D0184BFB6031
S32D0000EB0002E04FF44013FB6000233B7400237B6107F108031846FFF7E5FD0346002B14BF01230023DBB2002BC4
S32D0000EB2802D001237B6406E0BB69002B03DBFB6B632B00D8B6E77B6C002B40F03882FB6B632B0BD9002387F8F8
S32D0000EB50423019E0341700203819002004C9010000003040012387F8433097F84230002B0AD0002387F84230E2
S32D0000EB78BB6903F08043002B02D0012387F8423097F82A30002B02D07B6B07221A6097F82930002B02D07B6B49
S32D0000EBA008221A6097F82B30002B02D07B6B04221A6097F84330002B09D07B6B02221A6097F84230002B02D0AE
S32D0000EBC87B6B03221A6097F82B30002B0DD097F84330002B09D07B6B05221A6097F84230002B02D07B6B06220F
S32D0000EBF01A60924B00221A60904B00225A608F4B00229A608D4B0022DA608C4B00221A618A4B00225A61FB6A98
S32D0000EC189A68FB6A5B6819461046FFF72BFC854B40F243421A60834B40F243425A60814B4FF488629A607F4BD5
S32D0000EC4040F24342DA607D4B40F243421A617B4B40F243425A617A4B03F580531B6B784A43F4003302F5805278
S32D0000EC681363A7E1B86BFFF739FDF863FB6B002B00F09F8102237B649BE1BB6B002B02D10C237B6496E16D4B54
S32D0000EC90DB6A1B0A5B0003F4FF73FB63694BDB6A1B0903F00F035A1CFB6B02FB03F3FB63FB6A9A68FB6BB2FB01
S32D0000ECB8F3F2BB6B1A607DE1BB6B002B02D10C237B6477E1BB6B1B68002B02D10C237B6470E1FFF7DBFC0346A5
S32D0000ECE0002B0CBF01230023DBB2002B3CD0534B00221A60514B00225A60504B00229A604E4B0022DA604D4B0F
S32D0000ED0800221A614B4B00225A61FB6A9A68BB6B1B6819461046FFF7ADFB464B40F243421A60444B40F2434262
S32D0000ED305A60424B4FF488629A60404B40F24342DA603E4B40F243421A613C4B40F243425A613B4B03F58053C6
S32D0000ED581B6B394A43F4003302F58052136329E140F60A237B6425E1BB6B002B02D10C237B641FE1314B5B6818
S32D0000ED80C3F30C02BB6B1A6018E1BB6B002B02D10C237B6412E1FFF77DFC0346002B0CBF01230023DBB2002B36
S32D0000EDA819D0BB6B1B68B3F5805F02D30C237B6400E1224B5B68214A23F4FF5323F01F0353601E4B5A68BB6B23
S32D0000EDD01B68C3F30C031B4913434B60EEE040F60A237B64EAE0BB6B002B02D10C237B64E4E0144B9B6A5B08D1
S32D0000EDF803F00303FB63FB6B002B03D1BB6B00221A60D7E0FB6B012B03D1BB6B01221A60D0E0FB6B102B03D16A
S32D0000EE20BB6B02221A60C9E005237B64C6E0BB6B002B09D10C237B64C0E000BF00D004400070044000100B40EF
S32D0000EE48FFF724FC0346002B0CBF01230023DBB2002B31D0BB6B1B68002B0AD1584B9B6A574A23F0060393623E
S32D0000EE70554B554A9B6A9362A0E0BB6B1B68012B0CD1514B9B6A504A23F0060393624E4B9B6A4D4A43F0020350
S32D0000EE9893628FE0BB6B1B68022B0AD1484B9B6A474A23F006039362454B454A9B6A936280E005237B647DE020
S32D0000EEC040F60A237B6479E0BB6B002B02D10C237B6473E03C4BDB6A3B4A43F00063D362394BDB6A03F00063C9
S32D0000EEE8002B14BF01230023DBB2002B00D0F3E7334B1B6B03F08003002B14BF01230023DBB2002B08D02E4B8D
S32D0000EF101B6B2D4A43F0800313637B6B00221A60294B5B6A03F48033002B14BF01230023DBB2002B07D07B6B8B
S32D0000EF381B68002B06D17B6B01221A6002E07B6B00221A607B6B1A68BB6B1A6032E0BB6B1C221A60BB6B0433EA
S32D0000EF6004221A60BB6B08334FF41E721A6025E00220FFF7A1FB144B1B6B03F4E003002B14BF01230023DBB2EB
S32D0000EF88002B07D00E4B1B6B0D4A43F4E003136304237B640A4B1B6B094A43F03203136308E040F609237B6458
S32D0000EFB004E000BF02E000BF00E000BF7B6C18464837BD4680BD00BF00100B4080B489B000AF786039607B68C2
S32D0000EFD87B61364B3B613B69002B01D100235FE03B691B68022B0BD03B691B68032B07D03B691B68072B03D088
S32D0000F0003B691B68082B0BD12B4B5B6A03F00403002B14BF01230023DBB2002B00D0F3E73B68FB61FB69002B42
S32D0000F0283DD0FB69B3F5007F28BF4FF40073FB60FB6803339B08BB61BB69002B2AD01C4B1B6B03F4E003002B97
S32D0000F05014BF01230023DBB2002B09D0164B1B6B154A43F4E00343F02003136300231BE0114B5B6A03F4006322
S32D0000F078002B0CBF01230023DBB2002B00D0F3E70B497B691A1D7A610A6A1A60BB69013BBB61D1E7FA69FB6899
S32D0000F0A0D31AFB61BEE7012318462437BD4680BC704700BF3417002000100B4080B58EB000AFB9607A601A4687
S32D0000F0C80346FB731346BB73414B7B63FB7B002B02D1BB7B002B01D1042375E03D4B1B78DBB203F00103002B85
S32D0000F0F014BF01230023DBB2002B01D0032367E0BB68002B01D1002362E07B6B1B7B002B02D17B685B027B60C8
S32D0000F118BB7B012B28D111233B7500237B757B68BB6101233B77BB7B3B6207F11403194641F20230FFF7CEFB3D
S32D0000F1400346002B0CBF01230023DBB2002B38D04FF40071B868FFF739FF0346002B14BF01230023DBB2002B13
S32D0000F1682BD00023BB7328E012233B7500237B757B68BB6101233B77BB7B3B6207F11403194641F20230FFF7BC
S32D0000F190A5FB0346002B0CBF01230023DBB2002B0FD0BB7B5B021946B868FFF70FFF0346002B14BF01230023F0
S32D0000F1B8DBB2002B01D00023BB73BB7B002B01D0012300E0002300BF18463837BD4680BD2017002004000020AF
S32D0000F1E080B487B000AF786039607B68FB603B687B617B69002B3DD07B69B3F5007F28BF4FF400733B617A6976
S32D0000F2083B69D31A7B613B6903339B083B613B69002BEAD0184B1B6B03F4E003002B14BF01230023DBB2002B09
S32D0000F2300AD0134B1B6B124A43F4E00343F0100313634FF0FF3316E00D4B5B6A03F48063002B0CBF0123002325
S32D0000F258DBB2002B00D0F3E7FB681A1DFA60064A1B6813623B69013B3B61D0E7012318461C37BD4680BC7047EC
S32D0000F28000100B4080B58EB000AFB9607A601A460346FB731346BB735D4B7B63FB7B002B02D1BB7B002B01D125
S32D0000F2A80423ADE0594B1B78DBB203F00103002B14BF01230023DBB2002B01D003239FE0524B1B78DBB203F0A6
S32D0000F2D00403002B14BF01230023DBB2002B01D0022391E0BB68002B01D100238CE07B6B1B7B002B02D17B6899
S32D0000F2F85B027B60BB7B012B28D118233B7500237B757B68BB6100233B77BB7B3B6207F11403194641F20230DD
S32D0000F320FFF7DCFA0346002B0CBF01230023DBB2002B38D04FF40071B868FFF751FF0346002B14BF0123002305
S32D0000F348DBB2002B2BD00023BB7328E019233B7500237B757B68BB6100233B77BB7B3B6207F11403194641F244
S32D0000F3700230FFF7B3FA0346002B0CBF01230023DBB2002B0FD0BB7B5B021946B868FFF727FF0346002B14BF08
S32D0000F39801230023DBB2002B01D00023BB730D233B7500237B757B6B1B69BB6100233B7700233B6207F1140309
S32D0000F3C0194641F20230FFF789FA0346002B14BF01230023DBB2002B01D0012314E07A6A0D4B1340002B01D028
S32D0000F3E801230DE07B6A03F4F853B3F5106F00D0D5E7BB7B002B01D0012300E0002300BF18463837BD4680BDE7
S32D0000F41020170020040000200880D9FF80B58CB000AF03463A60FB710B46BB713A4BBB62FB79002B01D00423CE
S32D0000F43869E0012387F82F30364B1B78DBB203F00103002B14BF01230023DBB2002B01D0032358E0BB79032B35
S32D0000F46050D801A252F823F079F4000081F4000091F40000A1F40000002387F82F3044E0BB6A9A683B681A60F1
S32D0000F488002387F82F303CE03B684FF400721A80002387F82F3034E009233B7200237B72BB6A1B69FB60002322
S32D0000F4B03B7400237B6107F10803194641F20230FFF70CFA0346002B14BF01230023DBB2002B01D001231AE088
S32D0000F4D87B6A03F44003002B0CD13B6A9B0C03F07F035A1C7B6A1B0A03F00303013B9A403B681A60002387F8D0
S32D0000F5002F3002E0042387F82F3097F82F3018463037BD4680BD00BF201700200400002080B483B000AF03460B
S32D0000F528FB71FB79002B01D0012302E0034B1B78DBB218460C37BD4680BC70470400002080B483B000AF7860BC
S32D0000F550164B03F580539B6B144A43F0010302F580529363124A7B689360114B05225A600F4B1B680E4A43F030
S32D0000F578010313600C4B1B6803F08003002B0CBF01230023DBB2002B00D0F3E7064B1B68054A23F00103136052
S32D0000F5A000BF0C37BD4680BC704700BF007004400000044080B582B000AF786039607B68012B07D13B684FF638
S32D0000F5C8FF72934202D1034800F00EF800BF0837BD4680BD4019002080B500AF4FF6FF710120FFF7E3FF80BD35
S32D0000F5F080B483B000AF78607B6800221A707B6818460C37BD4680BC7047000080B582B000AF78607B681B7892
S32D0000F61883F00103DBB2002B21D0134B03F580531A464FF400639362104B4FF440721A620E4B4FF440725A62AA
S32D0000F6400D4B1B68DA0F13445B104FF4614219460A48FEF7FDFB642000F08AF87B6801221A70012300E00023E5
S32D0000F66818460837BD4680BD0070044000D004404419002000B00E4080B582B000AF7860084611461A46034618
S32D0000F690FB700B46BB7013467B707F210E48FEF7AAFC08210C48FEF7A6FCFB7819460A48FEF7A1FCBB78194634
S32D0000F6B80748FEF79CFC7B7819460548FEF797FCFF210348FEF793FC00BF0837BD4680BD00B00E4080B487B08B
S32D0000F6E000AFF860B9607A60FB681F4AA2FB03239B09BA6813447B61FB681B4AA2FB031292094FF47A7101FB3B
S32D0000F70802F29B1AFB60FB68DB03154AA2FB03239B097A6813443B613B69DB0B7A6913447B613B69C3F30E03E8
S32D0000F7303B610E4B1B687A699A4209D80B4B1B687A699A4206D1094B5B683A699A4201D9012300E00023002B62
S32D0000F75800D0EAE700BF1C37BD4680BC704700BFD34D621000D0034080B584B000AF7860074B1B68FB60064B05
S32D0000F7805B68BB607B68BA68F9681846FFF7A6FF00BF1037BD4680BD00D0034080B584B000AF78600B4B1B68FC
S32D0000F7A8FB600A4B5B68BB600949786806F02CFA0346184606F02AFC0346BA68F9681846FFF788FF00BF1037E7
S32D0000F7D0BD4680BD00D0034000007A4480B584B000AFC7E900010E4B1B68FB600C4B5B68BB604FF000020B4B2E
S32D0000F7F8D7E9000105F0B2FD02460B461046194606F084F80346BA68F9681846FFF762FF00BF1037BD4680BDF7
S32D0000F82000D0034000408F4080B483B000AF0B4B1B684FF47A7202FB03F37B60074B5B684FF47A7202FB03F375
S32D0000F848DB0B7A6813447B607B6818460C37BD4680BC704700D00340B0B48BB000AF224B3C1D1D460FCD0FC4E5
S32D0000F87095E80F0084E80F0000237B627B6A072B30DC1C4BD3F8A0207B6A9B0028333B4453F8243C012101FA2C
S32D0000F89803F31340002B14BF01230023DBB2002B18D0134A7B6A52F823305A1C10497B6A41F823200D4BD3F8E2
S32D0000F8C0A0207B6A9B0028333B4453F8243C012101FA03F307491340C1F8A0307B6A01337B62CBE700BF2C374C
S32D0000F8E8BD46B0BC704700BFB8CA010000A0044070190020B0B489B000AF224B3C1D1D460FCD0FC495E8030059
S32D0000F91084E803000023FB61FB69052B30DC1C4BD3F8A020FB699B0020333B4453F81C3C012101FA03F313406F
S32D0000F938002B14BF01230023DBB2002B18D0FB690833124A52F823200132104941F823200D4BD3F8A020FB69E5
S32D0000F9609B0020333B4453F81C3C012101FA03F307491340C1F8A030FB690133FB61CBE700BF2437BD46B0BCFB
S32D0000F988704700BFD8CA010000B0044070190020B0B48DB000AF234B3C461D460FCD0FC40FCD0FC495E8070016
S32D0000F9B084E807000023FB62FB6A0A2B30DC1C4BD3F8A020FB6A9B0030333B4453F8303C012101FA03F313409F
S32D0000F9D8002B14BF01230023DBB2002B18D0FB6A0E33124A52F823200132104941F823200D4BD3F8A020FB6A3D
S32D0000FA009B0030333B4453F8303C012101FA03F307491340C1F8A030FB6A0133FB62CBE700BF3437BD46B0BC24
S32D0000FA28704700BFF0CA01000090044070190020B0B487B000AF214B3C461D460FCD0FC42B68236000237B61A3
S32D0000FA507B69042B30DC1C4BD3F8A0207B699B0018333B4453F8183C012101FA03F31340002B14BF01230023E4
S32D0000FA78DBB2002B18D07B691933124A52F823200132104941F823200D4BD3F8A0207B699B0018333B4453F828
S32D0000FAA0183C012101FA03F307491340C1F8A0307B6901337B61CBE700BF1C37BD46B0BC704700BF1CCB010020
S32D0000FAC800D004407019002080B483B000AF78600B46FB707B68FA781A707B6818460C37BD4680BC7047000050
S32D0000FAF080B586B000AF78607B681B781A463E4B53F822303B617B681B781A463B4B9B5CFB733B69DBB203F079
S32D0000FB181F03DAB2384B1A723B69DBB203F01F03DAB2354B5A72354B1022C3F88820FB7B002B13D13049324857
S32D0000FB4000F05AFA304B1B6803F08003802B14BF01230023DBB2002B00D0F3E72A4B1B697B6112E02649294811
S32D0000FB6800F046FA274B1B6803F08003802B14BF01230023DBB2002B00D0F3E7214B1B697B611E4BD3F88831F4
S32D0000FB901C4A43F01003C2F888311A4B9B68194A43F0100393607B699BB2184605F060FB0DA3D3E9002305F0C1
S32D0000FBB8D5FB02460B46104619460BA3D3E9002305F0F6FC02460B461046194605F0BEFE0346BB60BB681846A9
S32D0000FBE01837BD4680BD00BFA4703D0AD7A30A4000000000E0FFEF4034CA010010CA01005019002000E100E058
S32D0000FC0800B0034000B00B4080B586B000AF78607B681B781A46234B53F822303B617B681B781A46204B9B5C39
S32D0000FC30FB733B69DBB203F01F03DAB21D4B1A723B69DBB203F01F03DAB21A4B5A72FB7B002B13D1174918482A
S32D0000FC5800F0CEF9164B1B6803F08003802B14BF01230023DBB2002B00D0F3E7104B1B697B6112E00D490F48EC
S32D0000FC8000F0BAF90D4B1B6803F08003802B14BF01230023DBB2002B00D0F3E7074B1B697B617B6918461837F8
S32D0000FCA8BD4680BD34CA010010CA01006019002000B0034000B00B4098B500AF204B5C221A701F4B10225A70B8
S32D0000FCD01D4B41F234225A801B4B45F278629A80194B10229A71184B0722DA71164B4FF4C022DA60144B1F22D2
S32D0000FCF81A72134B1F225A721149124800F078F90F49114800F074F90F4800F0D2F80D4800F0CFF80A490C4800
S32D0000FD2000F06AF90849094800F066F9094A064B14460FCB84E80F00064B5C221A70054B0422DA7100BF98BDF0
S32D0000FD485019002000B0034000B00B406019002080B500AF064B1B680133054A136000F03DF8044B0122C3F87D
S32D0000FD700C2100BF80BD00BFF41900200070034080B500AF0C4B01221A600C4800F01AF8094B0322C3F8082112
S32D0000FD98094BD3F88831084A43F01003C2F88831054B9B68044A43F01003936000BF80BD00700340A0860100AA
S32D0000FDC000E100E080B483B000AF7860044A7B68C2F8003100BF0C37BD4680BC704700BF0070034080B584B077
S32D0000FDE800AF174B1B68FB60FB68002B24D0FB685B78FB71FB689B68184600F023F80346BB71BB79002B13D054
S32D0000FE10FB685B68012B0FDDFB689B681B69BB60BB68002B08D0BB685B685A1CBB685A60BB681B69BB60F3E786
S32D0000FE38FB68DB68FB60D7E700BF1037BD4680BDF019002080B584B000AF78607868FFF7DBFEF8607B689B6990
S32D0000FE605B78FB72FB7A002B0FD17B68DB68FA689A420ADD7B689B6901225A707B685B685A1C7B685A600123B8
S32D0000FE8813E0FB7A012B0FD17B689B68FA689A420ADA7B689B6900225A707B685B685A1C7B685A60012300E040
S32D0000FEB0002318461037BD4680BD80B485B000AF78607B681B6A23F040027B681A627B685B6A23F00B027B6865
S32D0000FED85A627B685B6A43F007027B685A627B685B6A43F080027B685A627B681B6803F08003002B0CBF0123CB
S32D0000FF000023DBB2002B00D0F3E77B685B6A03F04003402B0CBF01230023DBB2002B01D0012364E00023FB8163
S32D0000FF287B68DB6CFB817B689B6C9AB2FB891344FB817B685B6C9AB2FB891344FB817B681B6C9AB2FB8913449A
S32D0000FF50FB817B68DB6B9AB2FB891344FB817B689B6B9AB2FB891344FB81FB895B08FB81FB896FEA43436FEA90
S32D0000FF785343FB81FA897B68DA620023FB817B68DB6EFB817B689B6E9AB2FB891344FB817B685B6E9AB2FB8955
S32D0000FFA01344FB817B681B6E9AB2FB891344FB817B68DB6D9AB2FB891344FB817B689B6D9AB2FB891344FB81F5
S32D0000FFC8FB895B08FB81FB896FEA43436FEA5343FB81FA897B681A637B685B6A23F080027B685A62002318469A
S32D0000FFF01437BD4680BC704780B483B000AF786039603B681B781A467B689A603B685B781A467B68DA603B6812
S32D000100185B881A467B689A613B689B881A467B68DA613B689B791A467B681A623B68DB791A467B685A623B6845
S32D00010040DA687B681A653B681B7A1A467B681A603B685B7A1A467B685A6000BF0C37BD4680BC704780B483B024
S32D0001006800AF78607B6818460C37BD4680BC704780B582B000AF786039607B68012B07D13B684FF6FF729342CC
S32D0001009002D10348FFF7E6FF00BF0837BD4680BDF819002080B500AF4FF6FF710120FFF7E3FF80BD80B483B0A3
S32D000100B800AF78600B46FB707B68FA781A707B684FF4FA725A807B6840F6C4129A807B68034A9A607B68184617
S32D000100E00C37BD4680BC7047000080BF80B483B000AF786039603B68B3F5FA7F04DB3B6840F6C412934204DDEA
S32D000101087B684FF4FA725A8004E03B689AB27B685A8000BF00BF0C37BD4680BC704780B483B000AF786039608E
S32D000101303B68B3F5FA7F04DB3B6840F6C412934204DD7B6840F6C4129A8004E03B689AB27B689A8000BF00BF41
S32D000101580C37BD4680BC70472DE9904385B000AF786039604FF00001386805F0EBFE0346002B02D04FF00003BB
S32D000101803B603249386805F0FFFE0346002B01D02E4B3B607B689B681946386805F0CCFE0346002B00D04BE03C
S32D000101A87B683A689A607B685C887B689B881A467B685B88D31A184605F066F84FF00002214B05F0F5F9024640
S32D000101D00B4690469946386805F06CF802460B464046494605F0BEF802460B461046194605F090FB03469BB244
S32D000101F82344FB81FB897B73FB891B0A9BB23B737F211248FDF7F3FE05211048FDF7EFFE7B681B7819460D4877
S32D00010220FDF7E9FE3B7B19460A48FDF7E4FE7B7B19460848FDF7DFFEFF210648FDF7DBFE00BF1437BD46BDE834
S32D00010248908300BF000034430080664000B00E4080B582B000AF7860B84B4FF48072DA60B74B4FF480729A6485
S32D00010270B54B4FF480721A64B34B4FF480725A64B14B4FF48072DA60B04B5B69AF4A43F008035361AE4B5B69E9
S32D00010298AD4A43F480235361AB4B5B69AA4A43F480335361A84B5B69A74A43F400335361A54B1B68A44A43F00C
S32D000102C008031360A24B5B69A14A43F0080353619E4B1B689D4A43F0080313609A4B4FF480725A62984B4FF403
S32D000102E880721A62954B4FF480721A61934B4FF480725A61914B4FF480729A618F4B4FF48072DA618D4B4FF4AA
S32D0001031080721A638B4B4FF480725A63894B4FF480729A63874B4FF48072DA63854B4FF480721A64834B4FF4A9
S32D0001033880725A64814B4FF480729A647F4B4FF48072DA64814B4FF480721A607F4B4FF480729A607D4B4FF42B
S32D000103608072DA607B4B4FF480721A61784B5B69774A43F440735361744B5B69734A43F47F2343F0F0035361F3
S32D00010388734B5B69724A43F01D035361E221786800F0C8FD1D21786800F06AFE0221786800F066FE0421786897
S32D000103B000F062FEE021786800F0B8FD0121786800F05AFE6420FFF7D3F9E021786800F0ADFD0321786800F049
S32D000103D84FFE0121786800F0A5FD0120FFF7C4F9E621786800F09EFD0121786800F040FEA021786800F03CFED4
S32D00010400FF21786800F038FEB021786800F08EFD1C21786800F030FE0F21786800F02CFE0121786800F028FEFE
S32D000104283F21786800F024FE0021786800F020FEEF21786800F01CFE0021786800F018FEB421786800F06EFD33
S32D000104500121786800F010FE9921786800F00CFE0021786800F008FE4521786800F004FE0221786800F000FEC9
S32D000104780021786800F0FCFD0021786800F0F8FD0021786800F0F4FDB621786800F04AFD0121786800F0ECFDDA
S32D000104A00921786800F0E8FD0021786800F0E4FD0E21786800F0E0FD0221786800F0DCFD0021786800F0D8FD0E
S32D000104C80021786800F0D4FDBA21786800F02AFD0F21786800F0CCFD6420FFF745F93A21786800F01FFD602128
S32D000104F0786800F0C1FD2A21786800F017FD0021786800F0B9FD0021786800F0B5FD0121786800F0B1FD3F21D6
S32D00010518786800F0ADFD2B21786800F003FD0021786800F0A5FD0021786800F0A1FD0021786800F09DFDEF2161
S32D0001054078680BE000B0044000A0044080F00F4040F00F4000C00440C0F00F4000F08CFD3621786800F0E2FC2A
S32D000105680021786800F084FDF021786800F0DAFC0421786800F07CFDB821786800F0D2FC0F21786800F074FDE5
S32D000105900121786800F070FD314B1B68304A43F0080313606420FFF7E3F83621786800F0BDFC0021786800F08D
S32D000105B85FFDF021786800F0B5FC0421786800F057FD0121786800F0BCF91E226F21786800F082F8AF225621D4
S32D000105E0786800F0DBF80021786800F00AFA012301221C49786800F02BFA2921786800F095FC6420FFF7B4F8E2
S32D00010608BE21786800F08EFC0E21786800F030FDF021786800F02CFD0121786800F028FD0021786800F024FD2B
S32D000106300021786800F020FD0F21786800F01CFD786800F085FA0121786800F0DAF90021786800F0AFF900BF08
S32D000106580837BD4680BD00BF40F00F4030CB010080B582B000AF78607B680022DA617B6801221A627B680E22F7
S32D000106805A607B681A229A607B6800225A617B6800229A617B684FF4A072DA607B68F0221A617B6800221A7047
S32D000106A8786801F03BFA7B6818460837BD4680BD80B582B000AF7860064B1B78002B05D1044B01221A707868AE
S32D000106D0FFF7C2FD00BF0837BD4680BD401A002080B58AB002AFF860B9607A607E23009362237A68B968F86807
S32D000106F800F0CFFE40F24E733B610023FB61FA693B699A4240DA0023BB61214AFB6913441B781A46BB699342BA
S32D0001072032DAFB6901331C4AD35C002B06D1FF23FB75FF23BB75FF237B7512E0FB690133154AD35C012B06D15E
S32D00010748D423FB750023BB7526237B7505E0B523FB75BA23BB75B0237B757B7DBA7DF97DF86800F0C9F8024694
S32D00010770FB68DA61F86801F0D5F9F86801F00EF9BB690133BB61C4E7FB690233FB61BAE700BF2037BD4680BD3A
S32D000107980800002080B58AB002AFF860B9607A602723009395237A68B968F86800F071FE40F2E6333B6100233E
S32D000107C0FB61FA693B699A4240DA0023BB61214AFB6913441B781A46BB69934232DAFB6901331C4AD35C002BFC
S32D000107E806D1FF23FB75FF23BB75FF237B7512E0FB690133154AD35C012B06D10023FB750023BB7500237B7501
S32D0001081005E0D423FB750023BB7526237B757B7DBA7DF97DF86800F06BF80246FB68DA61F86801F077F9F86882
S32D0001083801F0B0F8BB690133BB61C4E7FB690233FB61BAE700BF2037BD4680BD5807002080B485B000AF78607E
S32D000108600B46FB70FB78062B29D801A252F823F0950801008D0801009B080100A3080100AB080100B108010016
S32D00010888B90801006FF07F43FB6014E00023FB6011E04FF47F03FB600DE04FF47F43FB6009E0FF23FB6006E0E7
S32D000108B04FF41903FB6002E0044BFB6000BFFB6818461437BD4680BC704700BF9999990080B584B000AF786098
S32D000108D839603B681B0CFB733B681B0ABB733B687B737B7BBA7BF97B786800F005F8034618461037BD4680BDFF
S32D0001090080B487B000AF7860084611461A460346FB700B46BB7013467B70FB789B08DBB27B61BB789B08DBB27B
S32D000109283B617B789B08DBB2FB607B691A033B699B011A43FB68134318461C37BD4680BC704780B582B000AF72
S32D0001095078600B46FB70FB7819467868FFF77CFF03461946786800F004F800BF0837BD4680BD80B582B000AFF9
S32D000109787860396039687868FFF7A6FF02467B681A62786801F0CAF8786800F02BFC00BF0837BD4680BD80B51F
S32D000109A082B000AF7860786800F020FC00BF0837BD4680BD80B582B000AF78600B46FB70FB7819467868FFF7F3
S32D000109C847FF03461946786800F004F800BF0837BD4680BD80B582B000AF7860396039687868FFF771FF024652
S32D000109F07B681A62786801F095F800BF0837BD4680BD80B582B000AF78600B46FB70FB7819467868FFF720FF6C
S32D00010A1803461946786800F004F800BF0837BD4680BD80B582B000AF7860396039687868FFF74AFF02467B688B
S32D00010A40DA61786801F06EF800BF0837BD4680BD80B586B000AFF860B9607A603B6000237B617B69BA6813447B
S32D00010A681B78002B0FD07B69BA6813441B783A687968F86800F04CFE7B680C337B607B6901337B61E9E700BF35
S32D00010A901837BD4680BD000080B594B000AFF860B9607A603B60B86805F08EFA0346BB64B86C05F059F80346E2
S32D00010AB81946B86804F09EFF03461F49184605F0A3F80346184605F07BFA0346FB644FF00001B86805F036FA22
S32D00010AE00346002B02D0FB6C5B42FB644FF00001B86805F02BFA0346002B0ED01149B86805F042FA0346002B53
S32D00010B0807D007F11400FB6CBA6C0D4906F00CFB06E007F11400FB6CBA6C0A4906F004FB07F114013B687A68A2
S32D00010B30F868FFF78DFF00BF5037BD4680BD00BF00007A44000080BF40CB01004CCB010080B582B000AF786060
S32D00010B58FDF72AF967210120FDF795F800210220FDF791F8A0210320FDF78DF850210420FDF789F820210520A0
S32D00010B80FDF785F820210620FDF781F877210720FDF77DF800210820FDF779F800210920FDF775F800210A2035
S32D00010BA8FDF771F804210B20FDF76DF87B684FF0FF32DA637B684FF0FF321A6400BF0837BD4680BD0000000079
S32D00010BD080B586B000AFF860B9607A600020FDF778F80346FB75FB7D03F00203002B00F0CE80FDF78BF8E02004
S32D00010BF8FDF73CF80220FEF7B7FDFDF791F80120FEF7B2FDFDF77EF8A520FDF72FF80120FEF7AAFDFDF751F855
S32D00010C2003469BB21B02BB82FDF74BF803469AB2BB8A1343BB82FDF744F803469BB21B027B82FDF73EF80346BE
S32D00010C489AB27B8A13437B82BB8A1B09BB827B8A1B097B82FDF764F8FB68DB6BB3F1FF3F34D1FB681B6CB3F19F
S32D00010C70FF3F2FD1BA8AFB68DA637A8AFB681A647B8AC3F57F630F337B82BB8A184604F0FFFA49A3D3E9002315
S32D00010C9804F064FB02460B461046194604F056FE0246BB681A607B8A184604F0EDFA42A3D3E9002304F052FB1C
S32D00010CC002460B461046194604F044FE02467B681A605AE0FB68DA6BBB8AD31A1946F86800F074F80346632BD6
S32D00010CE80CDCFB681A6C7B8AD31A1946F86800F069F80346632B01DC012300E00023002B2FD0BA8AFB68DA6321
S32D00010D107A8AFB681A647B8AC3F57F630F337B82BB8A184604F0B4FA23A3D3E9002304F019FB02460B46104610
S32D00010D38194604F00BFE0246BB681A607B8A184604F0A2FA1CA3D3E9002304F007FB02460B461046194604F082
S32D00010D60F9FD02467B681A600FE0BB68164A1A607B68154A1A60FB684FF0FF32DA63FB684FF0FF321A6400239D
S32D00010D8810E001230EE0BB680D4A1A607B680C4A1A60FB684FF0FF32DA63FB684FF0FF321A6400231846183762
S32D00010DB0BD4680BDAFF30080144001144001B43F1EE0011EE001AE3F000080BF80B483B000AF786039603B68C1
S32D00010DD8002B02DA3B685B423B603B6818460C37BD4680BC704780B586B000AFF860B9607A603B607A68134695
S32D00010E001B0113447B613A6813465B0013449B003B617B693A69B968F868FFF719FE00BF1837BD4680BD80B5F8
S32D00010E2886B000AFF860B9607A603B607A6813461B0113447B613A6813465B0013449B003B617B693A69B968BA
S32D00010E50F868FFF721FE00BF1837BD4680BD80B584B000AF786039600023FB60786800F080FAFB683A68134403
S32D00010E781B78002B12D07B6859697B689869FB683A6813441B780246786800F027FC786800F07FFAFB68013318
S32D00010EA0FB60E6E700BF1037BD4680BD80B582B000AF78600B46FB70786800F05AFA7B6859697B689A69FB78E9
S32D00010EC8786800F00BFC786800F063FA00BF0837BD4680BD80B582B000AF78603960786800F043FA39687868A4
S32D00010EF0FFF7B5FF786800F027FA00BF0837BD4680BD80B582B000AF78600B46FB70786800F02FFAFB78194685
S32D00010F187868FFF7C7FF786800F012FA00BF0837BD4680BD80B483B000AF78600B46FB704D4B1B684C4A23F086
S32D00010F40080313604B4B1B684A4A23F480231360484B1B68474A43F480331360454B1B68444A23F44073136048
S32D00010F68414B1B68404A23F4435323F0300313603E4B1A68FB785B0203F400733B4913430B603A4B1A68FB7857
S32D00010F905B101B0203F48073364913430B60344B1A68FB789B101B0103F01003304913430B602F4B1A68FB7896
S32D00010FB8DB105B0103F020032B4913430B602A4B1A68FB781B119B0103F04003264913430B60254B1A68FB787B
S32D00010FE05B11DB01DBB2224913430B60204B1A68FB789B111B0303F480531D4913430B601B4B1A6897F903301B
S32D00011008DB115BB25B0303F40053174913430B60164B1B68154A23F400331360134B1B68124A43F400331360DD
S32D000110300F4B1B680E4A43F0080313600D4B1B680C4A43F440731360094B1B68084A43F4435343F0300313604E
S32D00011058064B1B68054A43F48023136000BF0C37BD4680BC704700BF80F00F4040F00F4080B483B000AF786016
S32D000110800B46FB70464B1B68454A23F008031360444B1B68434A43F480331360414B1B68404A43F4802313606F
S32D000110A83E4B1B683D4A23F4407313603A4B1B68394A23F4435323F030031360374B1A68FB785B0203F400731A
S32D000110D0344913430B60334B1A68FB785B101B0203F480732F4913430B602D4B1A68FB789B101B0103F010035B
S32D000110F8294913430B60284B1A68FB78DB105B0103F02003244913430B60234B1A68FB781B119B0103F0400342
S32D000111201F4913430B601E4B1A68FB785B11DB01DBB21B4913430B60194B1A68FB789B111B0303F480531649D3
S32D0001114813430B60144B1A6897F90330DB115BB25B0303F40053104913430B600F4B1B680E4A23F40033136066
S32D000111700C4B1B680B4A43F400331360084B1B68074A43F008031360064B1B68054A23F48023136000BF0C371A
S32D00011198BD4680BC704700BF80F00F4040F00F4080B586B000AF786000237B6107F10C0207F1100319467868F4
S32D000111C0FFF706FD0346002B05D07B69B3F57A7F01DA012300E00023002B03D07B6901337B61E7E700BF183769
S32D000111E8BD4680BD80B586B000AF78607B6800225A617B6800229A617B681B6AFB60FB68FB72FB681B0ABB729E
S32D00011210FB681B0CDBB203F003037B722A217868FFF784FE00217868FFF726FF00217868FFF722FF01217868D9
S32D00011238FFF71EFF3F217868FFF71AFF2B217868FFF770FE00217868FFF712FF00217868FFF70EFF0021786888
S32D00011260FFF70AFFEF217868FFF706FF2C217868FFF75CFE314B1B68304A23F4407313602F4B1B682E4A23F4B6
S32D000112887F2323F0F00313602C4B1B682B4A23F01D031360274B1A687B681B6B254913430B60254B1A687B68A6
S32D000112B05B6B234913430B60224B1A687B689B6B204913430B601E4B1B681D4A23F0080313601A4B1B68194AEB
S32D000112D843F48023136000237B617B69EF2B19D800233B613B69B3F5A07F0FD2114B1B68104A23F400331360AB
S32D000113000E4B1B680D4A43F4003313603B6901333B61EBE77B6901337B61E2E7084B1B68074A43F008031360D3
S32D00011328044B1B68034A23F48023136000BF1837BD4680BD40F00F4080F00F40C0F00F4080B483B000AF7860D1
S32D000113507B689B69002B07DD7B685B695A1C7B685A617B6800229A6100BF0C37BD4680BC704780B582B000AFAF
S32D0001137878607B685A697B685B689A4205DB7B6800225A617868FFF72DFF00BF0837BD4680BD80B582B000AF50
S32D000113A078607B689B695A1C7B689A617B689A697B689B689A4205D17868FFF7C5FF7868FFF7D7FF00BF083749
S32D000113C8BD4680BD80B586B002AFF860B9607A600123009301237A68B968F86800F059F8F86800F0D7FA00BFF0
S32D000113F01037BD4680BD80B485B000AF786039607B681B68FB603B681A687B681A603B68FA681A6000BF1437F2
S32D00011418BD4680BC704780B586B002AFF860B9607A603B60BA683B681A447B68009313467A68B968F86800F068
S32D00011440ABF8BA683B68D118BA683B68D0187A68BB691344009303467A68F86800F09CF8BA683B68D1187A68F0
S32D00011468BB69D0187A68BB6913440093BB680246F86800F08DF87A68BB691A447B680093BB68B968F86800F0AB
S32D0001149083F800BF1037BD4680BD80B588B000AFF860B9607A603B60FB681B78022B03D0FB681B78032B11D16E
S32D000114B87B68FB61BA6AFB691344013BBB61FB68DA68BB68D31A3B613B683A69D31A01337B610DE0BB68FB618F
S32D000114E03A68FB691344013BBB617B687B61BA6A7B691344013B3B612A21F868FFF716FDFB691B0ADBB203F075
S32D000115080F03DBB21946F868FFF7B2FDFB69DBB21946F868FFF7ACFDBB691B0ADBB203F00F03DBB21946F8683B
S32D00011530FFF7A2FDBB69DBB21946F868FFF79CFD2B21F868FFF7F2FC7B691B0ADBB203F00F03DBB21946F86881
S32D00011558FFF78EFD7B69DBB21946F868FFF788FD3B691B0ADBB203F00F03DBB21946F868FFF77EFD3B69DBB2EF
S32D000115801946F868FFF778FD2C21F868FFF7CEFC00BF2037BD4680BD90B58BB000AFF860B9607A603B603A6898
S32D000115A8BB68D31A1946F868FFF70CFCF861BA6B7B68D31A1946F868FFF704FCB861BA69FB699A42CCBF012319
S32D000115D00023FB75FB7D002B0CD03A1D07F1080311461846FFF707FF3B4607F138011846FFF701FFBA683B6804
S32D000115F89A420CDD3A4607F1080311461846FFF7F6FE3B1D07F138011846FFF7F0FE3A68BB689A4206D1BB6877
S32D000116207A681946F868FFF7D1FE55E0BA6B7B68D31A184604F098FA04463A68BB68D31A184604F091FA034605
S32D000116481946204604F094FB03463B617B68184604F086FA03467B62BB683B623B683A6A9A4235DCFB7D002BD4
S32D0001167014D0786A03F01EFE4FF00002184B03F0BBFC02460B461046194604F01BF903463A6A1946F868FFF730
S32D0001169899FE13E0786A03F009FE4FF000020E4B03F0A6FC02460B461046194604F006F903461A46396AF868A1
S32D000116C0FFF784FE3969786A04F09AF903467B623B6A01333B62C5E72C37BD4690BD00BF0000E03F80B584B036
S32D000116E800AFF860B9607A60FB707A6813465B0013449B00991CBA6813461B011344DA1CFB78F86800F004F88E
S32D0001171000BF1037BD4680BD80B58EB002AFF860B9607A60FB70FB780A2B06D1F868FFF720FEF868FFF708FE3B
S32D00011738F2E0FB787D2B02D8FB781F2B01D82023FB70FB78203BFB70112300930C237A68B968F868FFF79DFE54
S32D00011760FA7813469B0013446F4AD35C3B75FA7813469B00134401336B4AD35C7B75FA7813469B00134402334E
S32D00011788674AD35CBB75FA7813469B0013440333634AD35CFB75FA7813469B00134404335F4AD35C3B76002343
S32D000117B0BB62BB6A062B00F3A180F86800F050F9F86800F0B3F8002387F82F3000237B627B6A042B35DC07F1D1
S32D000117D814027B6A13441B7803F00103002B14BF01230023FB76FB7E002B11D097F82F3083F00103DBB2002BAE
S32D0001180003D0F86800F0CAF802E0F86800F08EF8F86800F08BF80DE097F82F30002B03D0F86800F01DF902E028
S32D00011828F86800F07FF8F86800F07CF8FB7E87F82F307B6A01337B62C6E797F82F30002B03D0F86800F008F9CF
S32D0001185002E0F86800F06AF8F86800F067F8002387F82F3000233B623B6A042B42DC07F114023B6A13441B78D6
S32D0001187803F00103002B14BF01230023BB76BB7E002B11D097F82F3083F00103DBB2002B03D0F86800F07EF8D9
S32D000118A002E0F86800F042F8F86800F03FF80DE097F82F30002B03D0F86800F0D1F802E0F86800F033F8F86877
S32D000118C800F030F8BB7E87F82F3007F114023B6A13441B785B08D9B207F114023B6A13440A461A703B6A01337A
S32D000118F03B62B9E7BB6A0133BB625AE7F86800F0AFF8002387F82F300123FB61FB69232B06DCF86800F00AF877
S32D00011918FB690133FB61F5E73037BD4680BD00BF400B002080B483B000AF7860174B1B68164A43F4803313606F
S32D00011940154B1B68144A23F008031360114B1B68104A43F4802313600E4B1B680D4A23F4003313600B4B1B6857
S32D000119680A4A43F400331360094B1B68084A43F008031360054B1B68044A23F48023136000BF0C37BD4680BCB6
S32D00011990704700BF40F00F4080F00F4080B483B000AF78602B4B1B682A4A43F480331360294B1B68284A23F040
S32D000119B808031360254B1B68244A43F480231360224B1B68214A23F440731360204B1B681F4A23F47F2323F019
S32D000119E0F00313601D4B1B681C4A23F01D031360184B1A687B685B6A164913430B60164B1A687B689B6A1449A6
S32D00011A0813430B60134B1A687B68DB6A114913430B600E4B1B680D4A23F4003313600B4B1B680A4A43F4003344
S32D00011A301360094B1B68084A43F008031360054B1B68044A23F48023136000BF0C37BD4680BC704740F00F4075
S32D00011A5880F00F40C0F00F4080B483B000AF78602B4B1B682A4A43F480331360294B1B68284A23F008031360EF
S32D00011A80254B1B68244A43F480231360224B1B68214A23F440731360204B1B681F4A23F47F2323F0F003136068
S32D00011AA81D4B1B681C4A23F01D031360184B1A687B681B6B164913430B60164B1A687B685B6B144913430B6000
S32D00011AD0134B1A687B689B6B114913430B600E4B1B680D4A23F4003313600B4B1B680A4A43F400331360094BB5
S32D00011AF81B68084A43F008031360054B1B68044A23F48023136000BF0C37BD4680BC704740F00F4080F00F40B5
S32D00011B20C0F00F4080B485B000AF78607B681B6AFB60FB68FB72FB681B0ABB72FB681B0CDBB203F003037B7262
S32D00011B487B6800225A627B6800229A627B680022DA627B6800221A637B6800225A637B6800229A637B681A6BBD
S32D00011B70FB7A5B0203F400731A437B681A637B681A6BFB7A5B101B0203F480731A437B681A637B685A6BFB7A24
S32D00011B989B101B0103F010031A437B685A637B685A6BFB7ADB105B0103F020031A437B685A637B685A6BFB7AC0
S32D00011BC01B119B0103F040031A437B685A637B685A6BFB7A5B11DB01DBB21A437B685A637B685A6BFB7A9B1143
S32D00011BE81B0303F480531A437B685A637B685A6B97F90B30DB115BB25B0303F400531A437B685A637B685A6B30
S32D00011C10BB7A9B0303F480431A437B685A637B685A6BBB7A5B10DB039BB21A437B685A637B685A6BBB7A9B1023
S32D00011C381B0403F480331A437B685A637B685A6BBB7ADB105B0403F400331A437B685A637B685A6BBB7A1B1160
S32D00011C609B0403F480231A437B685A637B685A6BBB7A5B11DB0403F400231A437B685A637B689A6BBB7A9B1117
S32D00011C8803F001031A437B689A637B689A6B97F90A30DB115BB29B0003F004031A437B689A637B689A6B7B7A9F
S32D00011CB0DB0003F008031A437B689A637B689A6B7B7A5B101B0103F010031A437B689A637B68DB69FB60FB6863
S32D00011CD8FB72FB681B0ABB72FB681B0CDBB203F003037B727B685A6AFB7A5B0203F400731A437B685A627B68FC
S32D00011D005A6AFB7A5B101B0203F480731A437B685A627B689A6AFB7A9B101B0103F010031A437B689A627B68C5
S32D00011D289A6AFB7ADB105B0103F020031A437B689A627B689A6AFB7A1B119B0103F040031A437B689A627B6801
S32D00011D509A6AFB7A5B11DB01DBB21A437B689A627B689A6AFB7A9B111B0303F480531A437B689A627B689A6AC7
S32D00011D7897F90B30DB115BB25B0303F400531A437B689A627B689A6ABB7A9B0303F480431A437B689A627B6801
S32D00011DA09A6ABB7A5B10DB039BB21A437B689A627B689A6ABB7A9B101B0403F480331A437B689A627B689A6A56
S32D00011DC8BB7ADB105B0403F400331A437B689A627B689A6ABB7A1B119B0403F480231A437B689A627B689A6A63
S32D00011DF0BB7A5B11DB0403F400231A437B689A627B68DA6ABB7A9B1103F001031A437B68DA627B68DA6A97F9BC
S32D00011E180A30DB115BB29B0003F004031A437B68DA627B68DA6A7B7ADB0003F008031A437B68DA627B68DA6ABF
S32D00011E407B7A5B101B0103F010031A437B68DA6200BF1437BD4680BC704780B483B000AF78607B6818460C3703
S32D00011E68BD4680BC704780B584B000AFF860B9607A603B60FB682033B968184605F074F9FB687A681A60FB689E
S32D00011E903A689A60FB68BA691A61FB68FA695A61FB681A68FB681B691A44FB685A60FB689A68FB685B691A44D4
S32D00011EB8FB68DA60FB683A6A9A61FB687A6ADA61FB680022C3F8E82000BF1037BD4680BDF0B585B002AF7860E9
S32D00011EE07B689B6919461F48FEF79FFD7B6819687B689A687B6818697B685B69009303461848FFF78CFA7B68A6
S32D00011F08DB6919461548FEF78CFD7B6803F120047B681B681D467B681B691E467B682033184605F089F902464A
S32D00011F3013465B0013449B00F31A5B082B4418467B689A687B685B69113BD90F0B445B101344024621460348D4
S32D00011F58FEF77AFD00BF0C37BD46F0BDFC19002080B584B002AF78607B689B6919461F48FEF757FD7B681B68B9
S32D00011F80591C7B689B685A1C7B681B69981E7B685B69023B009303461648FFF740FA7B681B68991C7B689B68F5
S32D00011FA89A1C7B681B69181F7B685B69043B009303460E48FFF72FFA7B681B68D91C7B689B68DA1C7B681B69E1
S32D00011FD0981F7B685B69063B009303460548FFF71EFA7B680122C3F8E82000BF0837BD4680BD00BFFC19002011
S32D00011FF880B584B002AF786000211F48FEF711FD7B681B68D91C7B689B68DA1C7B681B69981F7B685B69063B00
S32D00012020009303461648FFF7FAF97B681B68991C7B689B689A1C7B681B69181F7B685B69043B009303460E4801
S32D00012048FFF7E9F97B681B68591C7B689B685A1C7B681B69981E7B685B69023B009303460548FFF7D8F97B6886
S32D000120700022C3F8E82000BF0837BD4680BD00BFFC19002080B584B000AFF860B9607A603B60FB681B681846E8
S32D0001209803F066FD0246BB681946104603F05CFF0346002B00F08180FB685B68184603F057FD0246BB6819465B
S32D000120C0104603F057FF0346002B72D0FB689B68184603F049FD02467B681946104603F03FFF0346002B64D0E6
S32D000120E8FB68DB68184603F03BFD02467B681946104603F03BFF0346002B56D03A1D07F1080319462B48FEF7D2
S32D000121105FFDFB681B68184603F026FD0246BB681946104603F01CFF0346002B3FD0FB685B68184603F018FDAD
S32D000121380246BB681946104603F018FF0346002B31D0FB689B68184603F00AFD02467B681946104603F000FF49
S32D000121600346002B23D0FB68DB68184603F0FCFC02467B681946104603F0FCFE0346002B15D03B68002B10D125
S32D00012188FB68D3F8E830002B03D1F868FFF7E8FE07E0FB68D3F8E830002B02D0F868FFF727FF012302E00023D8
S32D000121B000E0002318461037BD4680BDFC19002080B586B000AFF860B9607A60BB687B617B683B6179693A697B
S32D000121D80123F868FFF752FF0346002B14BF01230023DBB2002B08D007F1100207F1140319460448FEF7E8FC52
S32D00012200E8E700BF1837BD4680BD00BFFC190020B0B592B004AFF860B9607A603B60FB6C7B633B683B63F86C74
S32D0001222803F032F802460B464FF000004E4902F0DDFE02460B4614461D46386D03F024F802460B4620462946B6
S32D0001225002F0D0FE02460B461046194603F07AFB03463B62386803F013F802460B464FF00000404902F0BEFE56
S32D0001227802460B4614461D46B86C03F005F802460B462046294602F0B1FE02460B461046194603F05BFB0346DE
S32D000122A0FB61786803F060FC03461946386A03F063FD0346184603F087FE0346BB61B86803F052FC034619465A
S32D000122C8F86903F055FD0346184603F079FE03467B6100237B620123BB62BA6ABB689A423DDC0123FB62FA6AA9
S32D000122F07B689A422DDC7B6AEC2202FB03F3FA68D0187A6A13469B0013449B001A467B6D9918FB6D0393BB6DDE
S32D0001231802937B690193BB6900933B6B7A6BFFF7A2FD7B6AEC2202FB03F3FA6813441846FFF7CEFD7B6A0133DB
S32D000123407B627A6BBB6913447B63FB6A0133FB62CDE73A6B7B6913443B63FB6C7B63BB6A0133BB62BDE700BF0D
S32D000123683837BD46B0BD00BF0000744000006E4080B582B000AF786039607B68012B07D13B684FF6FF729342AA
S32D0001239002D10348FEF768F900BF0837BD4680BDFC19002080B500AF4FF6FF710120FFF7E3FF80BD80B582B001
S32D000123B800AF7860164B03F580535B6B144A43F0400302F580525363124B4FF400725A62104B4FF400721A62D0
S32D000123E00F4B14225A700E4B1B7ADBB20C4A43F00103DBB213720A4B80229A7002212B20FBF7CEFB3D212A2088
S32D00012408FBF7CAFB7B6818460837BD4680BD00BF0070044000C004400060064080B582B000AF786039607B68A7
S32D00012430012B07D13B684FF6FF72934202D10348FFF7B8FF00BF0837BD4680BD441A002080B500AF4FF6FF712B
S32D000124580120FFF7E3FF80BD80B582B000AF78607B681846FDF740FB03460F49184603F0CBFB0346184602F070
S32D0001248019FF09A3D3E9002303F096F802460B461046194603F05EFA034618460837BD4680BD00BFAFF3008069
S32D000124A80000000000A0694000404A4480B582B000AF78600B46FB707B68FA7811461846FDF702FB7B68184608
S32D000124D00837BD4680BD000080B582B000AF786039607B68012B08D13B684FF6FF72934203D120210348FFF76B
S32D000124F8DDFF00BF0837BD4680BD00BF481A002080B500AF4FF6FF710120FFF7E1FF80BD80B483B000AF78609F
S32D000125207B6800221A707B6818460C37BD4680BC7047000080B582B000AF78607B681B7883F00103DBB2002BF0
S32D0001254852D07B6801221A702A4B03F580535B6B284A43F4806302F580525363264B4FF400725A60244B4FF40F
S32D0001257000729A60234B1B684FF4165219462248FBF766FC204BDB78DBB21F4A23F00C03DBB2D3701C4BDB78B7
S32D00012598DBB21B4A43F02003DBB2D370184BDB7ADBB2174A23F02003DBB2D372154BD3F88431144A43F4005386
S32D000125C0C2F88431114B5B68104A43F4005353600D4BDB78DBB20C4A43F00C03DBB2D3706420FDF7C5F87B680F
S32D000125E801221A70012300E0002318460837BD4680BD00BF00700440009004404419002000A0064000E100E0A8
S32D0001261080B483B000AF78607B681B7818460C37BD4680BC7047000080B487B000AFF860B9607A60FB700023AD
S32D00012638FB7400237B617A697B689A422BD2194B1B78002B00D1FAE7BA687B691344164A12781A70134B002241
S32D000126601A70BA687B6913441B780D2B16D0FB7C83F00103DBB2002B0CD0BA687B6913441B78FA789A4202D120
S32D000126880123FB7402E07B69013B7B617B6901337B61D0E700BF7B6918461C37BD4680BC704700BF621A002062
S32D000126B0631A002080B586B000AFF860B9607A6000237B617A697B689A420BD2BA687B6913441B7819460648DE
S32D000126D8FBF78DFC7B6901337B61EFE77B6918461837BD4680BD00BF00A0064080B483B000AF78603960044A43
S32D000127003B68136000BF0C37BD4680BC704700BF4C1A002080B582B000AF3248FBF752FC0346FB71304AFB79E4
S32D000127281370304B01221A702F4B1B78022B33D0022B4FDC002B02D0012B14D04AE0FB79FF2B44D1284B0122C2
S32D000127501A70284B00221A70264B1B785A1CD1B2244A11701946244AFB79535433E0214B1B785A1CD1B21F4A69
S32D00012778117019461E4AFB7953541C4B1B780D2B27D11C4B1B68194A1278114618489847154B02221A701CE02E
S32D000127A0FB79FF2B10D1124B01221A70114B00221A70104B1B785A1CD1B20E4A117019460D4AFB79535409E0FF
S32D000127C80A4B00221A70084B00221A7002E000BF00E000BF00BF0837BD4680BD00A00640631A0020621A002045
S32D000127F0611A0020601A0020501A00204C1A002080B582B000AF78607B681846FFF784FE7B6811491846FFF73D
S32D000128186DFF7B684FF0FF325A600E4B4FF000021A600D4B4FF000021A600C4B4FF000021A600B4B00221A60ED
S32D000128400A4B00221A700A4B00221A707B6818460837BD4680BD00BF05340100701A0020741A0020781A0020A4
S32D000128687C1A0020801A0020811A002080B594B000AF786039607B681846FFF7C5FE034683F00103DBB2002B0B
S32D0001289003D07B681846FFF74DFEAC4B1B7883F00103DBB2002B00F00A837B681846FFF741FEA64B1B7883F021
S32D000128B80103DBB2002B00F0FE823B68002B02DA00233B6004E03B680B2B01DD0B233B607B683A685A609C48D6
S32D000128E0FEF75DF800233B620023FB64002387F84B3097F84B30002B66D196499448FEF7AEFA2B233B752B2310
S32D000129087B752B23BB757B6807F1140103221846FFF7CCFE3862786807F108014F230A22FFF77EFEF864FB6CB1
S32D00012930012B02D93B7A4F2B42D087498448FEF7CDFA86498248FEF7C9FA40F6C410FCF70FFF786807F108019B
