S01100002E2E2F50726F746575732E73313966
S32D0000C000000000205DC2000011C3000017C300001DC3000023C3000029C3000000000000000000000000000073
S32D0000C028000000002FC3000035C30000000000003BC3000041C30000E1E20000EDE20000F9E2000005E30000A9
S32D0000C05011E300001DE3000029E3000035E3000041E300004DE3000059E3000065E3000071E300007DE300001E
S32D0000C07889E3000095E30000A1E30000ADE30000B9E30000C5E30000D1E30000DDE30000E9E30000F5E3000046
S32D0000C0A001E400000DE4000019E4000025E4000031E400003DE4000049E4000055E4000061E400006DE4000064
S32D0000C0C879E4000085E4000091E400009DE40000A9E40000B5E40000C1E40000CDE40000D9E40000E5E400008C
S32D0000C0F0F1E40000C5590100FDE4000009E5000015E5000021E500002DE5000039E5000045E5000051E50000CF
S32D0000C1185DE5000069E5000075E5000081E500008DE5000099E50000A5E50000B1E50000BDE50000C9E5000049
S32D0000C140D5E50000E1E50000EDE50000F9E50000D92F010005E6000011E600001DE6000029E6000035E6000089
S32D0000C16841E600004DE6000059E6000065E6000071E600007DE6000089E6000095E60000A1E60000ADE6000007
S32D0000C190B9E60000C5E60000D1E60000152C0100DD2A0100792B010065E00000B52C0100DDE60000E9E60000D8
S32D0000C1B8F5E60000F0A8020000000020D8160000F0A802000000FF1F00000000D8160020040700000000FF1FE7
S32D0000C1E00000000080B489B000AFF860B9607A60BB68FB61FB68BB6100237B617A697B689A420BD2BA69131DFB
S32D0000C208BB61FB69191DF96112681A607B6904337B61EFE700BF2437BD4680BC704780B485B000AF786039609E
S32D0000C2307B68FB600023BB60BA683B689A4208D2FB681A1DFA6000221A60BB680433BB60F2E700BF1437BD46FE
S32D0000C25880BC704780B586B000AF72B6234B4CF220521A80214B4DF628121A80204B4FF4E9721A801F4B7B615F
S32D0000C2807B691F4A934214D27B691A1D7A611B683B617B691A1D7A611B68FB607B691A1D7A611B68BB60BA68E9
S32D0000C2A8F9683869FFF79AFFE6E77B69134A93420ED27B691A1D7A611B68FB607B691A1D7A611B68BB60B9688B
S32D0000C2D0F868FFF7A8FFECE70B4B7B600B4A7B681A6015F035FC62B601F084FF01F00AFEFEE700BF0E200540BB
S32D0000C2F800200540BCC10000D4C10000E4C1000008ED00E000C0000080B400AFFEE780B400AFFEE780B400AFF4
S32D0000C320FEE780B400AFFEE780B400AFFEE780B400AFFEE780B400AFFEE780B400AFFEE780B400AFFEE780B426
S32D0000C34800AFFEE7FFFFFFFFFFFFFFFFFFFFFFFFFFFFFFFFFFFFFFFFFFFFFFFFFFFFFFFFFFFFFFFFFFFFFFFF57
S32D0000C370FFFFFFFFFFFFFFFFFFFFFFFFFFFFFFFFFFFFFFFFFFFFFFFFFFFFFFFFFFFFFFFFFFFFFFFFFFFFFFFFC7
S32D0000C398FFFFFFFFFFFFFFFFFFFFFFFFFFFFFFFFFFFFFFFFFFFFFFFFFFFFFFFFFFFFFFFFFFFFFFFFFFFFFFFF9F
S32D0000C3C0FFFFFFFFFFFFFFFFFFFFFFFFFFFFFFFFFFFFFFFFFFFFFFFFFFFFFFFFFFFFFFFFFFFFFFFFFFFFFFFF77
S32D0000C3E8FFFFFFFFFFFFFFFFFFFFFFFFFFFFFFFFFFFFFFFFFFFFFFFFFFFFFFFFFFFFFFFFFFFFFFFFFEFFFFFF50
S32D0000C44010B5054C237833B9044B13B10448AFF300800123237010BDD81600200000000060A7020008B5034B0A
S32D0000C4681BB103490348AFF3008008BD00000000DC16002060A7020080B582B000AF7860786811F013FD034619
S32D0000C49018460837BD4680BD80B582B000AF7860786811F04FFE034618460837BD4680BD80B500AF044A0549DF
S32D0000C4B805480AF0F3F90346044A136000BF80BD5483020058830200C01A0020F416002080B500AF034B1B688E
S32D0000C4E0194603480AF0AAFA00BF80BDF4160020C01A002080B500AF154807F090FB002300221449124807F010
S32D0000C508B2FD0023012212490F4807F0ACFD0023022210490C4807F0A6FD002303220E49094807F0A0FD002389
S32D0000C53004220C49064807F09AFD0B4809F0E8F801460D230322024807F0ADFD00BF80BD381A0020648302007C
S32D0000C558748302008483020094830200A4830200841A002080B582B000AF786039600D237A680B490B4807F07C
S32D0000C58076FD0D237A683968084807F08CFD084809F0BEF801460D230322044807F083FD00BF0837BD4680BDFB
S32D0000C5A8B0830200381A0020841A002080B582B000AF7860194B1B680D2B25DC174B1A6800231749174807F035
S32D0000C5D04EFD144B1A6800237968144807F047FD134B1B68002B0DD0114B1B687A68194610480AF0B3FA0E4B15
S32D0000C5F81B680F4A19460D480AF0ACFA074B1B680133064A136005E0044B05221A607868FFF7CCFF00BF0837A5
S32D0000C620BD4680BD00000020C0830200381A0020F4160020C01A0020DC83020080B582B000AF78604FF4FA71B4
S32D0000C648104806F08FFE40F6FC010E4806F0A7FE0D490C4806F0C0FE7B6801221A704FF4FA710A4806F07EFE65
S32D0000C67040F6FC01074806F096FE0749054806F0AFFE7B6818460837BD4680BD101700200000B4421C17002000
S32D0000C6980000C84280B582B000AF786039603968034806F099FE00BF0837BD4680BD00BF1C17002080B582B0B3
S32D0000C6C000AF78607B681B78002B08D04FF00001084806F085FE7B6800221A7006E00649044806F07DFE7B68DF
S32D0000C6E801221A7000BF0837BD4680BD101700200000B442B0B584B000AFF860B9607A60786813F0D9FD044666
S32D0000C710786813F0D5FD0546786813F0D1FD03462A462146F86800F0EBF8B86806F074F9F86800F0D3F800BF9A
S32D0000C7381037BD46B0BD80B584B000AFF860B9607A603B603A68B968F86800F00DF8786806F05EF9F86800F089
S32D0000C760BDF800BF1037BD4680BD000000000000B0B588B000AFF860B9607A60786813F033F904460D46B8684D
S32D0000C78813F040F94AA3D3E9002313F093F902460B46104619464FF000024D4B13F0B4FA02460B4644A1D1E9DC
S32D0000C7B0000112F0CBFF02460B461046194611F029FB02460B462046294613F077F902460B461046194613F0E9
S32D0000C7D869FC0346FB61786813F002F904460D46B86813F00FF932A3D3E9002313F062F902460B461046194623
S32D0000C8004FF00002344B13F083FA02460B462EA1D1E9000112F09AFF02460B461046194611F0F8FA02460B4632
S32D0000C8282046294613F046F902460B461046194613F038FC0346BB61786813F0D1F804460D46B86813F0DEF89F
S32D0000C85019A3D3E9002313F031F902460B46104619464FF000021C4B13F052FA02460B4617A1D1E9000112F09F
S32D0000C87869FF02460B461046194611F0C7FA02460B462046294613F015F902460B461046194613F007FC0346FE
S32D0000C8A07B617B69BA69F969F86800F029F800BF2037BD46B0BD00BF7A008BFCFA2109405C40683D7CD9124022
S32D0000C8C866801E7DA6F104405100B2FD51C1E03F0080664080B582B000AF78604FF000034FF000024FF00001DE
S32D0000C8F0786800F005F800BF0837BD4680BD000080B584B000AFF860B9607A603B604FF00001B86813F0C6FEEA
S32D0000C9180346002B08D0B968454801F055FFB9680220FFF71FFE25E0B86813F06BF83CA3D3E9002313F0BEF85A
S32D0000C94002460B461046194613F0B0FB03461946394801F03DFFB86813F058F832A3D3E9002313F0ABF8024662
S32D0000C9680B461046194613F09DFB034619460220FFF7F8FD4FF00001786813F08FFE0346002B08D079682B48FB
S32D0000C99001F01EFF79680020FFF7E8FD07E07968264801F015FF79680020FFF7DFFD4FF00001386813F076FE2A
S32D0000C9B80346002B08D039681F4801F005FF39680120FFF7CFFD25E0386813F01BF816A3D3E9002313F06EF8C8
S32D0000C9E002460B461046194613F060FB03461946134801F0EDFE386813F008F80CA3D3E9002313F05BF80246CF
S32D0000CA080B461046194613F04DFB034619460120FFF7A8FD00BF1037BD4680BDAFF30080C3F5285C8FC2ED3F2A
S32D0000CA30CDCCCCCCCCCCEC3FF816002000170020081700200000000080B582B000AF124806F08EF9786078689B
S32D0000CA5812F0D8FF0CA3D3E9002313F09DFA0346002B01D001230AE04FF07E51786813F015FE0346002B01D013
S32D0000CA80022300E0002318460837BD4680BD00BF9A9999999999D93F28170020B0B584B000AFF860B9607A6023
S32D0000CAA83B607968F86813F051FB03461C467968F86813F04BFB03461946204613F050FC03461C463968B86837
S32D0000CAD013F040FB03461D463968B86813F03AFB03461946284613F03FFC03461946204613F032FB034618461C
S32D0000CAF8FFF7CEFC034618461037BD46B0BD000080B588B002AF38710E48FFF74FFD381D5F230D4A0D49FFF719
S32D0000CB200EFE0D4B7B610D4B3B614FF00003FB604FF07C530093FB683A697969387900F03BFC00BF1837BD46A4
S32D0000CB4880BD00BFE0830200DE817A3F00008743666616410000604180B58CB002AFA648FFF724FD01F0D8F8D0
S32D0000CB7007F1200207F124031146184601F0F4F87B6A19469F4813F0E5FA03461A469E4B1A603B6A19469D48CA
S32D0000CB9813F0DCFA03461A469B4B1A609B4B1B68184612F02FFF02460B46381DCDE90023974A1B2115F03AFF74
S32D0000CBC03B1D1846FFF7F6FC944B1B68184612F01DFF02460B46381DCDE90023904A1B2115F028FF3B1D18460C
S32D0000CBE8FFF7E4FC8D48FFF7E1FC01F095F807F1200207F124031146184601F0B1F87B6A184612F0FFFE024611
S32D0000CC100B4673A1D1E9000112F098FD02460B461046194613F042FA03467A4A13603B6A184612F0EBFE0246FC
S32D0000CC380B466BA1D1E9000112F084FD02460B461046194613F02EFA0346724A13606F4B1B68184612F0D6FED1
S32D0000CC6002460B46381DCDE900236B4A1B2115F0E1FE3B1D1846FFF79DFC684B1B68184612F0C4FE02460B46D4
S32D0000CC88381DCDE90023644A1B2115F0CFFE3B1D1846FFF78BFC6248FFF788FC01F03CF807F1200207F12403DF
S32D0000CCB01146184601F058F87B6A19465B4813F049FA03461A465A4B1A603B6A184612F09DFE02460B4646A14B
S32D0000CCD8D1E9000112F036FD02460B461046194613F0E0F90346514A13604F4B1B68184612F088FE02460B4621
S32D0000CD00381DCDE90023444A1B2115F093FE3B1D1846FFF74FFC474B1B68184612F076FE02460B46381DCDE9F3
S32D0000CD2800233D4A1B2115F081FE3B1D1846FFF73DFC3F48FFF73AFC00F0EEFF07F1200207F124031146184610
S32D0000CD5001F00AF87B6A184612F058FE02460B4625A1D1E9000112F0F1FC02460B461046194613F09BF90346F0
S32D0000CD78304A13603B6A19462F4813F0E7F903461A462E4B1A602B4B1B68184612F03AFE02460B46381DCDE971
S32D0000CDA000231D4A1B2115F045FE3B1D1846FFF701FC244B1B68184612F028FE02460B46381DCDE90023164A0F
S32D0000CDC81B2115F033FE3B1D1846FFF7EFFB00BF2837BD4680BD00BF9A999999999911406666666666E64640C6
S32D0000CDF06666666666265040CDCCCCCCCC8C4040F8830200000040404417002000000841481700202C170020B5
S32D0000CE181084020030170020208402003084020048840200000006423C17002040170020608402003417002042
S32D0000CE400000EC413817002080B588B002AF38711048FFF7AFFB3B1D50220F491846FFF74DFC0E4B7B610E4B1C
S32D0000CE683B614FF00003FB600C4B0093FB683A697969387900F09CFA3B1D5F2208491846FFF772FC00BF183760
S32D0000CE90BD4680BD788402004266263F0000E4416666D2410000A0400000344380B582B000AF38710648FFF7CB
S32D0000CEB87DFB381D5F23054A0549FFF73CFC00BF0837BD4680BD00BF90840200372D3F400000344380B588B058
S32D0000CEE002AF38711148FFF765FB3B1D502210491846FFF703FC381D5F230E4A0E49FFF71EFC0E4B7B610E4B81
S32D0000CF083B614FF00003FB604FF07F530093FB683A697969387900F04BFA00BF1837BD4680BD00BFA484020019
S32D0000CF30ADDDDD3E9695B83F00005243333393410000364280B588B002AF38711048FFF731FB381D5F230F4A54
S32D0000CF580F49FFF7F0FB3B1D6FF04F020D491846FFF7C8FB0C4B7B610C4B3B610C4BFB600C4B0093FB683A6935
S32D0000CF807969387900F018FA00BF1837BD4680BDB88402009D526D3F00007042F821423F9A9991419A995542AC
S32D0000CFA80000D2429A99993E80B588B002AF38711048FFF7FBFA381D5F230F4A0F49FFF7BAFB3B1D6FF04F02F8
S32D0000CFD00D491846FFF792FB0C4B7B610C4B3B610C4BFB600C4B0093FB683A697969387900F0E2F900BF1837C8
S32D0000CFF8BD4680BDCC84020090D8033F00008242F821423F0000404133333F420000D2429A99993E00000000EB
S32D0000D02080B582B000AF3871381D5F231C4A1D49FFF785FB3B1D1B491846FFF72FFB4FF00000194905F008FD35
S32D0000D048381D5F23144A1749FFF775FB3B1D16491846FFF71FFB0EA1D1E9000105F0F8FC3B1D0E491846FFF744
S32D0000D07015FB09A1D1E9000105F0EEFC3B1D0C491846FFF70BFB4FF000000A4905F0E4FC00BF0837BD4680BD92
S32D0000D0989A9999999999C93F19F4523E0000F04100001640000052430000F0420000E03F80B582B000AF387102
S32D0000D0C03B1D12491846FFF7E9FA381D5F23104A1049FFF734FB381D5F230F4A0F49FFF72EFB3B1D0E491846F5
S32D0000D0E8FFF7D8FA4FF000000C4905F0B1FC381D5F23074A0849FFF71EFB00BF0837BD4680BD00BF0000344320
S32D0000D11090D8833E0000F04113379E3E000096430000F0420000F03F80B582B000AF3871381D5F23104A1149ED
S32D0000D138FFF701FB3B1D50220F491846FFF7DAFA3B1D0E491846FFF7A5FA4FF000000C4905F07EFC3B1D0B493C
S32D0000D1601846FFF79BFA4FF00000094905F074FC00BF0837BD4680BD9D526D3F000052431EE9133D00008C422F
S32D0000D1880000F03F000016430000E03F80B588B002AF38711048FFF709FA381D5F230F4A0F49FFF7C8FA3B1D22
S32D0000D1B06FF04F020D491846FFF7A0FA0C4B7B610C4B3B610C4BFB600C4B0093FB683A697969387900F0F0F82A
S32D0000D1D800BF1837BD4680BDE08402009695383F00007042F821423F66667641CDCC4C420000D2429A99993EBF
S32D0000D20080B582B000AF38711648FFF7D3F9381D5F23154A1549FFF792FA4FF00000144905F01AFC3B1D1349B0
S32D0000D2281846FFF737FA4FF00000114905F010FC381D5F230F4A1049FFF77DFA4FF000000B4905F005FC381DE5
S32D0000D2505F23054A0B49FFF772FA00BF0837BD4680BD00BFF084020019F4523E000096430000E03F00002043BE
S32D0000D2780000F03F19F4D23D000052430000F04280B584B000AFF860C7E90023F86812F0B9FBD7E9002310F03A
S32D0000D2A025FF02460B46104619461037BD4680BD80B584B000AF786039607968386812F049FF034619464FF02C
S32D0000D2C800021D4B0846FFF7DBFFC7E902014FF000021A4BD7E9020112F05EFE0346002B0BD04FF00002144B47
S32D0000D2F0D7E9020112F02CFA02460B46C7E9022314E04FF00002104BD7E9020112F05CFE0346002B0AD04FF07B
S32D0000D3180002094BD7E9020112F014FA02460B46C7E90223D7E9020112F0BCFE034618461037BD4680BD00BFE4
S32D0000D34000807640008066C00080664080B586B000AFF860B9607A60B968F868FFF7A8FF0346184612F052FB44
S32D0000D36802460B46C7E90423786812F04BFB02460B46D7E9040112F00FFE0346002B10D07B6883F00043184647
S32D0000D39012F03CFB02460B46D7E9040112F01EFE0346002B01D0012300E0002318461837BD4680BD0000000061
S32D0000D3B8B0B59EB004AF3873B9607A603B603C4B3C4A7968B868FFF765FBB8653A4B3B4A7968B868FFF75EFBCD
S32D0000D3E07865394B394A7968B868FFF757FB3865374B384A7968B868FFF750FBF864796DB86D13F04FF9034614
S32D0000D408002B1ED0396DB86D13F048F90346002B17D0F96CB86D13F041F90346002B10D02B4B1B681946B868E0
S32D0000D43012F090FE0346BB60284B1B681946786812F088FE03467B6062E0396D786D13F029F90346002B17D0AC
S32D0000D458F96C786D13F022F90346002B10D01E4B1B681946B86812F071FE0346BB601B4B1B681946786812F080
S32D0000D48069FE03467B6043E0F96C386D13F00AF90346002B2CD0144B1B681946B86812F059FE0346BB60114BD6
S32D0000D4A81B681946786812F051FE03467B602BE033333742CDCC8C400000EC4166660442333381420000064220
S32D0000D4D000000841000040402C1700203017002034170020381700203C17002040170020BB4B1B681946B868CF
S32D0000D4F812F02CFE0346BB60B84B1B681946786812F024FE03467B605F237B6650233B66ABA1D1E9000105F0F6
S32D0000D5209BFA07F12C0207F130031146184600F01BFCB8643B6B4FF00001184613F0B2F80346002B40F03082D8
S32D0000D548FB6A4FF00001184613F0A8F80346002B40F026824FF00001B86C13F09FF80346002B40F01D82B86C5E
S32D0000D57012F04CFA4FF000029B4B12F0E7F802460B464FF00000994912F0E0F802460B461046194612F08AFDD2
S32D0000D5980346BB643B6B1946B86812F0D7FD03467B64FB6A1946786812F0D0FD03463B64796C786C12F0D4FEE2
S32D0000D5C003461C46396C386C12F0CEFE03461946204612F0C1FD03461846FEF75DFFF863796C386C12F074FF5C
S32D0000D5E803461846FEF748FF0346184612F00AFA4FF000027C4B12F05DFA02460B461046194671A3D3E90023E3
S32D0000D61012F07EFB02460B461046194612F046FD0346FB65F96D734812F094FD0346FB654FF00001786C13F0B1
S32D0000D63835F80346002B05D06D49F86D12F088FD0346FB65F86B12F0DDF902460B4607F11000CDE90023674A9D
S32D0000D6601B2115F0E7F907F110031846FEF7A2FFF86D12F0CBF902460B4607F11000CDE900235F4A1B2115F0ED
S32D0000D688D5F907F110031846FEF790FF3B6B184612F0B8F904460D46FB6A184612F0B2F902460B4607F1100054
S32D0000D6B0CDE90223CDE90045524A1B2115F0BAF907F110031846FEF775FFB86812F09EF904460D46786812F0DC
S32D0000D6D899F902460B4607F11000CDE90223CDE90045474A1B2115F0A1F907F110031846FEF75CFFF96DB86C6C
S32D0000D700FFF7D6FD0446F86B12F080F932A3D3E9002312F0FDFA02460B461046194612F0C5FC024607F10C0000
S32D0000D7287B6E2146FFF707F807F12C0207F130031146184600F014FBB8643B6B4FF00001184612F0ABFF034634
S32D0000D750002B40F02981FB6A4FF00001184612F0A1FF0346002B40F01F814FF00001B86C12F098FF0346002B4C
S32D0000D77840F01681B86C12F045F94FF00002184B11F0E0FF02460B464FF00000154911F0D9FF02460B461046D6
S32D0000D7A0194612F083FC0346BB643968B86CFFF77FFDB8634FF00001B86B12F091FF0346002B3AD022E000BF8D
S32D0000D7C89A9999999999B93F7A008BFCFA2109407B832F4CA66A2340441700204817002000805640008076400D
S32D0000D7F0008066400000B4420000344304850200188502002C85020044850200B86B12F0FDF867A3D3E90023CD
S32D0000D81812F07AFA02460B461046194612F042FC01463B6E5A4207F10C031846FEF762FF17E0BB6B83F00043C4
S32D0000D840184612F0E3F85AA3D3E9002312F060FA02460B461046194612F028FC014607F10C033A6E1846FEF78A
S32D0000D86849FF07F12C0207F130031146184600F077FAB864B86C12F0C5F84FF000024C4B11F060FF02460B4613
S32D0000D8904FF00000494911F059FF02460B461046194612F003FC0346BB64BA6F3968B86CFFF74CFD034687F894
S32D0000D8B837307B6E282B02DD28237B6605E07B6E142B02DD7B6E053B7B667B6E3B66B96FB86812F03BFC03464A
S32D0000D8E01A463B6B01210C461946104612F0F8FE0346002B01D100231C46E3B283F00103DBB2002B3FF40DAE76
S32D0000D908B96FB86812F024FC03461A463B6B01210C461946104612F0C1FE0346002B01D100231C46E3B283F07B
S32D0000D9300103DBB2002B3FF4F4ADB96F786812F009FC03461A46FB6A01210C461946104612F0C6FE0346002BB9
S32D0000D95801D100231C46E3B283F00103DBB2002B3FF4DBADB96F786812F0F2FB03461A46FB6A01210C461946F3
S32D0000D980104612F08FFE0346002B01D100231C46E3B283F00103DBB2002B3FF4C2AD97F83730002B00D1BCE5D0
S32D0000D9A800BF6837BD46B0BD105839B4C84E6140008056400080764080B582B000AF38713B1D6FF04F02094912
S32D0000D9D01846FEF793FE3B1D07491846FEF75EFE4FF00000054905F037F800BF0837BD4680BD00BFADDDDD3E9B
S32D0000D9F80000C8410000E03F80B588B002AF38711348FEF7D3FD381D5F23124A1249FEF792FE3B1D50221149BB
S32D0000DA201846FEF76BFE104B7B61104B3B614FF00003FB60381D5F23084A0C49FEF77FFE0B4B0093FB683A6972
S32D0000DA4879693879FFF7B4FC00BF1837BD4680BD5885020090D8833F0000F041F821423FCDCCCC4100007042FD
S32D0000DA70CDCCCC3E0000000080B582B000AF38713B1D1B491846FEF709FE17A1D1E9000104F0E2FF381D5F23F1
S32D0000DA98164A1749FEF74FFE3B1D6FF04F0215491846FEF727FE381D5F23134A1049FEF742FE3B1D502211499A
S32D0000DAC01846FEF71BFE3B1D6FF04F020E491846FEF714FE381D5F23094A0C49FEF72FFE00BF0837BD4680BD29
S32D0000DAE89A9999999999C93F0000824213379E3E0000524319F4D23D19F4523E8CAA8A3FADDD5D3E0000F041E4
S32D0000DB1080B588B002AF38711148FEF74BFD381D5F23104A1049FEF70AFE3B1D6FF04F020E491846FEF7E2FD72
S32D0000DB380D4B7B610D4B3B610D4BFB604FF07C530093FB683A6979693879FFF731FC00BF1837BD4680BD00BF7A
S32D0000DB606C85020090D80340000082428CAA8A3F0000E4416666D2410000164380B582B000AF38710A48FEF7D3
S32D0000DB8815FD381D5F23094A0949FEF7D4FD3B1D1846FEF78FFD4FF00000064904F058FF00BF0837BD4680BDCD
S32D0000DBB07C85020019F4523E000034430000E03F80B588B002AF38710E48FEF7F3FC381D5F230D4A0D49FEF797
S32D0000DBD8B2FD0D4B7B610D4B3B614FF00003FB604FF07E530093FB683A6979693879FFF7DFFB00BF1837BD468E
S32D0000DC0080BD00BFA0850200D207913F000087430000E0400000384280B582B000AF38710948FEF7C7FC381DA9
S32D0000DC285F23084A0849FEF786FD381D5F23074A4FF00001FEF77FFD00BF0837BD4680BDB4850200D207913F36
S32D0000DC500000874319168C4080B584B000AF38714FF00000164904F0F7FEFEF7EDFEF860FB68012B09D113489D
S32D0000DC78FEF79CFC381D5F23114A1249FEF75BFD08E01148FEF792FC381D5F230C4A0F49FEF751FD381D5F23B4
S32D0000DCA00D4A0E49FEF74BFD381D5F230C4A4FF00001FEF744FD00BF1037BD4680BD00BF0000F03FC885020045
S32D0000DCC819F4523E00008743D48502000000B44290D8833F0000344319F4D23D80B582B000AF00237B600A4853
S32D0000DCF0FEF760FC7B68002B08D1FEF7A5FE78604FF00000054904F0A7FEF3E77B6818460837BD4680BD00BFDF
S32D0000DD18E08502000000E03F80B582B000AF0F4806F096FB3A463B1D19460C4806F08CF8034683F00103DBB211
S32D0000DD40002B00D0F2E73A463B1D1946054806F07FF80346002B00D0F5E700BF0837BD4680BD00BF381A002061
S32D0000DD6880B58AB000AF78603960614808F09EFC78625F4808F07EFC02467B681A605C4808F086FC02463B6822
S32D0000DD901A604FF000033B624FF00003FB614FF00003BB610523FB609623BB6000237B6100233B617B69042BE8
S32D0000DDB863DC4DA1D1E9000104F04AFE4C4808F075FC78624A4808F055FC02467B681A60474808F05DFC02469A
S32D0000DDE03B681A607B681B684FF00001184612F077FC0346002B3CD03B681B684FF00001184612F06DFC034687
S32D0000DE08002B32D04FF00001786A12F065FC0346002B2AD07B681B683649184612F03EFC0346002B21D03B6845
S32D0000DE301B683349184612F035FC0346002B18D07B681B681946386A12F086F903463B623B681B681946F86924
S32D0000DE5812F07EF90346FB61796AB86912F078F90346BB617B6901337B613B6901333B613B69962B00DC99E779
S32D0000DE8000BF7B69002B22D0786912F019FA03461946386A12F01CFB03461A467B681A60786912F00DFA034622
S32D0000DEA81946F86912F010FB03461A463B681A60786912F001FA03461946B86912F004FB03467B620AE07B681E
S32D0000DED04FF040421A603B684FF040421A604FF040437B627B6A18462837BD4680BD00BF7B14AE47E17A843F29
S32D0000DEF8A01A0020000010420000904280B582B000AF3B461846FEF795FB304808F05CF9FEF7CAFAFEF7EAFA2D
S32D0000DF20FEF71EFE2C48FEF745FBFFF7F9FEFFF7D9FE3B4629491846FEF7B0FB3878FFF76BFE3878FFF73CFE7F
S32D0000DF483878FFF717FE214808F05AFB78607B68002B03D13878FFF727F809E07B68012B03D13878FFF712F93E
S32D0000DF7002E03878FEF7E6FF3878FFF7D5F83878FFF74EF83878FFF73BFD3878FFF718FD3878FFF735F938789B
S32D0000DF98FFF78EF83878FEF79DFF3878FEF782FF3878FEF7ADFD3878FFF752FE3878FFF7ABFD3878FFF75CFDE6
S32D0000DFC03878FEF741FFFEF787FA002318460837BD4680BDA01A0020F48502000000164380B582B000AF78603C
S32D0000DFE839607B68012B1FD13B684FF6FF7293421AD10F4A00210F4800F07EFB0C4A01210D4800F079FB0A4A9B
S32D0000E01002210C4800F074FB00210B4805F08AF901210A4805F086F90021094804F08EFE00BF0837BD4680BD08
S32D0000E0380000C040F81600200017002008170020101700201C1700202817002080B500AF4FF6FF710120FFF76D
S32D0000E060BFFF80BD80B500AF0F4BD3F8A03003F48053002B14BF01230023DBB2002B10D0094BD3F8A030084AD6
S32D0000E08823F48053C2F8A030064808F02DFD064B1B68054A23F40053136000BF80BD00BF00C00440C01A0020CD
S32D0000E0B0C0F00F4080B400AF124B4FF480725A63114B5B69104A43F4005353610E4B1B680D4A43F40053136029
S32D0000E0D80A4B0C4A1A630C4BD3F888310A4A43F08063C2F88831084B9B68074A43F08063936000BFBD4680BC8C
S32D0000E100704700BF00C00440C0F00F4003010A0000E100E080B400AF334B00225A70324B98221A70304B9B790C
S32D0000E128DBB203F01003002B14BF01230023DBB2002B00D0F2E72A4B9B79DBB29B08DBB203F00303022B14BF51
S32D0000E15001230023DBB2002B00D0F0E7224B18221A71214B00225A71204B03F580531A461F4B53641C4B5422DC
S32D0000E1785A711B4B9B79DBB203F02003002B0CBF01230023DBB2002B00D0F2E7144B9B79DBB203F04003002B92
S32D0000E1A00CBF01230023DBB2002B00D0F2E70E4B1B78DBB20C4A03F03F03DBB213700A4B9B79DBB29B08DBB2A4
S32D0000E1C803F00303032B14BF01230023DBB2002B00D0F0E700231846BD4680BC704700BF004006400070044019
S32D0000E1F00000130180B500AF314B03F580539B6B2F4A43F4785302F580529363FFF752FFFFF780FF2B4B5822D6
S32D0000E2181A602A4B1B684FF47A7202FB03F3284A1360274B1B681A46234B03F580535B6C1B0E03F00F030133A8
S32D0000E240B2FBF3F31A46214B1A601D4B03F58053DB6B1B4A43F0225302F58052D363184B03F580531B6B164A3E
S32D0000E26843F0006302F580521363174B4FF480721A61642004F0A2FA134B5B69124A23F010035361104B0022B8
S32D0000E2901A600F4B10225A610E4805F04DFB04F04FFE04F0ADFE0C4804F0EEFA0B4808F00FFD4FF4FA6004F014
S32D0000E2B899FB00BF80BD00BF0070044084190020801900208819002000D00340381A00207C190020681D00201F
S32D0000E2E080B500AFFEF72FF800BF80BD80B500AFFEF729F800BF80BD80B500AFFEF723F800BF80BD80B500AF4A
S32D0000E308FEF71DF800BF80BD80B500AFFEF717F800BF80BD80B500AFFEF711F800BF80BD80B500AFFEF70BF843
S32D0000E33000BF80BD80B500AFFEF705F800BF80BD80B500AFFDF7FFFF00BF80BD80B500AFFDF7F9FF00BF80BD53
S32D0000E35880B500AFFDF7F3FF00BF80BD80B500AFFDF7EDFF00BF80BD80B500AFFDF7E7FF00BF80BD80B500AF73
S32D0000E380FDF7E1FF00BF80BD80B500AFFDF7DBFF00BF80BD80B500AFFDF7D5FF00BF80BD80B500AFFDF7CFFFA3
S32D0000E3A800BF80BD80B500AFFDF7C9FF00BF80BD80B500AFFDF7C3FF00BF80BD80B500AFFDF7BDFF00BF80BD89
S32D0000E3D080B500AFFDF7B7FF00BF80BD80B500AFFDF7B1FF00BF80BD80B500AFFDF7ABFF00BF80BD80B500AFAF
S32D0000E3F8FDF7A5FF00BF80BD80B500AFFDF79FFF00BF80BD80B500AFFDF799FF00BF80BD80B500AFFDF793FF1B
S32D0000E42000BF80BD80B500AFFDF78DFF00BF80BD80B500AFFDF787FF00BF80BD80B500AFFDF781FF00BF80BDC4
S32D0000E44880B500AFFDF77BFF00BF80BD80B500AFFDF775FF00BF80BD80B500AFFDF76FFF00BF80BD80B500AFEA
S32D0000E470FDF769FF00BF80BD80B500AFFDF763FF00BF80BD80B500AFFDF75DFF00BF80BD80B500AFFDF757FF92
S32D0000E49800BF80BD80B500AFFDF751FF00BF80BD80B500AFFDF74BFF00BF80BD80B500AFFDF745FF00BF80BD00
S32D0000E4C080B500AFFDF73FFF00BF80BD80B500AFFDF739FF00BF80BD80B500AFFDF733FF00BF80BD80B500AF26
S32D0000E4E8FDF72DFF00BF80BD80B500AFFDF727FF00BF80BD80B500AFFDF721FF00BF80BD80B500AFFDF71BFF0A
S32D0000E51000BF80BD80B500AFFDF715FF00BF80BD80B500AFFDF70FFF00BF80BD80B500AFFDF709FF00BF80BD3B
S32D0000E53880B500AFFDF703FF00BF80BD80B500AFFDF7FDFE00BF80BD80B500AFFDF7F7FE00BF80BD80B500AF63
S32D0000E560FDF7F1FE00BF80BD80B500AFFDF7EBFE00BF80BD80B500AFFDF7E5FE00BF80BD80B500AFFDF7DFFE85
S32D0000E58800BF80BD80B500AFFDF7D9FE00BF80BD80B500AFFDF7D3FE00BF80BD80B500AFFDF7CDFE00BF80BD7A
S32D0000E5B080B500AFFDF7C7FE00BF80BD80B500AFFDF7C1FE00BF80BD80B500AFFDF7BBFE00BF80BD80B500AFA0
S32D0000E5D8FDF7B5FE00BF80BD80B500AFFDF7AFFE00BF80BD80B500AFFDF7A9FE00BF80BD80B500AFFDF7A3FEFD
S32D0000E60000BF80BD80B500AFFDF79DFE00BF80BD80B500AFFDF797FE00BF80BD80B500AFFDF791FE00BF80BDB5
S32D0000E62880B500AFFDF78BFE00BF80BD80B500AFFDF785FE00BF80BD80B500AFFDF77FFE00BF80BD80B500AFDB
S32D0000E650FDF779FE00BF80BD80B500AFFDF773FE00BF80BD80B500AFFDF76DFE00BF80BD80B500AFFDF767FE74
S32D0000E67800BF80BD80B500AFFDF761FE00BF80BD80B500AFFDF75BFE00BF80BD80B500AFFDF755FE00BF80BDF1
S32D0000E6A080B500AFFDF74FFE00BF80BD80B500AFFDF749FE00BF80BD80B500AFFDF743FE00BF80BD80B500AF17
S32D0000E6C8FDF73DFE00BF80BD80B500AFFDF737FE00BF80BD80B500AFFDF731FE00BF80BD80B500AFFDF72BFEEC
S32D0000E6F000BF80BD80B500AFFDF725FE00BF80BD80B584B000AFF8600B467A60FB72FB68FA7A1A71FB6800221A
S32D0000E7185A711749786811F0DFFF0346002B02D0134B7B600AE04FF07E51786811F0C0FF0346002B02D04FF04D
S32D0000E7407E537B60786811F061F909A3D3E9002311F0B4F902460B461046194611F0A6FC0246FB681A60FB6812
S32D0000E76818461037BD4680BDABAAAAAAAAAA20400000404180B584B000AF786039603B687F2B02DD7F23FB73FB
S32D0000E79008E03B6813F1800F02DA8023FB7301E03B68FB737B685B79FA7B9A4209D07B68FA7B5A717B681979E5
S32D0000E7B8FA7B1E23034804F09DF800BF1037BD4680BD00BF7C190020B0B584B000AF786039603749386811F015
S32D0000E7E061FF0346002B02D0334B3B6008E03349386811F075FF0346002B01D02F4B3B60386811F003F9044692
S32D0000E8080D467B681B68184611F0FCF84FF00002294B11F079FA02460B462046294611F049F902460B4610460D
S32D0000E830194611F03BFC03463B604FF00001386811F044FF0346002B10D0386811F0DEF817A3D3E9002311F0B6
S32D0000E85831F902460B461046194611F0DBFB0346FB6018E0386811F0CDF84FF00002134B11F020F902460B46EF
S32D0000E880104619464FF000020D4B11F041FA02460B461046194611F0C1FB0346FB60F9687868FFF76BFF00BFD1
S32D0000E8A81037BD46B0BD00BF52B81E85EB51F43F0000C8C20000C842000059400000604080B483B000AF034684
S32D0000E8D00A46FB711346BB71BB79002B03D1134B00221A7002E0114B01221A703823FB710E4B1A78FB79134335
S32D0000E8F8FB710D4B9B78DBB20B4A43F01003DBB29370094B9B78DBB2074A43F02003DBB29370054AFB791371F1
S32D0000E92000BF0C37BD4680BC704700BF4C1700200060064080B483B000AF01237B607B68312B04DC00BF7B6813
S32D0000E94801337B60F7E700BF0C37BD4680BC704780B582B000AF03460A46FB711346BB71134B1B7800211846AC
S32D0000E970FFF7AAFF00F024F8104AFB79137100F01FF80E4ABB79137100F01AF80B4B9B78DBB20A4A23F02003E3
S32D0000E998DBB29370074B9B78DBB2064A23F01003DBB29370FFF7C2FF00BF0837BD4680BD4D17002000600640AA
S32D0000E9C080B483B000AF174B1B78002B24D100237B60154BDB78DBB203F00203002B0CBF01230023DBB2002BD3
S32D0000E9E80DD07B6842F21072934203DD0B4B01221A7004E07B6801337B6000BFE5E7084BDB78DBB2064A43F0BC
S32D0000EA100203DBB2D37000E000BF0C37BD4680BC704700BF4E1700200060064080B582B000AF0346FB71FB7902
S32D0000EA38184600F05FF800BF0837BD4680BD80B582B000AF03460A46FB711346BB7100F035F8FB795B00DBB2B4
S32D0000EA601846FFF7E3FFBB791846FFF7DFFF00F037F800BF0837BD4680BD80B500AFFF2000F03CF803461846C1
S32D0000EA8880BD80B584B000AF0346FB7100F016F8FB795B005BB243F001035BB2DBB21846FFF7C0FFFFF7E5FFBE
S32D0000EAB00346FB7300F014F8FB7B18461037BD4680BD000080B400AF044B9B68034A43F48013936000BFBD4629
S32D0000EAD880BC704740F00F4080B400AF044B5B68034A43F48013536000BFBD4680BC704740F00F4080B485B042
S32D0000EB0000AF0346FB710023BB73164BDB6A03F00043012B0CBF01230023DBB2002B03D0FB7B0133FB73F0E79E
S32D0000EB280E4BDB6A0D4A43F00043D3620B4AFB7953630A4BDB6A03F40033002B0CBF01230023DBB2002B00D017
S32D0000EB50F3E7044B9B6BBB73BB7B18461437BD4680BC704700C00A4080B582B000AF204B03F580531B6B1E4A21
S32D0000EB7843F4805302F5805213631C4B4FF480721A651B4B5B691A4A43F480135361FFF7A3FF164B4FF4007251
S32D0000EBA05A65144B4FF400729A65124B4FF40072DA65124B124A1A60104B124ADA6000237B607B68092B06DC09
S32D0000EBC8FF20FFF72FFF7B6801337B60F5E704A1D1E9000103F03CFF00BF0837BD4680BD9A9999999999B93FB3
S32D0000EBF00070044000A0044040F00F4000C00A40000C00800500003E90B486B000AFF860B9607A60FB68534A93
S32D0000EC1893420AD1524B03F580535B6B504A43F4806302F58052536345E0FB684D4A93420AD14B4B03F580538D
S32D0000EC405B6B494A43F4006302F58052536336E0FB68474A93420AD1434B03F580535B6B414A43F4805302F5CF
S32D0000EC688052536327E0FB68404A93420AD13C4B03F580535B6B3A4A43F4005302F58052536318E0FB683A4ACE
S32D0000EC9093420AD1344B03F580539B6A324A43F4806302F58052936209E02F4B03F580539B6A2D4A43F40063BF
S32D0000ECB802F580529362FB68DB78DBB223F00C03DAB2FB68DA70FB6800229A70BB684FF47A7203FB02F27B681C
S32D0000ECE01B0192FBF3F39CB2FB681B78DBB223F01F03FB75230A9BB2DBB203F01F03DAB2FB7D1343DAB2FB689C
S32D0000ED081A70E2B2FB685A70BB684FF4FA4203FB02F27B681B0192FBF3F39AB263019BB2D31A9CB2FB689B7ADC
S32D0000ED30DBB223F01F03FB75E3B203F01F03DAB2FB7D1343DAB2FB689A72FB68DB78DBB243F00C03DAB2FB6810
S32D0000ED58DA7000BF1837BD4690BC704700A006400070044000B0064000C0064000D0064000A00E4080B483B02E
S32D0000ED8000AF78607B681B79DBB203F02003002B0CBF01230023DBB2002B00D0F2E77B68DB79DBB218460C37C1
S32D0000EDA8BD4680BC704780B483B000AF78600B46FB707B681B79DBB25BB2DB43DBB2DB09DBB2002B00D0F4E79A
S32D0000EDD07B68FA78DA7100BF0C37BD4680BC704780B487B000AFF860B9607A60FB687B61BB683B617B685A1EBF
S32D0000EDF87A60002B14BF01230023DBB2002B08D03A69531C3B617B69591C796112781A70ECE700BF1C37BD4661
S32D0000EE2080BC704780B487B000AFF860B9607A60FB687B617B685A1E7A60002B14BF01230023DBB2002B06D025
S32D0000EE487B695A1C7A61BA68D2B21A70EEE700BF1C37BD4680BC704780B489B000AFF860B9607A60FB68FB6134
S32D0000EE70BB68BB6100237B617B685A1E7A60002B0FD0FB695A1CFA611B781946BB695A1CBA611B78CB1A7B61C7
S32D0000EE987B69002B01D1012300E00023002B00D0E6E77B6918462437BD4680BC704780B483B000AF7860396062
S32D0000EEC07B681B78002B09D07B681B781A463B68934203D07B6801337B60F1E77B681B7818460C37BD4680BC69
S32D0000EEE8704780B584B000AF786039607B681B6BFB60FA683B689A4252D07B681B79002B35D07B6858787B68B8
S32D0000EF1003F134010123FA6803F0F2FA0346002B14BF01230023DBB2002B01D001233CE07B6800221A717B687B
S32D0000EF385A6A7B681B6A1344FA689A4217D27B68DB78FB72FB7A012B11D97B681B6AFA681344FB607B685878A4
S32D0000EF607B6803F134010123FA6803F0C9FAFB7A013BFB72EAE73B68002B15D07B6858787B6803F134010123B6
S32D0000EF883A6803F0D5F90346002B14BF01230023DBB2002B01D0012303E07B683A681A63002318461037BD460D
S32D0000EFB080BD80B584B000AF786000217868FFF794FF0346FB73FB7B002B40F093807B681B78032B7DD17B680C
S32D0000EFD85B79002B79D07B6800221A637B6834334FF4007200211846FFF718FF7B68552283F832227B68AA22DE
S32D0000F00083F833227B68522283F834207B68522283F835207B68612283F836207B68412283F837207B687222FF
S32D0000F02883F818227B68722283F819227B68412283F81A227B68612283F81B227B681B69DAB27B6883F81C222E
S32D0000F0507B681B699BB21B0A9BB2DAB27B6883F81D227B681B691B0CDAB27B6883F81E227B681B691B0EDAB26F
S32D0000F0787B6883F81F227B68DB68DAB27B6883F820227B68DB689BB21B0A9BB2DAB27B6883F821227B68DB6841
S32D0000F0A01B0CDAB27B6883F822227B68DB681B0EDAB27B6883F823227B6858787B6803F134017B685A690123E6
S32D0000F0C803F01AFA7B6800225A717B685B7800220021184603F0DCFA0346002B14BF01230023DBB2002B01D00C
S32D0000F0F00123FB73FB7B18461037BD4680BD80B483B000AF786039603B68023B3B607B68DB69023B3A689A4221
S32D0000F11801D3002308E07B689B781A463B6803FB02F27B68DB6A134418460C37BD4680BC704780B586B000AFCF
S32D0000F140786039603B68012B04D97B68DB693A689A4201D30123B5E07B681B78032B7AD0032B00F3AD80012BEA
S32D0000F16802D0022B4DD0A7E03B683B613B695B083A6913443B617B685A6A3B695B0A134419467868FFF7ADFE13
S32D0000F1900346002B14BF01230023DBB2002B40F088803B69C3F308037A68134493F83430FB603B6901333B6177
S32D0000F1B87B685A6A3B695B0A134419467868FFF790FE0346002B14BF01230023DBB2002B6DD13B69C3F3080376
S32D0000F1E07A68134493F834301B021A46FB681343FB603B6803F00103002B02D0FB681B0960E0FB68C3F30B03C3
S32D0000F2085CE07B685A6A3B681B0A134419467868FFF767FE0346002B14BF01230023DBB2002B46D13B685B00E1
S32D0000F23003F4FF7330337A68134404337B617B6901331B781B021AB27B691B781BB213431BB29BB236E07B6857
S32D0000F2585A6A3B68DB09134419467868FFF741FE0346002B14BF01230023DBB2002B22D13B689B0003F4FE7393
S32D0000F28030337A68134404337B617B6903331B781A067B6902331B781B0413437A6901321278120213437A69D6
S32D0000F2A81278134323F0704308E000BF04E000BF02E000BF00E000BF4FF0FF3318461837BD4680BD80B588B03D
S32D0000F2D000AFF860B9607A60BB68012B04D9FB68DB69BA689A4202D30223FB77EEE0FB681B78032B00F09780E0
S32D0000F2F8032B00F3DA80012B02D0022B6BD0D4E0BB687B617B695B087A6913447B61FB685A6A7B695B0A134430
S32D0000F3201946F868FFF7E1FD0346FB77FB7F002B40F0C2807B69C3F308033033FA6813440433BB61BB6803F030
S32D0000F3480103002B0DD0BB691B785BB203F00F035AB27B68DBB21B015BB213435BB2DBB201E07B68DBB2BA69B9
S32D0000F37013707B6901337B61FB6801221A71FB685A6A7B695B0A13441946F868FFF7ADFD0346FB77FB7F002B61
S32D0000F39840F090807B69C3F308033033FA6813440433BB61BB6803F00103002B03D07B681B09DBB20CE0BB6937
S32D0000F3C01B7823F00F03DAB27B681B0ADBB203F00F03DBB21343DBB2BA69137073E0FB685A6ABB681B0A134412
S32D0000F3E81946F868FFF77DFD0346FB77FB7F002B62D1BB685B0003F4FF733033FA6813440433BB617B68DAB270
S32D0000F410BB691A707B689BB21B0A9AB2BB690133D2B21A704FE0FB685A6ABB68DB0913441946F868FFF759FD5A
S32D0000F4380346FB77FB7F002B40D1BB689B0003F4FE733033FA6813440433BB61BB6903331B781A06BB6902333A
S32D0000F4601B781B041343BA690132127812021343BA691278134303F070437A6813437B607B68DAB2BB691A7053
S32D0000F4887B689BB21B0A9AB2BB690133D2B21A707B681A0CBB690233D2B21A707B681A0EBB690333D2B21A706C
S32D0000F4B009E00223FB7706E000BF04E000BF02E000BF00E000BFFB6801221A71FB7F18462037BD4680BD80B571
S32D0000F4D884B000AF786039603B68012B04D97B68DB693A689A4202D30223FB7338E00023FB737B68DB693A6887
S32D0000F5009A4231D239687868FFF717FEB860BB68002B26D0BB68012B02D10223FB7323E0BB68B3F1FF3F02D186
S32D0000F5280123FB731CE0002239687868FFF7CAFE0346FB73FB7B002B11D17B681B69B3F1FF3F07D07B681B6905
S32D0000F5505A1C7B681A617B6801225A71BB683B60CBE700BF00E000BFFB7B18461037BD4680BD80B586B000AFA5
S32D0000F578786039603B68002B0DD17B68DB683B613B69002B04D07B68DB693A699A4215D301233B6112E0396802
S32D0000F5A07868FFF7CAFDB860BB68012B01D8012364E07B68DB69BA689A4201D2BB685DE03B683B613B697B61E1
S32D0000F5C87B6901337B617B68DB697A699A4207D302237B617A693B699A4201D9002349E079697868FFF7A5FD7D
S32D0000F5F0B860BB68002B0ED0BB68B3F1FF3F02D0BB68012B01D1BB6838E07A693B699A42DAD1002332E000BF74
S32D0000F6186FF0704279697868FFF754FE0346FB73FB7B002B09D13B68002B06D07A6939687868FFF747FE0346EB
S32D0000F640FB73FB7B002B10D17B687A69DA607B681B69B3F1FF3F10D07B681B695A1E7B681A617B6801225A7175
S32D0000F66807E0FB7B012B02D14FF0FF3300E001237B617B6918461837BD4680BD80B487B000AF786039607B6888
S32D0000F6905B6A04333B613B685B0A7A6812689278B3FBF2F37B613B691A1D3A611B68FB60FB68002B01D1002300
S32D0000F6B810E07A69FB689A4207D37A69FB68D31A7B613B6904333B61E9E700BF3B691A687B69134418461C3711
S32D0000F6E0BD4680BC704780B584B000AF78600B467B807B687A88DA807B689B68FB60FB68012B05D07B681B6880
S32D0000F708DB69FA689A4201D3022364E0FB68002B08D17B681B681B78032B03D17B681B689B6AFB60FB68002B5E
S32D0000F73013D17B68FA68DA607B681B681B897A889A4201D302234AE07B681B689A6A7B881B091A447B681A61F0
S32D0000F75835E07B681B689B789BB21B017B817A887B899A421CD37B681B68F9681846FFF7E0FCF860FB68B3F169
S32D0000F780FF3F01D101232AE0FB68012B05D97B681B68DB69FA689A4201D302231FE07A887B89D31A7B80DEE71D
S32D0000F7A87B68FA68DA607B681B68F9681846FFF7A2FC02467B881B091A447B681A617B681B6803F134027B883D
S32D0000F7D003F00F035B011A447B685A61002318461037BD4680BD90B585B000AF786039607B68DB8801333B81D6
S32D0000F7F83B89002B03D07B681B69002B01D10423C4E03B8903F00F03002B40F0B0807B681B695A1C7B681A6163
S32D0000F8207B68DB68002B08D17B681B681B893A899A42C0F0A0800423ACE03B891B097A6812689278013A134088
S32D0000F848002B40F094807B681A687B68DB6819461046FFF76EFCF860FB68012B01D8022394E0FB68B3F1FF3FE5
S32D0000F87001D101238EE07B681B68DB69FA689A426DD33B68002B01D1042383E07B681A687B68DB681946104674
S32D0000F898FFF76BFEF860FB68002B01D1072375E0FB68012B01D1022370E0FB68B3F1FF3F01D101236AE07B686E
S32D0000F8C01B6800211846FFF710FB0346002B14BF01230023DBB2002B01D001235AE07B681B6834334FF4007220
S32D0000F8E800211846FFF79AFA7B681A687B681C68F9681046FFF7FFFB034623630023FB727B681B689B78FA7A2A
S32D0000F9109A421CD27B681B6801221A717B681B6800211846FFF7E1FA0346002B14BF01230023DBB2002B01D01E
S32D0000F93801232BE07B681B681A6B01321A63FB7A0133FB72DCE77B681B68196BFA7A7B681B688A1A1A637B6836
S32D0000F960FA68DA607B681B68F9681846FFF7C7FB02467B681A617B683A89DA807B681B6803F134023B8903F013
S32D0000F9880F035B011A447B685A61002318461437BD4690BD80B586B000AF786000217868FFF79DFE0346FB758E
S32D0000F9B0FB7D002B01D0FB7D3CE07B681A687B681B6919461046FFF790FA0346FB75FB7D002B2BD17B685B6921
S32D0000F9D83B613B691B78FB73FB7B002B02D10423FB7522E03B690B331B7803F00803002B0BD17B689B690B2225
S32D0000FA0019463869FFF72CFA0346002B01D1012300E00023002B0BD100217868FFF7E3FE0346FB75FB7D002B14
S32D0000FA2803D1C6E700BF00E000BFFB7D18461837BD4680BD80B584B000AF786000217868FFF74DFE0346FB7383
S32D0000FA50FB7B002B21D17B681A687B681B6919461046FFF742FA0346FB73FB7B002B13D17B685B691B78BB739E
S32D0000FA78BB7BE52B0DD0BB7B002B0AD001217868FFF7ADFE0346FB73FB7B002B01D1DEE700BFFB7B002B1FD120
S32D0000FAA07B681A687B681B6919461046FFF71DFA0346FB73FB7B002B12D17B685B69BB6020220021B868FFF734
S32D0000FAC8ADF97B689B690B221946B868FFF784F97B681B6801221A71FB7B18461037BD4680BD000080B588B088
S32D0000FAF000AF786039603B681B68FB60FB681B782F2B03D0FB681B785C2B03D1FB680133FB60F3E77B689B6920
S32D0000FB18BB600B222021B868FFF780F90023FB7700233B613B697B610823BB61FA687B6913441B782E2B2FD103
S32D0000FB407B695A1C7A61FA6813441B78BB77BB7F2E2B0AD17B69022B07D83B695A1C3A61BA681344BA7F1A7095
S32D0000FB68EAE7BB7F2F2B07D0BB7F5C2B04D0BB7F202B01D90623A7E0FA687B691A443B681A60BB7F202B01D870
S32D0000FB90242200E02022BB680B331A70002397E07B695A1C7A61FA6813441B78BB77BB7F202B58D9BB7F2F2B5D
S32D0000FBB855D0BB7F5C2B52D0BB7F2E2B03D03A69BB699A420FD3BB69082B02D1BB7F2E2B01D0062378E00823F2
S32D0000FBE03B610B23BB61FB7F9B00FB773AE097F91E30002B08DAFB7F43F00303FB77BB7F803B354AD35CBB778B
S32D0000FC08BB7F19463348FFF752F90346002B14BF01230023DBB2002B01D0062354E0BB7F402B07D9BB7F5A2BC1
S32D0000FC3004D8FB7F43F00203FB770CE0BB7F602B09D9BB7F7A2B06D8FB7F43F00103FB77BB7F203BBB773B69C8
S32D0000FC585A1C3A61BA681344BA7F1A709CE7FA687B691A443B681A60BB7F202B01D8042300E00023BB773B698F
S32D0000FC80002B01D1062323E0BB681B78E52B02D1BB6805221A70BB69082B02D1FB7F9B00FB77FB7F03F003039C
S32D0000FCA8012B03D1BB7F43F01003BB77FB7F03F00C03042B03D1BB7F43F00803BB77BB680B33BA7F1A7000230C
S32D0000FCD018462037BD4680BD888602000887020080B584B000AF786039603B681B782F2B03D03B681B785C2BC7
S32D0000FCF806D13B6801333B607B6800229A6004E07B681B689A697B689A603B681B781F2B09D800217868FFF714
S32D0000FD20E2FC0346FB737B6800225A6169E03B4619467868FFF7DAFE0346FB73FB7B002B58D17868FFF72AFE0A
S32D0000FD480346FB737B689B69DB7ABB73FB7B002B1DD0FB7B042B4BD1BB7B03F02003002B0DD07B6800229A60CA
S32D0000FD707B6800225A610023FB73BB7B03F00403002B3BD135E0BB7B03F00403002B35D10523FB7332E0BB7B59
S32D0000FD9803F00403002B2FD17B685B69BB60BB680B331B7803F01003002B02D10523FB7323E0BB6815331B78C7
S32D0000FDC01B021AB2BB6814331B781BB213431BB29BB21B04BA681B321278120211B2BA681A32127812B20A43FA
S32D0000FDE812B292B21A437B689A609CE700BF04E000BF02E000BF00E000BFFB7B18461037BD4680BD80B582B0C4
S32D0000FE1000AF786039607B6858787B6803F1340101233A6802F088FA0346002B14BF01230023DBB2002B01D094
S32D0000FE3803234AE07B6803F2322301331B781B021AB27B6893F832321BB213431BB2214A934201D0022338E05F
S32D0000FE607B686A3303331B781A067B686A3302331B781B0413437A686A3201321278120213437A6892F86A20B3
S32D0000FE88134323F07F43144A934201D100231CE07B68863303331B781A067B68863302331B781B0413437A68BD
S32D0000FEB0863201321278120213437A6892F88620134323F07F43064A934201D1002300E0012318460837BD464A
S32D0000FED880BD00BF55AAFFFF4641540080B592B000AFF860B9601346FB71FB681B68FB62FB6A1B78303B3B6487
S32D0000FF003B6C092B0BD8FB6A01331B783A2B06D1FB6A0233FB62FB68FA6A1A6002E0A34B1B783B643B6C002BA1
S32D0000FF2801D00B2367E2A04A3B6C52F82330BB62BB68BA6A1A60BB6A002B01D10C235AE2BB6A1B78002B1AD0FD
S32D0000FF50BB6A5B78184602F021FC034687F8273097F8273003F00103002B0CD1FB79002B07D097F8273003F0CB
S32D0000FF780403002B01D00A233DE200233BE2BB6A00221A703B6CDAB2BB6A5A70BB6A5B78184601F093FF0346B7
S32D0000FFA087F8273097F8273003F00103002B01D0032324E2FB79002B07D097F8273003F00403002B01D00A23D9
S32D0000FFC819E20023FB63F96BB86AFFF71BFF034687F8473097F84730012B22D1BB6A03F5F9733B623B6A043393
S32D0000FFF01B78002B19D03B6A0B331B781A063B6A0A331B781B0413433A6A09321278120213433A6A0832127881
S32D000100181343FB63F96BB86AFFF7F4FE034687F8473097F84730032B01D10123E3E197F84730002B01D00D2338
S32D00010040DDE1BB6A93F840301B021AB2BB6A93F83F301BB213431BB2B3F5007F01D00D23CDE1BB6A93F84B30BA
S32D000100681B021AB2BB6A93F84A301BB213431BB29BB2BB63BB6B002B12D1BB6A93F85B301A06BB6A93F85A3032
S32D000100901B041343BA6A92F8592012021343BA6A92F858201343BB63BB6ABA6B1A62BB6A93F84430FB77BB6A20
S32D000100B8FA7FDA70FB7F012B04D0FB7F022B01D00D2398E1FA7FBB6B02FB03F3BB63BB6A93F84130FB77BB6A53
S32D000100E0FA7F9A70FB7F002B05D0FA7FFB7F013B1340002B01D00D2381E1BB6A93F846301B021AB2BB6A93F825
S32D0001010845301BB213431BB29AB2BB6A1A81BB6A1B8903F00F03002B01D00D236BE1BB6A93F848301B021AB200
S32D00010130BB6A93F847301BB213431BB29BB27B637B6B002B12D1BB6A93F857301A06BB6A93F856301B04134368
S32D00010158BA6A92F8552012021343BA6A92F8542013437B63BB6A93F843301B021AB2BB6A93F842301BB2134344
S32D000101801BB2BB83BB8B002B01D10D2337E1BA8BBB6B1A44BB6A1B891B091344BB617A6BBB699A4206D20D23A4
S32D000101A829E100BF56170020501700207A6BBB69D31ABA6A9278B3FBF2F37B617B69002B01D10D2317E101238B
S32D000101D087F847307B6940F6F572934202D9022387F847307B694FF6F572934202D9032387F847307B699A1CC8
S32D000101F8BB6ADA61FA6BBB691A44BB6ADA62BA8BFB6B1A44BB6A5A6297F84730032B1ED1BB6A1B89002B01D05E
S32D000102200D23ECE0BB6A93F863301A06BB6A93F862301B041343BA6A92F8612012021343BA6A92F860201A4375
S32D00010248BB6A9A62BB6ADB699B003B631FE0BB6A1B89002B01D10D23CDE0BB6A5A6ABB6B1A44BB6A9A6297F805
S32D000102704730022B03D1BB6ADB695B000AE0BB6ADA6913465B0013445A08BB6ADB6903F0010313443B63BB6AEA
S32D000102981A6A3B6B03F2FF135B0A9A4201D20D23A9E0BB6A4FF0FF321A61BB6A0022DA6097F84730032B40F044
S32D000102C08680BB6A00225A71BB6A93F865301B021AB2BB6A93F864301BB213431BB29BB21A46FB6B1A44BB6AFF
S32D000102E85A61BB6A5878BB6A03F13401BB6A5A69012302F01DF80346002B39D1BB6A93F833321B021AB2BB6A35
S32D0001031093F832321BB213431BB23B4A93422BD1BB6A93F837301A06BB6A93F836301B041343BA6A92F83520C4
S32D0001033812021343BA6A92F834201343314A934216D1BB6A93F81B321A06BB6A93F81A321B041343BA6A92F861
S32D00010360192212021343BA6A92F818221343284A934201D1012300E00023002B27D0BB6A93F823321A06BB6ADF
S32D0001038893F822321B041343BA6A92F8212212021343BA6A92F820221A43BB6ADA60BB6A93F81F321A06BB6AA5
S32D000103B093F81E321B041343BA6A92F81D2212021343BA6A92F81C221A43BB6A1A61BB6A97F847201A700F4B8F
S32D000103D81B8801339AB20D4B1A800C4B1A88BB6ADA80BB6A00221A63BB6A00221A71BB6A00229A610023184610
S32D000104004837BD4680BD00BF55AAFFFF52526141727241615417002080B582B000AF78600B467B807B68002BB3
S32D0001042808D07B681B78002B04D07B68DB887A889A4201D0092311E07B685B78184602F0A9F9034603F001035E
S32D00010450002B14BF01230023DBB2002B01D0032300E0002318460837BD4680BD80B485B000AF03463960FB7143
S32D00010478FB79002B01D00B2316E0FB790D4A52F82330FB60FB68002B02D0FB6800221A703B68002B02D03B684C
S32D000104A000221A70FB7905493A6841F82320002318461437BD4680BC704700BF5017002080B592B000AFF8601B
S32D000104C8B9601346FB71FB6800221A60FB7903F01F03FB71FB7923F00103DAB207F11C0107F108031846FFF7B0
S32D000104F0F9FC034687F8473007F110037B6397F84730002B09D1BA6807F11C0311461846FFF7E6FB034687F828
S32D0001051847303B6B3B6497F84730002B05D13B6C002B02D1062387F84730FB7903F01C03002B00F0B18097F8CC
S32D000105404730002B12D097F84730042B07D107F11C031846FFF772FA034687F84730FB7943F00803FB713B6B21
S32D000105683B6412E03B6C0B331B7803F01103002B03D0072387F8473007E0FB7903F00403002B02D0082387F83A
S32D00010590473097F84730002B40F0A080FB7903F00803002B00F09A800023FB633B6C0E33FA6BD2B21A70FB6B5B
S32D000105B89BB21B0A9AB23B6C0F33D2B21A70FB6B1A0C3B6C1033D2B21A70FB6B1A0E3B6C1133D2B21A703B6CAD
S32D000105E00B3300221A703B6C1C3300221A703B6C1D3300221A703B6C1E3300221A703B6C1F3300221A703B6CCD
S32D0001060815331B781B021AB23B6C14331B781BB213431BB29BB21B043A6C1B321278120211B23A6C1A32127852
S32D0001063012B20A4312B292B21343BB633B6C1A3300221A703B6C1B3300221A703B6C143300221A703B6C153344
S32D0001065800221A70FB6901221A71BB6B002B39D0FB691B6BFB63FB69B96B1846FEF72FFF034687F8473097F83C
S32D000106804730002B2AD1FB69BA6B013ADA60FB69F96B1846FEF729FC034687F847301DE097F84730002B19D119
S32D000106A83B6C0B331B7803F01003002B03D0042387F847300EE0FB7903F00203002B09D03B6C0B331B7803F0C1
S32D000106D00103002B02D0072387F8473097F84730002B0FD1FB7903F00803002B03D0FB7943F02003FB71FB69BF
S32D000106F81A6BFB68DA61FB683A6C1A6297F84730002B42D1FB68FA799A713B6C15331B781B021AB23B6C1433AD
S32D000107201B781BB213431BB29BB21B043A6C1B321278120211B23A6C1A32127812B20A4312B292B21A43FB6812
S32D000107481A613B6C1F331B781A063B6C1E331B781B0413433A6C1D321278120213433A6C1C3212781A43FB6834
S32D00010770DA60FB6800229A60FB6800229A61FB6800225A62FA69FB681A60FB69DA88FB689A8097F847301846F9
S32D000107984837BD4680BD80B58AB000AFF860B9607A603B60BB68BB613B6800221A60FB681A68FB689B88194627
S32D000107C01046FFF729FE0346FB75FB7D002B01D0FB7D7EE1FB689B795BB2002B01DA022377E1FB689B7903F022
S32D000107E80203002B01D107236FE1FB68DA687B681A44FB68DB689A4201D200237B607B68002B00F05081FB68FB
S32D000108109B68C3F30803002B40F01381FB689B685B0ADAB2FB681B689B78013BDBB21340BB75BB7D002B49D1ED
S32D00010838FB689B68002B10D1FB681B697B627B6A002B1FD1FB681B6800211846FEF78DFE7862FB687A6A1A61DA
S32D0001086014E0FB685B6A002B07D0FB689B681946F868FEF707FF786208E0FB681A68FB685B6919461046FEF7B3
S32D0001088874FE78627B6A002B00F00C817B6A012B08D1FB689B7963F07F03DAB2FB689A71022312E17B6AB3F197
S32D000108B0FF3F08D1FB689B7963F07F03DAB2FB689A71012305E1FB687A6A5A61FB689B7903F04003002B22D0E6
S32D000108D8FB681B685878FB6803F12801FB689A69012301F009FE0346002B14BF01230023DBB2002B08D0FB68B8
S32D000109009B7963F07F03DAB2FB689A710123E0E0FB689B7923F04003DAB2FB689A71FB681A68FB685B691946CF
S32D000109281046FEF7E8FB38613B69002B08D1FB689B7963F07F03DAB2FB689A710223C4E0BB7D3A6913443B6154
S32D000109507B685B0AFB61FB69002B49D0BA7DFB691344FA6812689278934206D9FB681B689B781A46BB7DD31A22
S32D00010978FB61FB681B685878FB69DBB23A69B96901F0BAFD0346002B14BF01230023DBB2002B08D0FB689B794B
S32D000109A063F07F03DAB2FB689A71012391E0FB689A693B69D31AFA699A4215D9FB6803F12800FB689A693B6917
S32D000109C8D31A5B02BA6913444FF400721946FEF703FAFB689B7923F04003DAB2FB689A71FB695B023B6248E0E9
S32D000109F0FB689B693A699A4220D0FB689A68FB68DB689A420ED2FB681B685878FB6803F1280101233A6901F04D
S32D00010A188FFC0346002B01D0012300E00023002B08D0FB689B7963F07F03DAB2FB689A7101234AE0FB683A691B
S32D00010A409A61FB689B68C3F30803C3F500733B623A6A7B689A4201D97B683B62FB689B68C3F308032833FA68FC
S32D00010A6813443A6AB9691846FEF7B6F9FB689B7943F04003DAB2FB689A71BA693B6A1344BB61FB689A683B6A14
S32D00010A901A44FB689A603B681A683B6A1A443B681A607A683B6AD31A7B60ACE600BFFB689A68FB68DB689A42B0
S32D00010AB803D9FB689A68FB68DA60FB689B7943F02003DAB2FB689A71002318462837BD4680BD80B586B000AF30
S32D00010AE078607B681A687B689B8819461046FFF793FC0346FB75FB7D002B40F0AC807B689B7903F02003002B7A
S32D00010B0800F0A5807B689B7903F04003002B1BD07B681B6858787B6803F128017B689A69012301F0E9FC034607
S32D00010B30002B14BF01230023DBB2002B01D001238AE07B689B7923F04003DAB27B689A717B681A687B68DB69E7
S32D00010B5819461046FEF7C5F90346FB75FB7D002B75D17B681B6A3B613B690B331A783B690B3342F02002D2B232
S32D00010B801A707B68DA683B691C33D2B21A707B68DB689BB21B0A9AB23B691D33D2B21A707B68DB681A0C3B69C0
S32D00010BA81E33D2B21A707B68DB681A0E3B691F33D2B21A707B681A693B691A33D2B21A707B681B699BB21B0A2F
S32D00010BD09AB23B691B33D2B21A707B681B691A0C3B691433D2B21A707B681B691B0C9BB21B0A9AB23B691533EC
S32D00010BF8D2B21A700023FB603B691633FA68D2B21A70FB689BB21B0A9AB23B691733D2B21A70FB681A0C3B699B
S32D00010C201833D2B21A70FB681A0E3B691933D2B21A707B689B7923F02003DAB27B689A717B681B6801221A7108
S32D00010C487B681B681846FEF7B0F90346FB75FB7D18461837BD4680BD80B584B000AF78607868FFF736FF0346B9
S32D00010C70FB73FB7B002B02D17B6800221A60FB7B18461037BD4680BD80B586B000AF03463960FB71FB793B730F
S32D00010C9801237B6107F1100307F10C017A693868FFF779FD3B697A699A4201D1012301E04FF0FF3318461837D6
S32D00010CC0BD4680BD80B584B000AF786039600023FB607B681B78002B18D07B681B7839681846FFF7D1FF0346B1
S32D00010CE8B3F1FF3F0CBF01230023DBB2002B02D04FF0FF3307E07B6801337B60FB680133FB60E2E7FB68184699
S32D00010D101037BD4680BD80B485B000AF786039600123FB600023BB600023BB60BA683B689A4208DAFB687A68E1
S32D00010D3802FB03F3FB60BB680133BB60F2E7FB6818461437BD4680BC70470000B0B59AB000AF78613961FA60C6
S32D00010D600023BB64BB6C7B647B6CB3F1FF3F00F0F5823B695A1C3A611B7887F84F3097F84F30002B00F0E78214
S32D00010D8897F84F30252B0ED097F84F3079691846FFF776FF78647B6CB3F1FF3F00F0CD8201237B64C9E2002392
S32D00010DB087F867300023BB653B695A1C3A611B7887F84F3097F84F30302B09D1012387F867303B695A1C3A6143
S32D00010DD81B7887F84F300CE097F84F302D2B08D1022387F867303B695A1C3A611B7887F84F3097F84F302E2B48
S32D00010E0005D13B695A1C3A611B7887F84F3097F84F302F2B15D997F84F30392B11D8BA6D13469B0013445B0029
S32D00010E281A4697F84F301344303BBB653B695A1C3A611B7887F84F30E5E797F84F306C2B03D097F84F304C2B3C
S32D00010E500BD197F8673043F0040387F867303B695A1C3A611B7887F84F3097F84F30002B00F0738297F84F30AF
S32D00010E7887F84E3097F84E30602B08D997F84E307A2B04D897F84E30203B87F84E3097F84E30423B162B00F225
S32D00010EA0788101A252F823F0731101005D1101008311010093110100AD0F010093110100931101009311010050
S32D00010EC893110100931101009311010093110100931101007B110100931101009311010093110100050F010031
S32D00010EF0931101008311010093110100931101008B110100FB681A1DFA601B68FB620023FB65FA6AFB6D134438
S32D00010F181B78002B03D0FB6D0133FB65F5E70023BB6497F8673003F00203002B07D1FB6D5A1CFA65BA6D9A429E
S32D00010F4001D9012300E00023002B09D079692020FFF79AFE78647B6CBA6C1344BB64E4E77969F86AFFF7AEFEBD
S32D00010F6878647B6CBA6C1344BB64FB6D5A1CFA65BA6D9A428CBF01230023DBB2002B09D079692020FFF77CFE06
S32D00010F9078647B6CBA6C1344BB64EAE77B6CB3F1FF3F00F0D081BB6C7B64CCE1FB68073323F0070303F108028D
S32D00010FB8FA60D3E90023C7E90E23D7E90E23C7E90C2300237B654FF000024FF00003D7E90E010EF0E1FF0346A4
S32D00010FE0002B18D079692D20FFF74EFE78647B6CBA6C1344BB64BC6BFB6B83F00045C7E90E453B6B3B607B6B90
S32D0001100883F000437B60D7E90023C7E90C23D7E90C010EF0FFFF0346002B0ED04FF00002AB4BD7E90C010EF049
S32D000110306FFE02460B46C7E90C237B6D01337B65E9E77B6D013BFB65FB6DB3F1FF3F35D0FB6D19460A20FFF726
S32D000110585EFE034618460EF0C3FC02460B46D7E90E010EF051FE02460B46104619460EF0D1FF0346BB62BA6A4E
S32D00011080964B83FB02139910D317C91A0B469B000B445B00D31ABB62BB6A3033BB62BB6ADBB279691846FFF72A
S32D000110A8EFFD78647B6CBA6C1344BB64FB6D013BFB65C5E779692E20FFF7E2FD78647B6CBA6C1344BB64BB6D92
S32D000110D0002B01D10323BB6501233B663A6EBB6D9A4233D83B6E19460A20FFF714FE034618460EF079FCD7E91E
S32D000110F80E230EF0DFFC02460B46104619460EF089FF0346BB62BA6A724B83FB02139910D317C91A0B469B00AF
S32D000111200B445B00D31ABB62BB6A3033BB62BB6ADBB279691846FFF7A7FD78647B6CBA6C1344BB643B6E01337F
S32D000111483B66C7E77B6CB3F1FF3F00F0FA80BB6C7B64F6E0FB681A1DFA601B68DBB279691846FFF78DFD78647A
S32D00011170ECE0022387F8663013E0082387F866300FE00A2387F866300BE0102387F8663007E097F84F307969DC
S32D000111981846FFF775FD7864D4E097F8673003F00403002B04D0FB681A1DFA601B680CE097F84E30442B04D1FF
S32D000111C0FB681A1DFA601B6803E0FB681A1DFA601B683B6597F84E30442B0BD13B6D002B08DA3B6D5B423B659D
S32D000111E897F8673043F0080387F8673000233B6697F866203B6DB3FBF2F101FB02F29B1A87F84E3097F8663085
S32D000112103A6DB2FBF3F33B6597F84E30092B0BD997F84F30782B01D1272200E0072297F84E30134487F84E307A
S32D000112383B6E5A1C3A6697F84E203032D2B2603307F108010B4403F8502C3B6D002B03D03B6E0F2B00D8CBE778
S32D0001126097F8673003F00803002B09D03B6E5A1C3A66603307F1080213442D2203F8502C3B6EFB6597F8673097
S32D0001128803F00103002B01D0302300E0202387F84E300023BB6497F8673003F00203002B07D1FB6D5A1CFA6531
S32D000112B0BA6D9A4201D9012300E00023002B0FD097F84E3079691846FFF7DEFC78647B6CBA6C1344BB64E2E7BC
S32D000112D800002440676666663B6E013B3B6607F118023B6E13441B7879691846FFF7C8FC78647B6CBA6C134485
S32D00011300BB643B6E002B00D0EAE7FB6D5A1CFA65BA6D9A428CBF01230023DBB2002B09D079692020FFF7B0FC03
S32D0001132878647B6CBA6C1344BB64EAE77B6CB3F1FF3F07D0BB6C7B6404E000BF02E000BF00E000BFBA6C7B6CD0
S32D000113501344BB6408E500BF00E000BF7B6CB3F1FF3F01D17B6C00E0BB6C18466837BD46B0BD00BF80B588B08B
S32D0001137800AF7860396080233B610F23FB604FF0FF337B610223FB61FB69B3F5807F23D80123BB61BB69102BE7
S32D000113A01AD8FB69BA6902FB03F33A6803FB02F27B68D31ABB60BB68002B09DBBB687A699A4205D9BB687B6142
S32D000113C8FB693B61BB69FB60BB690133BB61E1E7FB695B00FB61D7E71D4BDB6A1C4A23F00803D3621A4BDB6A52
S32D000113F023F47F2323F47F63BB613B695B081B029AB2FB68013B1B01DBB21A43BB691343114A43F46023D36227
S32D000114180F4B5B6A03F00803002B0CBF01230023DBB2002B03D00A2001F0DCFAF0E7084BDB6A074A43F00803D1
S32D00011440D362054B1B6B044A43F48013136300BF2037BD4680BD00BF00100B4080B582B000AF786039607B680A
S32D0001146800221A60414B424ADA62404BDB6A03F08073002B14BF01230023DBB2002B00D0F3E73A4B0022C3F8A6
S32D00011490C020384B4FF481325A60364B28229A62344B4FF001125A643B689B6833491846FFF760FF2F4B5B6AB0
S32D000114B803F00303002B14BF01230023DBB2002B00D0F3E72C4B40F243421A602A4B40F243425A60284B4FF421
S32D000114E088629A60264B40F24342DA60244B40F243421A61224B40F243425A61214B03F580531B6B1F4A43F4BA
S32D00011508003302F580521363184B4FF6FF721A63164B1B4A5A63154BDB6A144A43F00063D362124BDB6A03F0C6
S32D000115300063002B14BF01230023DBB2002B00D0F3E70C4B5B6A03F48033002B14BF01230023DBB2002B02D0ED
S32D000115587B6801221A60054B1B6B044A43F080031363002318460837BD4680BD00100B400080000160CC050087
S32D0001158000D0044000700440B3007F0080B400AF064B5A6A40F207331340002B14BF01230023DBB21846BD4658
S32D000115A880BC704700100B4080B485B000AF7860074B1B6B7A681340FB60FB68002B00D1F6E7FB681846143726
S32D000115D0BD4680BC704700BF00100B4080B584B000AF78607B681B7803F03F03764A52F82330FB60FB68002BFB
S32D000115F805D17B681B78002B01D00123DCE0714B1B6B704A43F0800313636E4B5B6A03F00103002B14BF0123DD
S32D000116200023DBB2002B00D0F3E7684A7B685B689360FB6823F44003FB607B685B789B0503F44003FA6813436B
S32D00011648FB607B685B78022B03D1FB6843F40013FB607B685B78042B16D1FB6803F44033B3F5003F08D1FB689D
S32D0001167023F44033FB60FB6843F44033FB6007E0FB6823F44033FB60FB6843F40033FB604E4B5B684D4A9BB267
S32D0001169853607B68DB68002B2AD0FB6803F44033B3F5403F03D0FB6843F40013FB607B681B7A002B03D0FB687D
S32D000116C043F01003FB607B68DB68012B03D9FB6843F02003FB607B68DB68B3F1FF3F0BD03A4B5A687B68DB68C8
S32D000116E81B04384913434B60FB6843F00203FB60344B00221A60334AFB68D3603248FFF753FF0346012B14BF04
S32D0001171001230023DBB2002B09D02C4B1B6B2B4A43F4702343F001031363012348E0274B1B6B03F08003002B04
S32D0001173814BF01230023DBB2002B07D0214B1B6B204A43F001131363012335E01D4B1B6B03F48033002B14BFF1
S32D0001176001230023DBB2002B08D0184B1B6B174A43F0011313634FF0FF3321E0FB6803F44033002B15D0114BD1
S32D000117881A697B681A61FB6803F44033B3F5803F0BD10C4B5A697B685A610A4B9A697B689A61084BDA697B68DA
S32D000117B0DA61064B1B6B054A43F001031363002318461037BD4680BD2487020000100B4001000E0080B592B066
S32D000117D800AF7860396000237B643B68BB63994B7B637B6B002B02D140F601235FE3964B3B633B6B002B02D19A
S32D0001180040F60B2357E33B6B1B68FB62FB6A002B02D140F60B234EE37B6841F20932934200F23F837B68B3F538
S32D00011828985F08D87B68032B00F01A837B68092B00F0098331E37B68A3F59853013B082B00F22B8301A252F813
S32D0001185023F000BF79180100651B0100C11D01007B1B0100B91B0100DF1C0100271D0100691C0100831C0100D2
S32D000118787649786BFFF7EEFD78647B6C002B40F01083002387F84330002387F82B30002387F82A30002387F85D
S32D000118A02930002387F84230002387F8283000233B7200237B720023FB6000233B7400237B6107F10803184622
S32D000118C8FFF788FE0346002B14BF01230023DBB2002B02D001237B64E8E240F24C4001F081F808233B7200236D
S32D000118F07B724FF4D573FB6000233B7400237B6107F108031846FFF769FEF863FB6B002B09D1BA69FB689A423F
S32D0001191802D001237B64C9E2012387F84230012387F8283097F82830002B00F0A58037233B7200237B720023AF
S32D00011940FB6000233B7400237B6107F108031846FFF744FEF863FB6B002B02D001237B64A8E269233B7200230C
S32D000119687B720023FB6000233B7400237B6107F108031846FFF72EFE0346002B14BF01230023DBB2002B02D079
S32D0001199001237B648EE2BB6903F44013002B6FD00023FB630A2001F021F8FB6B0133FB6337233B7200237B7219
S32D000119B80023FB6000233B7400237B6107F108031846FFF707FE0346002B14BF01230023DBB2002B02D0012319
S32D000119E07B6428E069233B7200237B7297F84230002B02D0184BFB6002E04FF44013FB6000233B7400237B6148
S32D00011A0807F108031846FFF7E5FD0346002B14BF01230023DBB2002B02D001237B6406E0BB69002B03DBFB6BE2
S32D00011A30632B00D8B6E77B6C002B40F03882FB6B632B0BD9002387F8423019E0701700207419002018870200AE
S32D00011A5800003040012387F8433097F84230002B0AD0002387F84230BB6903F08043002B02D0012387F84230D3
S32D00011A8097F82A30002B02D07B6B07221A6097F82930002B02D07B6B08221A6097F82B30002B02D07B6B042266
S32D00011AA81A6097F84330002B09D07B6B02221A6097F84230002B02D07B6B03221A6097F82B30002B0DD097F807
S32D00011AD04330002B09D07B6B05221A6097F84230002B02D07B6B06221A60924B00221A60904B00225A608F4B59
S32D00011AF800229A608D4B0022DA608C4B00221A618A4B00225A61FB6A9A68FB6A5B6819461046FFF72BFC854B18
S32D00011B2040F243421A60834B40F243425A60814B4FF488629A607F4B40F24342DA607D4B40F243421A617B4BB8
S32D00011B4840F243425A617A4B03F580531B6B784A43F4003302F580521363A7E1B86BFFF739FDF863FB6B002BB8
S32D00011B7000F09F8102237B649BE1BB6B002B02D10C237B6496E16D4BDB6A1B0A5B0003F4FF73FB63694BDB6AD0
S32D00011B981B0903F00F035A1CFB6B02FB03F3FB63FB6A9A68FB6BB2FBF3F2BB6B1A607DE1BB6B002B02D10C2318
S32D00011BC07B6477E1BB6B1B68002B02D10C237B6470E1FFF7DBFC0346002B0CBF01230023DBB2002B3CD0534B04
S32D00011BE800221A60514B00225A60504B00229A604E4B0022DA604D4B00221A614B4B00225A61FB6A9A68BB6BD9
S32D00011C101B6819461046FFF7ADFB464B40F243421A60444B40F243425A60424B4FF488629A60404B40F2434217
S32D00011C38DA603E4B40F243421A613C4B40F243425A613B4B03F580531B6B394A43F4003302F58052136329E182
S32D00011C6040F60A237B6425E1BB6B002B02D10C237B641FE1314B5B68C3F30C02BB6B1A6018E1BB6B002B02D11B
S32D00011C880C237B6412E1FFF77DFC0346002B0CBF01230023DBB2002B19D0BB6B1B68B3F5805F02D30C237B6483
S32D00011CB000E1224B5B68214A23F4FF5323F01F0353601E4B5A68BB6B1B68C3F30C031B4913434B60EEE040F636
S32D00011CD80A237B64EAE0BB6B002B02D10C237B64E4E0144B9B6A5B0803F00303FB63FB6B002B03D1BB6B002246
S32D00011D001A60D7E0FB6B012B03D1BB6B01221A60D0E0FB6B102B03D1BB6B02221A60C9E005237B64C6E0BB6BF5
S32D00011D28002B09D10C237B64C0E000BF00D004400070044000100B40FFF724FC0346002B0CBF01230023DBB2CE
S32D00011D50002B31D0BB6B1B68002B0AD1584B9B6A574A23F006039362554B554A9B6A9362A0E0BB6B1B68012BA1
S32D00011D780CD1514B9B6A504A23F0060393624E4B9B6A4D4A43F0020393628FE0BB6B1B68022B0AD1484B9B6AF9
S32D00011DA0474A23F006039362454B454A9B6A936280E005237B647DE040F60A237B6479E0BB6B002B02D10C23A7
S32D00011DC87B6473E03C4BDB6A3B4A43F00063D362394BDB6A03F00063002B14BF01230023DBB2002B00D0F3E7D8
S32D00011DF0334B1B6B03F08003002B14BF01230023DBB2002B08D02E4B1B6B2D4A43F0800313637B6B00221A6051
S32D00011E18294B5B6A03F48033002B14BF01230023DBB2002B07D07B6B1B68002B06D17B6B01221A6002E07B6B2E
S32D00011E4000221A607B6B1A68BB6B1A6032E0BB6B1C221A60BB6B043304221A60BB6B08334FF41E721A6025E02F
S32D00011E680220FFF7A1FB144B1B6B03F4E003002B14BF01230023DBB2002B07D00E4B1B6B0D4A43F4E00313633E
S32D00011E9004237B640A4B1B6B094A43F03203136308E040F609237B6404E000BF02E000BF00E000BF7B6C1846C0
S32D00011EB84837BD4680BD00BF00100B4080B590B000AF0346FB71A64BFB63A64BBB63BB6BA54A1A60FB79002BBD
S32D00011EE001D00123A9E1A34B1B78DBB203F00203002B14BF01230023DBB2002B03D09D4B1B78DBB299E19B4B16
S32D00011F081B78DBB203F00303002B0CBF01230023DBB2002B01D000238BE1BB6B002B03D0BB6B1B68002B01D172
S32D00011F30002382E1FB6B904A1A60FB6B01225A60BB6B00225A60BB6B00229A60BB6B00221A61BB6B00221A7323
S32D00011F58BB6B00225A73874B03F580531B6B854A43F4003302F580521363002141F20130FFF72CFC0346002B93
S32D00011F8014BF01230023DBB2002B01D0002354E10023BB6207F12803194641F20330FFF719FC0346002B14BFBD
S32D00011FA801230023DBB2002B01D0002341E1BB6A022B08D0BB6A032B05D0BB6A052B02D0BB6A062B09D1BB6A27
S32D00011FD0032B02D0BB6A062B05D1BB6B01221A7301E0002329E100BF02233B7200237B720023FB6000233B74E1
S32D00011FF800237B6107F10803194641F20230FFF7E5FB0346002B14BF01230023DBB2002B01D000230DE10323D0
S32D000120203B7200237B720023FB6000233B7400237B6107F10803194641F20230FFF7CAFB0346002B14BF012398
S32D000120480023DBB2002B01D00023F2E0BB691B0C1B04BA6B136109233B7200237B72BB6B1B69FB6000233B7405
S32D0001207000237B6107F10803194641F20230FFF7A9FB0346002B14BF01230023DBB2002B01D00023D1E07B6A11
S32D0001209803F44003002B1ED13B6A1B0A03F00F033B633B6A03F003037B637B6B9A02FB699B0D13437B63FB69B6
S32D000120C0DB0903F00703FB627B6B5A1CFB6A02339A403B6B093B9A40BB6B9A600CE0BB6B01225A73FB691B0A74
S32D000120E8C3F315037B637B6B01339A02BB6B9A6007233B7200237B72BB6B1B69FB6000233B7400237B6107F192
S32D000121100803194641F20230FFF75CFB0346002B14BF01230023DBB2002B01D0002384E010233B7200237B72F6
S32D000121384FF40073FB6000233B7400237B6107F10803194641F20230FFF740FB0346002B14BF01230023DBB283
S32D00012160002B0DD0002368E074190020581700206C170020040000201887020000700440BB6B1B681B68012B2D
S32D0001218849D137233B7200237B72BB6B1B69FB6000233B7400237B6107F10803194641F20230FFF713FB03460D
S32D000121B0002B14BF01230023DBB2002B01D000233BE046233B7200237B720223FB6000233B7400237B6107F185
S32D000121D80803194641F20230FFF7F8FA0346002B14BF01230023DBB2002B01D0002320E00123BB6207F1280383
S32D00012200194641F20730FFF7E5FA0346002B14BF01230023DBB2002B01D000230DE0094B1B78DBB223F001035F
S32D00012228DAB2064B1A70054B1B78DBB203F00303DBB218464037BD4680BD00BF0400002080B489B000AF78603E
S32D0001225039607B687B61364B3B613B69002B01D100235FE03B691B68022B0BD03B691B68032B07D03B691B6865
S32D00012278072B03D03B691B68082B0BD12B4B5B6A03F00403002B14BF01230023DBB2002B00D0F3E73B68FB6121
S32D000122A0FB69002B3DD0FB69B3F5007F28BF4FF40073FB60FB6803339B08BB61BB69002B2AD01C4B1B6B03F46B
S32D000122C8E003002B14BF01230023DBB2002B09D0164B1B6B154A43F4E00343F02003136300231BE0114B5B6AC3
S32D000122F003F40063002B0CBF01230023DBB2002B00D0F3E70B497B691A1D7A610A6A1A60BB69013BBB61D1E75A
S32D00012318FA69FB68D31AFB61BEE7012318462437BD4680BC704700BF7017002000100B4080B58EB000AFB96013
S32D000123407A601A460346FB731346BB73414B7B63FB7B002B02D1BB7B002B01D1042375E03D4B1B78DBB203F0CE
S32D000123680103002B14BF01230023DBB2002B01D0032367E0BB68002B01D1002362E07B6B1B7B002B02D17B6825
S32D000123905B027B60BB7B012B28D111233B7500237B757B68BB6101233B77BB7B3B6207F11403194641F2023019
S32D000123B8FFF70CFA0346002B0CBF01230023DBB2002B38D04FF40071B868FFF739FF0346002B14BF0123002324
S32D000123E0DBB2002B2BD00023BB7328E012233B7500237B757B68BB6101233B77BB7B3B6207F11403194641F281
S32D000124080230FFF7E3F90346002B0CBF01230023DBB2002B0FD0BB7B5B021946B868FFF70FFF0346002B14BF27
S32D0001243001230023DBB2002B01D00023BB73BB7B002B01D0012300E0002300BF18463837BD4680BD58170020A8
S32D000124580400002080B487B000AF786039607B68FB603B687B617B69002B3DD07B69B3F5007F28BF4FF4007325
S32D000124803B617A693B69D31A7B613B6903339B083B613B69002BEAD0184B1B6B03F4E003002B14BF0123002397
S32D000124A8DBB2002B0AD0134B1B6B124A43F4E00343F0100313634FF0FF3316E00D4B5B6A03F48063002B0CBF09
S32D000124D001230023DBB2002B00D0F3E7FB681A1DFA60064A1B6813623B69013B3B61D0E7012318461C37BD46ED
S32D000124F880BC704700100B4080B58EB000AFB9607A601A460346FB731346BB735D4B7B63FB7B002B02D1BB7B84
S32D00012520002B01D10423ADE0594B1B78DBB203F00103002B14BF01230023DBB2002B01D003239FE0524B1B787D
S32D00012548DBB203F00403002B14BF01230023DBB2002B01D0022391E0BB68002B01D100238CE07B6B1B7B002B23
S32D0001257002D17B685B027B60BB7B012B28D118233B7500237B757B68BB6100233B77BB7B3B6207F114031946E0
S32D0001259841F20230FFF71AF90346002B0CBF01230023DBB2002B38D04FF40071B868FFF751FF0346002B14BFFF
S32D000125C001230023DBB2002B2BD00023BB7328E019233B7500237B757B68BB6100233B77BB7B3B6207F11403E4
S32D000125E8194641F20230FFF7F1F80346002B0CBF01230023DBB2002B0FD0BB7B5B021946B868FFF727FF03468D
S32D00012610002B14BF01230023DBB2002B01D00023BB730D233B7500237B757B6B1B69BB6100233B7700233B626E
S32D0001263807F11403194641F20230FFF7C7F80346002B14BF01230023DBB2002B01D0012314E07A6A0D4B13402D
S32D00012660002B01D001230DE07B6A03F4F853B3F5106F00D0D5E7BB7B002B01D0012300E0002300BF184638377F
S32D00012688BD4680BD58170020040000200880D9FF80B58CB000AF03463A60FB710B46BB713A4BBB62FB79002BA3
S32D000126B001D0042369E0012387F82F30364B1B78DBB203F00103002B14BF01230023DBB2002B01D0032358E0F4
S32D000126D8BB79032B50D801A252F823F0F5260100FD2601000D2701001D270100002387F82F3044E0BB6A9A6843
S32D000127003B681A60002387F82F303CE03B684FF400721A80002387F82F3034E009233B7200237B72BB6A1B69D7
S32D00012728FB6000233B7400237B6107F10803194641F20230FFF74AF80346002B14BF01230023DBB2002B01D040
S32D0001275001231AE07B6A03F44003002B0CD13B6A9B0C03F07F035A1C7B6A1B0A03F00303013B9A403B681A60A8
S32D00012778002387F82F3002E0042387F82F3097F82F3018463037BD4680BD00BF581700200400002080B483B07E
S32D000127A000AF0346FB71FB79002B01D0012302E0034B1B78DBB218460C37BD4680BC70470400002080B483B0A0
S32D000127C800AF7860164B03F580539B6B144A43F0010302F580529363124A7B689360114B05225A600F4B1B6889
S32D000127F00E4A43F0010313600C4B1B6803F08003002B0CBF01230023DBB2002B00D0F3E7064B1B68054A23F093
S32D000128180103136000BF0C37BD4680BC704700BF007004400000044080B582B000AF786039607B68012B07D1FD
S32D000128403B684FF6FF72934202D1034800F00EF800BF0837BD4680BD7C19002080B500AF4FF6FF710120FFF784
S32D00012868E3FF80BD80B483B000AF78607B6800221A707B6818460C37BD4680BC7047000080B582B000AF78603D
S32D000128907B681B7883F00103DBB2002B21D0134B03F580531A464FF400639362104B4FF440721A620E4B4FF4F7
S32D000128B840725A620D4B1B68DA0F13445B104FF4614219460A48FCF79BF9642000F08AF87B6801221A70012335
S32D000128E000E0002318460837BD4680BD0070044000D004408019002000B00E4080B582B000AF786008461146D7
S32D000129081A460346FB700B46BB7013467B707F210E48FCF748FA08210C48FCF744FAFB7819460A48FCF73FFAA3
S32D00012930BB7819460748FCF73AFA7B7819460548FCF735FAFF210348FCF731FA00BF0837BD4680BD00B00E40EA
