S01100002E2E2F50726F746575732E73313966
S32D0000C000000000205DC2000011C3000017C300001DC3000023C3000029C3000000000000000000000000000073
S32D0000C028000000002FC3000035C30000000000003BC3000041C30000C9DE0000D5DE0000E1DE0000EDDE00001A
S32D0000C050F9DE000005DF000011DF00001DDF000029DF000035DF000041DF00004DDF000059DF000065DF000037
S32D0000C07871DF00007DDF000089DF000095DF0000A1DF0000ADDF0000B9DF0000C5DF0000D1DF0000DDDF00005E
S32D0000C0A0E9DF0000F5DF000001E000000DE0000019E0000025E0000031E000003DE0000049E0000055E000007E
S32D0000C0C861E000006DE0000079E0000085E0000091E000009DE00000A9E00000B5E00000C1E00000CDE00000A4
S32D0000C0F0D9E00000AD550100E5E00000F1E00000FDE0000009E1000015E1000021E100002DE1000039E10000E9
S32D0000C11845E1000051E100005DE1000069E1000075E1000081E100008DE1000099E10000A5E10000B1E1000061
S32D0000C140BDE10000C9E10000D5E10000E1E10000C12B0100EDE10000F9E1000005E2000011E200001DE20000A3
S32D0000C16829E2000035E2000041E200004DE2000059E2000065E2000071E200007DE2000089E2000095E200001F
S32D0000C190A1E20000ADE20000B9E20000FD270100C5260100612701004DDC00009D280100C5E20000D1E20000F1
S32D0000C1B8DDE2000078A4020000000020D816000078A402000000FF1F00000000D8160020EC0600000000FF1F14
S32D0000C1E00000000080B489B000AFF860B9607A60BB68FB61FB68BB6100237B617A697B689A420BD2BA69131DFB
S32D0000C208BB61FB69191DF96112681A607B6904337B61EFE700BF2437BD4680BC704780B485B000AF786039609E
S32D0000C2307B68FB600023BB60BA683B689A4208D2FB681A1DFA6000221A60BB680433BB60F2E700BF1437BD46FE
S32D0000C25880BC704780B586B000AF72B6234B4CF220521A80214B4DF628121A80204B4FF4E9721A801F4B7B615F
S32D0000C2807B691F4A934214D27B691A1D7A611B683B617B691A1D7A611B68FB607B691A1D7A611B68BB60BA68E9
S32D0000C2A8F9683869FFF79AFFE6E77B69134A93420ED27B691A1D7A611B68FB607B691A1D7A611B68BB60B9688B
S32D0000C2D0F868FFF7A8FFECE70B4B7B600B4A7B681A6015F029FA62B601F078FD01F0FEFBFEE700BF0E200540E6
S32D0000C2F800200540BCC10000D4C10000E4C1000008ED00E000C0000080B400AFFEE780B400AFFEE780B400AFF4
S32D0000C320FEE780B400AFFEE780B400AFFEE780B400AFFEE780B400AFFEE780B400AFFEE780B400AFFEE780B426
S32D0000C34800AFFEE7FFFFFFFFFFFFFFFFFFFFFFFFFFFFFFFFFFFFFFFFFFFFFFFFFFFFFFFFFFFFFFFFFFFFFFFF57
S32D0000C370FFFFFFFFFFFFFFFFFFFFFFFFFFFFFFFFFFFFFFFFFFFFFFFFFFFFFFFFFFFFFFFFFFFFFFFFFFFFFFFFC7
S32D0000C398FFFFFFFFFFFFFFFFFFFFFFFFFFFFFFFFFFFFFFFFFFFFFFFFFFFFFFFFFFFFFFFFFFFFFFFFFFFFFFFF9F
S32D0000C3C0FFFFFFFFFFFFFFFFFFFFFFFFFFFFFFFFFFFFFFFFFFFFFFFFFFFFFFFFFFFFFFFFFFFFFFFFFFFFFFFF77
S32D0000C3E8FFFFFFFFFFFFFFFFFFFFFFFFFFFFFFFFFFFFFFFFFFFFFFFFFFFFFFFFFFFFFFFFFFFFFFFFFEFFFFFF50
S32D0000C44010B5054C237833B9044B13B10448AFF300800123237010BDD816002000000000E8A2020008B5034B87
S32D0000C4681BB103490348AFF3008008BD00000000DC160020E8A2020080B582B000AF7860786811F007FB0346A4
S32D0000C49018460837BD4680BD80B582B000AF7860786811F043FC034618460837BD4680BD80B500AF044A0549ED
S32D0000C4B8054809F0E7FF0346044A136000BF80BD147F0200187F0200A81A0020F416002080B500AF034B1B6835
S32D0000C4E0194603480AF09EF800BF80BDF4160020A81A002080B500AF154807F084F9002300221449124807F044
S32D0000C508A6FB0023012212490F4807F0A0FB0023022210490C4807F09AFB002303220E49094807F094FB0023C1
S32D0000C53004220C49064807F08EFB0B4808F0DCFE01460D230322024807F0A1FB00BF80BD201A0020247F0200FB
S32D0000C558347F0200447F0200547F0200647F02006C1A002080B582B000AF786039600D237A680B490B4807F0A4
S32D0000C5806AFB0D237A683968084807F080FB084808F0B2FE01460D230322044807F077FB00BF0837BD4680BD2C
S32D0000C5A8707F0200201A00206C1A002080B582B000AF7860194B1B681A2B25DC174B1A6800231749174807F09C
S32D0000C5D042FB144B1A6800237968144807F03BFB134B1B68002B0DD0114B1B687A68194610480AF0A7F80E4B3F
S32D0000C5F81B680F4A19460D480AF0A0F8074B1B680133064A136005E0044B05221A607868FFF7CCFF00BF0837B3
S32D0000C620BD4680BD00000020807F0200201A0020F4160020A81A00209C7F020080B582B000AF78604FF4FA716C
S32D0000C648104806F083FC40F6FC010E4806F09BFC0D490C4806F0B4FC7B6801221A704FF4FA710A4806F072FC9D
S32D0000C67040F6FC01074806F08AFC0749054806F0A3FC7B6818460837BD4680BD101700200000B4421C1700201C
S32D0000C6980000C84280B582B000AF786039603968034806F08DFC00BF0837BD4680BD00BF1C17002080B582B0C1
S32D0000C6C000AF78607B681B78002B08D04FF00001084806F079FC7B6800221A7006E00649044806F071FC7B68FB
S32D0000C6E801221A7000BF0837BD4680BD101700200000B442B0B584B000AFF860B9607A60786813F0CDFB044674
S32D0000C710786813F0C9FB0546786813F0C5FB03462A462146F86800F0EBF8B86805F068FFF86800F0D3F800BFBD
S32D0000C7381037BD46B0BD80B584B000AFF860B9607A603B603A68B968F86800F00DF8786805F052FFF86800F090
S32D0000C760BDF800BF1037BD4680BD000000000000B0B588B000AFF860B9607A60786812F027FF04460D46B86854
S32D0000C78812F034FF4AA3D3E9002312F087FF02460B46104619464FF000024D4B13F0A8F802460B4644A1D1E9F8
S32D0000C7B0000112F0BFFD02460B461046194611F01DF902460B462046294612F06BFF02460B461046194613F00C
S32D0000C7D85DFA0346FB61786812F0F6FE04460D46B86812F003FF32A3D3E9002312F056FF02460B461046194647
S32D0000C8004FF00002344B13F077F802460B462EA1D1E9000112F08EFD02460B461046194611F0ECF802460B465C
S32D0000C8282046294612F03AFF02460B461046194613F02CFA0346BB61786812F0C5FE04460D46B86812F0D2FEC2
S32D0000C85019A3D3E9002312F025FF02460B46104619464FF000021C4B13F046F802460B4617A1D1E9000112F0B4
S32D0000C8785DFD02460B461046194611F0BBF802460B462046294612F009FF02460B461046194613F0FBF9034630
S32D0000C8A07B617B69BA69F969F86800F029F800BF2037BD46B0BD00BF7A008BFCFA2109405C40683D7CD9124022
S32D0000C8C866801E7DA6F104405100B2FD51C1E03F0080664080B582B000AF78604FF000034FF000024FF00001DE
S32D0000C8F0786800F005F800BF0837BD4680BD000080B584B000AFF860B9607A603B604FF00001B86813F0BAFCF8
S32D0000C9180346002B08D0B968534801F049FDB9680220FFF71FFE25E0B86812F05FFE4AA3D3E9002312F0B2FE5A
S32D0000C94002460B461046194613F0A4F903461946474801F031FDB86812F04CFE40A3D3E9002312F09FFE024670
S32D0000C9680B461046194613F091F9034619460220FFF7F8FD4FF00001786813F083FC0346002B08D07968394809
S32D0000C99001F012FD79680020FFF7E8FD25E0786812F028FE30A3D3E9002312F07BFE02460B461046194613F012
S32D0000C9B86DF9034619462D4801F0FAFC786812F015FE27A3D3E9002312F068FE02460B461046194613F05AF93D
S32D0000C9E0034619460020FFF7C1FD4FF00001386813F04CFC0346002B08D039681E4801F0DBFC39680120FFF7AF
S32D0000CA08B1FD25E0386812F0F1FD15A3D3E9002312F044FE02460B461046194613F036F903461946124801F06F
S32D0000CA30C3FC386812F0DEFD0BA3D3E9002312F031FE02460B461046194613F023F9034619460120FFF78AFD2B
S32D0000CA5800BF1037BD4680BDCDCCCCCCCCCCEC3F666666666666EE3FF8160020001700200817002080B582B0DA
S32D0000CA8000AF0E4805F068FF78604FF07C51786813F0FCFB0346002B01D001230AE04FF07E51786813F0F2FB38
S32D0000CAA80346002B01D0022300E0002318460837BD4680BD2817002080B588B002AF38710E48FFF773FD381DDF
S32D0000CAD050230D4A0D49FFF732FE0D4B7B610D4B3B614FF00003FB604FF07C530093FB683A697969387900F003
S32D0000CAF803FB00BF1837BD4680BD00BFA07F02000D3C5D3F00008743000010410000604180B594B002AF32489F
S32D0000CB20FFF748FD00F0F6FE07F1400207F144031146184600F008FF7B6C184612F05AFD02460B4624A1D1E9ED
S32D0000CB48000112F0F3FB02460B461046194613F09DF80346234A13603B6C184612F046FD02460B461CA1D1E965
S32D0000CB70000112F0DFFB02460B461046194613F089F803461A4A1360184B1B68184612F031FD02460B4638463D
S32D0000CB98CDE90023154A402115F038FD3B461846FFF704FD104B1B68184612F01FFD02460B463846CDE900237C
S32D0000CBC00D4A402115F026FD3B461846FFF7F2FC00BF4837BD4680BD9A999999999911406666666666E64640D4
S32D0000CBE8B87F02002C17002030170020D07F0200E07F020080B588B002AF38710C4B7B610C4B3B610C4BFB60CB
S32D0000CC104FF080430093FB683A697969387900F06FFA3B1D502207491846FFF7A1FD00BF1837BD4680BD00BF56
S32D0000CC380000B8410000604100809D430000344380B582B000AF38710648FFF7AFFC381D5023054A0549FFF754
S32D0000CC606EFD00BF0837BD4680BD00BFF07F0200E78745400000344380B588B002AF38711148FFF797FC3B1D62
S32D0000CC88502210491846FFF735FD381D50230E4A0E49FFF750FD0E4B7B610E4B3B614FF00003FB604FF07C539E
S32D0000CCB00093FB683A697969387900F021FA00BF1837BD4680BD00BF04800200ADDDDD3E52069E3F000052431D
S32D0000CCD8333393410000364280B588B002AF38711048FFF763FC381D50230F4A0F49FFF722FD3B1D6FF04F0272
S32D0000CD000D491846FFF7FAFC0C4B7B610C4B3B610C4BFB600C4B0093FB683A697969387900F0EEF900BF183725
S32D0000CD28BD4680BD188002000D3C5D3F00007042F821423FCDCC8C41333357420000D242CDCC4C3E80B588B0C9
S32D0000CD5002AF38711048FFF72DFC381D50230F4A0F49FFF7ECFC3B1D6FF04F020D491846FFF7C4FC0C4B7B61E8
S32D0000CD780C4B3B610C4BFB600C4B0093FB683A697969387900F0B8F900BF1837BD4680BD2C8002000D3C5D3FE3
S32D0000CDA000007042F821423F0000404133333F420000D242CDCC4C3E80B582B000AF3871381D5023104A11493F
S32D0000CDC8FFF7B9FC3B1D0F491846FFF763FC4FF000000D4905F030FC381D5023084A0B49FFF7A9FC3B1D0A49C5
S32D0000CDF01846FFF753FC4FF00000084905F020FC00BF0837BD4680BDEAD67C3E0000F04100001C4000005243F7
S32D0000CE180000F0420000E03F80B582B000AF38713B1D12491846FFF735FC381D5023104A1049FFF780FC381D62
S32D0000CE4050230F4A0F49FFF77AFC3B1D0E491846FFF724FC4FF000000C4905F0F1FB381D5023074A0849FFF73C
S32D0000CE686AFC00BF0837BD4680BD00BF0000344352069E3E0000F0412FA1BD3E000096430000F0420000F03F58
S32D0000CE9080B582B000AF3871381D5023104A1149FFF74DFC3B1D50220F491846FFF726FC3B1D0E491846FFF75F
S32D0000CEB8F1FB4FF000000C4905F0BEFB3B1D0B491846FFF7E7FB4FF00000094905F0B4FB00BF0837BD4680BDC9
S32D0000CEE0E4388E3F000052431EE9133D00008C420000F03F000016430000E03F80B588B002AF38711048FFF7C5
S32D0000CF0855FB381D50230F4A0F49FFF714FC3B1D6FF04F020D491846FFF7ECFB0C4B7B610C4B3B610C4BFB60BB
S32D0000CF300C4B0093FB683A697969387900F0E0F800BF1837BD4680BD408002000D3C5D3F00007042F821423F47
S32D0000CF58CDCC7C41CDCC4C420000D242CDCC4C3E80B582B000AF38711148FFF71FFB381D5023104A1049FFF75E
S32D0000CF80DEFB4FF000000F4905F05AFB3B1D0E491846FFF783FB4FF000004FF0804105F04FFB381D5023054AB3
S32D0000CFA80849FFF7C8FB00BF0837BD4680BD00BF50800200EAD67C3E000096430000E03F000020430000F0427B
S32D0000CFD080B584B000AFF860C7E90023F86812F009FBD7E9002310F075FE02460B46104619461037BD4680BD5F
S32D0000CFF880B584B000AF786039607968386812F099FE034619464FF000021D4B0846FFF7DBFFC7E902014FF007
S32D0000D02000021A4BD7E9020112F0AEFD0346002B0BD04FF00002144BD7E9020112F07CF902460B46C7E9022374
S32D0000D04814E04FF00002104BD7E9020112F0ACFD0346002B0AD04FF00002094BD7E9020112F064F902460B461E
S32D0000D070C7E90223D7E9020112F00CFE034618461037BD4680BD00BF00807640008066C00080664080B586B094
S32D0000D09800AFF860B9607A60B968F868FFF7A8FF0346184612F0A2FA02460B46C7E90423786812F09BFA0246DE
S32D0000D0C00B46D7E9040112F05FFD0346002B10D07B6883F00043184612F08CFA02460B46D7E9040112F06EFD30
S32D0000D0E80346002B01D0012300E0002318461837BD4680BD00000000B0B59AB004AF3873B9607A603B60C04B1B
S32D0000D1101B681946B86812F011FE0346BB60BD4B1B681946786812F009FE03467B6050237B6507F1300207F10E
S32D0000D13834031146184600F003FCF8647B6B4FF00001184613F09EF80346002B40F030823B6B4FF000011846DB
S32D0000D16013F094F80346002B40F026824FF00001F86C13F08BF80346002B40F01D82F86C12F038FA4FF0000280
S32D0000D188A34B12F0D3F802460B464FF00000A14912F0CCF802460B461046194612F076FD0346FB647B6B194686
S32D0000D1B0B86812F0C3FD0346BB643B6B1946786812F0BCFD03467B64B96CB86C12F0C0FE03461C46796C786CC2
S32D0000D1D812F0BAFE03461946204612F0ADFD03461846FFF755F93864B96C786C12F060FF03461846FFF740F9EE
S32D0000D2000346184612F0F6F94FF00002844B12F049FA02460B461046194677A3D3E9002312F06AFB02460B46CC
S32D0000D2281046194612F032FD03463B65396D7B4812F080FD03463B654FF00001B86C13F021F80346002B05D06F
S32D0000D2507549386D12F074FD03463B65386C12F0C9F902460B4607F11400CDE900236F4A1B2115F0CFF907F151
S32D0000D27814031846FFF79AF9386D12F0B7F902460B4607F11400CDE90023674A1B2115F0BDF907F114031846A0
S32D0000D2A0FFF788F97B6B184612F0A4F904460D463B6B184612F09EF902460B4607F11400CDE90223CDE9004551
S32D0000D2C85A4A1B2115F0A2F907F114031846FFF76DF9B86812F08AF904460D46786812F085F902460B4607F1BC
S32D0000D2F01400CDE90223CDE900454F4A1B2115F089F907F114031846FFF754F9396DF86CFFF772FE0446386CBC
S32D0000D31812F06CF938A3D3E9002312F0E9FA02460B461046194612F0B1FC024607F10C007B6D2146FFF7FFF95B
S32D0000D34007F1300207F134031146184600F0FCFAF8647B6B4FF00001184612F097FF0346002B40F029813B6B5F
S32D0000D3684FF00001184612F08DFF0346002B40F01F814FF00001F86C12F084FF0346002B40F01681F86C12F05D
S32D0000D39031F94FF00002204B11F0CCFF02460B464FF000001D4911F0C5FF02460B461046194612F06FFC0346C6
S32D0000D3B8FB643968F86CFFF71BFEF8634FF00001F86B12F07DFF0346002B3CD0F86B12F00DF90BA3D3E90023E0
S32D0000D3E012F08AFA02460B461046194612F052FC24E000BFAFF300807A008BFCFA21094033333333333320401F
S32D0000D408105839B4C84E61402C170020301700200080564000807640008066400000B44200003443648002005B
S32D0000D430788002008C800200A480020001467B6D5A4207F10C031846FFF758F917E0FB6B83F00043184612F0B6
S32D0000D458CDF859A3D3E9002312F04AFA02460B461046194612F012FC014607F10C037A6D1846FFF73FF907F1A9
S32D0000D480300207F134031146184600F05DFAF864F86C12F0AFF84FF000024B4B11F04AFF02460B464FF00000BF
S32D0000D4A8484911F043FF02460B461046194612F0EDFB0346FB64BA6E3968F86CFFF7E6FD034687F83B307B6D81
S32D0000D4D0282B02DD28237B6505E07B6D142B02DD7B6D053B7B65B96EB86812F027FC03461A467B6B01210C466F
S32D0000D4F81946104612F0E4FE0346002B01D100231C46E3B283F00103DBB2002B3FF40DAEB96EB86812F010FC9B
S32D0000D52003461A467B6B01210C461946104612F0ADFE0346002B01D100231C46E3B283F00103DBB2002B3FF4B6
S32D0000D548F4ADB96E786812F0F5FB03461A463B6B01210C461946104612F0B2FE0346002B01D100231C46E3B291
S32D0000D57083F00103DBB2002B3FF4DBADB96E786812F0DEFB03461A463B6B01210C461946104612F07BFE034685
S32D0000D598002B01D100231C46E3B283F00103DBB2002B3FF4C2AD97F83B30002B00D1BCE500BF5837BD46B0BD28
S32D0000D5C0105839B4C84E6140008056400080764080B582B000AF38713B1D6FF04F0209491846FFF78BF83B1D9D
S32D0000D5E807491846FFF756F84FF00000054905F023F800BF0837BD4680BD00BFADDDDD3E0000C8410000E03FBC
S32D0000D61080B588B002AF38711348FEF7CBFF381D5023124A1249FFF78AF83B1D502211491846FFF763F8104BE6
S32D0000D6387B61104B3B614FF00003FB60381D5023084A0C49FFF777F80B4B0093FB683A6979693879FFF750FDBB
S32D0000D66000BF1837BD4680BDB880020052069E3F0000F041F821423F0000D04100007042CDCCCC3E00000000AE
S32D0000D68880B582B000AF38713B1D15491846FFF701F811A1D1E9000104F0CEFF381D5023104A1149FFF747F8D3
S32D0000D6B03B1D50220F491846FFF720F83B1D6FF04F020D491846FFF719F8381D50230B4A0B49FFF734F800BFA9
S32D0000D6D80837BD4680BD00BF9A9999999999C93F000070422FA1BD3E000052438CAA8A3FADDD5D3EEAD67C3E97
S32D0000D7000000F04180B588B002AF38711048FEF751FF381D50230F4A0F49FFF710F83B1D6FF04F020D49184633
S32D0000D728FEF7E8FF0C4B7B610C4B3B610C4BFB600C4B0093FB683A6979693879FFF7DCFC00BF1837BD4680BD80
S32D0000D750CC800200E4380E40000096428CAA8A3F3333E7416666D24100001643CDCC4C3E80B582B000AF387174
S32D0000D7780A48FEF71BFF381D5023094A0949FEF7DAFF3B1D1846FEF795FF4FF00000064904F052FF00BF0837D7
S32D0000D7A0BD4680BDF0800200EAD67C3E000034430000E03F80B588B002AF38710E48FEF7F9FE381D50230D4A71
S32D0000D7C80D49FEF7B8FF0D4B7B610D4B3B614FF00003FB604FF07E530093FB683A6979693879FFF789FC00BFF6
S32D0000D7F01837BD4680BD00BF14810200C1D3AD3F000087430000E0400000384280B582B000AF38710948FEF73D
S32D0000D818CDFE381D5023084A0849FEF78CFF381D5023074A4FF00001FEF785FF00BF0837BD4680BD4081020059
S32D0000D8402C52863F0000874309EDA54080B584B000AF38714FF00000164904F0F1FEFFF70DF9F860FB68012BAD
S32D0000D86809D11348FEF7A2FE381D5023114A1249FEF761FF08E01148FEF798FE381D50230C4A0F49FEF757FF68
S32D0000D890381D50230D4A0E49FEF751FF381D50230C4A4FF00001FEF74AFF00BF1037BD4680BD00BF0000E03FEF
S32D0000D8B854810200EAD67C3E00008743608102000000B44252069E3F00003443EAD6FC3D80B582B000AF002370
S32D0000D8E07B600A48FEF766FE7B68002B08D1FFF7C5F878604FF00000054904F0A1FEF3E77B6818460837BD46A5
S32D0000D90880BD00BF6C8102000000E03F80B582B000AF0A4806F090FB3A463B1D1946074806F086F8034683F048
S32D0000D9300103DBB2002B00D0F2E700BF0837BD4680BD00BF201A002080B58AB000AF786039605FA1D1E90001C3
S32D0000D95804F072FE604808F09DFC78625E4808F07DFC02467B681A605B4808F085FC02463B681A604FF00003AB
S32D0000D9803B624FF00003FB614FF00003BB610A23FB6000237B6100233B613B69092B5FDC4DA1D1E9000104F0EA
S32D0000D9A84BFE4D4808F076FC78624B4808F056FC02467B681A60484808F05EFC02463B681A607B681B684FF0C1
S32D0000D9D00001184612F078FC0346002B3CD03B681B684FF00001184612F06EFC0346002B32D04FF00001786A0C
S32D0000D9F812F066FC0346002B2AD07B681B683749184612F03FFC0346002B21D03B681B683349184612F036FC15
S32D0000DA200346002B18D07B681B681946386A12F087F903463B623B681B681946F86912F07FF90346FB61796AC5
S32D0000DA48B86912F079F90346BB617B6901337B613B6901333B619CE77B69002B22D0786912F01EFA0346194627
S32D0000DA70386A12F021FB03461A467B681A60786912F012FA03461946F86912F015FB03461A463B681A60786911
S32D0000DA9812F006FA03461946B86912F009FB03467B620AE07B684FF040421A603B684FF040421A604FF04043C1
S32D0000DAC07B627B6A18462837BD4680BDAFF30080333333333333D33F7B14AE47E17A943F881A0020000010424D
S32D0000DAE80000904280B582B000AF3B461846FEF7A1FD304808F05CF9FEF7D6FCFEF7F6FCFFF706F82C48FEF7E6
S32D0000DB1051FDFFF7FFFEFFF7DFFE3B4629491846FEF7BCFD3878FFF771FE3878FFF742FE3878FFF71DFE2148AF
S32D0000DB3808F05AFB78607B68002B03D13878FFF701F909E07B68012B03D13878FFF7D2F902E03878FFF7C0F89B
S32D0000DB603878FFF795F93878FFF726F93878FFF74FFD3878FFF72CFD3878FFF7F5F93878FFF74EF93878FFF7B6
S32D0000DB8877F83878FFF75CF83878FEF795FF3878FFF758FE3878FFF7B1FD3878FFF770FD3878FFF727F8FEF7B0
S32D0000DBB093FC002318460837BD4680BD881A0020808102000000164380B582B000AF786039607B68012B1FD114
S32D0000DBD83B684FF6FF7293421AD10F4A00210F4800F07EFB0C4A01210D4800F079FB0A4A02210C4800F074FB71
S32D0000DC0000210B4805F08AF901210A4805F086F90021094804F08EFE00BF0837BD4680BD0000C040F8160020C4
S32D0000DC280017002008170020101700201C1700202817002080B500AF4FF6FF710120FFF7BFFF80BD80B500AFD0
S32D0000DC500F4BD3F8A03003F48053002B14BF01230023DBB2002B10D0094BD3F8A030084A23F48053C2F8A03055
S32D0000DC78064808F02DFD064B1B68054A23F40053136000BF80BD00BF00C00440A81A0020C0F00F4080B400AF8B
S32D0000DCA0124B4FF480725A63114B5B69104A43F4005353610E4B1B680D4A43F4005313600A4B0C4A1A630C4BA0
S32D0000DCC8D3F888310A4A43F08063C2F88831084B9B68074A43F08063936000BFBD4680BC704700BF00C00440A5
S32D0000DCF0C0F00F4003010A0000E100E080B400AF334B00225A70324B98221A70304B9B79DBB203F01003002BDD
S32D0000DD1814BF01230023DBB2002B00D0F2E72A4B9B79DBB29B08DBB203F00303022B14BF01230023DBB2002B24
S32D0000DD4000D0F0E7224B18221A71214B00225A71204B03F580531A461F4B53641C4B54225A711B4B9B79DBB21D
S32D0000DD6803F02003002B0CBF01230023DBB2002B00D0F2E7144B9B79DBB203F04003002B0CBF01230023DBB2D9
S32D0000DD90002B00D0F2E70E4B1B78DBB20C4A03F03F03DBB213700A4B9B79DBB29B08DBB203F00303032B14BF5D
S32D0000DDB801230023DBB2002B00D0F0E700231846BD4680BC704700BF00400640007004400000130180B500AF2F
S32D0000DDE0314B03F580539B6B2F4A43F4785302F580529363FFF752FFFFF780FF2B4B58221A602A4B1B684FF42D
S32D0000DE087A7202FB03F3284A1360274B1B681A46234B03F580535B6C1B0E03F00F030133B2FBF3F31A46214B12
S32D0000DE301A601D4B03F58053DB6B1B4A43F0225302F58052D363184B03F580531B6B164A43F0006302F5805252
S32D0000DE581363174B4FF480721A61642004F0A2FA134B5B69124A23F010035361104B00221A600F4B10225A616A
S32D0000DE800E4805F04DFB04F04FFE04F0ADFE0C4804F0EEFA0B4808F00FFD4FF4FA6004F099FB00BF80BD00BF9A
S32D0000DEA8007004406C190020681900207019002000D00340201A002064190020501D002080B500AFFEF73BFA04
S32D0000DED000BF80BD80B500AFFEF735FA00BF80BD80B500AFFEF72FFA00BF80BD80B500AFFEF729FA00BF80BD2E
S32D0000DEF880B500AFFEF723FA00BF80BD80B500AFFEF71DFA00BF80BD80B500AFFEF717FA00BF80BD80B500AF54
S32D0000DF20FEF711FA00BF80BD80B500AFFEF70BFA00BF80BD80B500AFFEF705FA00BF80BD80B500AFFEF7FFF958
S32D0000DF4800BF80BD80B500AFFEF7F9F900BF80BD80B500AFFEF7F3F900BF80BD80B500AFFEF7EDF900BF80BD6C
S32D0000DF7080B500AFFEF7E7F900BF80BD80B500AFFEF7E1F900BF80BD80B500AFFEF7DBF900BF80BD80B500AF92
S32D0000DF98FEF7D5F900BF80BD80B500AFFEF7CFF900BF80BD80B500AFFEF7C9F900BF80BD80B500AFFEF7C3F9D3
S32D0000DFC000BF80BD80B500AFFEF7BDF900BF80BD80B500AFFEF7B7F900BF80BD80B500AFFEF7B1F900BF80BDA8
S32D0000DFE880B500AFFEF7ABF900BF80BD80B500AFFEF7A5F900BF80BD80B500AFFEF79FF900BF80BD80B500AFCE
S32D0000E010FEF799F900BF80BD80B500AFFEF793F900BF80BD80B500AFFEF78DF900BF80BD80B500AFFEF787F94A
S32D0000E03800BF80BD80B500AFFEF781F900BF80BD80B500AFFEF77BF900BF80BD80B500AFFEF775F900BF80BDE3
S32D0000E06080B500AFFEF76FF900BF80BD80B500AFFEF769F900BF80BD80B500AFFEF763F900BF80BD80B500AF09
S32D0000E088FEF75DF900BF80BD80B500AFFEF757F900BF80BD80B500AFFEF751F900BF80BD80B500AFFEF74BF9C2
S32D0000E0B000BF80BD80B500AFFEF745F900BF80BD80B500AFFEF73FF900BF80BD80B500AFFEF739F900BF80BD1F
S32D0000E0D880B500AFFEF733F900BF80BD80B500AFFEF72DF900BF80BD80B500AFFEF727F900BF80BD80B500AF45
S32D0000E100FEF721F900BF80BD80B500AFFEF71BF900BF80BD80B500AFFEF715F900BF80BD80B500AFFEF70FF939
S32D0000E12800BF80BD80B500AFFEF709F900BF80BD80B500AFFEF703F900BF80BD80B500AFFEF7FDF800BF80BD5B
S32D0000E15080B500AFFEF7F7F800BF80BD80B500AFFEF7F1F800BF80BD80B500AFFEF7EBF800BF80BD80B500AF83
S32D0000E178FEF7E5F800BF80BD80B500AFFEF7DFF800BF80BD80B500AFFEF7D9F800BF80BD80B500AFFEF7D3F8B5
S32D0000E1A000BF80BD80B500AFFEF7CDF800BF80BD80B500AFFEF7C7F800BF80BD80B500AFFEF7C1F800BF80BD99
S32D0000E1C880B500AFFEF7BBF800BF80BD80B500AFFEF7B5F800BF80BD80B500AFFEF7AFF800BF80BD80B500AFBF
S32D0000E1F0FEF7A9F800BF80BD80B500AFFEF7A3F800BF80BD80B500AFFEF79DF800BF80BD80B500AFFEF797F82D
S32D0000E21800BF80BD80B500AFFEF791F800BF80BD80B500AFFEF78BF800BF80BD80B500AFFEF785F800BF80BDD4
S32D0000E24080B500AFFEF77FF800BF80BD80B500AFFEF779F800BF80BD80B500AFFEF773F800BF80BD80B500AFFA
S32D0000E268FEF76DF800BF80BD80B500AFFEF767F800BF80BD80B500AFFEF761F800BF80BD80B500AFFEF75BF8A4
S32D0000E29000BF80BD80B500AFFEF755F800BF80BD80B500AFFEF74FF800BF80BD80B500AFFEF749F800BF80BD10
S32D0000E2B880B500AFFEF743F800BF80BD80B500AFFEF73DF800BF80BD80B500AFFEF737F800BF80BD80B500AF36
S32D0000E2E0FEF731F800BF80BD80B584B000AFF8600B467A60FB72FB68FA7A1A71FB6800225A711749786811F0FB
S32D0000E308DFFF0346002B02D0134B7B600AE04FF07E51786811F0C0FF0346002B02D04FF07E537B60786811F0E0
S32D0000E33061F909A3D3E9002311F0B4F902460B461046194611F0A6FC0246FB681A60FB6818461037BD4680BDCE
S32D0000E358ABAAAAAAAAAA20400000404180B584B000AF786039603B687F2B02DD7F23FB7308E03B6813F1800FD6
S32D0000E38002DA8023FB7301E03B68FB737B685B79FA7B9A4209D07B68FA7B5A717B681979FA7B1E23034804F022
S32D0000E3A89DF800BF1037BD4680BD00BF64190020B0B584B000AF786039603749386811F061FF0346002B02D090
S32D0000E3D0334B3B6008E03349386811F075FF0346002B01D02F4B3B60386811F003F904460D467B681B68184635
S32D0000E3F811F0FCF84FF00002294B11F079FA02460B462046294611F049F902460B461046194611F03BFC034659
S32D0000E4203B604FF00001386811F044FF0346002B10D0386811F0DEF817A3D3E9002311F031F902460B46104691
S32D0000E448194611F0DBFB0346FB6018E0386811F0CDF84FF00002134B11F020F902460B46104619464FF0000226
S32D0000E4700D4B11F041FA02460B461046194611F0C1FB0346FB60F9687868FFF76BFF00BF1037BD46B0BD00BF65
S32D0000E49852B81E85EB51F43F0000C8C20000C842000059400000604080B483B000AF03460A46FB711346BB71CD
S32D0000E4C0BB79002B03D1134B00221A7002E0114B01221A703823FB710E4B1A78FB791343FB710D4B9B78DBB226
S32D0000E4E80B4A43F01003DBB29370094B9B78DBB2074A43F02003DBB29370054AFB79137100BF0C37BD4680BC28
S32D0000E510704700BF341700200060064080B483B000AF01237B607B68312B04DC00BF7B6801337B60F7E700BFD4
S32D0000E5380C37BD4680BC704780B582B000AF03460A46FB711346BB71134B1B7800211846FFF7AAFF00F024F8C1
S32D0000E560104AFB79137100F01FF80E4ABB79137100F01AF80B4B9B78DBB20A4A23F02003DBB29370074B9B78AD
S32D0000E588DBB2064A23F01003DBB29370FFF7C2FF00BF0837BD4680BD351700200060064080B483B000AF174B53
S32D0000E5B01B78002B24D100237B60154BDB78DBB203F00203002B0CBF01230023DBB2002B0DD07B6842F21072E9
S32D0000E5D8934203DD0B4B01221A7004E07B6801337B6000BFE5E7084BDB78DBB2064A43F00203DBB2D37000E091
S32D0000E60000BF0C37BD4680BC704700BF361700200060064080B582B000AF0346FB71FB79184600F05FF800BF7F
S32D0000E6280837BD4680BD80B582B000AF03460A46FB711346BB7100F035F8FB795B00DBB21846FFF7E3FFBB79C2
S32D0000E6501846FFF7DFFF00F037F800BF0837BD4680BD80B500AFFF2000F03CF80346184680BD80B584B000AFEA
S32D0000E6780346FB7100F016F8FB795B005BB243F001035BB2DBB21846FFF7C0FFFFF7E5FF0346FB7300F014F874
S32D0000E6A0FB7B18461037BD4680BD000080B400AF044B9B68034A43F48013936000BFBD4680BC704740F00F407E
S32D0000E6C880B400AF044B5B68034A43F48013536000BFBD4680BC704740F00F4080B485B000AF0346FB71002341
S32D0000E6F0BB73164BDB6A03F00043012B0CBF01230023DBB2002B03D0FB7B0133FB73F0E70E4BDB6A0D4A43F012
S32D0000E7180043D3620B4AFB7953630A4BDB6A03F40033002B0CBF01230023DBB2002B00D0F3E7044B9B6BBB73F6
S32D0000E740BB7B18461437BD4680BC704700C00A4080B582B000AF204B03F580531B6B1E4A43F4805302F58052BF
S32D0000E76813631C4B4FF480721A651B4B5B691A4A43F480135361FFF7A3FF164B4FF400725A65144B4FF4007265
S32D0000E7909A65124B4FF40072DA65124B124A1A60104B124ADA6000237B607B68092B06DCFF20FFF72FFF7B68CA
S32D0000E7B801337B60F5E704A1D1E9000103F03CFF00BF0837BD4680BD9A9999999999B93F0070044000A0044055
S32D0000E7E040F00F4000C00A40000C00800500003E90B486B000AFF860B9607A60FB68534A93420AD1524B03F5FA
S32D0000E80880535B6B504A43F4806302F58052536345E0FB684D4A93420AD14B4B03F580535B6B494A43F40063F3
S32D0000E83002F58052536336E0FB68474A93420AD1434B03F580535B6B414A43F4805302F58052536327E0FB68E4
S32D0000E858404A93420AD13C4B03F580535B6B3A4A43F4005302F58052536318E0FB683A4A93420AD1344B03F5AD
S32D0000E88080539B6A324A43F4806302F58052936209E02F4B03F580539B6A2D4A43F4006302F580529362FB68D9
S32D0000E8A8DB78DBB223F00C03DAB2FB68DA70FB6800229A70BB684FF47A7203FB02F27B681B0192FBF3F39CB274
S32D0000E8D0FB681B78DBB223F01F03FB75230A9BB2DBB203F01F03DAB2FB7D1343DAB2FB681A70E2B2FB685A7042
S32D0000E8F8BB684FF4FA4203FB02F27B681B0192FBF3F39AB263019BB2D31A9CB2FB689B7ADBB223F01F03FB750A
S32D0000E920E3B203F01F03DAB2FB7D1343DAB2FB689A72FB68DB78DBB243F00C03DAB2FB68DA7000BF1837BD46FB
S32D0000E94890BC704700A006400070044000B0064000C0064000D0064000A00E4080B483B000AF78607B681B799F
S32D0000E970DBB203F02003002B0CBF01230023DBB2002B00D0F2E77B68DB79DBB218460C37BD4680BC704780B4A9
S32D0000E99883B000AF78600B46FB707B681B79DBB25BB2DB43DBB2DB09DBB2002B00D0F4E77B68FA78DA7100BF79
S32D0000E9C00C37BD4680BC704780B487B000AFF860B9607A60FB687B61BB683B617B685A1E7A60002B14BF012336
S32D0000E9E80023DBB2002B08D03A69531C3B617B69591C796112781A70ECE700BF1C37BD4680BC704780B487B013
S32D0000EA1000AFF860B9607A60FB687B617B685A1E7A60002B14BF01230023DBB2002B06D07B695A1C7A61BA6840
S32D0000EA38D2B21A70EEE700BF1C37BD4680BC704780B489B000AFF860B9607A60FB68FB61BB68BB6100237B6161
S32D0000EA607B685A1E7A60002B0FD0FB695A1CFA611B781946BB695A1CBA611B78CB1A7B617B69002B01D1012314
S32D0000EA8800E00023002B00D0E6E77B6918462437BD4680BC704780B483B000AF786039607B681B78002B09D001
S32D0000EAB07B681B781A463B68934203D07B6801337B60F1E77B681B7818460C37BD4680BC704780B584B000AF28
S32D0000EAD8786039607B681B6BFB60FA683B689A4252D07B681B79002B35D07B6858787B6803F134010123FA68EC
S32D0000EB0003F0F2FA0346002B14BF01230023DBB2002B01D001233CE07B6800221A717B685A6A7B681B6A1344BB
S32D0000EB28FA689A4217D27B68DB78FB72FB7A012B11D97B681B6AFA681344FB607B6858787B6803F1340101230B
S32D0000EB50FA6803F0C9FAFB7A013BFB72EAE73B68002B15D07B6858787B6803F1340101233A6803F0D5F903464E
S32D0000EB78002B14BF01230023DBB2002B01D0012303E07B683A681A63002318461037BD4680BD80B584B000AF78
S32D0000EBA0786000217868FFF794FF0346FB73FB7B002B40F093807B681B78032B7DD17B685B79002B79D07B684A
S32D0000EBC800221A637B6834334FF4007200211846FFF718FF7B68552283F832227B68AA2283F833227B685222F6
S32D0000EBF083F834207B68522283F835207B68612283F836207B68412283F837207B68722283F818227B6872220F
S32D0000EC1883F819227B68412283F81A227B68612283F81B227B681B69DAB27B6883F81C227B681B699BB21B0A95
S32D0000EC409BB2DAB27B6883F81D227B681B691B0CDAB27B6883F81E227B681B691B0EDAB27B6883F81F227B68DA
S32D0000EC68DB68DAB27B6883F820227B68DB689BB21B0A9BB2DAB27B6883F821227B68DB681B0CDAB27B6883F8C6
S32D0000EC9022227B68DB681B0EDAB27B6883F823227B6858787B6803F134017B685A69012303F01AFA7B680022FF
S32D0000ECB85A717B685B7800220021184603F0DCFA0346002B14BF01230023DBB2002B01D00123FB73FB7B1846C6
S32D0000ECE01037BD4680BD80B483B000AF786039603B68023B3B607B68DB69023B3A689A4201D3002308E07B68D9
S32D0000ED089B781A463B6803FB02F27B68DB6A134418460C37BD4680BC704780B586B000AF786039603B68012B65
S32D0000ED3004D97B68DB693A689A4201D30123B5E07B681B78032B7AD0032B00F3AD80012B02D0022B4DD0A7E09B
S32D0000ED583B683B613B695B083A6913443B617B685A6A3B695B0A134419467868FFF7ADFE0346002B14BF01235F
S32D0000ED800023DBB2002B40F088803B69C3F308037A68134493F83430FB603B6901333B617B685A6A3B695B0A46
S32D0000EDA8134419467868FFF790FE0346002B14BF01230023DBB2002B6DD13B69C3F308037A68134493F8343012
S32D0000EDD01B021A46FB681343FB603B6803F00103002B02D0FB681B0960E0FB68C3F30B035CE07B685A6A3B6879
S32D0000EDF81B0A134419467868FFF767FE0346002B14BF01230023DBB2002B46D13B685B0003F4FF7330337A68CE
S32D0000EE20134404337B617B6901331B781B021AB27B691B781BB213431BB29BB236E07B685A6A3B68DB09134477
S32D0000EE4819467868FFF741FE0346002B14BF01230023DBB2002B22D13B689B0003F4FE7330337A681344043376
S32D0000EE707B617B6903331B781A067B6902331B781B0413437A6901321278120213437A691278134323F0704317
S32D0000EE9808E000BF04E000BF02E000BF00E000BF4FF0FF3318461837BD4680BD80B588B000AFF860B9607A60FD
S32D0000EEC0BB68012B04D9FB68DB69BA689A4202D30223FB77EEE0FB681B78032B00F09780032B00F3DA80012B47
S32D0000EEE802D0022B6BD0D4E0BB687B617B695B087A6913447B61FB685A6A7B695B0A13441946F868FFF7E1FD58
S32D0000EF100346FB77FB7F002B40F0C2807B69C3F308033033FA6813440433BB61BB6803F00103002B0DD0BB69A7
S32D0000EF381B785BB203F00F035AB27B68DBB21B015BB213435BB2DBB201E07B68DBB2BA6913707B6901337B6186
S32D0000EF60FB6801221A71FB685A6A7B695B0A13441946F868FFF7ADFD0346FB77FB7F002B40F090807B69C3F312
S32D0000EF8808033033FA6813440433BB61BB6803F00103002B03D07B681B09DBB20CE0BB691B7823F00F03DAB2E1
S32D0000EFB07B681B0ADBB203F00F03DBB21343DBB2BA69137073E0FB685A6ABB681B0A13441946F868FFF77DFD3B
S32D0000EFD80346FB77FB7F002B62D1BB685B0003F4FF733033FA6813440433BB617B68DAB2BB691A707B689BB2D5
S32D0000F0001B0A9AB2BB690133D2B21A704FE0FB685A6ABB68DB0913441946F868FFF759FD0346FB77FB7F002BEC
S32D0000F02840D1BB689B0003F4FE733033FA6813440433BB61BB6903331B781A06BB6902331B781B041343BA6983
S32D0000F0500132127812021343BA691278134303F070437A6813437B607B68DAB2BB691A707B689BB21B0A9AB2F1
S32D0000F078BB690133D2B21A707B681A0CBB690233D2B21A707B681A0EBB690333D2B21A7009E00223FB7706E0BB
S32D0000F0A000BF04E000BF02E000BF00E000BFFB6801221A71FB7F18462037BD4680BD80B584B000AF7860396097
S32D0000F0C83B68012B04D97B68DB693A689A4202D30223FB7338E00023FB737B68DB693A689A4231D2396878688F
S32D0000F0F0FFF717FEB860BB68002B26D0BB68012B02D10223FB7323E0BB68B3F1FF3F02D10123FB731CE000224B
S32D0000F11839687868FFF7CAFE0346FB73FB7B002B11D17B681B69B3F1FF3F07D07B681B695A1C7B681A617B6812
S32D0000F14001225A71BB683B60CBE700BF00E000BFFB7B18461037BD4680BD80B586B000AF786039603B68002B31
S32D0000F1680DD17B68DB683B613B69002B04D07B68DB693A699A4215D301233B6112E039687868FFF7CAFDB860A0
S32D0000F190BB68012B01D8012364E07B68DB69BA689A4201D2BB685DE03B683B613B697B617B6901337B617B68D3
S32D0000F1B8DB697A699A4207D302237B617A693B699A4201D9002349E079697868FFF7A5FDB860BB68002B0ED024
S32D0000F1E0BB68B3F1FF3F02D0BB68012B01D1BB6838E07A693B699A42DAD1002332E000BF6FF0704279697868F9
S32D0000F208FFF754FE0346FB73FB7B002B09D13B68002B06D07A6939687868FFF747FE0346FB73FB7B002B10D1E2
S32D0000F2307B687A69DA607B681B69B3F1FF3F10D07B681B695A1E7B681A617B6801225A7107E0FB7B012B02D11D
S32D0000F2584FF0FF3300E001237B617B6918461837BD4680BD80B487B000AF786039607B685B6A04333B613B68BD
S32D0000F2805B0A7A6812689278B3FBF2F37B613B691A1D3A611B68FB60FB68002B01D1002310E07A69FB689A423D
S32D0000F2A807D37A69FB68D31A7B613B6904333B61E9E700BF3B691A687B69134418461C37BD4680BC704780B50C
S32D0000F2D084B000AF78600B467B807B687A88DA807B689B68FB60FB68012B05D07B681B68DB69FA689A4201D369
S32D0000F2F8022364E0FB68002B08D17B681B681B78032B03D17B681B689B6AFB60FB68002B13D17B68FA68DA6066
S32D0000F3207B681B681B897A889A4201D302234AE07B681B689A6A7B881B091A447B681A6135E07B681B689B78D9
S32D0000F3489BB21B017B817A887B899A421CD37B681B68F9681846FFF7E0FCF860FB68B3F1FF3F01D101232AE0CD
S32D0000F370FB68012B05D97B681B68DB69FA689A4201D302231FE07A887B89D31A7B80DEE77B68FA68DA607B680D
S32D0000F3981B68F9681846FFF7A2FC02467B881B091A447B681A617B681B6803F134027B8803F00F035B011A44F4
S32D0000F3C07B685A61002318461037BD4680BD90B585B000AF786039607B68DB8801333B813B89002B03D07B6804
S32D0000F3E81B69002B01D10423C4E03B8903F00F03002B40F0B0807B681B695A1C7B681A617B68DB68002B08D1F2
S32D0000F4107B681B681B893A899A42C0F0A0800423ACE03B891B097A6812689278013A1340002B40F094807B6874
S32D0000F4381A687B68DB6819461046FFF76EFCF860FB68012B01D8022394E0FB68B3F1FF3F01D101238EE07B6804
S32D0000F4601B68DB69FA689A426DD33B68002B01D1042383E07B681A687B68DB6819461046FFF76BFEF860FB68B5
S32D0000F488002B01D1072375E0FB68012B01D1022370E0FB68B3F1FF3F01D101236AE07B681B6800211846FFF7A4
S32D0000F4B010FB0346002B14BF01230023DBB2002B01D001235AE07B681B6834334FF4007200211846FFF79AFA23
S32D0000F4D87B681A687B681C68F9681046FFF7FFFB034623630023FB727B681B689B78FA7A9A421CD27B681B6817
S32D0000F50001221A717B681B6800211846FFF7E1FA0346002B14BF01230023DBB2002B01D001232BE07B681B68CD
S32D0000F5281A6B01321A63FB7A0133FB72DCE77B681B68196BFA7A7B681B688A1A1A637B68FA68DA607B681B68DD
S32D0000F550F9681846FFF7C7FB02467B681A617B683A89DA807B681B6803F134023B8903F00F035B011A447B687A
S32D0000F5785A61002318461437BD4690BD80B586B000AF786000217868FFF79DFE0346FB75FB7D002B01D0FB7D65
S32D0000F5A03CE07B681A687B681B6919461046FFF790FA0346FB75FB7D002B2BD17B685B693B613B691B78FB73E0
S32D0000F5C8FB7B002B02D10423FB7522E03B690B331B7803F00803002B0BD17B689B690B2219463869FFF72CFA5E
S32D0000F5F00346002B01D1012300E00023002B0BD100217868FFF7E3FE0346FB75FB7D002B03D1C6E700BF00E025
S32D0000F61800BFFB7D18461837BD4680BD80B584B000AF786000217868FFF74DFE0346FB73FB7B002B21D17B6841
S32D0000F6401A687B681B6919461046FFF742FA0346FB73FB7B002B13D17B685B691B78BB73BB7BE52B0DD0BB7BCF
S32D0000F668002B0AD001217868FFF7ADFE0346FB73FB7B002B01D1DEE700BFFB7B002B1FD17B681A687B681B69C1
S32D0000F69019461046FFF71DFA0346FB73FB7B002B12D17B685B69BB6020220021B868FFF7ADF97B689B690B225A
S32D0000F6B81946B868FFF784F97B681B6801221A71FB7B18461037BD4680BD000080B588B000AF786039603B6893
S32D0000F6E01B68FB60FB681B782F2B03D0FB681B785C2B03D1FB680133FB60F3E77B689B69BB600B222021B8684E
S32D0000F708FFF780F90023FB7700233B613B697B610823BB61FA687B6913441B782E2B2FD17B695A1C7A61FA6829
S32D0000F73013441B78BB77BB7F2E2B0AD17B69022B07D83B695A1C3A61BA681344BA7F1A70EAE7BB7F2F2B07D004
S32D0000F758BB7F5C2B04D0BB7F202B01D90623A7E0FA687B691A443B681A60BB7F202B01D8242200E02022BB6835
S32D0000F7800B331A70002397E07B695A1C7A61FA6813441B78BB77BB7F202B58D9BB7F2F2B55D0BB7F5C2B52D0F4
S32D0000F7A8BB7F2E2B03D03A69BB699A420FD3BB69082B02D1BB7F2E2B01D0062378E008233B610B23BB61FB7FAE
S32D0000F7D09B00FB773AE097F91E30002B08DAFB7F43F00303FB77BB7F803B354AD35CBB77BB7F19463348FFF7F5
S32D0000F7F852F90346002B14BF01230023DBB2002B01D0062354E0BB7F402B07D9BB7F5A2B04D8FB7F43F0020352
S32D0000F820FB770CE0BB7F602B09D9BB7F7A2B06D8FB7F43F00103FB77BB7F203BBB773B695A1C3A61BA681344E0
S32D0000F848BA7F1A709CE7FA687B691A443B681A60BB7F202B01D8042300E00023BB773B69002B01D1062323E004
S32D0000F870BB681B78E52B02D1BB6805221A70BB69082B02D1FB7F9B00FB77FB7F03F00303012B03D1BB7F43F06C
S32D0000F8981003BB77FB7F03F00C03042B03D1BB7F43F00803BB77BB680B33BA7F1A70002318462037BD4680BD98
S32D0000F8C0148202009482020080B584B000AF786039603B681B782F2B03D03B681B785C2B06D13B6801333B6078
S32D0000F8E87B6800229A6004E07B681B689A697B689A603B681B781F2B09D800217868FFF7E2FC0346FB737B68F9
S32D0000F91000225A6169E03B4619467868FFF7DAFE0346FB73FB7B002B58D17868FFF72AFE0346FB737B689B69F8
S32D0000F938DB7ABB73FB7B002B1DD0FB7B042B4BD1BB7B03F02003002B0DD07B6800229A607B6800225A61002399
S32D0000F960FB73BB7B03F00403002B3BD135E0BB7B03F00403002B35D10523FB7332E0BB7B03F00403002B2FD12B
S32D0000F9887B685B69BB60BB680B331B7803F01003002B02D10523FB7323E0BB6815331B781B021AB2BB681433AD
S32D0000F9B01B781BB213431BB29BB21B04BA681B321278120211B2BA681A32127812B20A4312B292B21A437B6819
S32D0000F9D89A609CE700BF04E000BF02E000BF00E000BFFB7B18461037BD4680BD80B582B000AF786039607B681D
S32D0000FA0058787B6803F1340101233A6802F088FA0346002B14BF01230023DBB2002B01D003234AE07B6803F283
S32D0000FA28322301331B781B021AB27B6893F832321BB213431BB2214A934201D0022338E07B686A3303331B7852
S32D0000FA501A067B686A3302331B781B0413437A686A3201321278120213437A6892F86A20134323F07F43144A87
S32D0000FA78934201D100231CE07B68863303331B781A067B68863302331B781B0413437A688632013212781202D1
S32D0000FAA013437A6892F88620134323F07F43064A934201D1002300E0012318460837BD4680BD00BF55AAFFFFEE
S32D0000FAC84641540080B592B000AFF860B9601346FB71FB681B68FB62FB6A1B78303B3B643B6C092B0BD8FB6A71
S32D0000FAF001331B783A2B06D1FB6A0233FB62FB68FA6A1A6002E0A34B1B783B643B6C002B01D00B2367E2A04AA7
S32D0000FB183B6C52F82330BB62BB68BA6A1A60BB6A002B01D10C235AE2BB6A1B78002B1AD0BB6A5B78184602F0FB
S32D0000FB4021FC034687F8273097F8273003F00103002B0CD1FB79002B07D097F8273003F00403002B01D00A23F7
S32D0000FB683DE200233BE2BB6A00221A703B6CDAB2BB6A5A70BB6A5B78184601F093FF034687F8273097F827303F
S32D0000FB9003F00103002B01D0032324E2FB79002B07D097F8273003F00403002B01D00A2319E20023FB63F96BC9
S32D0000FBB8B86AFFF71BFF034687F8473097F84730012B22D1BB6A03F5F9733B623B6A04331B78002B19D03B6A3B
S32D0000FBE00B331B781A063B6A0A331B781B0413433A6A09321278120213433A6A083212781343FB63F96BB86AA7
S32D0000FC08FFF7F4FE034687F8473097F84730032B01D10123E3E197F84730002B01D00D23DDE1BB6A93F84030A9
S32D0000FC301B021AB2BB6A93F83F301BB213431BB2B3F5007F01D00D23CDE1BB6A93F84B301B021AB2BB6A93F814
S32D0000FC584A301BB213431BB29BB2BB63BB6B002B12D1BB6A93F85B301A06BB6A93F85A301B041343BA6A92F8BD
S32D0000FC80592012021343BA6A92F858201343BB63BB6ABA6B1A62BB6A93F84430FB77BB6AFA7FDA70FB7F012BEF
S32D0000FCA804D0FB7F022B01D00D2398E1FA7FBB6B02FB03F3BB63BB6A93F84130FB77BB6AFA7F9A70FB7F002BA9
S32D0000FCD005D0FA7FFB7F013B1340002B01D00D2381E1BB6A93F846301B021AB2BB6A93F845301BB213431BB2FD
S32D0000FCF89AB2BB6A1A81BB6A1B8903F00F03002B01D00D236BE1BB6A93F848301B021AB2BB6A93F847301BB287
S32D0000FD2013431BB29BB27B637B6B002B12D1BB6A93F857301A06BB6A93F856301B041343BA6A92F8552012023A
S32D0000FD481343BA6A92F8542013437B63BB6A93F843301B021AB2BB6A93F842301BB213431BB2BB83BB8B002B14
S32D0000FD7001D10D2337E1BA8BBB6B1A44BB6A1B891B091344BB617A6BBB699A4206D20D2329E100BF3E170020F7
S32D0000FD98381700207A6BBB69D31ABA6A9278B3FBF2F37B617B69002B01D10D2317E1012387F847307B6940F6FE
S32D0000FDC0F572934202D9022387F847307B694FF6F572934202D9032387F847307B699A1CBB6ADA61FA6BBB6904
S32D0000FDE81A44BB6ADA62BA8BFB6B1A44BB6A5A6297F84730032B1ED1BB6A1B89002B01D00D23ECE0BB6A93F8B0
S32D0000FE1063301A06BB6A93F862301B041343BA6A92F8612012021343BA6A92F860201A43BB6A9A62BB6ADB69AC
S32D0000FE389B003B631FE0BB6A1B89002B01D10D23CDE0BB6A5A6ABB6B1A44BB6A9A6297F84730022B03D1BB6A07
S32D0000FE60DB695B000AE0BB6ADA6913465B0013445A08BB6ADB6903F0010313443B63BB6A1A6A3B6B03F2FF136B
S32D0000FE885B0A9A4201D20D23A9E0BB6A4FF0FF321A61BB6A0022DA6097F84730032B40F08680BB6A00225A7172
S32D0000FEB0BB6A93F865301B021AB2BB6A93F864301BB213431BB29BB21A46FB6B1A44BB6A5A61BB6A5878BB6A57
S32D0000FED803F13401BB6A5A69012302F01DF80346002B39D1BB6A93F833321B021AB2BB6A93F832321BB213430D
S32D0000FF001BB23B4A93422BD1BB6A93F837301A06BB6A93F836301B041343BA6A92F8352012021343BA6A92F8D3
S32D0000FF2834201343314A934216D1BB6A93F81B321A06BB6A93F81A321B041343BA6A92F8192212021343BA6AC5
S32D0000FF5092F818221343284A934201D1012300E00023002B27D0BB6A93F823321A06BB6A93F822321B04134369
S32D0000FF78BA6A92F8212212021343BA6A92F820221A43BB6ADA60BB6A93F81F321A06BB6A93F81E321B041343BE
S32D0000FFA0BA6A92F81D2212021343BA6A92F81C221A43BB6A1A61BB6A97F847201A700F4B1B8801339AB20D4B79
S32D0000FFC81A800C4B1A88BB6ADA80BB6A00221A63BB6A00221A71BB6A00229A61002318464837BD4680BD00BF22
S32D0000FFF055AAFFFF52526141727241613C17002080B582B000AF78600B467B807B68002B08D07B681B78002BE6
S32D0001001804D07B68DB887A889A4201D0092311E07B685B78184602F0A9F9034603F00103002B14BF01230023A6
S32D00010040DBB2002B01D0032300E0002318460837BD4680BD80B485B000AF03463960FB71FB79002B01D00B23FE
S32D0001006816E0FB790D4A52F82330FB60FB68002B02D0FB6800221A703B68002B02D03B6800221A70FB79054990
S32D000100903A6841F82320002318461437BD4680BC704700BF3817002080B592B000AFF860B9601346FB71FB6874
S32D000100B800221A60FB7903F01F03FB71FB7923F00103DAB207F11C0107F108031846FFF7F9FC034687F84730D1
S32D000100E007F110037B6397F84730002B09D1BA6807F11C0311461846FFF7E6FB034687F847303B6B3B6497F825
S32D000101084730002B05D13B6C002B02D1062387F84730FB7903F01C03002B00F0B18097F84730002B12D097F818
S32D000101304730042B07D107F11C031846FFF772FA034687F84730FB7943F00803FB713B6B3B6412E03B6C0B33D2
S32D000101581B7803F01103002B03D0072387F8473007E0FB7903F00403002B02D0082387F8473097F84730002B1C
S32D0001018040F0A080FB7903F00803002B00F09A800023FB633B6C0E33FA6BD2B21A70FB6B9BB21B0A9AB23B6CB2
S32D000101A80F33D2B21A70FB6B1A0C3B6C1033D2B21A70FB6B1A0E3B6C1133D2B21A703B6C0B3300221A703B6C95
S32D000101D01C3300221A703B6C1D3300221A703B6C1E3300221A703B6C1F3300221A703B6C15331B781B021AB2AE
S32D000101F83B6C14331B781BB213431BB29BB21B043A6C1B321278120211B23A6C1A32127812B20A4312B292B212
S32D000102201343BB633B6C1A3300221A703B6C1B3300221A703B6C143300221A703B6C153300221A70FB6901223E
S32D000102481A71BB6B002B39D0FB691B6BFB63FB69B96B1846FEF72FFF034687F8473097F84730002B2AD1FB6982
S32D00010270BA6B013ADA60FB69F96B1846FEF729FC034687F847301DE097F84730002B19D13B6C0B331B7803F0C3
S32D000102981003002B03D0042387F847300EE0FB7903F00203002B09D03B6C0B331B7803F00103002B02D0072315
S32D000102C087F8473097F84730002B0FD1FB7903F00803002B03D0FB7943F02003FB71FB691A6BFB68DA61FB6878
S32D000102E83A6C1A6297F84730002B42D1FB68FA799A713B6C15331B781B021AB23B6C14331B781BB213431BB2C4
S32D000103109BB21B043A6C1B321278120211B23A6C1A32127812B20A4312B292B21A43FB681A613B6C1F331B78A2
S32D000103381A063B6C1E331B781B0413433A6C1D321278120213433A6C1C3212781A43FB68DA60FB6800229A6096
S32D00010360FB6800229A61FB6800225A62FA69FB681A60FB69DA88FB689A8097F8473018464837BD4680BD80B5D2
S32D000103888AB000AFF860B9607A603B60BB68BB613B6800221A60FB681A68FB689B8819461046FFF729FE034673
S32D000103B0FB75FB7D002B01D0FB7D7EE1FB689B795BB2002B01DA022377E1FB689B7903F00203002B01D10723C6
S32D000103D86FE1FB68DA687B681A44FB68DB689A4201D200237B607B68002B00F05081FB689B68C3F30803002B4C
S32D0001040040F01381FB689B685B0ADAB2FB681B689B78013BDBB21340BB75BB7D002B49D1FB689B68002B10D17E
S32D00010428FB681B697B627B6A002B1FD1FB681B6800211846FEF78DFE7862FB687A6A1A6114E0FB685B6A002B19
S32D0001045007D0FB689B681946F868FEF707FF786208E0FB681A68FB685B6919461046FEF774FE78627B6A002BB2
S32D0001047800F00C817B6A012B08D1FB689B7963F07F03DAB2FB689A71022312E17B6AB3F1FF3F08D1FB689B7979
S32D000104A063F07F03DAB2FB689A71012305E1FB687A6A5A61FB689B7903F04003002B22D0FB681B685878FB686F
S32D000104C803F12801FB689A69012301F009FE0346002B14BF01230023DBB2002B08D0FB689B7963F07F03DAB270
S32D000104F0FB689A710123E0E0FB689B7923F04003DAB2FB689A71FB681A68FB685B6919461046FEF7E8FB386192
S32D000105183B69002B08D1FB689B7963F07F03DAB2FB689A710223C4E0BB7D3A6913443B617B685B0AFB61FB6927
S32D00010540002B49D0BA7DFB691344FA6812689278934206D9FB681B689B781A46BB7DD31AFB61FB681B6858782C
S32D00010568FB69DBB23A69B96901F0BAFD0346002B14BF01230023DBB2002B08D0FB689B7963F07F03DAB2FB68AD
S32D000105909A71012391E0FB689A693B69D31AFA699A4215D9FB6803F12800FB689A693B69D31A5B02BA6913442B
S32D000105B84FF400721946FEF703FAFB689B7923F04003DAB2FB689A71FB695B023B6248E0FB689B693A699A42DB
S32D000105E020D0FB689A68FB68DB689A420ED2FB681B685878FB6803F1280101233A6901F08FFC0346002B01D077
S32D00010608012300E00023002B08D0FB689B7963F07F03DAB2FB689A7101234AE0FB683A699A61FB689B68C3F3E8
S32D000106300803C3F500733B623A6A7B689A4201D97B683B62FB689B68C3F308032833FA6813443A6AB9691846AC
S32D00010658FEF7B6F9FB689B7943F04003DAB2FB689A71BA693B6A1344BB61FB689A683B6A1A44FB689A603B6845
S32D000106801A683B6A1A443B681A607A683B6AD31A7B60ACE600BFFB689A68FB68DB689A4203D9FB689A68FB687E
S32D000106A8DA60FB689B7943F02003DAB2FB689A71002318462837BD4680BD80B586B000AF78607B681A687B68C8
S32D000106D09B8819461046FFF793FC0346FB75FB7D002B40F0AC807B689B7903F02003002B00F0A5807B689B79A2
S32D000106F803F04003002B1BD07B681B6858787B6803F128017B689A69012301F0E9FC0346002B14BF01230023E3
S32D00010720DBB2002B01D001238AE07B689B7923F04003DAB27B689A717B681A687B68DB6919461046FEF7C5F9D8
S32D000107480346FB75FB7D002B75D17B681B6A3B613B690B331A783B690B3342F02002D2B21A707B68DA683B695B
S32D000107701C33D2B21A707B68DB689BB21B0A9AB23B691D33D2B21A707B68DB681A0C3B691E33D2B21A707B68E5
S32D00010798DB681A0E3B691F33D2B21A707B681A693B691A33D2B21A707B681B699BB21B0A9AB23B691B33D2B2C3
S32D000107C01A707B681B691A0C3B691433D2B21A707B681B691B0C9BB21B0A9AB23B691533D2B21A700023FB6036
S32D000107E83B691633FA68D2B21A70FB689BB21B0A9AB23B691733D2B21A70FB681A0C3B691833D2B21A70FB687F
S32D000108101A0E3B691933D2B21A707B689B7923F02003DAB27B689A717B681B6801221A717B681B681846FEF71F
S32D00010838B0F90346FB75FB7D18461837BD4680BD80B584B000AF78607868FFF736FF0346FB73FB7B002B02D1A4
S32D000108607B6800221A60FB7B18461037BD4680BD80B586B000AF03463960FB71FB793B7301237B6107F11003FA
S32D0001088807F10C017A693868FFF779FD3B697A699A4201D1012301E04FF0FF3318461837BD4680BD80B584B04C
S32D000108B000AF786039600023FB607B681B78002B18D07B681B7839681846FFF7D1FF0346B3F1FF3F0CBF01239D
S32D000108D80023DBB2002B02D04FF0FF3307E07B6801337B60FB680133FB60E2E7FB6818461037BD4680BD80B4C3
S32D0001090085B000AF786039600123FB600023BB600023BB60BA683B689A4208DAFB687A6802FB03F3FB60BB683F
S32D000109280133BB60F2E7FB6818461437BD4680BC70470000B0B59AB000AF78613961FA600023BB64BB6C7B6403
S32D000109507B6CB3F1FF3F00F0F5823B695A1C3A611B7887F84F3097F84F30002B00F0E78297F84F30252B0ED034
S32D0001097897F84F3079691846FFF776FF78647B6CB3F1FF3F00F0CD8201237B64C9E2002387F867300023BB6589
S32D000109A03B695A1C3A611B7887F84F3097F84F30302B09D1012387F867303B695A1C3A611B7887F84F300CE033
S32D000109C897F84F302D2B08D1022387F867303B695A1C3A611B7887F84F3097F84F302E2B05D13B695A1C3A614E
S32D000109F01B7887F84F3097F84F302F2B15D997F84F30392B11D8BA6D13469B0013445B001A4697F84F30134404
S32D00010A18303BBB653B695A1C3A611B7887F84F30E5E797F84F306C2B03D097F84F304C2B0BD197F8673043F0E0
S32D00010A40040387F867303B695A1C3A611B7887F84F3097F84F30002B00F0738297F84F3087F84E3097F84E30EE
S32D00010A68602B08D997F84E307A2B04D897F84E30203B87F84E3097F84E30423B162B00F2788101A252F823F04A
S32D00010A905B0D0100450D01006B0D01007B0D0100950B01007B0D01007B0D01007B0D01007B0D01007B0D01002B
S32D00010AB87B0D01007B0D01007B0D0100630D01007B0D01007B0D01007B0D0100ED0A01007B0D01006B0D01006E
S32D00010AE07B0D01007B0D0100730D0100FB681A1DFA601B68FB620023FB65FA6AFB6D13441B78002B03D0FB6DE1
S32D00010B080133FB65F5E70023BB6497F8673003F00203002B07D1FB6D5A1CFA65BA6D9A4201D9012300E00023AA
S32D00010B30002B09D079692020FFF79AFE78647B6CBA6C1344BB64E4E77969F86AFFF7AEFE78647B6CBA6C134492
S32D00010B58BB64FB6D5A1CFA65BA6D9A428CBF01230023DBB2002B09D079692020FFF77CFE78647B6CBA6C13441A
S32D00010B80BB64EAE77B6CB3F1FF3F00F0D081BB6C7B64CCE1FB68073323F0070303F10802FA60D3E90023C7E9F8
S32D00010BA80E23D7E90E23C7E90C2300237B654FF000024FF00003D7E90E010EF0E1FF0346002B18D079692D205F
S32D00010BD0FFF74EFE78647B6CBA6C1344BB64BC6BFB6B83F00045C7E90E453B6B3B607B6B83F000437B60D7E995
S32D00010BF80023C7E90C23D7E90C010EF0FFFF0346002B0ED04FF00002AB4BD7E90C010EF06FFE02460B46C7E9F9
S32D00010C200C237B6D01337B65E9E77B6D013BFB65FB6DB3F1FF3F35D0FB6D19460A20FFF75EFE034618460EF0EF
S32D00010C48C3FC02460B46D7E90E010EF051FE02460B46104619460EF0D1FF0346BB62BA6A964B83FB0213991046
S32D00010C70D317C91A0B469B000B445B00D31ABB62BB6A3033BB62BB6ADBB279691846FFF7EFFD78647B6CBA6C86
S32D00010C981344BB64FB6D013BFB65C5E779692E20FFF7E2FD78647B6CBA6C1344BB64BB6D002B01D10323BB6538
S32D00010CC001233B663A6EBB6D9A4233D83B6E19460A20FFF714FE034618460EF079FCD7E90E230EF0DFFC024623
S32D00010CE80B46104619460EF089FF0346BB62BA6A724B83FB02139910D317C91A0B469B000B445B00D31ABB6261
S32D00010D10BB6A3033BB62BB6ADBB279691846FFF7A7FD78647B6CBA6C1344BB643B6E01333B66C7E77B6CB3F16D
S32D00010D38FF3F00F0FA80BB6C7B64F6E0FB681A1DFA601B68DBB279691846FFF78DFD7864ECE0022387F8663062
S32D00010D6013E0082387F866300FE00A2387F866300BE0102387F8663007E097F84F3079691846FFF775FD786454
S32D00010D88D4E097F8673003F00403002B04D0FB681A1DFA601B680CE097F84E30442B04D1FB681A1DFA601B683E
S32D00010DB003E0FB681A1DFA601B683B6597F84E30442B0BD13B6D002B08DA3B6D5B423B6597F8673043F00803C4
S32D00010DD887F8673000233B6697F866203B6DB3FBF2F101FB02F29B1A87F84E3097F866303A6DB2FBF3F33B6523
S32D00010E0097F84E30092B0BD997F84F30782B01D1272200E0072297F84E30134487F84E303B6E5A1C3A6697F81A
S32D00010E284E203032D2B2603307F108010B4403F8502C3B6D002B03D03B6E0F2B00D8CBE797F8673003F00803B6
S32D00010E50002B09D03B6E5A1C3A66603307F1080213442D2203F8502C3B6EFB6597F8673003F00103002B01D0DC
S32D00010E78302300E0202387F84E300023BB6497F8673003F00203002B07D1FB6D5A1CFA65BA6D9A4201D9012337
S32D00010EA000E00023002B0FD097F84E3079691846FFF7DEFC78647B6CBA6C1344BB64E2E70000244067666666D4
S32D00010EC83B6E013B3B6607F118023B6E13441B7879691846FFF7C8FC78647B6CBA6C1344BB643B6E002B00D0D3
S32D00010EF0EAE7FB6D5A1CFA65BA6D9A428CBF01230023DBB2002B09D079692020FFF7B0FC78647B6CBA6C13449B
S32D00010F18BB64EAE77B6CB3F1FF3F07D0BB6C7B6404E000BF02E000BF00E000BFBA6C7B6C1344BB6408E500BF02
S32D00010F4000E000BF7B6CB3F1FF3F01D17B6C00E0BB6C18466837BD46B0BD00BF80B588B000AF786039608023FE
S32D00010F683B610F23FB604FF0FF337B610223FB61FB69B3F5807F23D80123BB61BB69102B1AD8FB69BA6902FB48
S32D00010F9003F33A6803FB02F27B68D31ABB60BB68002B09DBBB687A699A4205D9BB687B61FB693B61BB69FB604D
S32D00010FB8BB690133BB61E1E7FB695B00FB61D7E71D4BDB6A1C4A23F00803D3621A4BDB6A23F47F2323F47F6333
S32D00010FE0BB613B695B081B029AB2FB68013B1B01DBB21A43BB691343114A43F46023D3620F4B5B6A03F00803D0
S32D00011008002B0CBF01230023DBB2002B03D00A2001F0DCFAF0E7084BDB6A074A43F00803D362054B1B6B044AA9
S32D0001103043F48013136300BF2037BD4680BD00BF00100B4080B582B000AF786039607B6800221A60414B424AC3
S32D00011058DA62404BDB6A03F08073002B14BF01230023DBB2002B00D0F3E73A4B0022C3F8C020384B4FF4813215
S32D000110805A60364B28229A62344B4FF001125A643B689B6833491846FFF760FF2F4B5B6A03F00303002B14BF26
S32D000110A801230023DBB2002B00D0F3E72C4B40F243421A602A4B40F243425A60284B4FF488629A60264B40F2A5
S32D000110D04342DA60244B40F243421A61224B40F243425A61214B03F580531B6B1F4A43F4003302F580521363E3
S32D000110F8184B4FF6FF721A63164B1B4A5A63154BDB6A144A43F00063D362124BDB6A03F00063002B14BF0123C8
S32D000111200023DBB2002B00D0F3E70C4B5B6A03F48033002B14BF01230023DBB2002B02D07B6801221A60054BB6
S32D000111481B6B044A43F080031363002318460837BD4680BD00100B400080000160CC050000D0044000700440A3
S32D00011170B3007F0080B400AF064B5A6A40F207331340002B14BF01230023DBB21846BD4680BC704700100B40E6
S32D0001119880B485B000AF7860074B1B6B7A681340FB60FB68002B00D1F6E7FB6818461437BD4680BC704700BFD3
S32D000111C000100B4080B584B000AF78607B681B7803F03F03764A52F82330FB60FB68002B05D17B681B78002B4D
S32D000111E801D00123DCE0714B1B6B704A43F0800313636E4B5B6A03F00103002B14BF01230023DBB2002B00D0BD
S32D00011210F3E7684A7B685B689360FB6823F44003FB607B685B789B0503F44003FA681343FB607B685B78022BEC
S32D0001123803D1FB6843F40013FB607B685B78042B16D1FB6803F44033B3F5003F08D1FB6823F44033FB60FB68A7
S32D0001126043F44033FB6007E0FB6823F44033FB60FB6843F40033FB604E4B5B684D4A9BB253607B68DB68002BBF
S32D000112882AD0FB6803F44033B3F5403F03D0FB6843F40013FB607B681B7A002B03D0FB6843F01003FB607B6811
S32D000112B0DB68012B03D9FB6843F02003FB607B68DB68B3F1FF3F0BD03A4B5A687B68DB681B04384913434B60BF
S32D000112D8FB6843F00203FB60344B00221A60334AFB68D3603248FFF753FF0346012B14BF01230023DBB2002BBA
S32D0001130009D02C4B1B6B2B4A43F4702343F001031363012348E0274B1B6B03F08003002B14BF01230023DBB270
S32D00011328002B07D0214B1B6B204A43F001131363012335E01D4B1B6B03F48033002B14BF01230023DBB2002BAD
S32D0001135008D0184B1B6B174A43F0011313634FF0FF3321E0FB6803F44033002B15D0114B1A697B681A61FB68A0
S32D0001137803F44033B3F5803F0BD10C4B5A697B685A610A4B9A697B689A61084BDA697B68DA61064B1B6B054AD1
S32D000113A043F001031363002318461037BD4680BDB082020000100B4001000E0080B592B000AF78603960002311
S32D000113C87B643B68BB63994B7B637B6B002B02D140F601235FE3964B3B633B6B002B02D140F60B2357E33B6BAD
S32D000113F01B68FB62FB6A002B02D140F60B234EE37B6841F20932934200F23F837B68B3F5985F08D87B68032BA9
S32D0001141800F01A837B68092B00F0098331E37B68A3F59853013B082B00F22B8301A252F823F000BF61140100C7
S32D000114404D170100A919010063170100A1170100C71801000F190100511801006B1801007649786BFFF7EEFDA7
S32D0001146878647B6C002B40F01083002387F84330002387F82B30002387F82A30002387F82930002387F8423087
S32D00011490002387F8283000233B7200237B720023FB6000233B7400237B6107F108031846FFF788FE0346002BB3
S32D000114B814BF01230023DBB2002B02D001237B64E8E240F24C4001F081F808233B7200237B724FF4D573FB609E
S32D000114E000233B7400237B6107F108031846FFF769FEF863FB6B002B09D1BA69FB689A4202D001237B64C9E2A6
S32D00011508012387F84230012387F8283097F82830002B00F0A58037233B7200237B720023FB6000233B740023F3
S32D000115307B6107F108031846FFF744FEF863FB6B002B02D001237B64A8E269233B7200237B720023FB600023E2
S32D000115583B7400237B6107F108031846FFF72EFE0346002B14BF01230023DBB2002B02D001237B648EE2BB6984
S32D0001158003F44013002B6FD00023FB630A2001F021F8FB6B0133FB6337233B7200237B720023FB6000233B7474
S32D000115A800237B6107F108031846FFF707FE0346002B14BF01230023DBB2002B02D001237B6428E069233B725D
S32D000115D000237B7297F84230002B02D0184BFB6002E04FF44013FB6000233B7400237B6107F108031846FFF725
S32D000115F8E5FD0346002B14BF01230023DBB2002B02D001237B6406E0BB69002B03DBFB6B632B00D8B6E77B6C64
S32D00011620002B40F03882FB6B632B0BD9002387F8423019E0581700205C190020A482020000003040012387F842
S32D00011648433097F84230002B0AD0002387F84230BB6903F08043002B02D0012387F8423097F82A30002B02D014
S32D000116707B6B07221A6097F82930002B02D07B6B08221A6097F82B30002B02D07B6B04221A6097F84330002BB9
S32D0001169809D07B6B02221A6097F84230002B02D07B6B03221A6097F82B30002B0DD097F84330002B09D07B6B65
S32D000116C005221A6097F84230002B02D07B6B06221A60924B00221A60904B00225A608F4B00229A608D4B0022B4
S32D000116E8DA608C4B00221A618A4B00225A61FB6A9A68FB6A5B6819461046FFF72BFC854B40F243421A60834B43
S32D0001171040F243425A60814B4FF488629A607F4B40F24342DA607D4B40F243421A617B4B40F243425A617A4B94
S32D0001173803F580531B6B784A43F4003302F580521363A7E1B86BFFF739FDF863FB6B002B00F09F8102237B64EF
S32D000117609BE1BB6B002B02D10C237B6496E16D4BDB6A1B0A5B0003F4FF73FB63694BDB6A1B0903F00F035A1C59
S32D00011788FB6B02FB03F3FB63FB6A9A68FB6BB2FBF3F2BB6B1A607DE1BB6B002B02D10C237B6477E1BB6B1B68EB
S32D000117B0002B02D10C237B6470E1FFF7DBFC0346002B0CBF01230023DBB2002B3CD0534B00221A60514B00229E
S32D000117D85A60504B00229A604E4B0022DA604D4B00221A614B4B00225A61FB6A9A68BB6B1B6819461046FFF719
S32D00011800ADFB464B40F243421A60444B40F243425A60424B4FF488629A60404B40F24342DA603E4B40F24342DF
S32D000118281A613C4B40F243425A613B4B03F580531B6B394A43F4003302F58052136329E140F60A237B6425E1C8
S32D00011850BB6B002B02D10C237B641FE1314B5B68C3F30C02BB6B1A6018E1BB6B002B02D10C237B6412E1FFF780
S32D000118787DFC0346002B0CBF01230023DBB2002B19D0BB6B1B68B3F5805F02D30C237B6400E1224B5B68214A12
S32D000118A023F4FF5323F01F0353601E4B5A68BB6B1B68C3F30C031B4913434B60EEE040F60A237B64EAE0BB6BCA
S32D000118C8002B02D10C237B64E4E0144B9B6A5B0803F00303FB63FB6B002B03D1BB6B00221A60D7E0FB6B012B93
S32D000118F003D1BB6B01221A60D0E0FB6B102B03D1BB6B02221A60C9E005237B64C6E0BB6B002B09D10C237B64BA
S32D00011918C0E000BF00D004400070044000100B40FFF724FC0346002B0CBF01230023DBB2002B31D0BB6B1B6820
S32D00011940002B0AD1584B9B6A574A23F006039362554B554A9B6A9362A0E0BB6B1B68012B0CD1514B9B6A504A72
S32D0001196823F0060393624E4B9B6A4D4A43F0020393628FE0BB6B1B68022B0AD1484B9B6A474A23F00603936283
S32D00011990454B454A9B6A936280E005237B647DE040F60A237B6479E0BB6B002B02D10C237B6473E03C4BDB6A5F
S32D000119B83B4A43F00063D362394BDB6A03F00063002B14BF01230023DBB2002B00D0F3E7334B1B6B03F0800370
S32D000119E0002B14BF01230023DBB2002B08D02E4B1B6B2D4A43F0800313637B6B00221A60294B5B6A03F48033FC
S32D00011A08002B14BF01230023DBB2002B07D07B6B1B68002B06D17B6B01221A6002E07B6B00221A607B6B1A6821
S32D00011A30BB6B1A6032E0BB6B1C221A60BB6B043304221A60BB6B08334FF41E721A6025E00220FFF7A1FB144B34
S32D00011A581B6B03F4E003002B14BF01230023DBB2002B07D00E4B1B6B0D4A43F4E003136304237B640A4B1B6B84
S32D00011A80094A43F03203136308E040F609237B6404E000BF02E000BF00E000BF7B6C18464837BD4680BD00BF37
S32D00011AA800100B4080B590B000AF0346FB71A64BFB63A64BBB63BB6BA54A1A60FB79002B01D00123A9E1A34BE2
S32D00011AD01B78DBB203F00203002B14BF01230023DBB2002B03D09D4B1B78DBB299E19B4B1B78DBB203F003037E
S32D00011AF8002B0CBF01230023DBB2002B01D000238BE1BB6B002B03D0BB6B1B68002B01D1002382E1FB6B904ADA
S32D00011B201A60FB6B01225A60BB6B00225A60BB6B00229A60BB6B00221A61BB6B00221A73BB6B00225A73874B16
S32D00011B4803F580531B6B854A43F4003302F580521363002141F20130FFF72CFC0346002B14BF01230023DBB2E7
S32D00011B70002B01D0002354E10023BB6207F12803194641F20330FFF719FC0346002B14BF01230023DBB2002B79
S32D00011B9801D0002341E1BB6A022B08D0BB6A032B05D0BB6A052B02D0BB6A062B09D1BB6A032B02D0BB6A062BE4
S32D00011BC005D1BB6B01221A7301E0002329E100BF02233B7200237B720023FB6000233B7400237B6107F1080349
S32D00011BE8194641F20230FFF7E5FB0346002B14BF01230023DBB2002B01D000230DE103233B7200237B72002306
S32D00011C10FB6000233B7400237B6107F10803194641F20230FFF7CAFB0346002B14BF01230023DBB2002B01D0E0
S32D00011C380023F2E0BB691B0C1B04BA6B136109233B7200237B72BB6B1B69FB6000233B7400237B6107F10803C3
S32D00011C60194641F20230FFF7A9FB0346002B14BF01230023DBB2002B01D00023D1E07B6A03F44003002B1ED1D3
S32D00011C883B6A1B0A03F00F033B633B6A03F003037B637B6B9A02FB699B0D13437B63FB69DB0903F00703FB62E0
S32D00011CB07B6B5A1CFB6A02339A403B6B093B9A40BB6B9A600CE0BB6B01225A73FB691B0AC3F315037B637B6B34
S32D00011CD801339A02BB6B9A6007233B7200237B72BB6B1B69FB6000233B7400237B6107F10803194641F2023069
S32D00011D00FFF75CFB0346002B14BF01230023DBB2002B01D0002384E010233B7200237B724FF40073FB600023A5
S32D00011D283B7400237B6107F10803194641F20230FFF740FB0346002B14BF01230023DBB2002B0DD0002368E058
S32D00011D505C190020401700205417002004000020A482020000700440BB6B1B681B68012B49D137233B72002331
S32D00011D787B72BB6B1B69FB6000233B7400237B6107F10803194641F20230FFF713FB0346002B14BF0123002320
S32D00011DA0DBB2002B01D000233BE046233B7200237B720223FB6000233B7400237B6107F10803194641F202300F
S32D00011DC8FFF7F8FA0346002B14BF01230023DBB2002B01D0002320E00123BB6207F12803194641F20730FFF7A7
S32D00011DF0E5FA0346002B14BF01230023DBB2002B01D000230DE0094B1B78DBB223F00103DAB2064B1A70054B7C
S32D00011E181B78DBB203F00303DBB218464037BD4680BD00BF0400002080B489B000AF786039607B687B61364B30
S32D00011E403B613B69002B01D100235FE03B691B68022B0BD03B691B68032B07D03B691B68072B03D03B691B6826
S32D00011E68082B0BD12B4B5B6A03F00403002B14BF01230023DBB2002B00D0F3E73B68FB61FB69002B3DD0FB6961
S32D00011E90B3F5007F28BF4FF40073FB60FB6803339B08BB61BB69002B2AD01C4B1B6B03F4E003002B14BF01237A
S32D00011EB80023DBB2002B09D0164B1B6B154A43F4E00343F02003136300231BE0114B5B6A03F40063002B0CBF8C
S32D00011EE001230023DBB2002B00D0F3E70B497B691A1D7A610A6A1A60BB69013BBB61D1E7FA69FB68D31AFB61AF
S32D00011F08BEE7012318462437BD4680BC704700BF5817002000100B4080B58EB000AFB9607A601A460346FB735D
S32D00011F301346BB73414B7B63FB7B002B02D1BB7B002B01D1042375E03D4B1B78DBB203F00103002B14BF0123AD
S32D00011F580023DBB2002B01D0032367E0BB68002B01D1002362E07B6B1B7B002B02D17B685B027B60BB7B012BC5
S32D00011F8028D111233B7500237B757B68BB6101233B77BB7B3B6207F11403194641F20230FFF70CFA0346002B57
S32D00011FA80CBF01230023DBB2002B38D04FF40071B868FFF739FF0346002B14BF01230023DBB2002B2BD00023D2
S32D00011FD0BB7328E012233B7500237B757B68BB6101233B77BB7B3B6207F11403194641F20230FFF7E3F903461E
S32D00011FF8002B0CBF01230023DBB2002B0FD0BB7B5B021946B868FFF70FFF0346002B14BF01230023DBB2002B8A
S32D0001202001D00023BB73BB7B002B01D0012300E0002300BF18463837BD4680BD401700200400002080B487B044
S32D0001204800AF786039607B68FB603B687B617B69002B3DD07B69B3F5007F28BF4FF400733B617A693B69D31AB8
S32D000120707B613B6903339B083B613B69002BEAD0184B1B6B03F4E003002B14BF01230023DBB2002B0AD0134BCB
S32D000120981B6B124A43F4E00343F0100313634FF0FF3316E00D4B5B6A03F48063002B0CBF01230023DBB2002B0E
S32D000120C000D0F3E7FB681A1DFA60064A1B6813623B69013B3B61D0E7012318461C37BD4680BC704700100B40B2
S32D000120E880B58EB000AFB9607A601A460346FB731346BB735D4B7B63FB7B002B02D1BB7B002B01D10423ADE035
S32D00012110594B1B78DBB203F00103002B14BF01230023DBB2002B01D003239FE0524B1B78DBB203F00403002B90
S32D0001213814BF01230023DBB2002B01D0022391E0BB68002B01D100238CE07B6B1B7B002B02D17B685B027B60FB
S32D00012160BB7B012B28D118233B7500237B757B68BB6100233B77BB7B3B6207F11403194641F20230FFF71AF974
S32D000121880346002B0CBF01230023DBB2002B38D04FF40071B868FFF751FF0346002B14BF01230023DBB2002B82
S32D000121B02BD00023BB7328E019233B7500237B757B68BB6100233B77BB7B3B6207F11403194641F20230FFF73D
S32D000121D8F1F80346002B0CBF01230023DBB2002B0FD0BB7B5B021946B868FFF727FF0346002B14BF0123002316
S32D00012200DBB2002B01D00023BB730D233B7500237B757B6B1B69BB6100233B7700233B6207F11403194641F226
S32D000122280230FFF7C7F80346002B14BF01230023DBB2002B01D0012314E07A6A0D4B1340002B01D001230DE0D5
S32D000122507B6A03F4F853B3F5106F00D0D5E7BB7B002B01D0012300E0002300BF18463837BD4680BD40170020E9
S32D00012278040000200880D9FF80B58CB000AF03463A60FB710B46BB713A4BBB62FB79002B01D0042369E0012321
S32D000122A087F82F30364B1B78DBB203F00103002B14BF01230023DBB2002B01D0032358E0BB79032B50D801A240
S32D000122C852F823F0DD220100E5220100F522010005230100002387F82F3044E0BB6A9A683B681A60002387F836
S32D000122F02F303CE03B684FF400721A80002387F82F3034E009233B7200237B72BB6A1B69FB6000233B7400235B
S32D000123187B6107F10803194641F20230FFF74AF80346002B14BF01230023DBB2002B01D001231AE07B6A03F4AA
S32D000123404003002B0CD13B6A9B0C03F07F035A1C7B6A1B0A03F00303013B9A403B681A60002387F82F3002E0D3
S32D00012368042387F82F3097F82F3018463037BD4680BD00BF401700200400002080B483B000AF0346FB71FB79B5
S32D00012390002B01D0012302E0034B1B78DBB218460C37BD4680BC70470400002080B483B000AF7860164B03F5AC
S32D000123B880539B6B144A43F0010302F580529363124A7B689360114B05225A600F4B1B680E4A43F0010313607B
S32D000123E00C4B1B6803F08003002B0CBF01230023DBB2002B00D0F3E7064B1B68054A23F00103136000BF0C3730
S32D00012408BD4680BC704700BF007004400000044080B582B000AF786039607B68012B07D13B684FF6FF7293425C
S32D0001243002D1034800F00EF800BF0837BD4680BD6419002080B500AF4FF6FF710120FFF7E3FF80BD80B483B058
S32D0001245800AF78607B6800221A707B6818460C37BD4680BC7047000080B582B000AF78607B681B7883F00103EA
S32D00012480DBB2002B21D0134B03F580531A464FF400639362104B4FF440721A620E4B4FF440725A620D4B1B68AF
S32D000124A8DA0F13445B104FF4614219460A48FCF79BF9642000F08AF87B6801221A70012300E0002318460837F2
S32D000124D0BD4680BD0070044000D004406819002000B00E4080B582B000AF7860084611461A460346FB700B463E
S32D000124F8BB7013467B707F210E48FCF748FA08210C48FCF744FAFB7819460A48FCF73FFABB7819460748FCF749
S32D000125203AFA7B7819460548FCF735FAFF210348FCF731FA00BF0837BD4680BD00B00E4080B487B000AFF86060
S32D00012548B9607A60FB681F4AA2FB03239B09BA6813447B61FB681B4AA2FB031292094FF47A7101FB02F29B1A01
S32D00012570FB60FB68DB03154AA2FB03239B097A6813443B613B69DB0B7A6913447B613B69C3F30E033B610E4B05
S32D000125981B687A699A4209D80B4B1B687A699A4206D1094B5B683A699A4201D9012300E00023002B00D0EAE71F
S32D000125C000BF1C37BD4680BC704700BFD34D621000D0034080B584B000AF7860074B1B68FB60064B5B68BB6031
S32D000125E87B68BA68F9681846FFF7A6FF00BF1037BD4680BD00D0034080B584B000AF78600B4B1B68FB600A4B93
S32D000126105B68BB60094978680DF09AFC034618460DF098FE0346BA68F9681846FFF788FF00BF1037BD4680BDD1
S32D0001263800D0034000007A4480B584B000AFC7E900010E4B1B68FB600C4B5B68BB604FF000020B4BD7E9000115
S32D000126600DF020F802460B46104619460DF0F2FA0346BA68F9681846FFF762FF00BF1037BD4680BD00D0034025
S32D0001268800408F4080B483B000AF0B4B1B684FF47A7202FB03F37B60074B5B684FF47A7202FB03F3DB0B7A6829
S32D000126B013447B607B6818460C37BD4680BC704700D00340B0B48BB000AF224B3C1D1D460FCD0FC495E80F008A
S32D000126D884E80F0000237B627B6A072B30DC1C4BD3F8A0207B6A9B0028333B4453F8243C012101FA03F31340D8
S32D00012700002B14BF01230023DBB2002B18D0134A7B6A52F823305A1C10497B6A41F823200D4BD3F8A0207B6AEE
S32D000127289B0028333B4453F8243C012101FA03F307491340C1F8A0307B6A01337B62CBE700BF2C37BD46B0BCEA
S32D00012750704700BF5884020000A0044094190020B0B489B000AF224B3C1D1D460FCD0FC495E8030084E8030042
S32D000127780023FB61FB69052B30DC1C4BD3F8A020FB699B0020333B4453F81C3C012101FA03F31340002B14BF49
S32D000127A001230023DBB2002B18D0FB690833124A52F823200132104941F823200D4BD3F8A020FB699B0020335E
S32D000127C83B4453F81C3C012101FA03F307491340C1F8A030FB690133FB61CBE700BF2437BD46B0BC704700BFDC
S32D000127F07884020000B0044094190020B0B48DB000AF234B3C461D460FCD0FC40FCD0FC495E8070084E8070003
S32D000128180023FB62FB6A0A2B30DC1C4BD3F8A020FB6A9B0030333B4453F8303C012101FA03F31340002B14BF7C
S32D0001284001230023DBB2002B18D0FB6A0E33124A52F823200132104941F823200D4BD3F8A020FB6A9B003033A5
S32D000128683B4453F8303C012101FA03F307491340C1F8A030FB6A0133FB62CBE700BF3437BD46B0BC704700BF15
S32D00012890908402000090044094190020B0B487B000AF214B3C461D460FCD0FC42B68236000237B617B69042BF0
S32D000128B830DC1C4BD3F8A0207B699B0018333B4453F8183C012101FA03F31340002B14BF01230023DBB2002BA8
S32D000128E018D07B691933124A52F823200132104941F823200D4BD3F8A0207B699B0018333B4453F8183C0121D3
S32D0001290801FA03F307491340C1F8A0307B6901337B61CBE700BF1C37BD46B0BC704700BFBC84020000D0044090
S32D000129309419002080B483B000AF78600B46FB707B68FA781A707B6818460C37BD4680BC7047000000000000A8
